:020000040800F2
:1000000038690020750200088B540008E94D00088B
:10001000895400088F120008196D000800000000C4
:100020000000000000000000000000009B540008D9
:100030004D13000800000000995400089D5400086A
:100040008F0200088F0200088F0200088F0200084C
:100050008F0200088F0200084F1300088F0200086B
:100060008F020008551300085B1300088F02000878
:10007000ED120008F91200088F02000805130008AD
:100080008F0200088F0200088F0200088F0200080C
:10009000911200089D1200088F02000861130008E9
:1000A0008F0200088F0200088F0200088F020008EC
:1000B0008F0200088F020008B15400088F02000868
:1000C0008F0200088F0200088F0200088F020008CC
:1000D0008F020008CD5600088F020008D95600088C
:1000E0008F0200088F0200088F0200088F020008AC
:1000F0008F0200088F0200088F0200088F0200089C
:100100008F0200088F020008BD5400088F0200080B
:100110008F0200088F0200088F0200088F0200087B
:100120008F020008111300081D130008291300088E
:100130008F0200088F0200088F0200088F0200085B
:10014000A9120008B51200088F0200088D5400089B
:1001500035130008411300088F020008E556000817
:100160008F0200088F0200088F0200088F0200082B
:100170008F0200088F0200088F02000800000000B4
:100180008F0200088F02000800F002F800F062F809
:100190000AA090E8000C82448344AAF10107DA45E2
:1001A00001D100F057F8AFF2090EBAE80F0013F0D2
:1001B000010F18BFFB1A43F001031847180901008B
:1001C000380901000A444FF0000C10F8013B13F00D
:1001D000070408BF10F8014B1D1108BF10F8015BA0
:1001E000641E05D010F8016B641E01F8016BF9D193
:1001F00013F0080F1EBF10F8014BAD1C0C1B09D1EA
:100200006D1E58BF01F801CBFAD505E014F8016B5B
:1002100001F8016B6D1EF9D59142D6D370470000ED
:100220000023002400250026103A28BF78C1FBD8FF
:10023000520728BF30C148BF0B6070471FB510F090
:1002400066F99DE8030000F099FE00F069FE1FBD0D
:1002500010B510BD00F03CFF1146FFF7EFFF0FF0A7
:10026000B9F800F05AFF03B4FFF7F2FF03BC00F047
:1002700091FF00000948804709480047FEE7FEE774
:10028000FEE7FEE7FEE7FEE7FEE7FEE7FEE7FEE746
:1002900004480549054A064B70470000A154000870
:1002A00089010008384B002038690020385A0020A6
:1002B000385A002070B405880E884468D1F804C00C
:1002C0005368B54208D140884988884201BF1188E7
:1002D0008D425188884203D070BC6FF00200704795
:1002E00005FB00F1880827D094ED001ADCED000A28
:1002F00094ED010ADCED011A31EE201AD4ED020A68
:1003000070EE211A9CED020A83ED001AC3ED011A6A
:1003100094ED031ADCED031A30EE800A401E71EEF4
:10032000210A83ED020A04F11004C3ED030A03F16C
:1003300010030CF1100CD7D111F0030030D0B0F144
:10034000004F30D200282BDD211F1B1FACF104020F
:1003500010F0010F0AD091ED010AD2ED010A091D3A
:10036000121D30EE200A83ED010A1B1D400817D034
:1003700091ED010AD2ED010A401E30EE200A83ED14
:10038000010A91ED020AD2ED020A01F1080102F11F
:10039000080230EE200A83ED020A03F10803E7D1D8
:1003A00070BC00207047B4EC010A401EFCEC010A4E
:1003B00030EE200AA3EC010AF5D1F1E7018042807A
:1003C000436070472DE9F34F84B004984068009073
:1003D000486801900498B0F800E04588DFEDFE0A17
:1003E00000200290B0EE600AAE4506D10888498828
:1003F000884204BF7146864504D06FF0020006B003
:10040000BDE8F08F01985FEA010C18BFB7EE001A43
:100410003DD000BFBEEB0C0117D0B1F1004F80F012
:100420001F82002911DD021F11F0010F1CBFC2ED58
:10043000010A121D4B1006D0C2ED010AC2ED020ADC
:1004400008325B1EF8D100EB8100BCF10102A0EC88
:10045000011A19D0B2F1004F80F00882002A13DD92
:10046000031F12F0010F1CBFC3ED010A1B1D511029
:1004700008D000BFC3ED010AC3ED020A491E03F113
:100480000803F7D100EB8200BCF1010CC2D14FF0A0
:1004900000080395002D14BFB0EE602A002000F084
:1004A000BF8100BF009908FB05F001EB800B0199AB
:1004B000DBED002A01EB80000346F0EE421AC64550
:1004C00052D9AEEB0802ABEB850112F0010F17D049
:1004D00001EB850191ED000AB5EEC00AF1EE10FACC
:1004E00007DDB4EEE10AF1EE10FA09DDF0EE401A94
:1004F00006E0B1EE400AF4EEC01AF1EE10FAF5D3C0
:10050000521031D001EB850C9CED000AB5EEC00A0B
:10051000F1EE10FA05DDB4EEE10AF1EE10FA09DDB4
:1005200006E0B1EE400AF4EEC01AF1EE10FA01D284
:10053000F0EE401A01EBC50191ED000AB5EEC00ADC
:10054000F1EE10FA05DDB4EEE10AF1EE10FA09DD84
:1005500006E0B1EE400AF4EEC01AF1EE10FA01D254
:10056000F0EE401A521ECDD1F5EEC01AF1EE10FA9F
:1005700000F07381F5EEC02A0126F1EE10FA009921
:10058000D4BFB1EE620AB0EE620AB4EE610AF1EED7
:1005900010FA1CBFAEEB0802B2F1010C47D005FB0C
:1005A00008F201EB820292ED001A00BFB0EE410AA0
:1005B00005FB06F4B5EEC00A00EB8404F1EE10FA78
:1005C000CCBFF0EE400AF1EE400AF4EE610AF1EE23
:1005D00010FA28D1B5EB080C11D0BCF1004F7DD238
:1005E000BCF1000F0BDD00BF92ED000AD1ED000A57
:1005F000BCF1010CE2EC010AA1EC010AF4D12900E2
:100600000ED0B1F1004F6AD2002909DD94ED000A45
:10061000D0ED000A491EE4EC010AA0EC010AF5D174
:10062000012002900BE0761CBCF1010CBED10298B7
:10063000012804D0F5EEC02AF1EE10FA7ED09BED31
:10064000000AB5EB08009A465946064622D0B0F19A
:10065000004F74D200281DDD091F10F0010F06D0D5
:10066000F0EE400A80EEA01A81ED011A091D40103B
:1006700010D000BFD1ED010A401E80EE801A81ED3E
:10068000011A91ED021AC1EE000AC1ED020A01F150
:100690000801EFD1280026D0B0F1004F7ED200280B
:1006A00021DDAAF1040110F0010F06D0D1ED010AFD
:1006B00080EE801A81ED011A091D401013D000BF91
:1006C000D1ED010A401E80EE801A81ED011AD1EDB4
:1006D000020A80EE801A81ED021A01E0CBE0D6E03A
:1006E00001F10801ECD1DDE900124FF000095FEAE9
:1006F0000E0773D0C14504BF01EB860102EB8502F2
:1007000074D091ED000ADC465046331E35D01C46AD
:10071000B6F1004F7ED2002C2FDD0B1FABF1040C85
:1007200016F0010F0FD0F0EE400ADCED011AB0EE2A
:10073000601A00EEE11A83ED011A01E08DE0B1E0EC
:100740001B1D0CF1040C741015D000BFD3ED010A71
:100750009CED011A40EE410AC3ED010AD3ED020AF5
:100760009CED021A0CF1080C40EE410AC3ED020A9E
:100770000833641EEAD101EB86012B0036D0B3F1B9
:10078000004F72D2002B31DDA2F1040CAAF104005B
:1007900013F0010F0CD0DCED010A00E08BE090EDCE
:1007A000011A001D40EE410ACCED010A0CF1040CC7
:1007B0005C1019D0DCED010A90ED011A40EE410AFF
:1007C000CCED010ADCED020A90ED021A083040EE91
:1007D000410ACCED020A03E0000000000DE005E054
:1007E000641E0CF1080CE5D102EB830201EB8801D9
:1007F0007F1E09F101097FF47DAF009808F101081F
:10080000001D00900398401E03907FF44BAE0299A8
:10081000012900E058E004BF06B0BDE8F08F00BF3A
:10082000B5EEC00AF1EE10FA7FF4E9AD04990EFBC3
:1008300005F3002B4A684FF000010BD902EB810C45
:100840009CED000AB5EEC00AF1EE10FA02D1491C87
:100850008B42F3D88B427FF4D2AD6FF00400CEE52B
:10086000E0EC010A491EFBD1EFE538E0E0EC010ABB
:10087000521EFBD108E692ED000AD1ED000ABCF150
:10088000010CE2EC010AA1EC010AF4D1B7E694ED07
:10089000000AD0ED000A491EE4EC010AA0EC010AAE
:1008A000F5D1BDE6D1ED000A401E80EE801AA1EC24
:1008B000011AF7D1EEE6D3ED000A401E80EE801A51
:1008C000A3EC011AF7D10EE7BCEC011AD1ED000A36
:1008D0005B1E40EE410AE1EC010AF5D14DE7B0ECB8
:1008E000011AD2ED000A5B1E40EE410AE2EC010A59
:1008F000F5D17BE72DE9F04F82B04668536801934C
:10090000058847884B88002000900888874201BFEF
:10091000B2F800C06545528893421EBF6FF00200D6
:1009200002B0BDE8F08F9FED412A4FEA970EC7F362
:10093000400B00BFDDE9000202EB800A4A689846DE
:100940004FF00009B0EE420AB4465FEA0E0025D02F
:1009500092ED001ADCED001A02EB8302DCED010AD5
:1009600001EE810A92ED001A02EB8302401ED2EDE5
:10097000001A02EB830200EE810A9CED021ADCED04
:10098000030A00040CF1100C000C01EE210A92ED98
:10099000001A02EB830200EE810AD9D117F003009E
:1009A00026D0ACF10404A2EB830210F0010F08D0B2
:1009B00002EB8302D4ED010A92ED001A241D00EE31
:1009C000810A5FEA0B0013D002EB830CD4ED010A1D
:1009D0009CED001A02EBC302401E00EE810AD4ED2A
:1009E000020A92ED001A04F1080400EE810AEBD12C
:1009F00009F10100AAEC010A1FFA80F9486800EB2E
:100A00008902A8F101001FFA80F8B8F1000F99D10E
:100A1000009806EB8706184480B20090681E050413
:100A20002D0C87D102B00020BDE8F08F000000003F
:100A300070B405880E884468D1F804C05368B54284
:100A400008D140884988884201BF11888D42518869
:100A5000884203D070BC6FF00200704705FB00F1C4
:100A6000880827D094ED001ADCED000A94ED010A05
:100A7000DCED011A31EE601AD4ED020A70EE611A53
:100A80009CED020A83ED001AC3ED011A94ED031ADE
:100A9000DCED031A30EEC00A401E71EE610A83EDF0
:100AA000020A04F11004C3ED030A03F110030CF170
:100AB000100CD7D111F0030030D0B0F1004F30D27C
:100AC00000282BDD211F1B1FACF1040210F0010FC9
:100AD0000AD091ED010AD2ED010A091D121D30EE76
:100AE000600A83ED010A1B1D400817D091ED010A31
:100AF000D2ED010A401E30EE600A83ED010A91ED4D
:100B0000020AD2ED020A01F1080102F1080230EEF8
:100B1000600A83ED020A03F10803E7D170BC0020EC
:100B20007047B4EC010A401EFCEC010A30EE600A8A
:100B3000A3EC010AF5D1F1E72DE9F04F02884768EF
:100B4000B0F802804888D1F8049082B04FF0000AD3
:100B50001646824207BF098888456FF0020002B03E
:100B600018BFBDE8F08F4FEA980B02EB42000190EE
:100B7000C8F34000CDF8000009EB8A01BBF1000F7B
:100B800033D0019801EB820C01EB80043B46E64632
:100B900001EBC2054FEA0B0093ED000A401E81ED08
:100BA000000A93ED010A01EB02118CED000A93EDAE
:100BB000020A0CEB021C85ED000A93ED030A05EB1B
:100BC000021584ED000A04EB021403F11003E3D1D3
:100BD0000EEB820000EB820000EB8201ABF1010022
:100BE000504307EB0B1701EB001118F0030C21D059
:100BF0003B1FA1EB82011CF0010F06D093ED010A0F
:100C000001EB82011B1D81ED000A009880B100BF3D
:100C100093ED010A01EB820401EBC20184ED000AAD
:100C200093ED020A401E81ED000A03F10803EFD1A3
:100C300007EB8C070AF101001FFA80FA701E060408
:100C4000360C99D102B00020BDE8F08F70B5064691
:100C500000F078F9056806F10B0020F00704B442B3
:100C60009CBF002070BD2B466A68BAB11068A042D4
:100C700010D304F1080188423CBF5068586007D384
:100C80005168101941601168091B016058601460B7
:100C9000101D70BD13465268002AE7D12146284630
:100CA00000F058F90028DED170BD53EA020C00F0C4
:100CB00069802DE9F04B4FF00006002B1FBFB3FAFF
:100CC00083F503FA05F424FA05F65E4012BF1643D5
:100CD000B2FA82F502FA05F4C5F120051EBF22FA28
:100CE00005FC44EA0C04203556EA044C4FEA14444F
:100CF00018BF641C4FF000084FF00009904271EBE0
:100D0000030C39D3002919BFB1FA81F701FA07F6AC
:100D1000B0FA80F700FA07F6C7F120071EBF20FAE5
:100D200007FC46EA0C062037B6FBF4FCA7EB0507E8
:100D3000103F07F01F0BCBF120060CFA0BFB2CFA2F
:100D400006F644BFB3460026202FA4BF5E464FF0F0
:100D5000000B5BEA060C08BF4FF0010B19EB0B0907
:100D6000ABFB027C48EB0608C01B06FB02CC0BFB6E
:100D700003CC71EB0C01C1E70B46024641464846E5
:100D8000BDE8F08B13B54FF000004FF00001AFF35A
:100D90000080BDE81C407047032A40F2308010F00C
:100DA000030C00F0158011F8013BBCF1020F624406
:100DB00098BF11F801CB00F8013B38BF11F8013B97
:100DC000A2F1040298BF00F801CB38BF00F8013B44
:100DD00011F0030300F02580083AC0F0088051F8B4
:100DE000043B083A51F804CBA0E80810F5E7121DBF
:100DF0005CBF51F8043B40F8043BAFF30080D207DE
:100E000024BF11F8013B11F801CB48BF11F8012BA9
:100E100024BF00F8013B00F801CB48BF00F8012BCC
:100E2000704710B5203AC0F00B80B1E81850203A56
:100E3000A0E81850B1E81850A0E81850BFF4F5AF7A
:100E40005FEA027C24BFB1E81850A0E8185044BF04
:100E500018C918C0BDE810405FEA827C24BF51F871
:100E6000043B40F8043B08BF7047D20728BF31F865
:100E7000023B48BF11F8012B28BF20F8023B48BFB6
:100E800000F8012B70474FF000020429C0F01280D7
:100E900010F0030C00F01B80CCF1040CBCF1020F2D
:100EA00018BF00F8012BA8BF20F8022BA1EB0C0102
:100EB00000F00DB85FEAC17C24BF00F8012B00F8F8
:100EC000012B48BF00F8012B70474FF0000200B51E
:100ED000134694469646203922BFA0E80C50A0E85D
:100EE0000C50B1F12001BFF4F7AF090728BFA0E80B
:100EF0000C5048BF0CC05DF804EB890028BF40F8D7
:100F0000042B08BF704748BF20F8022B11F0804F18
:100F100018BF00F8012B70477047704770470000FA
:100F200070B5064C7C44064D7D4403E020682044A7
:100F30008047241DAC42F9D170BD0000CCFB0000FD
:100F4000F0FB000000487047DC4A00207047704703
:100F50007047704738B504460A4600206946AFF32B
:100F60000080002808BF38BD02460099204600F0E6
:100F700075F8012038BD012000F0A2B8F8B5AFF334
:100F80000080054600200C46102000BF0646A81928
:100F9000A0420DD9324669460020AFF30080070019
:100FA00008BF00F08DF80098A04218BF0546C4198C
:100FB000FFF7C8FF05600746F01D20F0070046193F
:100FC000284600F00AF8B44208BFF8BDA21B31461B
:100FD0003868BDE8F84000F041B800210160C0E980
:100FE000011070471020704770B50446051FFFF7C9
:100FF000A9FF0068002C14BF446870BD002C18BF06
:10100000AC423CBF20466468F8D301680A18AA4283
:1010100018BF456003D12A6805461144016028685D
:101020004119A1421CBF6C6070BD61686960216894
:101030000844286070BD10B500F00CF8006810BDC1
:1010400010B5044600F006F8046010BD0048704773
:10105000D44A002000487047D44A00200346406824
:101060008C46002818BF88423CBF03464068F8D32E
:1010700018681844884207D00CF1030020F00700DC
:10108000001D411A521A0146081D0A60FFF7ACBF45
:101090001FB584B000200A9C06AB04AA02A90094E4
:1010A000AFF3008018B1DDE9020108B010BD0348BC
:1010B000204000F040F800200146F6E70000207CC8
:1010C00010B500F03FF8BDE8104000F02FB87047B1
:1010D0007546FFF7BBFFAE4605006946534620F054
:1010E0000700854618B020B5FFF7D2F8BDE82040CC
:1010F0004FF000064FF000074FF000084FF0000BD4
:1011000021F00701AC46ACE8C009ACE8C009ACE886
:10111000C009ACE8C0098D46704710B50446AFF36E
:1011200000802046BDE81040FFF79DB8002801D0A0
:1011300000F030B8704710B500F04CF8BDE8104032
:10114000FFF7F4BF10B5012805D0002103A000F07F
:1011500027F8012010BD09A1F8E7000053494752C4
:10116000544D454D3A204F7574206F662068656177
:1011700070206D656D6F7279000000003A2048653F
:101180006170206D656D6F727920636F727275701A
:101190007465640001491820ABBEFEE7260002001A
:1011A00070B505460C460A2000E06D1C00F068F89A
:1011B00035B128780028F8D102E0641C00F060F80E
:1011C00014B120780028F8D1BDE870400A2000F062
:1011D00057B8000010B5022803D0410103D50DA176
:1011E00012E0002010BD010101D50FA10CE0C100EB
:1011F00001D511A108E0810001D512A104E0400051
:1012000001D513A100E0002115A0FFF7C9FF0120BF
:1012100010BD0000496E76616C6964204F70657284
:101220006174696F6E0000004469766964652042EC
:1012300079205A65726F00004F766572666C6F7721
:1012400000000000556E646572666C6F77000000E8
:10125000496E657861637420526573756C74000023
:101260005349474650453A2041726974686D657428
:10127000696320657863657074696F6E3A20000059
:1012800008B569468DF800000320ABBE08BDFEE737
:10129000014800F001BA0000E4040020014800F019
:1012A000FBB90000E4040020014800F0F5B900009B
:1012B0000C050020014800F0EFB900000C050020EB
:1012C00010B50A460849D1F8BC12D1F81412002909
:1012D00001D0012010BD0146034804F033FBBDE8F6
:1012E0001040014804F0B5BBD02F0020014800F0A9
:1012F000EDBC0000F4090020014800F0E7BC00004C
:1013000088050020014800F0E1BC0000E80500204D
:10131000014800F0DBBC0000540A0020014800F046
:10132000D5BC0000A0060020014800F0CFBC0000A2
:1013300000070020014800F0C9BC0000940900200B
:10134000014800F0C3BC0000B40A0020704701202F
:1013500000F05ABE082000F057BE102000F054BE26
:10136000202000F051BE72B6FEE790F82020012A3E
:1013700007D0022A05D0416A41F480214162012050
:101380007047006842690A43426100207047F0B527
:1013900090F820500468A468012D07D0022D05D0D4
:1013A000416A41F4802141620120F0BD04F0806572
:1013B00004F00066354301D1E5005BD5C4F3016458
:1013C000022C05D9416A41F4000141620120F0BDBF
:1013D0000125A5401D608B684FF4C0759BB1CE6898
:1013E00005EB041733434E6843EAC6030668F3511E
:1013F0004FF4C273076803EB04130E69FE50097DB6
:10140000012909D00DE00E88CB6805EB041743EAEB
:1014100046530668F351EBE70168CE5846F48076F0
:10142000CE501179D379567941EA036193791B043F
:1014300043EA062319434FF4C676036806EB041605
:1014400099511178D37841EA0361937852781B045B
:1014500043EA022211434FF4C473026803EB0413FE
:10146000D150006805EB0411425842F0010242508D
:101470000020F0BD416A41F4001141620120F0BD3D
:1014800010B590F82020012A07D0022A05D0416A21
:1014900041F480214162012010BD3C4800F50070FC
:1014A000026842F001020260026822F47C5202608B
:1014B00002684B6A42EA032202600A7D02F01F03BF
:1014C00001229A40C3699343C361A0F50070CB69C0
:1014D000B3B9D0F80C329343C0F80C328C894B6806
:1014E00064F31F434C6900EBC404C4F840320C8918
:1014F0000B6864F31F434C6900EBC404C4F8443226
:10150000CB69012B16D1D0F80C321343C0F80C3242
:101510000C884B6864F31F434C6900EBC404C4F8A7
:1015200040320C89CB6864F31F434C6900EBC40460
:10153000C4F844328B697BB1D0F804321343C0F84D
:1015400004320B6973B1D0F814321343C0F814326B
:10155000096A01290CD010E0D0F804329343C0F896
:101560000432EEE7D0F814329343C0F81432EFE7B8
:10157000D0F81C121143C0F81C12D0F8001221F050
:101580000101C0F80012002010BD000000640040FE
:10159000704730B590F82040012C07D0022C05D0C0
:1015A000416A41F480214162012030BD21B10468CB
:1015B0002469A4075FD003E00468E468A40754D05A
:1015C0004FF4D874056804EB01142D5905F0040597
:1015D0009560F5B305682D59ED08556005682C59DF
:1015E00004F00204D4604FF4DA74056804EB0114CB
:1015F0002D5905F00F05156105682D59C5F307250F
:10160000956105682C59240C54614FF4DC72046810
:1016100002EB0112A4581C700468A458240A5C70E0
:101620000468A458240C9C700468A258120EDA7046
:101630004FF4DE72046802EB0112A4581C710468B6
:10164000A458240A5C710468A458240C9C71046892
:1016500000E016E0A258120EDA71B9B10068016913
:1016600041F020010161002030BD416A41F40011C8
:101670004162012030BD416A41F400114162012004
:1016800030BD05682D596D0D1560A7E70068C1686C
:1016900041F02001C160E6E72DE9F05F0546002436
:1016A00028684669D0F804908768D0F80CA0D0F874
:1016B00010B0D0F81880F10748D0F90714D00121F4
:1016C0008160B80703D5284600F0A0FA0CE078073F
:1016D00002D54FF4006407E0380702D54FF4805478
:1016E00002E0284600F091FAF80516D529684FF473
:1016F00080708860B80503D5284600F089FA0CE0B0
:10170000780502D544F4005407E0380502D544F4C6
:10171000804402E0284600F07AFAF80316D52968DA
:101720004FF480308860B80303D5284600F072FA81
:101730000CE0780302D544F4004407E0380302D5F6
:1017400044F4803402E0284600F063FA300707D5FD
:101750005FEACA6004D544F4007429681020C860A8
:1017600070074FF0080707D55FEA0A7004D52868AC
:10177000C760284600F0C8F9B00706D52868C068D9
:10178000800702D0284600F0C1F9700607D55FEA4D
:10179000CB6004D544F48064296810200861B00649
:1017A00007D55FEA0B7004D528680761284600F06A
:1017B000D5F9F00606D528680069800702D02846CA
:1017C00000F0CEF9B00308D55FEAC96005D52968F5
:1017D00010204860284600F0EBF9F00307D55FEAD7
:1017E000097004D528684760284600F014FA3004D0
:1017F00046D55FEA497040D5F00504D55FEAC87068
:1018000001D044F00104B00504D55FEA887001D529
:1018100044F00204700504D55FEA487001D544F035
:101820000404300529D518F0700F26D008F0700098
:10183000402815D006DC102809D020280AD03028EE
:1018400016D10AE050280ED0602811D10EE044F0E5
:1018500008040DE044F010040AE044F0200407E01E
:1018600044F0400404E044F0800401E044F4807457
:101870002868816921F0700181612968042048602D
:10188000002C05D0686A204368622846FFF780FE76
:10189000BDE8F09F70B50446002C03D094F82000FA
:1018A00010B104E0012070BD204600F09DF82068D2
:1018B000016841F00101016000F0AAFC054605261F
:1018C0000CE000F0A5FC401B0A2807D9606A40F430
:1018D0000030606284F82060012070BD206840689C
:1018E000C007EED02068016821F00201016000F01D
:1018F0008FFC05460CE000F08BFC401B0A2807D942
:10190000606A40F40030606284F82060012070BD9D
:10191000206840688007EED4207E01283FD02068F0
:10192000016821F080010160607E01283DD02068BF
:10193000016821F040010160A07E01283BD02068B1
:10194000016821F020010160E07E012839D0206883
:10195000016841F010010160207F012837D0206824
:10196000016821F008010160607F012835D02068FE
:10197000016821F004010160D4E902010843D4E9BF
:101980000412114308436168491E08432168C86175
:1019900000206062012084F82000002070BD2068D3
:1019A000016841F080010160BEE72068016841F0F4
:1019B00040010160C0E72068016841F0200101603A
:1019C000C2E72068016821F010010160C4E72068C7
:1019D000016841F008010160C6E72068016841F034
:1019E00004010160C8E700002DE9F04186B004461B
:1019F000142101A8FFF769FA3E4B3F4ADFF8F08057
:101A0000186821683C4C03260227401C1032002530
:101A10004FF0090C41452FD11860012807D11068FB
:101A200040F000701060106800F0007000902068B6
:101A300040F008002060206800F008000090019647
:101A4000029703950496CDF814C001A92B4800F025
:101A5000E7FA00221146142000F084FF142000F061
:101A600073FF00221146152000F07CFF152000F0C6
:101A70006BFF06B0BDE8F081DFF884804145F8D106
:101A8000116841F080611160116801F0806100917E
:101A90001860012807D1106840F0007010601068CD
:101AA00000F000700090206840F002002060206884
:101AB00000F00200009060200190029703950496C8
:101AC000CDF814C001A90F4800F0AAFA002211466F
:101AD000402000F047FF402000F036FF0022114672
:101AE000412000F03FFF412000F02EFFC1E7000041
:101AF000006400400400002030380240000C024026
:101B000000680040000402407047000010B5104A11
:101B1000016891420BD10F4B0021A3F12004221D3B
:101B2000FFF737FD201DA16ABDE8104008470A4AAB
:101B300091420CD1074B00212C33A3F12004221D2C
:101B4000FFF727FD201DA16ABDE81040084710BD22
:101B5000006400403C0F0020006800407047000017
:101B600010B5104A016891420BD10F4B0121A3F12E
:101B70002004221DFFF70DFD201DA16ABDE81040C5
:101B800008470A4A91420CD1074B01212C33A3F19B
:101B90002004221DFFF7FDFC201DA16ABDE81040B6
:101BA000084710BD006400403C0F00200068004062
:101BB000704770B5044694F82000012805D0606A8B
:101BC00040F400206062012070BD022084F82000F3
:101BD0002068016821F00101016000F019FB054651
:101BE0000DE000F015FB401B0A2808D9606A40F49C
:101BF00000306062052084F82000012070BD20685C
:101C00004068C007EDD1606270BD70477047704793
:101C100070477047704770472DE9F0410446A76D43
:101C200000F0F6FA054694F835000026022806D0A2
:101C30008020606584F834600120BDE8F081206870
:101C4000016821F0160101602068416921F08001DE
:101C50004161206C08B9A06C20B12068016821F0B6
:101C6000080101602068016821F0010101600BE0BA
:101C700000F0CEFA401B052806D92020343420621B
:101C8000032060702670D8E720680068C007EFD195
:101C900034343F2094F828108840B86001206070E8
:101CA00026700020C9E790F83510022903D0802162
:101CB000416501207047052180F8351000680168F2
:101CC00021F0010101600020704700002DE9F84378
:101CD00004464FF00009CDF800906F484FF41651BC
:101CE0000068B0FBF1F7A56D2E6894F85C0008223F
:101CF00002FA00F1314210D02068016849070CD582
:101D0000016821F00401016094F85C0002FA00F11E
:101D1000A960606D40F00100606594F85C104FF0C0
:101D2000010808FA01F0304208D021684969090623
:101D300004D5A860606D40F00200606594F85C1006
:101D400004208840304208D021680968890704D5FA
:101D5000A860606D40F00400606594F85C1010208D
:101D60008840304220D02168096809071CD5A86046
:101D70002068016849030CD50068000304D4216C75
:101D800091B1204688470FE0A16C69B12046884791
:101D90000AE00168C90503D4016821F00801016067
:101DA000216C09B12046884794F85C1020208840B7
:101DB00030424CD021680968C90648D5A86094F81B
:101DC000350005280BD020680168490330D500682C
:101DD000000328D4616C51B32046884737E020685F
:101DE000016821F0160101602068416921F080013D
:101DF0004161206C08B9A06C20B12068016821F015
:101E00000801016094F85C103F208840A86084F8C5
:101E1000358084F83490216D00293BD001B02046F4
:101E2000BDE8F0430847E16B09B1204688470EE062
:101E30000168C90507D4016821F01001016084F828
:101E4000358084F83490E16B09B120468847606D95
:101E500000281FD0606DC00714D0052084F835001D
:101E60002068016821F0010101600098401C009089
:101E7000B84203D820680068C007F6D184F83580DE
:101E800084F83490E16C002904D001B02046BDE80C
:101E9000F0430847BDE8F883140000202DE9F04125
:101EA000044600F0B5F905465CB1022084F835001F
:101EB000002684F834602068016821F00101016087
:101EC0000DE00120BDE8F08100F0A2F9401B0528DB
:101ED00005D920206065032084F83500F2E72068EA
:101EE0000068C007F0D121680A6820480240D4E9A0
:101EF00001031843D4E903352B431843636918439E
:101F0000A3691843E3691843236A18431043626ABC
:101F1000042A03D1D4E90B231A4310430860206834
:101F2000406920F00700656A294605430127042916
:101F30000DD1A06A0543E06A48B120460AF0ABFF24
:101F400028B14020606584F835700120BAE7206828
:101F5000456120460AF0DCFF94F85C203F21914067
:101F60008160666584F835700020ABE73F8010F033
:101F70002DE9F04104460025A66D94F834000128AF
:101F80000DD0012084F8340094F835700020012F22
:101F900007D084F8340002252846BDE8F0810220ED
:101FA000FBE7022784F83570606520460AF05EFF83
:101FB00094F85C103F208840B0602068016841F0D0
:101FC00016010160206C20B12068016841F0080111
:101FD00001602068016841F001010160DCE7000058
:101FE00070B5044600F014F90546601C02D00448A0
:101FF0000078044400F00CF9401BA042FAD370BDF5
:10200000080000207047000010B504490A68024229
:1020100002D00860FFF7F6FF10BD0000143C01403D
:102020002DE9F84F0022DFF89C914FF0010809F1EB
:10203000040A03274FF00F0C0AF1040B08FA02F50B
:102040000B682B40AB426ED10C7904F00304012CD9
:1020500001D0022C15D18668540007FA04FE26EA46
:102060000E06D1F80CE00EFA04FE4EEA060EC0F899
:1020700008E04468AC430D79C5F30015954025434D
:1020800045600C79E443A40708D0C568540007FAFA
:1020900004F6B5438E68A6402E43C6600C7904F062
:1020A0000304022C11D1D40800EB8406356A5407CE
:1020B000E40E0CFA04FE25EA0E05D1F810E00EFA43
:1020C00004FE4EEA050EC6F820E00568540007FA43
:1020D00004F6B5430E7906F00306A6402E430660CB
:1020E0004C6814F4403F67D0374C256845F4804570
:1020F0002560246804F480440094344C22F00305E5
:102100002E19D6F8085894074FEA147E0CFA0EF4EC
:10211000A5432F4CA04201D1002424E02D4CA04225
:1021200002D101241FE047E02B4CA04201D1022440
:1021300019E02A4CA04201D1032414E0284CA0420B
:1021400001D104240FE0274CA04201D105240AE06C
:10215000254CA04201D1062405E0244CA04201D127
:10216000072400E0082404FA0EF42C43C6F80848BB
:10217000D9F800409C434D68ED0300D51C43C9F8D5
:102180000040DAF800409C434D68AD0300D51C4385
:10219000CAF80040DBF800409C434D68ED0200D5D2
:1021A0001C43CBF80040074D0C352C689C434E680F
:1021B000B60200D51C432C60521C102AFFF43EAF1F
:1021C000BDE8F88F003C0140443802400030014037
:1021D000000002400004024000080240000C0240DF
:1021E000001002400014024000180240001C02408F
:1021F000426921EA02030A4043EA024181617047D1
:10220000002A01D081617047090481617047000094
:1022100001488068704700000800002070B504463F
:10222000002C04D094F83D00002510B106E00120F8
:1022300070BD84F83C50204600F0A4FA242084F8B5
:102240003D002068016821F00101016020680168FB
:1022500041F4004101602068016821F400410160FF
:1022600001F0C6F84F4B6168994203D84E49884245
:1022700003D304E04D49884201D2012070BD4C498E
:10228000B0FBF1F12268566826F03F060E43566017
:1022900062689A4201D8491C07E04FF49672514394
:1022A0004FF47A72B1FBF2F1491C2268166A26F0EB
:1022B0003F06314311626168994210D84900401EBF
:1022C000B0FBF1F2521CC2F30B02042A01D204202B
:1022D00022E0B0FBF1F0401CC0F30B001CE0A26850
:1022E000F2B301EBC10303EB0116431EB3FBF6F39C
:1022F0005B1C43F480431B0549D092B301EBC10240
:1023000002EB0111401EB0FBF1F0401CC0F30B00CA
:1023100040F4804040F400402168CA694CF6FF73E5
:102320009A431043C861D4E907100143206802684A
:1023300022F0C00211430160D4E903010143206887
:10234000826848F2FF339A4311438160D4E9051053
:1023500001432068C26822F0FF021143C16001E01E
:102360000EE016E02068016841F00101016025647B
:10237000202084F83D00256384F83E50002070BD85
:1023800001EB4106431EB3FBF6F35B1CB3E70120F0
:10239000C2E701EB4101401EB0FBF1F0401CC0F36D
:1023A0000B00B7E7A086010080841E0000093D00F5
:1023B00040420F002DE9FF4F83B00446DDE911983C
:1023C0008A469346109FFFF723FF054694F83D0089
:1023D000202803D0022007B0BDE8F08F1923012286
:1023E0009449204600950AF0C2FE08B10220F2E7A7
:1023F00094F83C00012807D0012084F83C002068B4
:102400000168C90702D005E00220E4E7016841F055
:10241000010101602068016821F40061016022204F
:1024200084F83D00402084F83E0000262664676260
:10243000A4F82A90608D20857F48E062CDE9008570
:102440005A4651462046069B0AF078FD08B1012005
:10245000C1E7208D48B1012810D002281CD0206887
:10246000416980690290754FD8E0206841698169AF
:102470000291016841F400710160F4E7206801688D
:1024800021F48061016020684169816902910168DD
:1024900041F400710160E6E72068016821F4806181
:1024A00001602068016841F40061016020684169B1
:1024B00080690290D7E703287ED801280BD0022834
:1024C0001FD0434600223946204600950AF04FFEB1
:1024D000F0B301207FE72A46414620460AF0D2FEAB
:1024E00008B1012077E720680069616A0870606AB6
:1024F000401C6062208D401E2085608D401E6085DE
:102500008CE0434600223946204600950AF02FFE13
:1025100008B101205FE72068016841F400710160A3
:1025200020680069616A0870606A401C6062218DE1
:10253000491E2185618D491E6185216809690170E7
:10254000606A401C6062208D401E2085608D00E026
:1025500002E0401E608561E02068016821F480612E
:10256000016020680069616A0870606A401C6062EE
:10257000208D401E2085608D401E608543460022D0
:102580003946204600950AF0F2FD08B1012022E705
:102590002068016841F40071016020680069616A87
:1025A0000870606A401C6062218D491E2185618D22
:1025B000491E6185216800E00BE009690170606ACD
:1025C000401C6062208D401E2085608D401E60850D
:1025D00024E02A46414620460AF054FE08B1012074
:1025E000F9E620680069616A0870606A401C6062F0
:1025F000218D491E2185618D491E618521684A69A9
:10260000D24352070AD409690170606A401C6062B3
:10261000208D401E2085608D401E6085208D002805
:102620007FF449AF20203C346070A67026700020F3
:10263000D1E60000020010000000FFFF04000100CE
:102640002DE9FF4F83B00446DDE911988A46934691
:10265000109DFFF7DDFD064694F83D00202803D0CD
:10266000022007B0BDE8F08F19230122434920461C
:1026700000960AF07CFD08B10220F2E794F83C00D5
:10268000012807D0012084F83C0020680168C907B0
:1026900002D005E00220E4E7016841F00101016099
:1026A0002068016821F400610160212084F83D0068
:1026B000402084F83E00002727646562A4F82A9031
:1026C000608D20852E48E062CDE900865A4651464D
:1026D0002046069B0AF0D2FC80B30120C1E73246B7
:1026E000414620460AF0A7FD48B1206C042804D1D9
:1026F0002068016841F4007101600120B1E7606A5F
:10270000216800780861656A6D1C6562208D401E35
:1027100080B22085618D491E618523685969C9434E
:1027200049070BD450B128781861606A401C606278
:10273000208D401E2085608D401E6085208D0028E4
:10274000CDD13246414620460AF04EFD48B1206CBC
:10275000042804D12068016841F40071016001205F
:102760007FE71F3454F81F0C016841F400710160C9
:102770002020A077E7776777002072E7020010003B
:102780000000FFFF2DE9F04387B00546142102A8A1
:10279000FEF79BFB3849286888426AD100263748F3
:1027A000016841F004010160016801F00401019138
:1027B000016841F001010160006800F00100019032
:1027C0004FF4007002904FF01208CDF80C804FF0DB
:1027D0000109CDF81090032405940427069702A957
:1027E0002748FFF71DFCB8010290CDF80C80CDF80A
:1027F00010900594069702A92248FFF711FC1F4884
:102800001030016841F400010160006800F400002C
:1028100001901E4C1C4820604FF0C068C4F8048032
:10282000A660E660071527616661A661E66126621B
:1028300066622046FFF732FB08B1FEF794FDAC63F9
:10284000A5631148114C303060342060C4F8048016
:102850004020A060E66027616661A661E6612662AD
:1028600066622046FFF71AFB08B1FEF77CFD6C6339
:10287000A56307B0BDE8F083005C0040303802403B
:10288000000802400000024040600240880500202D
:102890000248816802781144816070470800002076
:1028A00010B50B48016841F400710160016841F402
:1028B00080610160016841F480710160032000F0D3
:1028C00071F80F2000F006F800F026F8002010BD87
:1028D000003C024070B504460D4D4FF47A712878E3
:1028E000B1FBF0F00B490968B1FBF0F001F083FA9D
:1028F00008B1012070BD102C07D200222146501EC5
:1029000000F030F86C60002070BD012070BD000048
:10291000080000201400002008B50A48016841F4AE
:1029200080410160006800F4804000900548001F6D
:10293000016841F080510160006800F08050009013
:1029400008BD000044380240002809DB00F01F02E7
:10295000012191404009800000F1E020C0F8001101
:1029600070470000F0B40D460D4B1B68C3F3022303
:10297000C3F10704042C00D90424191D072901D22E
:10298000002300E0DB1E012606FA04F1491E29405F
:1029900099409E40761E16403143F0BC0BF0F2B9D0
:1029A0000CED00E000F00701054A10684FF6FF0348
:1029B000184040EA012003490843106070470000B6
:1029C0000CED00E00000FA0570470068416200204D
:1029D000704770B50368586A002907D09C6A00EBFD
:1029E000144400204FF48275491E0AE040EA024078
:1029F00098620DE005EB80069E5904EB1644401CDE
:102A0000C0B28842F6D305EB810144EA0240585037
:102A1000002070BDD0F8040403F078B9C1EBC10206
:102A200000EB8202D0F80404926C03F0DAB8C1EB38
:102A3000C10200EB8202D0F80404D2F8082203F0AD
:102A40002EB9D0F8040403F063B970B504460B0640
:102A500001F00F00C0EBC00104EB81014FF0010257
:102A60004FF0000502D53C314A7002E001F5FE71DD
:102A70004D70087094F8BC03012808D084F8BC237A
:102A8000206803F0A1FC84F8BC53002070BD022034
:102A900070BD70B5044601F00F006268904201D924
:102AA000012070BD0B0601F00F01C1EBC10104EB69
:102AB00081014FF001024FF0000502D53C314A7010
:102AC00002E001F5FE714D708D70087094F8BC0342
:102AD000012808D084F8BC23206803F067FE84F83E
:102AE000BC53002070BD022070BD01F00F01C1EB8E
:102AF000C10100EB8100D0F8140270472DE9F041CC
:102B000004460F0601F00F00C0EBC00104EB810189
:102B10004FF001064FF0000502D53C314E7002E047
:102B200001F5FE714D7008708A60CB704A7802B171
:102B3000C880022B00D10D7194F8BC03012809D084
:102B400084F8BC63206803F0AFFB284684F8BC53CC
:102B5000BDE8F0810220FBE770B50D4605F00F04DB
:102B6000C4EBC40100EB810101F5FE71CA604B6149
:102B700000238B614B700C700369012B00D10A613B
:102B80002A0705D0027C006803F068FE002070BDB3
:102B9000027C006803F056FDF8E770B504460D4668
:102BA000616805F00F00884201D9012070BD290637
:102BB0004FF000064FF0010206D5C0EBC00104EB58
:102BC00081013C314A7006E0C5EBC50104EB81018F
:102BD00001F5FE714E708A70087094F8BC030128EC
:102BE00007D084F8BC23206803F00CFE280702D02D
:102BF00007E0022070BD217C04F57172206803F0AB
:102C0000ABFD84F8BC63002070BD70B50D4605F0C7
:102C10000F04C4EBC40100EB81013C31CA604B617D
:102C200000238B6101234B700C700369012B00D1D1
:102C30000A612A0705D0027C006803F00FFE00201D
:102C400070BD027C006803F0FDFCF8E72DE9F84F49
:102C500004462568284603F03BFF00287ED1206803
:102C600003F062FF002879D0206803F05DFF800741
:102C700004D52068416901F002014161206803F038
:102C800053FFC10604F57170009035D52068816945
:102C900021F0100181612F6A07F00F00C0EBC00026
:102CA00004EB800606F5FE76C7F34340022802D007
:102CB000062812D01BE047F6F070074217D0C7F382
:102CC0000A1217462846F16803F032FFF0683844CC
:102CD000F060B0693844B06109E0082228460099E4
:102CE00003F026FFB069C7F30A110844B0612068F9
:102CF000816941F010018161206803F015FF000334
:102D00004FF001084FF008094FF0100A3ED5002699
:102D1000206803F0E8FE834635E05FEACB702FD0F1
:102D2000F1B2206803F0F8FE0746F80707D005EB7C
:102D30004610C0F8088B314620460AF09FFB380742
:102D400007D505EB4610C0F8089B314620460AF02F
:102D500071FBF80605D505EB461000E06AE1C0F806
:102D600008ABB80604D505EB46112020C1F8080BC6
:102D7000B80405D505EB46114FF40050C1F8080B17
:102D8000761C4FEA5B0BBBF1000FC6D1206803F045
:102D9000CBFE400359D5206803F09EFE83460026F3
:102DA00050E05FEACB704AD0F1B2206803F0A2FE97
:102DB0000746F80723D006F00F0108FA01F0D5F80E
:102DC00034188143C5F8341805EB4610C0F808895B
:102DD000206901280FD1C6EBC60004EB8000D0E9C2
:102DE00011211144816436B9206D20B92068012178
:102DF000009A03F0B1FCF1B22046FFF70FFE38074E
:102E000003D505EB4610C0F80899F80603D505EB85
:102E10004610C0F808A9780604D505EB46114020F5
:102E2000C1F80809B80704D505EB46110220C1F81E
:102E30000809380603D5314620460AF0ADFA761C5B
:102E40004FEA5B0BBBF1000FABD1206803F06CFEC7
:102E5000002811DAD5F8040820F00100C5F80408AC
:102E600094F8F403012829D0204600F0B8F920682E
:102E7000416901F000414161206803F055FE000501
:102E80000BD5D5F80808C00702D0204600F0ECF9B1
:102E90002068416901F400614161206803F044FE4B
:102EA000C00466D5D5F8040820F00100C5F8040870
:102EB0001021206803F0E6FD002125E0002084F8C1
:102EC000F40300212046FFF77FFDD0E705EB41101A
:102ED00000F510604FF67F328260036823F4001320
:102EE0000360036843F000630360C0F80822D0F871
:102EF000002222F40012C0F80022D0F8002242F092
:102F00000062C0F80022491C60688842DED8D5F80B
:102F10001C0840F00110C5F81C08206B60B1D5F802
:102F2000840840F00B00C5F88408D5F8440840F048
:102F30000B00C5F844080CE0D5F8140842F22B0148
:102F40000843C5F81408D5F8100840F00B00C5F880
:102F50001008D5F8000820F4FE60C5F80008217CB0
:102F60002068009A03F0F8FB2068416901F4805161
:102F70004161206803F0D8FD800415D5206803F076
:102F8000D5F9206803F094FDE06000F02BFA0146CB
:102F9000227B206803F032FE204600F009F9206809
:102FA000416901F400514161206803F0BDFD000753
:102FB00007D5204600F017F92068416901F00801A3
:102FC0004161206803F0B0FDC00208D50021204611
:102FD00000F032F82068416901F4801141612068F5
:102FE00003F0A2FD800208D50021204600F028F859
:102FF0002068416901F400114161206803F094FDEB
:10300000400007D52046FFF705FD2068416901F023
:1030100080414161206803F087FD40070AD52068A0
:103020004568680702D52046FFF70BFD2068416818
:1030300029434160BDE8F88FD0F8040402F0BABE1D
:10304000D0F8040402F0C7BE2DE9F0418AB004466E
:10305000002C05D0266894F8BD03002520B108E0B7
:1030600001200AB0BDE8F08184F8BC53204600F08E
:103070005DF8032084F8BD03F06BC00500D4256122
:10308000206803F0D9FA04F1100128228846684626
:10309000FDF7C7FE94E80F0003F056F9022718B1B8
:1030A00084F8BD730120DCE70021206803F05FFD98
:1030B000002101260DE0C1EBC10004EB80003C3093
:1030C00046700170C180C5708560C5604561491C4E
:1030D000C9B260688842EED800210DE0C1EBC100A2
:1030E00004EB800000F5FE7045700170C5708560CE
:1030F000C5604561491CC9B260688842EED8282283
:1031000041466846FDF78DFE94E80F0003F0DCF9B8
:1031100018B184F8BD730120A3E784F8385084F80F
:10312000BD63206803F0C2F900209AE710B586B0AD
:103130000446142101A8FDF7C8FE2068B0F1A04F95
:103140002FD100211848026842F001020260006895
:1031500000F0010000904FF4C05001900220029056
:103160000391032004900A20059001A90F48FEF75F
:1031700057FF0D48001D016841F0800101600A48B9
:103180001430016841F480410160006800F480401F
:103190000090002211464320FFF7E4FB4320FFF795
:1031A000D3FB06B010BD00003038024000000240E2
:1031B00070B504460125E06800280ED0022801D031
:1031C000FEF7D1F82946D4F8040402F073FED4F8CF
:1031D0000404BDE8704002F024BE0025F2E7D0F8F8
:1031E000040402F04CBED0F8040402F052BE10B544
:1031F000044694F8BC0301280BD0012084F8BC03DA
:1032000084F83810206803F0E2FC002084F8BC0346
:1032100010BD022010BDD0F8042400F571711046D5
:1032200002F054BE10B50446206894F8BC1301297E
:1032300006D0012184F8BC13A16A012902D008E05C
:10324000022010BDA169012903D0816B41F48031B6
:103250008163206803F0FCFB206803F019F900206B
:1032600084F8BC0310BD000010B50446D4F8040473
:1032700002F06EFE2068D0F8001E41F00101C0F897
:10328000001E206A002804D00248016841F00601AF
:10329000016010BD10ED00E02DE9F04704460D4639
:1032A000002C13D0DFF82891D9F80000EFB200F01D
:1032B0000700A8420CD289F80070D9F8000000F08D
:1032C0000700A84204D00120BDE8F0870120FBE7F9
:1032D0002068404E810712D5400703D5306840F47E
:1032E000E05030602078000703D5306840F460403B
:1032F00030603068A16820F0F0000843306020782A
:10330000C00731D0334960680839012808D0022845
:103310000BD0032809D0096889070BD40120D3E713
:103320000968890306D40120CEE70968890101D420
:103330000120C9E7316821F0030101433160FEF744
:1033400067FF804641F2883A07E0FEF761FFA0EB95
:103350000800504501D90320B6E73068616800F0E5
:103360000C00B0EB810FF0D1D9F8000000F007009D
:10337000A84209D989F80070D9F8000000F00700C8
:10338000A84201D001209FE72078400705D530688A
:10339000E16820F4E050084330602078000706D54B
:1033A0003068216920F4604040EAC100306000F0DC
:1033B0003FF83168084AC1F30311515CC84007491E
:1033C000086007480068FFF785FA00207CE70000E6
:1033D000003C024008380240960701081400002013
:1033E0000C00002001480068704700001400002015
:1033F00000B5FFF7F7FF04490968044AC1F38221C9
:10340000515CC84000BD000008380240A607010812
:1034100000B5FFF7E7FF04490968044AC1F34231E8
:10342000515CC84000BD000008380240A6070108F2
:1034300010B51748006810F00C01164816D0164B4E
:10344000042912D0082911D1114C241F216801F040
:103450003F02216849020AD52068C0F38810A0FB0A
:1034600003010023FDF721FC09E0184610BD216887
:103470000023C1F38811A1FB0001FDF716FC2168B0
:10348000C1F30141491C4900B0FBF1F010BD00003F
:10349000083802400024F400001BB7002DE9F84F63
:1034A0000446002C13D02078DFF8A083C007A8F1D1
:1034B000040556D008F104000168C1F38101012917
:1034C0000CD00068C0F38100022803D00DE0012079
:1034D000BDE8F88FD8F80000400206D528688003C0
:1034E0003FD5606870BB0120F2E76068B0F5803FAF
:1034F00010D0B0F5A02F12D0286820F480302860BA
:10350000286820F4802028606068E0B1FEF780FE23
:10351000064614E0286840F480302860F4E7286804
:1035200040F480202860286840F480302860EBE771
:10353000FEF76EFE801B642801D90320C8E72868C7
:103540008003F5D50DE0FEF763FE064606E0FEF7C4
:103550005FFE801B642801D90320B9E72868800337
:10356000F5D42078BA4F80074FF0000948D5B74806
:10357000001D016811F00C0F08D00068C0F3810035
:10358000022813D1D8F8000040020FD42868800721
:1035900004D5E068012801D0012099E72868216955
:1035A00020F0F80040EAC100286029E0E068B8B1E6
:1035B00001203860FEF72CFE064606E0FEF728FEE6
:1035C000801B022801D9032082E728688007F5D5EF
:1035D0002868216920F0F80040EAC10028600FE067
:1035E000C7F80090FEF714FE064606E0FEF710FE50
:1035F000801B022801D903206AE728688007F5D4D8
:103600002078000729D5DFF844A2924861690AF1C1
:10361000700A89B101210160FEF7FAFD064606E055
:10362000FEF7F6FD801B022801D9032050E7DAF8E7
:1036300000008007F4D510E0C0F80090FEF7E8FD28
:10364000064606E0FEF7E4FD801B022801D90320B0
:103650003EE7DAF800008007F4D42078400778D5F8
:103660004FF0000A79483C300068C0000BD477481E
:103670003C30016841F080510160006800F08050EA
:1036800000904FF0010ADFF8D0B1DBF80000C00570
:1036900014D4DBF8000040F48070CBF80000FEF793
:1036A000B7FD064606E0FEF7B3FD801B022801D9F0
:1036B00003200DE7DBF80000C005F4D5634EA068D9
:1036C0006C3601280FD0052812D0306820F0010098
:1036D0003060306820F004003060A068F8B1FEF778
:1036E00097FD834617E0306840F001003060F4E752
:1036F000306840F004003060306840F00100306015
:10370000EBE7FEF785FDA0EB0B0141F2883081422B
:1037100001D90320DCE630688007F2D510E0FEF71F
:1037200077FD834609E0FEF773FDA0EB0B0141F244
:103730008830814201D90320CAE630688007F2D47C
:10374000BAF1010F05D141483C30016821F08051A8
:103750000160A069C0B33D49091D09684FF0FF36FB
:10376000C1F38101022946D0022805D0C7F8609034
:10377000FEF74EFD04463AE0C7F86090FEF748FDBC
:10378000814607E0FEF744FDA0EB0900022801D9BD
:1037900003209DE628688001F4D4D4E9070108439A
:1037A000616AA26A890106EB520241EA02410843BA
:1037B00094F82C1040EA0160C8F800000120386637
:1037C000FEF726FD044607E03DE0FEF721FD001B65
:1037D000022801D903207BE628688001F5D532E074
:1037E000FEF716FD001B022801D9032070E62868A9
:1037F0008001F5D427E0012823D0D8F80000E26941
:1038000000F4800191421AD1226A00F03F019142F6
:1038100015D147F6C071626A0140B1EB821F0ED12B
:10382000A26A00F4403106EB5202B1EB024F06D11E
:1038300094F82C1000F07060B0EB016F03D0012001
:1038400046E6012044E6002042E60000043802403B
:1038500000004742800E474200700040704770B53C
:103860000446002C09D0606A002540B125616561DD
:10387000A56294F8510040B10CE0012070BD606871
:10388000B0F5827FF4D0E561F2E784F8505020462D
:1038900000F044F8022084F851002068016821F00B
:1038A00040010160A088218900F4827001F4044184
:1038B0000843A18901F400610843217C01F0020161
:1038C0000843217D01F001010843218B01F40071BF
:1038D0000843217F01F03801084394F8201001F0DB
:1038E00080010843218D01F40051084321680860DC
:1038F000A069042101EA104094F8241001F010019D
:103900000843216848602068C16921F40061C161F1
:103910006565012084F85100002070BD2DE9F04755
:1039200086B00546142101A8FDF7CFFA3F49286863
:10393000884278D100263E48016841F480510160F8
:10394000006800F48050009039481438016841F054
:1039500002010160016801F002010091016841F07B
:1039600001010160006800F0010000901820019042
:103970004FF00208CDF808804FF00109CDF80C9007
:10398000032704970524059401A92A48FEF748FB5C
:1039900080200190CDF80880CDF80C900497059414
:1039A00001A92548FEF73CFB254C244820604FF038
:1039B000C068C4F80480A660E6604FF48069C4F86B
:1039C00010906661A661E661380420624FF0040A37
:1039D000C4F824A0A762E66226632046FEF75EFADA
:1039E00008B1FDF7C0FCEC64A5631448144C183012
:1039F00060342060C4F804804020A060E660C4F811
:103A000010906661A661E661C0022062C4F824A03D
:103A1000A762E66226632046FEF740FA08B1FDF78A
:103A2000A2FCAC64A56306B0BDE8F087003001409D
:103A3000443802400004024000000240406402405A
:103A4000A0060020704770472DE9F84F04460A9EF3
:103A50008A4693461F4601254FF0000894F850000F
:103A600001280ED0012084F85000FEF7D1FB8146DA
:103A700094F85100616801280DD0B1F5827F07D11B
:103A800002E00220BDE8F88FA16809B9042802D03D
:103A90004FF00208C3E0BAF1000F28D0BBF1000FCD
:103AA00025D0380023D094F85100042802D00520F6
:103AB00084F8510000206065C4F838B0E787A78714
:103AC000C4F830A0E786A786206460642068016897
:103AD000490603D4016841F040010160E068B0F597
:103AE000006F07D06068E8B3012F48D07DE04FF049
:103AF000010894E0606808B1012F39D1206B21687A
:103B00000088C860206B801C2063E08E401EE08629
:103B10002EE02068816889070DD5E18E59B1012D0D
:103B200009D1216B0988C160206B801C2063E08E65
:103B3000401EE086002520688168C9070BD0E18F10
:103B400049B1C068A16B0880A06B801CA063E08FA6
:103B5000401EE0870125FEF75BFBA0EB0900B042A9
:103B600006D300E00BE0701C02D04FF0030856E0D3
:103B7000E08E0028CDD1E08F0028CAD13BE0206B39
:103B8000216800780873206B401C2063E08E401E83
:103B9000E0862AE02068816889070DD5E18E59B159
:103BA000012D09D1216B09780173206B401C206322
:103BB000E08E401EE086002520688168C9070BD092
:103BC000E18F49B1C068A16B0870A06B401CA06375
:103BD000E08F401EE0870125FEF71AFBA0EB0900ED
:103BE000B04201D3701C11D186B1E08E0028D1D132
:103BF000E08F0028CED14A463146204609F042FDEA
:103C000038B14FF001082020606508E04FF003084C
:103C100005E0A06818B92068C1688068009001209C
:103C2000503460700020207040462BE72DE9F041B1
:103C30000446002594F8500001280DD0012784F88F
:103C4000507094F85100D4F804C0002601280FD019
:103C5000BCF5827F0AD102E00220BDE8F081D4F8F1
:103C600008C0BCF1000F01D1042801D002256AE090
:103C700081B37AB373B394F85100042802D00520BD
:103C800084F8510066652163A386E386A263A38757
:103C9000E3872664666494F8510004281DD0E16C23
:103CA0002B480864E16C2B48C863E16C2A48C8645F
:103CB000E06C0665E38F2168A26B0C31E06CFEF7C7
:103CC00057F988B1606D40F010006065012584F8F7
:103CD000517038E0FFE7012535E0E16C1F480864CA
:103CE000E16C1F48C863E0E72068416841F00101CA
:103CF0004160A06C0664A06CC663A06CC664A06C36
:103D00000665E38E2268216B0C32A06CFEF730F959
:103D100038B1606D40F010006065012584F8517085
:103D200011E020680168490603D4016841F04001B0
:103D300001602068416841F02001416020684168CD
:103D400041F00201416084F85060284685E7000098
:103D5000F9D70008E1D6000861D500087BD6000835
:103D600083D5000810B500681C4988420FD11C4C4F
:103D700021896068FEF73CFA04F18A01B4F80A214F
:103D8000D4F81031BDE81040A1F180001847154962
:103D900088420FD1144C21896068FEF729FA04F19A
:103DA0008A01B4F80A21D4F81031BDE81040A1F11D
:103DB000800018470D4988420FD10D4C2189606859
:103DC000FEF716FA04F18A01B4F80A21D4F810318A
:103DD000BDE81040A1F18000184710BD003001403F
:103DE000B00F002000380040C4100020003C00400C
:103DF000D8110020704710B5401EB0F1807F01D36C
:103E0000012010BD4FF0E02460610F21601709F020
:103E1000B9FF0020A06107202061002010BD70477D
:103E2000704710B590F83C20012A22D0012280F87A
:103E30003C20CA6800238C6822F4407222434C68FC
:103E400022F4806222430C6822F4006222430C694F
:103E500022F4805222434C6922F400522243C96961
:103E600022F480420A4301684A6480F83C30002012
:103E700010BD022010BD000070B590F83C20012A52
:103E800031D0012680F83C60022280F83D20026893
:103E90005468936824F070050C682C435460134CEC
:103EA0000268A24214D0B2F1804F11D0104CA2424D
:103EB0000ED0104CA2420BD00F4CA24208D00F4C97
:103EC000A24205D00E4CA24202D00E4CA24204D116
:103ED00023F080034968194391603C30467000210B
:103EE0000170002070BD022070BD00000000014084
:103EF0000004004000080040000C004000040140A5
:103F0000004001400018004010B50446002C03D0CA
:103F100094F83D0010B107E0012010BD002084F8A6
:103F20003C00204600F016F8022084F83D00211DD8
:103F3000206801F0C9FA01203D3460726070A07001
:103F4000E07020716071A071E0712072207000201B
:103F500010BD000008B500682849294A884208D1E8
:103F6000106840F001001060106800F0010000903F
:103F700008BD2349234B091F984208D1086840F027
:103F800002000860086800F00200009008BD1E4BA7
:103F9000984211D1086840F004000860086800F0F9
:103FA00004000090002201211E20FEF7DBFCBDE88A
:103FB00008401E20FEF7C8BC144B984211D1086877
:103FC00040F008000860086800F008000090002237
:103FD00001213220FEF7C6FCBDE808403220FEF782
:103FE000B3BC0B498842D1D1106840F40030106056
:103FF000106800F40030009008BD0000000001408F
:10400000443802400004004000080040000C00401A
:104010000044014090F83D10012901D00120704773
:10402000022180F83D100168CA6842F00102CA60AE
:1040300000681449884214D0B0F1804F11D0124961
:1040400088420ED0114988420BD01149884208D0CD
:104050001049884205D01049884202D00F49884251
:1040600009D1816801F00701062908D0016841F0F3
:104070000101016003E0016841F0010101600020DD
:1040800070470000000001400004004000080040AC
:10409000000C0040000401400040014000180040B6
:1040A00070B50446002594F83C00012817D001267D
:1040B00084F83C60022084F83D002068826822F089
:1040C000770222F47F4282600868502838D00DDCE5
:1040D000202853D005DC90B3102811D14EE00220E7
:1040E00070BD30284AD040280AD13DE0602831D048
:1040F00070280CD0B0F5805F03D0B0F5005F12D00F
:1041000001253C34667000202070284670BDCB68C5
:10411000D1E90121206801F04AFA2068816841F064
:1041200077018160EDE7CB68D1E90121206801F0DA
:104130003EFA2068816841F480418160E1E71DE03A
:10414000CA684968206809F0FBFB5021206809F023
:10415000EFFBD6E7CA684968206809F002FC6021D5
:10416000206809F0E5FBCCE7CA684968206809F0D7
:10417000E7FB4021206809F0DBFBC2E7226801462B
:10418000104609F0D5FBBCE7704770B504462068BF
:1041900001694FF00005C943890716D4C168C943B6
:1041A000890712D4E91E0161012020772068806907
:1041B000800703D02046FFF7E7FF05E0204600F028
:1041C000DFF8204600F06FF9257720680169C943C0
:1041D000490718D4C168C943490714D46FF00401D2
:1041E0000161022020772068806910F4407F03D0AD
:1041F0002046FFF7C9FF05E0204600F0C1F8204641
:1042000000F051F9257720680169C943090717D4DF
:10421000C168C943090713D46FF008010161042084
:1042200020772068C069800703D02046FFF7ACFFE5
:1042300005E0204600F0A4F8204600F034F9257788
:1042400020680169C943C90618D4C168C943C906B1
:1042500014D46FF010010161082020772068C06934
:1042600010F4407F03D02046FFF78EFF05E0204684
:1042700000F086F8204600F016F9257720680169DD
:10428000C943C90708D1C168C943C90704D1891EF8
:104290000161204600F076F920680169C9430906EA
:1042A00009D4C168C943090605D46FF080010161D2
:1042B0002046FFF7B4FD20680169C943490609D4C7
:1042C000C168C943490605D46FF040010161204629
:1042D00000F0D8F920680169C94389060BD4C16888
:1042E000C943890607D46FF0200101612046BDE86B
:1042F0007040FFF795BD70BD30B587B004461421FE
:1043000002A8FCF7E2FD194D20680023184902229B
:104310000124A84213D1086840F010000860086822
:1043200000F0100001901003029003920493059393
:10433000069402A90F48FDF773FE07B030BD0E4B7F
:104340009842FAD1086840F020000860086800F040
:1043500020000190402002900392049405920320D3
:10436000069002A90548FDF75BFEE6E70000014064
:104370003038024000100240004401400014024066
:10438000704770B504460D46002694F83C0001289D
:104390000FD0012084F83C006AB1042A1FD0082AFB
:1043A00032D00C2A44D00126002084F83C0030464C
:1043B00070BD022070BD2946206809F023FA2068EC
:1043C000816941F0080181612068816921F004015F
:1043D0008161206881692A6911438161E4E7294686
:1043E000206801F0EFF82068816941F40061816183
:1043F0002068816921F480618161206881692A696E
:1044000041EA02218161CFE72946206809F02EFAAE
:104410002068C16941F00801C1612068C16921F0CB
:104420000401C1612068C1692A691143C161BBE708
:104430002946206809F052FA2068C16941F40061F8
:10444000C1612068C16921F48061C1612068C169CE
:104450002A6941EA0221C161A6E710B50446002C91
:1044600003D094F83D0010B107E0012010BD0020FA
:1044700084F83C00204600F015F8022084F83D0046
:10448000211D206801F020F801203D346072607029
:10449000A070E07020716071A071E07120722070D6
:1044A000002010BD7047704710B50446002909D0A0
:1044B00004290AD008290BD094F8410001280AD019
:1044C000012010BD94F83E00F8E794F83F00F5E7AE
:1044D00094F84000F2E70220A9B3042937D0082954
:1044E00038D084F841000122206801F053F81E49B9
:1044F00020681E4A884201D0904203D1436C43F4A5
:10450000004343642068884213D0B0F1804F10D03C
:10451000174988420DD0174988420AD01649884267
:1045200007D0904205D01549884202D014498842EC
:1045300013D1816801F00701062912D0016841F00A
:10454000010101600DE0FFE784F83E00CBE784F84D
:104550003F00C8E784F84000C5E7016841F0010169
:104560000160002010BD0000000001400004014077
:104570000004004000080040000C004000400140E2
:104580000018004000683149884202D13048406834
:104590000047B0F1804F06D02E49884207D12C4801
:1045A0001030406800472A480830406800472A49D0
:1045B000884203D12648183040680047274988427E
:1045C00003D123482030406800472549884203D161
:1045D0001F482830406800472249884203D11C48C0
:1045E0003030406800472049884203D118483830AD
:1045F000406800471D49884203D115484030406853
:1046000000471B49884203D11148483040680047A1
:104610001849884203D10E48503040680047164977
:10462000884203D10A4858304068004713498842FD
:1046300003D107486030406800471149884203D1E0
:1046400003486830406800477047000000000140A0
:10465000B40200200004004000080040000C0040AC
:1046600000100040001400400004014000400140E0
:10467000004401400048014000180040001C004078
:1046800000200040704738B5044694F83E002028CA
:1046900001D0022038BD71B16AB194F83C00012804
:1046A0000BD0012084F83C002063204600F0C4FFBA
:1046B000014621B107E0012038BD022038BD206B42
:1046C000012802D00121084638BD206802684068F0
:1046D000009020680C3050E8002F42F0100240E8B3
:1046E0000023002BF5D1EEE770B50546334A286864
:1046F00090420DD1324CA180A4F18000A268064600
:104700009047228831462846BDE87040FFF7BBBF7E
:104710002C4A90420DD12C4CA180A4F18000A268BB
:1047200006469047228831462846BDE87040FFF78C
:10473000AABF264A90420DD1254CA180A4F1800049
:10474000A26806469047228831462846BDE8704058
:10475000FFF799BF1F4A90420DD11F4CA180A4F1D1
:104760008000A26806469047228831462846BDE868
:104770007040FFF788BF194A90420DD1184CA180B4
:10478000A4F18000A2680646904722883146284658
:10479000BDE87040FFF777BF124A90420DD1124C2E
:1047A000A180A4F18000A268064690472288314685
:1047B0002846BDE87040FFF766BF70BD001001409D
:1047C000F013002000440040001500200048004085
:1047D00010160020004C0040201700200050004020
:1047E00030180020001401404019002010B5044684
:1047F00020684069C0F3C01094F83D10212911D100
:1048000080B12068143050E8001F21F0800140E89A
:104810000012002AF5D1606B08B1FDF7FDF92046C2
:1048200009F02BFA20684069C0F3801094F83E101C
:10483000222911D180B12068143050E8001F21F0E6
:10484000400140E80012002AF5D1A06B08B1FDF745
:10485000E3F9204609F0EAF9002010BD7047000096
:10486000F8B5044622681068D168536900F00F0655
:10487000002E08D1850606D58D0604D52046BDE854
:10488000F84009F02FB90025002E66D003F001068C
:1048900001F49077374360D0C20705D0CA0503D52D
:1048A000226C42F001022264420705D5DA0703D0E8
:1048B000226C42F002022264820705D5DA0703D097
:1048C000226C42F004022264020707D501F02002A4
:1048D000324303D0226C42F008022264226C002A88
:1048E00031D0800604D5880602D5204609F0FAF8B2
:1048F00020684069C0F38010216C090700D438B3E8
:10490000204609F093F92068406940061CD52068CC
:10491000143050E8001F21F0400140E80012002A46
:10492000F5D1A06B60B157490165A06BFDF7BBF9EC
:10493000002808D0A06B016D01B0BDE8F040084729
:104940002046FFF78BFFF8BD2046FFF787FFF8BD35
:104950002046FFF783FF2564F8BD236B012B7ED132
:10496000C3067CD5CB067AD5106850680090506994
:104970004FF02003400643D5A16B0868406880B221
:104980000028E9D0A28D8242E6D9E085C869B0F559
:10499000807F2DD020680C3050E8001F21F48071FA
:1049A00040E80012002AF5D12068143050E8001FBA
:1049B00021F0010140E80012002AF5D120681430EE
:1049C00050E8001F21F0400140E80012002AF5D114
:1049D00084F83E30256320680C3050E8001F21F039
:1049E000100140E80012002AF5D1A06BFDF714F980
:1049F000A08DE18D401A81B22046FFF775FEF8BD0B
:104A0000A08DE18D401A81B2E08D0028F7D00029F9
:104A1000F5D020680C3050E8002F22F4907240E866
:104A20000026002EF5D12068143050E8002F22F027
:104A3000010240E80026002EF5D184F83E302563BF
:104A400020680C3050E8002F22F0100240E80023CC
:104A5000002BF5D12046FFF747FEF8BDFFE7020621
:104A600006D50A0604D52046BDE8F84009F09DB8F1
:104A70004006F2D54806F0D52046BDE8F84009F0DA
:104A80004BB9000033DD000870B50446002C04D09B
:104A900094F83D00002510B106E0012070BD84F8B7
:104AA0003C50204600F022F8242084F83D00206885
:104AB000C16821F40051C160204608F089FF2068D8
:104AC000016921F4904101612068416921F02A01C6
:104AD00041612068C16841F40051C1602564202013
:104AE00084F83D0084F83E00002070BD2DE9F04FB1
:104AF00087B00446142102A8FCF7E7F98848874BE1
:104B00002168874A14380225032700264FF0070B37
:104B10004FF0006A4FF004094FF48068994254D175
:104B2000116841F010011160116801F0100101914C
:104B3000016841F002010160016801F00201019188
:104B4000016841F001010160006800F0010001907E
:104B500080200290039504960597CDF818B002A91D
:104B60007048FDF75DFA28020290039504960597B8
:104B7000CDF818B002A96C48FDF752FA6C4D6B489D
:104B80002860C5F804A0AE60EE60C5F810806E61C4
:104B9000AE61EE614FF480302862C5F82490AF62B8
:104BA000EE622E632846FDF779F908B1FCF7DBFBCE
:104BB000A563AC63002211462520FDF7D3FE252016
:104BC000FDF7C2FE07B0BDE8F08F5A4B994243D1C2
:104BD0005349091F0A6842F480220A60096801F4F7
:104BE00080210191016841F004010160006800F03A
:104BF000040001904FF440600290039504960597DD
:104C0000CDF818B002A94C48FDF70AFA484D4B48B8
:104C100060352860C5F804A0AE60EE60C5F810806D
:104C20006E61AE61EE614FF400302862C5F82490E9
:104C3000AF62EE622E632846FDF730F908B1FCF74B
:104C400092FBA563AC63002211462720FDF78AFE84
:104C50002720FDF779FEB5E7394B9942B2D11168AB
:104C600041F020011160116801F0200101910168FB
:104C700041F040010160006800F0400001904FF4F5
:104C8000844002900395049605970820069002A997
:104C90002C48FDF7C5F92548254D6038C0352860FA
:104CA0004FF0206AC5F804A0AE60EE60C5F8108031
:104CB0006E61AE61EE614FF440302862C5F8249019
:104CC000AF62EE622E632846FDF7E8F808B1FCF704
:104CD0004AFBA563AC6315481B4D18302860C5F826
:104CE00004A04020A860EE60C5F810806E61AE613F
:104CF000EE61800228626E622846FDF7CFF808B1A7
:104D0000FCF731FB6563AC63002205214720FDF70A
:104D100029FE4720FDF718FE54E70000001001406F
:104D2000443802400004024000000240886402400F
:104D3000940900200048004000080240286002401A
:104D40000014014000180240B40A00207047704768
:104D5000F7B5044694F83D00202801D00220FEBD9E
:104D6000019999B392B394F83C00012831D0012005
:104D700084F83C002162A284E2840025256421207D
:104D800084F83D00636B1448D863636B1348186460
:104D9000636B1348D864606B056526681346361D3F
:104DA0003246606BFDF7E4F821686FF04000086060
:104DB00084F83C502068143050E8001F41F0800116
:104DC00040E80012002AF5D10020FEBDFFE70120D7
:104DD000FBE70220F9E7000043DD000823DC0008C0
:104DE00087D9000870477047FEE7000010B51048EB
:104DF0000E4901600321416000218160C1604FF4D0
:104E0000C02202614FF4A002426101760122427683
:104E10008276C17601774177FCF73CFD002803D00C
:104E2000BDE81040FCF79FBA10BD000000640040D0
:104E3000E404002010B510480E49016003214160D0
:104E400000218160C1604FF4802202614FF4E002D2
:104E500042610176012242768276C17601774177FE
:104E6000FCF718FD002803D0BDE81040FCF77BBA22
:104E700010BD0000006800400C05002008B529485E
:104E8000016841F400110160016801F40011009112
:104E9000016841F480010160006800F48000009026
:104EA000002211460C20FDF75DFD0C20FDF74CFDA6
:104EB000002211460D20FDF755FD0D20FDF744FDA4
:104EC000002211460F20FDF74DFD0F20FDF73CFDA0
:104ED000002205213920FDF745FD3920FDF734FD7D
:104EE000002205213A20FDF73DFD3A20FDF72CFD7B
:104EF000002211463B20FDF735FD3B20FDF724FD48
:104F0000002211464420FDF72DFD4420FDF71CFD35
:104F1000002205214520FDF725FDBDE8084045207C
:104F2000FDF712BD303802402DE9F04186B0142162
:104F300001A8FBF7CAFF5248016841F00201016075
:104F4000016801F002010091016841F04001016037
:104F5000016801F040010091016841F00101016028
:104F6000016801F001010091016841F00801016050
:104F7000016801F008010091016841F0040101603D
:104F8000016801F004010091016841F080010160B5
:104F9000016801F080010091016841F02001016089
:104FA000016801F020010091016841F010010160E9
:104FB000006800F010000090324E0122402130467F
:104FC000FDF71EF9304F012210213846FDF718F980
:104FD000DFF8B880012211464046FDF711F9402064
:104FE0000190012402940394049401A93046FDF732
:104FF00017F8092001904FF404150295039401A9B4
:105000003046FDF70DF8102001900294039402261B
:10501000049601A93846FDF703F830200190029567
:10502000039401A91A48FCF7FBFF0194029403942E
:10503000049601A94046FCF7F3FF00220221062056
:10504000FDF790FC0620FDF77FFC002201210920DE
:10505000FDF788FC0920FDF777FC002201210A20DA
:10506000FDF780FC0A20FDF76FFC002201211720CC
:10507000FDF778FC1720FDF767FC06B0BDE8F0816E
:105080003038024000180240000002400004024094
:105090000008024010B50D480B4901600C49416001
:1050A00000218160C1604FF48042026141618161F1
:1050B000C1610162FDF7B2F8002803D0BDE81040DD
:1050C000FCF751B910BD0000005C00403405002021
:1050D000801A060010B510480E4901604FF4827125
:1050E000416000218160C1600222026101224261AF
:1050F000520282613822C2610162416281620A21E8
:10510000C162FEF7ACFB002803D0BDE81040FCF7FD
:105110002AB910BD003001404806002010B588B003
:105120001C2101A8FBF7D1FE14481349016000249B
:105130004460846041F28731C16004618461FEF79C
:10514000E3FE08B1FCF70FF90C48FFF786F908B148
:10515000FCF709F960200190029403940594002261
:1051600001A90648FFF70DF908B1FCF7FCF8034860
:10517000FFF7C2F808B010BD0044014080080020CD
:1051800010B596B0002412941394149415941094AE
:1051900011941C2109A8FBF798FE202101A8FBF718
:1051A00094FE284826490160A7214160846041F2AD
:1051B0008731C160046144618461FEF7A5FE08B1D6
:1051C000FCF7D1F84FF48050129012A91D48FEF759
:1051D00067FF08B1FCF7C7F81A48FFF73EF908B1B6
:1051E000FCF7C1F81094119410A91648FEF744FE7C
:1051F00008B1FCF7B8F8602009900A940B940C945D
:105200000D940E940F94082209A90E48FFF7B9F8DF
:1052100008B1FCF7A8F8019402940394049405944F
:105220004FF400500690089401A90648FEF7F9FDD6
:1052300008B1FCF798F80348FFF75EF816B010BD08
:10524000000001406007002010B586B000240294E1
:105250000394049405940094019414481249016045
:1052600053214160846040F2E731C1600461846190
:10527000FEF74AFE08B1FCF776F84FF48050029032
:1052800002A90A48FEF70CFF08B1FCF76CF800947D
:10529000019469460548FEF7EFFD002801D0FCF7B0
:1052A00062F806B010BD000000040040A80700200E
:1052B00010B586B0002402940394049405940094DD
:1052C000019414481249016053214160846040F206
:1052D000E731C16004618461FEF716FE08B1FCF796
:1052E00042F84FF48050029002A90A48FEF7D8FE17
:1052F00008B1FCF738F80094019469460548FEF7B8
:10530000BBFD002801D0FCF72EF806B010BD000050
:1053100000080040F007002010B586B00024029479
:105320000394049405940094019414481249016074
:1053300053214160846040F2E731C16004618461BF
:10534000FEF7E2FD08B1FCF70EF84FF48050029032
:1053500002A90A48FEF7A4FE08B1FCF704F800947D
:10536000019469460548FEF787FD002801D0FBF748
:10537000FAFF06B010BD0000000C00403808002005
:1053800010B50C480A4901604FF4E1314160002139
:105390008160C16001610C2242618161C161FFF7DE
:1053A00073FB002803D0BDE81040FBF7DCBF10BD45
:1053B00000100140C808002010B50E480C490160DB
:1053C0000D4941604FF4805181600021C1604FF46C
:1053D00080620261042242618161C161FFF754FB76
:1053E000002803D0BDE81040FBF7BDBF10BD000092
:1053F000004800400C090020A086010010B50C48B0
:105400000A4901604FF4E131416000218160C160CF
:1054100001610C2242618161C161FFF735FB002807
:1054200003D0BDE81040FBF79EBF10BD0014014043
:105430005009002010B500220F49104800F0ABFBC6
:1054400008B1FBF790FF0E490C4800F0ABFD08B126
:10545000FBF789FF0B49094800F062FA08B1FBF736
:1054600082FF064800F0BCFD002803D0BDE81040D4
:10547000FBF779BF10BD00005C030020D02F002097
:10548000A0040020AC030020FEE7FEE70148FDF782
:10549000DDBB0000CC46002070477047FDF7F8B92F
:1054A0000248016841F470010160704788ED00E036
:1054B0000148FEF76ABE0000F00700200148FEF731
:1054C00064BE0000380800202DE9F0410268264D36
:1054D000264E274FDFF89CC0274B4FF08048A8424C
:1054E00009D0404507D0B04205D0B84203D060454E
:1054F00001D0984203D122F070044A682243A842A6
:105500001BD0404519D0B04217D0B84215D06045E5
:1055100013D0984211D0194CA0420ED0184CA04282
:105520000BD0184CA04208D0174CA04205D0174C05
:10553000A04202D0164CA04203D122F44074CA68A3
:1055400022434C6922F08002224302608A68C262D0
:105550000A688262A84201D0984201D109690163B8
:1055600001214161BDE8F0810000014000040040DC
:1055700000080040000C00400004014000400140D1
:10558000004401400048014000180040001C004059
:105590000020004010B501F01F0101238B40046A78
:1055A0009C430462036A8A401343036210BD10B532
:1055B000846824F47F4442EA03220A43224382603F
:1055C00010BD0000F0B5026A22F010020262036A08
:1055D0004268846924F4E04424F440740D6844EA89
:1055E000052423F020038D6843EA0513104D114E66
:1055F000A84201D0B04206D123F08003CF6843EA2D
:10560000071323F04003A84201D0B04209D122F48D
:10561000806222F400624D6942EA85028D6942EAA5
:10562000850242608461496881630362F0BD0000C5
:10563000000001400004014037B582B00446134623
:10564000039AA262A38500252564222084F83E00E7
:10565000A16B1B48C863A16B1A480864A16B1A4868
:10566000C864A06B05652168A06B091DFCF780FC70
:10567000206801684068019084F83C5020680C3034
:1056800050E8001F41F4807140E80012002AF5D173
:105690002068143050E8001F41F0010140E800127A
:1056A000002AF5D12068143050E8001F41F0400175
:1056B00040E80012002AF5D105B0002030BD0000FE
:1056C00097DC000809DC000887D900080148FFF7CB
:1056D000C7B80000C80800200148FFF7C1B80000A3
:1056E0000C0900200148FFF7BBB80000500900205A
:1056F0002DE9F0410C46D0F8C452D0F8BC12002974
:105700001FD004EB840200EB8202002693694BB1A8
:10571000C4EBC40705EB87056D6CB3FBF5F705FB20
:10572000173383B1C1F81462D0F8C00203692BB1FA
:10573000D1F80802224601F5047198470020BDE81F
:10574000F0810320FBE7966100231A46214600F012
:1057500007FCF3E770B50546D5F8BC42002C0ED027
:10576000284600F0E2FAC4F80C02D5F8C012D4F8CA
:105770000402CA6804F503719047002070BD03203D
:1057800070BD70B504468121204600F021FA002545
:1057900025870121204600F01BFAA4F878518221C8
:1057A000204600F015FAA4F84C50A4F84E50D4F856
:1057B000BC0240B104F52F746068406880472068DF
:1057C00000F06CFD2560002070BD10B5D0F8BC4223
:1057D000002C10D0D0F8C01259B194F80002FF2864
:1057E00007D08B6894F8012221469847FF2084F85F
:1057F0000002002010BD032010BD00000A2101801E
:1058000000487047C80300204321018000487047CA
:10581000180400204321018000487047D403002071
:1058200043210180004870475C0400202DE9F047C7
:1058300004464FF4077000F033FD05464FF00008B2
:10584000ADB3C4F8BC52207C4FF010094FF4007780
:10585000012668B3402302228121204600F0CCFAC1
:105860002687402302220121204600F0C5FAA4F831
:105870007861A4F84E90082303228221204600F08C
:10588000BBFAA4F84C60D4F8C00200688047C5F8A1
:105890001482C5F81882207C08B3402301212046D9
:1058A000D5F8042200F0B4FA0020BDE8F08700E04B
:1058B00003E0C4F8BC820220F7E73B4602228121C4
:1058C000204600F099FA26873B4602220121204615
:1058D00000F092FAA4F87861A4F84E90CBE73B462A
:1058E00001212046D5F8042200F092FADCE710B539
:1058F000D0F8BC12002909D0027C4AB1D1F80422A8
:105900004023012100F084FA002010BD032010BDC7
:10591000D1F804224FF40073012100F079FAF3E783
:10592000002903D0C0F8C012002070470320704740
:10593000D0F8BC02002803D0C0F804120020704741
:1059400003207047D0F8BC02002805D0C0F8081228
:10595000C0F8102200207047032070472DE9FC4159
:1059600005460C46D5F8BC72002001900090002638
:10597000002F0DD0207810F0600132D0202909D0FE
:105980002146284600F098F803263046BDE8FC8101
:105990000320FBE7E288E2B100060ED5D5F8C0127D
:1059A00060788B6839469847E288072A00D9072231
:1059B0003946284600F0A6F8E7E7607887F8000245
:1059C000A07987F80102E2883946284600F080F87D
:1059D000DBE7D5F8C012607800228B682146984733
:1059E000D3E7607858B10128CFD00A2817D00B2808
:1059F00025D02146284600F05FF80326C5E795F834
:105A00009C02032805D02146284600F055F80326BD
:105A1000BBE702226946284600F074F8B5E795F81E
:105A20009C02032805D02146284600F045F80326AD
:105A3000ABE7012201A9284600F064F8A5E795F834
:105A40009C020328A1D02146284600F035F8032601
:105A50009BE710B5D0F8BC120122002903D0D1F881
:105A6000143213B10DE0032010BD01F502710122C3
:105A7000CA608A68C2628B680A68812100F070FA85
:105A80000022104610BD10B5D0F8B822002A01D06F
:105A900052689047002010BD10B513460A460021F9
:105AA00000F0B6F9002010BD10B513460A460021DB
:105AB00000F056FA002010BD10B5044680212046A3
:105AC00000F034FA2046BDE81040002100F02EBA64
:105AD00010B50323C0F89432C0F85821C0F85C21F7
