:020000040800F2
:10000000E80F0020ED010008953900084F36000880
:100010009139000841040008AD44000800000000C8
:100020000000000000000000000000007F3C00080D
:10003000B905000800000000F93A0008813C0008FA
:10004000070200080702000807020008070200086C
:10005000070200080702000807020008070200085C
:10006000070200080702000807020008070200084C
:100070000702000807020008070200087D050008C3
:10008000070200080702000807020008070200082C
:1000900045040008070200080702000807020008DC
:1000A000070200080702000807020008070200080C
:1000B000213D0008313D0008070200080702000842
:1000C00007020008070200080702000807020008EC
:1000D000070200086D430008070200080702000835
:1000E00007020008070200080702000800000000DD
:1000F0000000000000000000000000000000000000
:1001000000000000000000000702000807020008CD
:10011000070200080702000807020008070200089B
:10012000070200080702000807020008070200088B
:10013000070200080000000000000000070200089D
:10014000550400080702000807020008070200081B
:1001500000F002F800F03AF80AA090E8000C82449F
:100160008344AAF10107DA4501D100F02FF8AFF27C
:10017000090EBAE80F0013F0010F18BFFB1A43F085
:10018000010318477856000098560000103A24BF23
:1001900078C878C1FAD8520724BF30C830C144BFEC
:1001A00004680C607047000000230024002500262E
:1001B000103A28BF78C1FBD8520728BF30C148BFCA
:1001C0000B6070471FB51FBD10B510BD00F0D5F80E
:1001D0001146FFF7F7FF04F033FA00F0F3F803B429
:1001E000FFF7F2FF03BC00F0F7F800000948804772
:1001F00009480047FEE7FEE7FEE7FEE7FEE7FEE709
:10020000FEE7FEE7FEE7FEE704480549054A064B20
:10021000704700001D3D000851010008E80900205A
:10022000E80F0020E80B0020E80B002053EA020C46
:1002300000F069802DE9F04B4FF00006002B1FBF46
:10024000B3FA83F503FA05F424FA05F65E4012BF0B
:100250001643B2FA82F502FA05F4C5F120051EBF75
:1002600022FA05FC44EA0C04203556EA044C4FEA15
:10027000144418BF641C4FF000084FF0000990426E
:1002800071EB030C39D3002919BFB1FA81F701FAD8
:1002900007F6B0FA80F700FA07F6C7F120071EBF8D
:1002A00020FA07FC46EA0C062037B6FBF4FCA7EB65
:1002B0000507103F07F01F0BCBF120060CFA0BFBD4
:1002C0002CFA06F644BFB3460026202FA4BF5E4694
:1002D0004FF0000B5BEA060C08BF4FF0010B19EB67
:1002E0000B09ABFB027C48EB0608C01B06FB02CCEB
:1002F0000BFB03CC71EB0C01C1E70B4602464146F8
:100300004846BDE8F08B13B54FF000004FF00001F8
:10031000AFF30080BDE81C4070474FF0000200B50D
:10032000134694469646203922BFA0E80C50A0E818
:100330000C50B1F12001BFF4F7AF090728BFA0E8C6
:100340000C5048BF0CC05DF804EB890028BF40F892
:10035000042B08BF704748BF20F8022B11F0804FD4
:1003600018BF00F8012B70477047704770470000B6
:10037000004870478409002070477546FFF7F8FF72
:10038000AE4605006946534620F00700854618B082
:1003900020B5FFF739FFBDE820404FF000064FF0D1
:1003A00000074FF000084FF0000B21F00701AC46AA
:1003B000ACE8C009ACE8C009ACE8C009ACE8C009C9
:1003C0008D46704710B50446AFF300802046BDE867
:1003D0001040FFF704BF000001491820ABBEFEE744
:1003E0002600020070B5044600252068806800F0F1
:1003F000010018B32068806820F00100216888603F
:1004000001F034FD054613E001F030FD401B0228E9
:100410000ED92068806800F0010048B1A06A40F061
:100420001000A062E06A40F00100E062012070BDAF
:100430002068806800F001000028E5D10020F6E780
:1004400000BFFEE710B5024800F0EFFC10BD000051
:100450007801002010B5024800F0E7FC10BD000054
:10046000A0010020F0B587B006460C4617461D4691
:10047000019400200390049005956B463A4601A92B
:10048000304600F0D0FA10B1002007B0F0BD0120D6
:10049000FBE7000000B58BB0012006900020019022
:1004A000029003900490079001200990089000208A
:1004B00005900E200A9001A90C4800F059FB0E206F
:1004C000069001A90A4800F053FB084800F0A9FF74
:1004D000074800F0A6FF0221044800F08FFA02212D
:1004E000034800F08BFA0BB000BD0000780100203B
:1004F000A00100202DE9F0410446E188E268501A8D
:1005000004F0C4FD0746074904F0E2FC064606492C
:1005100004F0DEFC0546054904F018FEC4F8D800D6
:10052000BDE8F08100F8FF45000010426F12033C67
:100530002DE9F05F8246BAF80220DAF80810881A2E
:1005400004F0A4FD834604F029FC8046074A084BCA
:1005500004F0F0FA0646074A074B04F0EBFA0446AB
:1005600004F0E6F8CAF8D000BDE8F09F012DA00520
:10057000B480A63F06B653865A85B13F10B50248EF
:1005800001F084F810BD0000A002002030B590F802
:1005900040500124AC40C56B6C60046863604468E3
:1005A000102C04D10468A2600468E16003E00468D0
:1005B000A1600468E26030BD704772B600BFFEE71C
:1005C00070B50546002410E0C4EBC402084B03EBF1
:1005D000820104EB041202EB42032A1D02EB8302A8
:1005E00002F11C0003F06AFA641C042CECDB70BD01
:1005F000600000202DE9F0410546002443E004EBB3
:10060000041101EB4102291D01EB8201B1F9100037
:1006100004F03CFD064604EB041101EB4102291DE8
:1006200001EB8201B1F9160004F030FD074604EB3E
:10063000041101EB4102291D01EB820101F11C00B3
:100640003246394603F0A8F904EB041101EB4102EC
:10065000291D01EB8201886C04F0FCFCC0F307202B
:100660000B4901F8140004EB041101EB4102291DB0
:1006700001EB8201886C04F0EDFC012101EB4401E7
:10068000034A5054641C042CB9DBBDE8F08100001F
:100690003A00002038B5024600230020009000BF39
:1006A00092F82400012801D1022038BD012082F8EF
:1006B000240000BF4868072812D21068406B0C79EC
:1006C000641E04EB84051F24AC40A0430D796D1E0D
:1006D00005EB85050C68AC4020431468606327E097
:1006E00048680D2812D21068006B0C79E41F04EBE7
:1006F00084051F24AC40A0430D79ED1F05EB850553
:100700000C68AC4020431468206311E01068C06A94
:100710000C790D3C04EB84051F24AC40A0430D79FB
:100720000D3D05EB85050C68AC4020431468E06284
:1007300008680A2812D31068C0680C780A3C04EBD9
:1007400044050724AC40A0430D780A3D05EB450560
:100750008C68AC4020431468E0600FE010680069CA
:100760000C7804EB44050724AC40A0430D7805EB5E
:1007700045058C68AC402043146820610868102847
:1007800002D00868112827D1174C1068A0421ED14A
:100790001068806800F40000F0B91068806840F4C8
:1007A00000001468A0600868102815D10F48006880
:1007B0000F4CB0FBF4F000EB80004000009002E032
:1007C0000098401E009000980028F9D104E0906A3B
:1007D00040F020009062012300BF002082F8240036
:1007E00000BF184661E70000002401401C00002003
:1007F00040420F002DE9F041044600270025002665
:10080000A84614B90120BDE8F081A06810B1207D90
:1008100000B100BFA06A30B90020E06284F8240073
:10082000204600F089F82046FFF7DCFD0746A06A65
:1008300000F01000002873D1002F71D1A06A20F4BD
:10084000885040F00200A062E16960680843217BA3
:1008500040EA41000643A068B0F5807F02D0A0685E
:10086000012802D14FF4807000E000200543207D74
:10087000012811D1207B38B9A069401E4FF40061D6
:1008800041EA4030054307E0A06A40F02000A06242
:10089000E06A40F00100E0622068406820F46940AE
:1008A0002843216848602068806821490840304317
:1008B00021688860A068B0F5807F02D0A068012818
:1008C00002D14FF4807000E00020B0F5807F03D1AA
:1008D000208A401E4FEA00582068C06A20F4700049
:1008E00040EA08002168C862206880681149084011
:1008F000B04208D10020E062A06A20F0020040F07F
:100900000100A06211E0A06A20F0020040F0100097
:10091000A062E06A40F00100E062012705E0FFE725
:10092000A06A40F01000A062012738466BE7000083
:10093000FDF7E1FFFE0E1FFF10B586B00446002054
:10094000029003900490059028492068884223D1A2
:1009500000BF2748806940F4007025498861084637
:10096000806900F40070019000BF00BF00BF08461E
:10097000806940F0040088610846806900F0040046
:10098000019000BF00BF012002900320039002A944
:10099000184801F0DBF826E017492068884222D188
:1009A00000BF1348806940F480601149886108469F
:1009B000806900F48060019000BF00BF00BF08465E
:1009C000806940F0040088610846806900F00400F6
:1009D000019000BF00BF022002900320039002A9F3
:1009E000044801F0B3F806B010BD00000024014037
:1009F00000100240000801400028014010B50246E6
:100A000092F82030012B01D0022B06D110684069EA
:100A1000084314686061002010BD506A40F48020D3
:100A200050620120F8E7F0B504460D461E4694F8E2
:100A3000207020688368A86800B900E000BF012F1B
:100A400001D0022F7DD103F0806030B903F0006047
:100A500018B903F0805000287ED0C3F30161012053
:100A600088403060A86860B9B5F800C0E86840EA1E
:100A70004C5C206800F5C07000EB0110C0F800C0AD
:100A80000FE0D5E901C040EACC00D5F80CC040EA3F
:100A90000C00D4F800C00CF5C07C0CEB011CCCF8A9
:100AA0000000D5F810C0206800F5C07000EB011000
:100AB000C0F804C0287D01280ED1206800F5C07060
:100AC00000EB0110406840F4807C206800F5C070A5
:100AD00000EB0110C0F804C0D079000692F806C0FF
:100AE00040EA0C4092F805C040EA0C2092F804C09D
:100AF00040EA0C00D4F800C00CF5C07C0CEB011CE3
:100B0000CCF80C00D078000692F802C040EA0C4005
:100B100092F801C040EA0C2092F800C040EA0C00B4
:100B2000D4F800C00CF5C07C0CEB011CCCF808001C
:100B3000206800F5C07000EB0110006840F0010C67
:100B400001E00FE008E0206800F5C07000EB011044
:100B5000C0F800C00020F0BD606A40F40010606280
:100B60000120F8E7606A40F4802060620120F2E72B
:100B7000F0B504460A46216894F82050012D01D0B2
:100B8000022D7ED1424901F50071086840F0010054
:100B90000860086820F47C5008600868566A40EADB
:100BA00006200860107D00F01F06012000FA06F301
:100BB000C8699843C861A1F50071D069C8B9D1F876
:100BC0000C029843C1F80C02908880B2968940EAE2
:100BD000064601F51070576940F83760108880B2FA
:100BE000168940EA064601F51070576900EBC70008
:100BF0004660D069012819D1D1F80C021843C1F818
:100C00000C02908880B2168840EA064601F5107002
:100C1000576940F83760908980B2168940EA0646E5
:100C200001F51070576900EBC7004660906928B95C
:100C3000D1F804029843C1F8040204E0D1F8040298
:100C40001843C1F80402106928B9D1F81402984376
:100C5000C1F8140204E0D1F814021843C1F81402D8
:100C6000106A012804D1D1F81C021843C1F81C02F3
:100C7000D1F8000220F00100C1F800020020F0BD10
:100C8000FFE7606A40F4802060620120F7E700001F
:100C900000640040704770B5044694F82050012D60
:100CA00001D0022D7DD151B92068C06800F0030049
:100CB00080B9606A40F400106062012070BD206855
:100CC000006900F0030028B9606A40F40010606217
:100CD0000120F3E7206800F5D87000EB01100068F0
:100CE00000F004009060906840B9206800F5D8706A
:100CF00000EB01100068400D106007E0206800F56F
:100D0000D87000EB01100068C0085060206800F542
:100D1000D87000EB0110006800F00200D06020687D
:100D200000F5D87000EB0110406800F00F000828B3
:100D300002D30820106108E0206800F5D87000EBAD
:100D40000110406800F00F001061206800F5D870B5
:100D500000EB0110406800F47F40000A90612068B9
:100D600000F5D87000EB01104068000C506120685D
:100D700000F5D87000EB011080681870206800F54D
:100D8000D87000EB0110806800F47F40000A5870B2
:100D9000206800F5D87000EB0110806800F47F0037
:100DA00000E03CE0000C9870206800F5D87000EB83
:100DB00001108068000ED870206800F5D87000EB34
:100DC0000110C0681871206800F5D87000EB0110A0
:100DD000C06800F47F40000A5871206800F5D870A0
:100DE00000EB0110C06800F47F00000C98712068CF
:100DF00000F5D87000EB0110C068000ED87131B951
:100E00002068C06840F020002668F06005E0206897
:100E1000006940F020002668306100204EE7606ADB
:100E200040F480206062012048E72DE9F05F04462D
:100E30000025206846692068D0F8049020688768FB
:100E40002068D0F80CA02068D0F810B02068D0F846
:100E5000188006F00100002855D007F00100C0B14D
:100E600001202168886007F0020018B1204600F0D8
:100E700008FB0EE007F0040010B145F4006508E03F
:100E800007F0080010B145F4805502E0204600F05C
:100E9000F7FA07F48070C8B14FF480702168886059
:100EA00007F4007018B1204600F0EDFA0EE007F4E8
:100EB000806010B145F4005508E007F4006010B1FF
:100EC00045F4804502E0204600F0DCFA07F480306B
:100ED000C8B14FF480302168886007F4003018B141
:100EE000204600F0D2FA0EE007F4802010B145F45D
:100EF000004508E007F4002010B145F4803502E019
:100F0000204600F0C1FA06F0080038B10AF01000DF
:100F100020B145F4007510202168C86006F0040077
:100F200040B10AF0080028B108202168C8602046B6
:100F300000F016FA06F0020038B12068C06800F030
:100F4000030010B1204600F00DFA06F0400038B161
:100F50000BF0100020B145F4806510202168086175
:100F600006F0200040B10BF0080028B108202168ED
:100F70000861204600F052FA06F0100038B12068EF
:100F8000006900F0030010B1204600F048FA06F4B2
:100F9000003040B109F0100028B1102021684860ED
:100FA000204600F03DFA06F4803040B109F0080018
:100FB00028B1082021684860204600F067FA06F44E
:100FC000004088B309F0040078B306F4807020B1C3
:100FD00008F0010008B145F0010506F4007020B1E9
:100FE00008F0020008B145F0020506F4806020B167
:100FF00008F0040008B145F0040506F40060A0B153
:1010000008F0700088B108F07000402817D006DCA6
:1010100010280BD020280CD0302819D10CE05028F3
:1010200010D0602814D110E01DE019E045F008054B
:101030000FE045F010050CE045F0200509E045F013
:10104000400506E045F0800503E045F4807500E0CA
:1010500000BF00BF2068806920F0700021688861AF
:101060000420216848602DB1606A284360622046F0
:10107000FFF710FEBDE8F09F70B504460CB90120E3
:1010800070BD94F8200010B9204600F0AFF8206839
:10109000006840F001002168086000F0E7FE0546A6
:1010A0000DE000F0E3FE401B0A2808D9606A40F416
:1010B00000306062052084F820000120E0E720680D
:1010C000406800F001000028EBD02068006820F0A4
:1010D00002002168086000F0C9FE05460DE000F03E
:1010E000C5FE401B0A2808D9606A40F400306062DF
:1010F000052084F820000120C2E72068406800F045
:1011000002000028EBD1207E012806D1206800686B
:1011100040F080002168086005E02068006820F049
:10112000800021680860607E012806D12068006880
:1011300040F040002168086005E02068006820F069
:10114000400021680860A07E012806D12068006860
:1011500040F020002168086005E02068006820F069
:10116000200021680860E07E012806D12068006820
:1011700020F010002168086005E02068006840F059
:10118000100021680860207F012806D120680068CF
:1011900040F008002168086005E02068006820F041
:1011A000080021680860607F012806D12068006877
:1011B00040F004002168086005E02068006820F025
:1011C000040021680860D4E902010843216908434A
:1011D000616908436168491E08432168C8610020AD
:1011E0006062012084F82000002049E710B586B035
:1011F0000446002002900390049005905249206814
:1012000088424CD151480068401C5049086008464B
:10121000006801280DD100BF4D48C06940F0007042
:101220004B49C8610846C06900F00070019000BFDA
:1012300000BF00BF4648806940F00800444988610B
:101240000846806900F00800019000BF00BF8815C3
:10125000029000200390049002A93E4800F076FC22
:101260004FF400700290022003900320059002A921
:10127000384800F06BFC00BF3749486820F4C04094
:1012800040F0E06040F48040486000BF002211461A
:10129000142000F071FE142000F05EFE52E02F4991
:1012A000206888424ED100BF2948C06940F0806064
:1012B0002749C8610846C06900F08060019000BFFE
:1012C00000BF22480068401C2049086008460068AA
:1012D00001280DD100BF1E48C06940F000701C49B4
:1012E000C8610846C06900F00070019000BF00BFEF
:1012F00000BF1748806940F008001549886108461A
:10130000806900F00800019000BF00BF88140290BF
:1013100000200390049002A90E4800F017FC4FF43F
:1013200000500290022003900320059002A9094872
:1013300000F00CFC00221146402000F01DFE402071
:1013400000F00AFE06B010BD00640040000000205E
:1013500000100240000C0140000001400068004005
:101360007047000010B58AB0044601AB03AA002103
:101370002046FFF790FC2348844222D10398A0F234
:10138000012030B1012809D002280DD0032816D140
:101390000FE001A91C4802F03BFC11E001A91A482A
:1013A000CC3002F035FC0BE001A9184802F030FC0B
:1013B00006E001A91548CC3002F02AFC00E000BF8D
:1013C0001DE0134884421AD10398A0F2012020B1F5
:1013D000012807D0042810D109E001A90D4802F026
:1013E00017FC0BE001A90C4802F012FC06E001A971
:1013F0000948D43802F00CFC00E000BF00BF0AB07E
:1014000010BD000078010020BC030020540500201E
:10141000A0010020F8060020A408002070477047B3
:10142000704770B5044694F82000012822D10220AC
:1014300084F820002068006820F00100216808601E
:1014400000F014FD05460DE000F010FD401B0A28D9
:1014500008D9606A40F400306062052084F82000FA
:10146000012070BD2068406800F001000028EBD129
:101470006062F6E7606A40F4002060620120F0E7F5
:101480007047704770477047704770477047014614
:10149000002291F82100022808D00420886300BFB0
:1014A000002081F8200000BF012070470868006814
:1014B00020F00E000B6818600868006820F001003A
:1014C0000B68186091F8403001209840CB6B586051
:1014D000012081F8210000BF002081F8200000BF1A
:1014E0001046E2E770B50446002594F82100022872
:1014F00003D00420A0630125C1E02068006820F02B
:101500000E00216808602068006820F00100216852
:1015100008605C492068884252D95A497839206865
:10152000884201D1012047E0564964392068884249
:1015300001D1102040E0534950392068884201D140
:10154000801539E04F493C392068884201D1801428
:1015500032E04C4928392068884202D14FF480306B
:101560002AE0484914392068884202D14FF480109B
:1015700022E044492068884201D140041CE04249ED
:101580002068884201D1012016E03F4914312068CB
:10159000884201D110200FE03B4928312068884261
:1015A00001D1801508E038493C312068884201D1DA
:1015B000801401E04FF480303349091F086051E086
:1015C000304978392068884201D1012047E02D490F
:1015D00064392068884201D1102040E029495039FF
:1015E0002068884201D1801539E026493C392068BD
:1015F000884201D1801432E022492839206888428B
:1016000002D14FF480302AE01E4914392068884204
:1016100002D14FF4801022E01A492068884201D19B
:1016200040041CE018492068884201D1012016E0DE
:10163000154914312068884201D110200FE0124969
:1016400028312068884201D1801508E00E493C31DC
:101650002068884201D1801401E04FF480300949AC
:1016600080394860012084F8210000BF002084F800
:10167000200000BF606B10B12046616B8847284690
:1016800070BD0000800002400804024070B50446AE
:10169000E06B05682068066894F8401004208840D4
:1016A0002840002875D006F004000028FAD02068F1
:1016B000006800F0200028B92068006820F00400CD
:1016C00021680860D5492068884254D9D3497839BF
:1016D0002068884201D1042049E0D049643920685B
:1016E000884201D1402042E0CC49503920688842EC
:1016F00001D100153BE0C9493C392068884202D13C
:101700004FF4804033E0C54928392068884202D12F
:101710004FF480202BE0C14914392068884202D15F
:101720004FF4800023E0BD492068884201D1C00405
:101730001DE0BB492068884201D1042017E0B84968
:1017400014312068884201D1402010E0B44928318A
:101750002068884201D1001509E0B1493C31206878
:10176000884202D14FF4804001E04FF48020AC4920
:10177000091F086054E0A94978392068884201D1DE
:1017800004204AE0A54964392068884202D14020FB
:1017900043E04CE0A14950392068884201D100154E
:1017A0003BE09E493C392068884202D14FF480409A
:1017B00033E09A4928392068884202D14FF48020CA
:1017C0002BE0964914392068884202D14FF48000FA
:1017D00023E092492068884201D1C0041DE090496D
:1017E0002068884201D1042017E08D491431206817
:1017F000884201D1402010E0894928312068884280
:1018000001D1001509E086493C312068884202D1A7
:101810004FF4804001E04FF48020804980394860D7
:10182000E06A002802D02046E16A8847F4E094F894
:101830004010022088402840002871D006F00200A5
:101840000028FAD02068006800F0200040B9206825
:10185000006820F00A0021680860012084F8210057
:101860006E492068884254D96C497839206888428A
:1018700001D1022049E0694964392068884201D1D8
:10188000202042E0654950392068884201D1401546
:101890003BE062493C392068884202D14FF4005055
:1018A00033E05E4928392068884202D14FF4003085
:1018B0002BE05A4914392068884202D14FF40010B5
:1018C00023E056492068884201D180041DE0544934
:1018D0002068884201D1022017E051491431206864
:1018E000884201D1202010E04D49283120688842EB
:1018F00001D1401509E04A493C312068884202D1B3
:101900004FF4005001E04FF400304549091F0860D2
:1019100054E0424978392068884202D102204AE0E6
:1019200057E03E4964392068884201D1202042E0D6
:101930003A4950392068884201D140153BE0374987
:101940003C392068884202D14FF4005033E03349DB
:1019500028392068884202D14FF400302BE02F490B
:1019600014392068884202D14FF4001023E02B493B
:101970002068884201D180041DE0294920688842FE
:1019800001D1022017E0264914312068884201D194
:10199000202010E0224928312068884201D14015DA
:1019A00009E01F493C312068884202D14FF40050C1
:1019B00001E04FF4003019498039486000BF002031
:1019C00084F8200000BFA06A30B32046A16A88478F
:1019D00022E094F84010082088402840E0B106F04A
:1019E0000800C8B12068006820F00E002168086077
:1019F00094F8401001208840E16B48600120A0630A
:101A000084F8210000BF002084F8200000BF206B74
:101A100010B12046216B884770BD00008000024055
:101A2000080402400146002209B9012070471E4BFC
:101A3000086898420BD21D4B0868C01A1423B0FBEB
:101A4000F3F08000086419480838C8630AE0164BB0
:101A50000868C01A1423B0FBF3F080000864124831
:101A60000838C863022081F821000868026843F63C
:101A7000F0708243D1E901031843CB6818430B6926
:101A800018434B6918438B691843CB6918430243C9
:101A90000868026000208863012081F8210000208E
:101AA00081F8200000BFC1E708040240080002409E
:101AB0002DE9F04104460D4616461F464FF000083A
:101AC00000BF94F82000012802D10220BDE8F08177
:101AD000012084F8200000BF94F8210001282CD1B7
:101AE000022084F821000020A0632068006820F014
:101AF0000100216808603B46324629462046FEF731
:101B000045FDE06A30B12068006840F00E002168B1
:101B100008600BE02068006820F00400216808607D
:101B20002068006840F00A002168086020680068AA
:101B300040F001002168086006E000BF002084F842
:101B4000200000BF4FF002084046BFE72DE9F847EC
:101B50000346002294466EE14FF0010808FA02F4B1
:101B6000D1F8008008EA0400A0427DD1DFF8DCA2B1
:101B7000D1F80480A8EB0A09D0453AD014DCB8F1BA
:101B8000030F50D009DCB8F1000F31D0B8F1010FCC
:101B90001CD0B8F1020F49D120E0B8F1110F18D0D4
:101BA000B8F1120F42D11EE0B9F5881F25D006DC2E
:101BB000B9F5803F20D0B9F5801F37D11AE0B9F5CB
:101BC000001F18D0B9F5041F30D117E0D1F80CC0B0
:101BD0002DE0D1F80C8008F1040C28E0D1F80C803D
:101BE00008F1080C23E0D1F80C8008F10C0C1EE081
:101BF00000BF00BF00BF00BF00BF00BFD1F808801A
:101C0000B8F1000F02D14FF0040C0BE0D1F80880BE
:101C1000B8F1010F03D14FF0080C1C6102E04FF046
:101C2000080C5C6103E04FF0000C00E000BF00BF57
:101C3000FF2801D8984601E003F104084646FF2832
:101C400002D84FEA820803E0A2F108084FEA8808A8
:101C50004746D6F800804FF00F0909FA07F928EA3D
:101C600009080CFA07F900E088E048EA0908C6F814
:101C70000080D1F8048008F08058B8F1805F7DD1F1
:101C800000BFDFF8CC81D8F8188048F00108DFF8F1
:101C9000C091C9F81880C846D8F8188008F0010823
:101CA000CDF8008000BF00BF4FEAB9384FEA920973
:101CB00058F829504FEA82784FEA18794FF00F0808
:101CC00008FA09F825EA0805DFF88881434502D1BA
:101CD0004FF0000816E0DFF88081434502D14FF055
:101CE00001080FE0DFF87481434502D14FF002088C
:101CF00008E0DFF86C81434502D14FF0030801E0B2
:101D00004FF004084FEA82794FEA197908FA09F886
:101D100048EA0505DFF84C814FEA920948F8295056
:101D2000D1F8048008F48018B8F5801F0AD1DFF8D4
:101D30003881D8F8008048EA0008DFF82C91C9F80B
:101D4000008009E0DFF82081D8F8008028EA000848
:101D5000DFF81491C9F80080D1F8048008F4001865
:101D6000B8F5001F10D1DFF8008108F10408D8F899
:101D7000008048EA0008DFF8F09000E05AE009F13E
:101D80000409C9F800800DE0DFF8DC8008F10408E0
:101D9000D8F8008028EA0008DFF8CC9009F104099F
:101DA000C9F80080D1F8048008F40038B8F5003F85
:101DB0000ED1DFF8B480A8F10408D8F8008048EA12
:101DC0000008DFF8A490A9F10409C9F800800DE02B
:101DD000DFF89480A8F10408D8F8008028EA000809
:101DE000DFF88490A9F10409C9F80080D1F80480D3
:101DF00008F48038B8F5803F0ED1DFF86C80A8F188
:101E00000808D8F8008048EA0008DFF85C90A9F1DB
:101E10000809C9F800800DE0DFF84C80A8F1080837
:101E2000D8F8008028EA0008DFF83C90A9F10809FA
:101E3000C9F80080521CD1F8008028FA02F8B8F1E5
:101E4000000F7FF489AEBDE8F88700000000111094
:101E50000010024000080140000C01400010014049
:101E600000140140080001400804014001480068D6
:101E700070470000100000200348006803490978FB
:101E80000844014908607047100000201800002035
:101E900010B50848006840F01000064908600320AB
:101EA00000F0A8F80F2000F007F800F02BF8002051
:101EB00010BD00000020024070B504460E480078B6
:101EC0004FF47A71B1FBF0F00C490968B1FBF0F501
:101ED000284600F0C1FD08B1012070BD102C07D2CA
:101EE00000222146501E00F047F80548046001E03A
:101EF0000120F2E70020F0E7180000201C0000207D
:101F00001400002008B500BF1148806940F00100AE
:101F10000F4988610846806900F00100009000BF09
:101F200000BF00BF0846C06940F08050C861084645
:101F3000C06900F08050009000BF00BF00BF05499D
:101F4000486820F0E06040F00070486000BF08BDC5
:101F5000001002400000014001460846002809DB4D
:101F600000F01F0301229A4043099B0003F1E02384
:101F7000C3F8002100BF70472DE9F05F80460D4691
:101F80001646002702F004FB074639462A46334628
:101F900001F00700C0F1070ABAF1040F02D94FF0AF
:101FA000040A01E0C0F1070AD14600F1040ABAF1BF
:101FB000070F02D24FF0000A01E0A0F1030AD44655
:101FC0004FF0010A0AFA09FAAAF1010A0AEA020A1A
:101FD0000AFA0CFA4FF0010B0BFA0CFBABF1010BF8
:101FE0000BEA030B4AEA0B042146404602F0D8FAFA
:101FF000BDE8F09F00BF00F00702064B19684FF6DE
:10200000FF031940044B0B4343EA0221014B1960C3
:1020100000BF70470CED00E00000FA052DE9F84321
:102020000446002600250027207800F00100002843
:102030006ED0A8467948C06900F0805078B900BFDA
:102040007648C06940F080507449C8610846C0694C
:1020500000F08050009000BF00BF4FF001087048B2
:10206000006800F48070B8B96D48006840F4807072
:102070006B490860FFF7FAFE064607E0FFF7F6FE39
:10208000801B642802D90320BDE8F88364480068F7
:1020900000F480700028F1D06048006A00F44075B8
:1020A0002DB3A08800F44070A84220D05B48006A9D
:1020B00020F4407501205B49086000200860574803
:1020C000056205F0010090B1FFF7D0FE064608E07A
:1020D000FFF7CCFE801B41F28831884201D90320F2
:1020E000D2E74E48006A00F002000028F0D04B48CA
:1020F000006A20F440706168084348490862B8F1FA
:10210000010F04D10846C06920F08050C86100BFAB
:10211000207800F00200022807D14048406820F4EF
:102120004040A16808433D494860207800F0040021
:10213000042807D13948C06A20F40030E168084318
:102140003649C862207800F00800082807D13348D3
:10215000C06A20F48020216908433049C8622F48B2
:10216000C06A00F4003020B92C48C06A00F4802016
:1021700000B10127012F41D12848006800F08050AC
:1021800090BB2648006800F0806040B12348C06AD8
:1021900000F0F001A069814201D0012074E71F48DE
:1021A000C06A20F0F000A16908431C49C8620846D3
:1021B000C06A20F47040616908431849C862012070
:1021C00019490867FFF752FE064606E0FFF74EFE84
:1021D000801B642801D9032056E71048006800F0EE
:1021E00000500028F2D009E0FFE70C48C06A00F474
:1021F00070406169884201D0012045E7207800F0F5
:102200001000102807D10548406820F48000E169DB
:10221000084302494860002036E7000000100240F1
:1022200000700040400442420000424270B5044643
:102230000D460CB9012070BD5A48006800F0070037
:10224000A8420ED25748006820F00700284355499D
:1022500008600846006800F00700A84201D001208D
:10226000E9E7207800F0020002281DD1207800F074
:102270000400042805D14C48406840F4E0604A4915
:102280004860207800F00800082805D146484068DA
:1022900040F46050444948604348406820F0F000F2
:1022A000A168084340494860207800F0010078B3F5
:1022B0006068012806D13C48006800F4003090B9FD
:1022C0000120B8E76068022806D13748006800F0AE
:1022D000007040B90120AEE73348006800F002000A
:1022E00008B90120A7E73048406820F00300616882
:1022F00008432D494860FFF7B9FD064609E0FFF79E
:10230000B5FD801B41F28831884202D9032092E753
:1023100007E02548406800F00C006168B0EB810FD1
:10232000EDD12048006800F00700A8420ED91D48F2
:10233000006820F0070028431A4908600846006832
:1023400000F00700A84201D0012074E7207800F0D7
:102350000400042807D11448406820F4E060E168D4
:10236000084311494860207800F00800082808D187
:102370000D48406820F46050216940EAC1000A49D4
:10238000486000F03FF808494968C1F30311074A63
:10239000515CC8400649086006480068FFF78CFD9C
:1023A000002048E70020024000100240505400087E
:1023B0001C00002014000020014800687047000045
:1023C0001C00002000B5FFF7F7FF04494968C1F37E
:1023D0000221034A515CC84000BD000000100240C9
:1023E0006054000800B5FFF7E7FF04494968C1F3EE
:1023F000C221034A515CC84000BD000000100240E9
:10240000605400082DE9FE4F4FF00009CB46CA4644
:10241000002400200290019000902F48D0F80490F2
:1024200009F00C0000284FD0042802D008284AD117
:1024300002E02A4802904AE02948C9F38341445CFB
:1024400009F48030C0B32448C06A00F00F00254969
:1024500011F800B02048C06A00F4803008B31E486C
:10246000C06AC0F30310401C01901B48C06AC0F34F
:102470000320801C00900198A0FB0B5006461749D2
:102480000098A1FB00120023A1FB047C02FB04C204
:1024900001FB03212A4633463846FDF7C7FE824634
:1024A00003E00E486043B0FBFBFA0D48407BA042BE
:1024B00006D14FEA5A0A03E0FFE70B4804FB00FA93
:1024C000CDF808A003E000BF0448029000BF00BFA1
:1024D0000298BDE8FE8F00000010024000127A0052
:1024E000325400084054000800093D00F8B5044685
:1024F0000CB90120F8BD207800F00100002878D048
:10250000FD48406800F00C0004280CD0FA484068F0
:1025100000F00C00082811D1F748406800F4803022
:10252000B0F5803F0AD1F448006800F4003000287C
:102530005FD0A06800285CD10120DBE700BFA06865
:10254000B0F5803F06D1EC48006840F48030EA499D
:10255000086028E0A06858B9E748006820F4803097
:10256000E54908600846006820F4802008601AE009
:10257000A068B0F5A02F0BD1DF48006840F48020A0
:10258000DD4908600846006840F4803008600AE0D1
:10259000D948006820F48030D749086008460068B0
:1025A00020F48020086000BFA06888B1FFF75EFCBF
:1025B000054606E0FFF75AFC401B642801D90320BA
:1025C00098E7CD48006800F400300028F2D010E011
:1025D000FFF74CFC054606E0FFF748FC401B64286B
:1025E00001D9032086E7C448006800F400300028C1
:1025F000F2D1207800F00200022857D1BE4840688E
:1026000000F00C0050B1BC48406800F00C000828F5
:1026100018D1B948406800F4803098B9B6480068CD
:1026200000F0020020B16069012801D0012061E7BB
:10263000B148006820F0F800A16940EAC100AE4945
:10264000086033E06069E8B10120AC490860FFF739
:102650000DFC054606E0FFF709FC401B022801D9E6
:10266000032047E7A448006800F002000028F2D0E9
:10267000A148006820F0F800A16940EAC1009E4925
:10268000086013E000209D490860FFF7EFFB054656
:1026900006E0FFF7EBFB401B022801D9032029E7E6
:1026A0009548006800F002000028F2D1207800F080
:1026B000080008282DD1E069B8B1012090490860D0
:1026C000FFF7D4FB054606E0FFF7D0FB401B0228CE
:1026D00001D903200EE78848406A00F00200002874
:1026E000F2D0012001F080FA13E000208449086054
:1026F000FFF7BCFB054606E0FFF7B8FB401B0228CE
:1027000001D90320F6E67C48406A00F00200002868
:10271000F2D1207800F00400042873D10027764815
:10272000C06900F0805070B900BF7348C06940F0C4
:1027300080507149C8610846C06900F0805000901F
:1027400000BF00BF01276F48006800F48070B0B977
:102750006C48006840F480706A490860FFF786FBA7
:10276000054606E0FFF782FB401B642801D90320E1
:10277000C0E66448006800F480700028F2D000BF12
:102780002069012806D15C48006A40F001005A49DE
:10279000086227E0206958B95748006A20F0010014
:1027A000554908620846006A20F00400086219E0F2
:1027B000206905280BD15048006A40F004004E49BA
:1027C00008620846006A40F0010008620AE04A48D0
:1027D000006A20F00100484908620846006A20F0BB
:1027E0000400086200BF2069A0B1FFF73FFB054667
:1027F00009E0FFF73BFB401B41F28831884202D9D8
:10280000032077E622E03C48006A00F0020000283E
:10281000EFD012E0FFF72AFB054608E0FFF726FBA2
:10282000401B41F28831884201D9032062E63248D8
:10283000006A00F002000028F0D1012F05D12E48D7
:10284000C06920F080502C49C86100BFE06AA0B385
:102850002948406800F48030B0F5803F0ED126480A
:10286000406800F00C00082808D12348C06A00F432
:102870008030B0F5803F01D101203BE6E06A0228BC
:1028800050D11D48006800F0805040B11A48C06A1D
:1028900000F0F001606B814201D001202AE60020A7
:1028A00016498866FFF7E2FA054607E0FFF7DEFA09
:1028B000401B642802D903201CE64DE00E48006846
:1028C00000F000600028F1D10B48C06A20F0F00051
:1028D000616B08430849C8620846C06A20F470600A
:1028E000216B08430449C862012004498866FFF748
:1028F000BDFA05460FE00000001002400000424211
:102900008004424200700040FFF7B0FA401B642888
:1029100001D90320EEE54E48006800F00060002871
:10292000F2D019E04A48C06A20F480304849C862B1
:10293000002048498866FFF799FA054606E0FFF748
:1029400095FA401B642801D90320D3E5404800686C
:1029500000F000600028F2D1206AE0B33C484068F3
:1029600000F00C0008285ED0206A022846D1002022
:1029700038490866FFF77AFA054606E0FFF776FA67
:10298000401B022801D90320B4E53148006800F05B
:1029900000700028F2D1606AB0F5803F0DD12C485C
:1029A000C06A616808432A49C8620846C06A20F0C4
:1029B0000F00E16808432649C862D4E909010843C9
:1029C0002349496821F474110843214948600120D2
:1029D0002049086600E038E0FFF748FA054606E0BF
:1029E000FFF744FA401B022801D9032082E518486A
:1029F000006800F000700028F2D026E000201549A1
:102A00000866FFF733FA054606E0FFF72FFA401B8A
:102A1000022801D903206DE50D48006800F0007020
:102A20000028F2D111E0206A012800D162E50848AF
:102A3000466806F48031606A814204D106F4701160
:102A4000A06A814201D0012054E5002052E5000037
:102A5000001002400000424270B504462546681E40
:102A6000B0F1807F01D301200FE0681E4FF0E0211C
:102A700048610F214FF0FF3001F092FD00204FF030
:102A8000E021886107200861002070BD7047704711
:102A900030B502460B4600BF92F83C00012801D138
:102AA000022030BD012082F83C0000BF022082F8E5
:102AB0003D00106844681068816824F0700418684C
:102AC000044310684460124D1068A8420FD010688B
:102AD000B0F1804F0BD00F4D1068A84207D00E4DBB
:102AE0001068A84203D00D4D1068A84205D121F00E
:102AF00080015868014310688160012082F83D0020
:102B000000BF002082F83C0000BF00BFC9E7000002
:102B1000002C01400004004000080040000C004070
:102B200010B504460CB9012010BD94F83D0028B939
:102B3000002084F83C00204600F026F8022084F8AB
:102B40003D00211D206801F0FBF8012084F84600BB
:102B500000BF84F83E0001213F200155402001556F
:102B60004120015500BF00BF012084F842004320EE
:102B70000155442001554520015500BF012084F82E
:102B80003D000020D0E7000038B504462068B0F1D1
:102B9000804F16D100BF1848C06940F001001649A7
:102BA000C8610846C06900F00100009000BF00BF86
:102BB000002201211C20FFF7DFF91C20FFF7CCF9D0
:102BC00019E00E492068884215D100BF0A48C06943
:102BD00040F002000849C8610846C06900F00200E0
:102BE000009000BF00BF002211461D20FFF7C4F96E
:102BF0001D20FFF7B1F938BD00100240000400406D
:102C0000014691F83D00012801D0012070470220C3
:102C100081F83D000868C06840F001000B68D8608A
:102C2000144B086898420FD00868B0F1804F0BD061
:102C3000114B0868984207D0104B0868984203D09F
:102C40000F4B086898420CD10868806800F00702B2
:102C5000062A0CD00868006840F001000B68186074
:102C600005E00868006840F001000B68186000206B
:102C7000CCE70000002C01400004004000080040A8
:102C8000000C00402DE9F04104460D46002700BF2E
:102C900094F83C00012802D10220BDE8F081012017
:102CA00084F83C0000BF022084F83D00206886685C
:102CB00026F0770626F47F4620688660286850282C
:102CC00033D00CDC202850D004DC00284BD0102856
:102CD00051D149E0302849D040284CD139E0602812
:102CE0002DD0702807D0B0F5805F03D0B0F5005F1D
:102CF00041D10DE041E0D5E902136A68206801F096
:102D000061F82068866846F077062068866034E0BF
:102D1000D5E902136A68206801F054F820688068D9
:102D200040F480402168886027E0EA68696820688C
:102D300001F05CF85021206801F04FF81DE0EA68CE
:102D40006968206801F065F86021206801F045F8A5
:102D500013E0EA686968206801F048F840212068BB
:102D600001F03BF809E000BF00BF00BF2968206800
:102D700001F033F801E0012700BF00BF012084F813
:102D80003D0000BF002084F83C0000BF384684E7C7
:102D9000704710B5044620680069C0F34000D8B100
:102DA0002068C068C0F34000B0B16FF00200216835
:102DB0000861012020772068806900F0030018B1C5
:102DC0002046FFF7E5FF05E0204600F0ADF820467D
:102DD00000F0ABF80020207720680069C0F3800085
:102DE000D8B12068C068C0F38000B0B16FF00400B3
:102DF00021680861022020772068806900F4407013
:102E000018B12046FFF7C4FF05E0204600F08CF81B
:102E1000204600F08AF80020207720680069C0F37F
:102E2000C000D8B12068C068C0F3C000B0B16FF076
:102E3000080021680861042020772068C06900F03C
:102E4000030018B12046FFF7A3FF05E0204600F07D
:102E50006BF8204600F069F80020207720680069B0
:102E6000C0F30010D8B12068C068C0F30010B0B142
:102E70006FF0100021680861082020772068C06981
:102E800000F4407018B12046FFF782FF05E02046AD
:102E900000F04AF8204600F048F80020207720682B
:102EA000006900F0010058B12068C06800F001001E
:102EB00030B16FF0010021680861204600F036F85B
:102EC00020680069C0F3C01058B12068C068C0F322
:102ED000C01030B16FF08000216808612046FFF714
:102EE000D5FD20680069C0F3801058B12068C06823
:102EF000C0F3801030B16FF04000216808612046B7
:102F000000F03CF820680069C0F3401058B1206818
:102F1000C068C0F3401030B16FF020002168086134
:102F20002046FFF7B4FD10BD7047704710B504464A
:102F30000B48844213D10B48FDF75CFB0A4800F0B4
:102F4000F9FD0948DC3001F0E9FA0823074A990144
:102F50000748FDF787FA074800780749087010BD51
:102F6000C8010020B8030020F40600204200002021
:102F7000A001002028000020170100207047F8B5AC
:102F800004460E46174694F8420020282ED106B17A
:102F90000FB90120F8BD01202063002060633A468C
:102FA0003146204601F04EF90546EDB9206B012867
:102FB00019D100BF002000902068006800902068B0
:102FC0004068009000BF00BF00BF00BF21680C3107
:102FD00051E8001F41F0100021680C3141E8000267
:102FE000002AF3D100E001252846D3E70220D1E7EB
:102FF0002DE9F04105460F464C49286888427DD1AD
:1030000002204B490860002600204A4908807F249E
:103010007FE0494847490988405CA52874D1464962
:10302000444A12888818052101F06AFB01286BD1F7
:10303000414940480088801D085C404908803E495D
:103040003C480088401D085C3C49097840EA012062
:103050003A490880384937480088801C085C38495C
:103060000880354933480088401C085C3449097899
:1030700040EA01203249088030480688A6F205104F
:1030800020B1A0F2051000283ED11DE0294800889B
:10309000201A0A2817D32849264A128888180A2194
:1030A00001F00EFB01280ED1234922480088C01DE3
:1030B0000844244902880A80807888701D48008866
:1030C0000A301C49088000BF1A480088201A0D28C1
:1030D0001AD31949174A128888180D2101F0F0FAFD
:1030E000012811D1144913480088C01D084416490D
:1030F00002680A60808888800E4801E014E003E0DE
:1031000000880D300B4908800A480088401C094996
:10311000088008480088A042FFF67BAF802206495D
:103120000A48FFF72CFF00BFBDE8F08100380140DE
:103130003000002034000020E4020020360000208F
:103140003800002025000020280000205802002020
:1031500070B50446002520684069C0F3C01594F896
:103160004100212817D1B5B100BF00BF216814313B
:1031700051E8001F21F080002168143141E800026D
:10318000002AF3D100BFA06B10B1A06BFEF77FF94E
:10319000204600F048FF20684069C0F3801594F88D
:1031A0004200222817D1B5B100BF00BF21681431F9
:1031B00051E8001F21F040002168143141E800026D
:1031C000002AF3D100BFE06B10B1E06BFEF75FF9AE
:1031D000204600F0E2FE002070BD70472DE9F84F58
:1031E0000446206805682068C668206847694FF073
:1031F0000009CA4605F00F09B9F1000F0AD105F020
:10320000200038B106F0200020B1204600F01EFF5B
:10321000BDE8F88FB9F1000F7BD007F0010018B9B5
:1032200006F49070002874D005F0010030B106F467
:10323000807018B1606C40F00100606405F004001B
:1032400030B107F0010018B1606C40F0020060641A
:1032500005F0020030B107F0010018B1606C40F0D9
:103260000400606405F0080048B106F0200010B9C1
:1032700007F0010018B1606C40F008006064606CF9
:10328000002845D005F0200028B106F0200010B13C
:10329000204600F0DBFE20684069C0F3801A606CB5
:1032A00000F0080010B9BAF1000F2CD0204600F051
:1032B00074FE2068406900F0400000B300BF00BF0A
:1032C0002168143151E8001F21F0400021681431B9
:1032D00041E80002002AF3D100BFE06B50B177480B
:1032E000E16B4863E06BFEF7FDF888B1E06B416B82
:1032F00088470DE02046FFF770FF09E009E020460F
:10330000FFF76BFF04E02046FFF767FF00206064D3
:103310007EE7206B012877D105F01000002873D0DC
:1033200006F010000028FAD000BF002000902068AE
:103330000068009020684068009000BF00BF2068CF
:10334000406900F0400000285FD0E06B00684068F2
:103350001FFA80F8B8F1000F55D0A08D404552DD1E
:10336000A4F82E80E06B8069202843D000BF00BF06
:1033700021680C3151E8001F21F4807021680C3164
:1033800041E80002002AF3D100BF00BF00BF21685E
:10339000143151E8001F21F001002168143141E887
:1033A0000002002AF3D100BF00BF00BF2168143122
:1033B00051E8001F21F040002168143141E800026B
:1033C000002AF3D100BF202084F8420000202063AF
:1033D00000BF00BF21680C3151E8001F21F0100030
:1033E00021680C3141E80002002AF3D100BFE06BF4
:1033F000FEF74DF802206063A08DE28D801A81B245
:103400002046FFF7F5FD03E742E0A08DE18D401A6D
:103410001FFA80F8E08DD0B3B8F1000F37D000BFAD
:1034200000BF21680C3151E8001F21F49070216821
:103430000C3141E80002002AF3D100BF00BF00BFF9
:103440002168143151E8001F21F001002168143176
:1034500041E80002002AF3D100BF202084F8420096
:103460000020206300BF00BF21680C3151E8001F1D
:1034700021F0100021680C3141E80002002AF3D14C
:1034800000BF0220606341462046FFF7B1FDBFE662
:1034900005F0800030B106F0800018B1204600F041
:1034A00035FFB5E605F0400030B106F0400018B138
:1034B000204600F0A8FDABE600BFA9E65F3E00088D
:1034C00010B504460CB9012010BDA06900B100E0A0
:1034D00000BF94F8410028B9002084F8400020463D
:1034E00000F02AF8242084F841002068C06820F405
:1034F00000502168C860204600F026FE2068006960
:1035000020F49040216808612068406920F02A007A
:10351000216848612068C06840F400502168C86094
:1035200000206064202084F8410084F842000020DC
:10353000606300BFC8E7000010B586B004460020F5
:1035400002900390049005902E492068884257D13C
:1035500000BF2D48806940F480402B4988610846AF
:10356000806900F48040019000BF00BF00BF0846A2
:10357000806940F0080088610846806900F0080012
:10358000019000BF00BF4020029002200390032062
:10359000059002A91D48FEF7D9FA8020029000206C
:1035A0000390049002A91948FEF7D0FA00BF184909
:1035B000486840F0E06040F00400486000BF1548F3
:1035C000154908600020486000211348816080216F
:1035D000C1600021016141618161C161FEF722FA90
:1035E00008B1FCF7EAFF00BF0B48E063446200BF8C
:1035F000002211462520FEF7BFFC2520FEF7ACFC7B
:1036000006B010BD0038014000100240000C01401F
:103610000000014058000240A002002070B504469E
:103620000D46164694F8420020280BD105B10EB97C
:10363000012070BD0020206332462946204600F05C
:1036400001FEF6E70220F4E770477047704700BFBD
:10365000FEE7000010B502460C4880F8502080F8C4
:103660005110002007E00023084C04F8303004EB30
:10367000C0046360401C054B93F850308342F2DC79
:103680000120024B03F8310010BD0000640300204C
:103690000EB5002000900190029012481249086077
:1036A000002111488160017301754FF46021C161EF
:1036B00000200D49486001210B480161FDF79AF88F
:1036C00008B1FCF77AFF0020009001200190002053
:1036D000029069460448FCF7DDFF08B1FCF76DFF76
:1036E0000EBD000000240140180100200EB500208E
:1036F0000090019002901148114908600021104883
:103700008160017301754FF46021C16100200C4993
:10371000486001210A480161FDF76CF808B1FCF727
:103720004CFF01200090019000200290694604485F
:10373000FCF7B0FF08B1FCF740FF0EBD00280140C8
:103740004801002010B50E480E490860042048606A
:1037500000210C488160C1604FF480210161C900E3
:103760004161002101760121417681760021C176F7
:1037700001774177FDF780FC08B1FCF71EFF10BD13
:10378000006400407801002010B50E480E49086022
:103790000420486000210C488160C1604FF4802102
:1037A0000161C900416100210176012141760021BA
:1037B0008176C17601774177FDF75EFC08B1FCF7B1
:1037C000FCFE10BD00680040A001002008B500BF4D
:1037D0000A48406940F001000849486108464069CC
:1037E00000F00100009000BF00BF002211460F2032
:1037F000FEF7C2FB0F20FEF7AFFB08BD0010024032
:1038000000B585B00020019002900390049000BFA5
:103810001948806940F0200017498861084680698E
:1038200000F02000009000BF00BF00BF0846806984
:1038300040F0040088610846806900F004000090B0
:1038400000BF00BF00BF0846806940F008008861E3
:103850000846806900F00800009000BF00BF082003
:103860000190002002900120039001A90348FEF777
:103870006DF905B000BD00000010024000080140D5
:1038800000B587B000200390049005900690019049
:1038900002904FF0804014490860472048600021A2
:1038A0001148816040F2E731C1600021016181610E
:1038B000FFF736F908B1FCF780FE4FF48050039013
:1038C00003A90948FFF7DEF908B1FCF776FE0020EE
:1038D0000190029001A90448FFF7DAF808B1FCF75B
:1038E0006CFE07B000BD0000C801002000B587B025
:1038F00000200390049005900690019002901448D7
:10390000144908604720486000211248816040F255
:10391000E731C160002101618161FFF701F908B160
:10392000FCF74BFE4FF48050039003A90948FFF7C2
:10393000A9F908B1FCF741FE00200190029001A90D
:103940000448FFF7A5F808B1FCF737FE07B000BD43
:10395000000400401002002010B50B480B4908601D
:103960004FF4E1304860002108488160C160016186
:103970000C21416100218161C161FFF7A1FD08B106
:10398000FCF71BFE10BD000000380140580200206B
:1039900000BFFEE700BFFEE72DE9F04704460D46F5
:1039A000164614B90020BDE8F087216D6165E16C11
:1039B0002165256266623146284601F0C5FCE06457
:1039C000A06980F000473846E16C01F08BFB06D21D
:1039D000A169E06C01F086FB01D20020E064E16C9B
:1039E000606801F0B3FB2063606BA0632169206B0A
:1039F00001F078FC01D820692063206980F000473D
:103A00003846216B01F06EFC03D8206980F000403D
:103A100020632948007801F051FB8046E16CA068E2
:103A200001F094FB8146414601F090FB0746616B33
:103A300001F0E0F960636169606B01F053FC02D250
:103A4000606960630BE0606980F000473846616B35
:103A500001F048FC03D2606980F000406063616C53
:103A6000A164216C6164D4E9130101F06DFC206450
:103A7000216CE06801F06AFBE063D4E90C0101F01D
:103A8000B9F90746E16B01F0B5F9E0622169E06A36
:103A900001F028FC02D22069E0620BE0206980F08E
:103AA00000473846E16A01F01DFC03D2206980F02E
:103AB0000040E062E06A76E75C00002000B101B9F6
:103AC00070470A6842604A6882608A68C260CA6851
:103AD00002610A6942614A6982618A69C26100239E
:103AE000836443640364C362C363436303634365E2
:103AF0000365C36400BFE3E77047000010B50446E8
:103B0000054904F17400FFF7D9FF044904F11C00D2
:103B1000FFF7D4FF10BD0000705700088C57000855
:103B200010B50446024904F12000FFF7C7FF10BD9D
:103B3000A85700082DE9F04104462046FCF7DAFCBE
:103B400094F8D00001282AD1D4E9350101F0FCFB1A
:103B5000074601F023F921F0004105464FF060428D
:103B60001F4B01F0E5F815D2D4E9351001F0BAFA8F
:103B700005D20120207042F23411618313E0D4E9B0
:103B8000351001F0AFFB0ED2022020704DF6CC6153
:103B9000618308E0002020700021618303E00020A1
:103BA000207000216183B4F9140001F06FFA05461A
:103BB000B4F91A0001F06AFA06462A46314604F1C1
:103BC0002000FFF7E9FEE06C01F044FA000A054925
:103BD0000870E06C01F03EFA02494870BDE8F081DF
:103BE0004D62503F4200002008B508490968C908E5
:103BF0004FF47A72B1FBF2F14143009100BF00BF74
:103C000000994A1E00920029F9D108BD1C0000202D
:103C1000C28882804A780B7842EA0322C280CA783E
:103C20008B7842EA032212B202824A790B7942EA85
:103C3000032212B24282027842B94A780B7842EAF1
:103C4000032242800278521C027017E0C2888388E7
:103C5000D21AB2F5805F03DDC268521EC26008E06E
:103C6000C2888388D21A12F5805F02DAC268521CB9
:103C7000C260C388C26803EB4232826070477047FB
:103C800010B5FEF7F9F810BD00B59BB038210DA8AE
:103C9000FCF743FB142108A8FCF73FFB20216846F2
:103CA000FCF73BFB01200D9000040F9000201090CA
:103CB0000120129000200E9002201590C103169151
:103CC0004FF4E0111791002018900DA8FEF70EFC9C
:103CD00008B1FCF772FC0F20089002200990002028
:103CE0000A904FF480600B9000200C90022108A8ED
:103CF000FEF79CFA08B1FCF760FC022000908003FC
:103D000002906846FEF78AF908B1FCF756FC0120DC
:103D1000014908671BB000BD000042427047000027
:103D200010B50248FFF735F810BD0000C8010020AB
:103D300010B50248FFF72DF810BD0000100200205A
:103D400010B502681B4B98420BD0B0F1804F08D0E1
:103D5000194B984205D0194B984202D0184B984203
:103D600003D122F070024B681A43124B98420BD0D9
:103D7000B0F1804F08D0104B984205D00F4B9842BD
:103D800002D00F4B984203D122F44072CB681A4301
:103D900022F080034C6943EA040202608B68C3622C
:103DA0000B688362034B984201D10B6903630123C3
:103DB000436110BD002C0140000400400008004099
:103DC000000C004030B50C46816821F47F4142EA86
:103DD000032525432943816030BD0A46816821F0CF
:103DE000700142F0070319438160704730B50B46FC
:103DF0001446026A056A25F001050562816921F011
:103E0000F00141EA041122F00A021A4381610262C0
:103E100030BD30B50B461446026A056A25F0100520
:103E20000562816921F4704141EA043122F0A00267
:103E300042EA03128161026230BD10B50446204699
:103E4000FCF7BEFB04F54F70FFF76AFE04F58360D4
:103E500000F02EFB04F2EC40FFF750FE10BD70B5F1
:103E600005466C6A0020E085E0842046FFF7B5F93E
:103E700070BD70B506460025746A20684069C0F3BD
:103E8000C01594F84100212805D125B10020E08417
:103E9000204600F0C8F820684069C0F3801594F807
:103EA0004200222805D125B10020E085204600F0FF
:103EB00074F8606C40F0100060642046FFF78DF9E4
:103EC00070BD70B505466C6A2868006800F0200077
:103ED000002842D1E08500BF00BF21680C3151E8C5
:103EE000001F21F4807021680C3141E80002002A93
:103EF000F3D100BF00BF00BF2168143151E8001F9B
:103F000021F001002168143141E80002002AF3D1B8
:103F100000BF00BF00BF2168143151E8001F21F02D
:103F200040002168143141E80002002AF3D100BFAB
:103F3000202084F84200206B01280ED100BF00BF72
:103F400021680C3151E8001F21F0100021680C316C
:103F500041E80002002AF3D100BF00206063206B1B
:103F6000012804D1A18D2046FFF742F802E0204647
:103F7000FFF76AFB70BD70B505466C6A012060638F
:103F8000206B012805D1A08D41082046FFF730F8AD
:103F900002E02046FFF759FB70BD00BF00BF02687A
:103FA0000C3252E8002F22F4907102680C3242E881
:103FB0000013002BF3D100BF00BF00BF0268143212
:103FC00052E8002F22F001010268143242E8001387
:103FD000002BF3D100BF016B01290ED100BF00BF40
:103FE00002680C3252E8002F22F0100102680C32F5
:103FF00042E80013002BF3D100BF202180F84210CB
:1040000000210163704710B504462068C06820F0A5
:1040100040002168C860202084F841002046FFF756
:1040200015FB002010BD00BF00BF02680C3252E833
:10403000002F22F0C00102680C3242E80013002B6E
:10404000F3D100BF202180F841107047F8B5044635
:1040500094F84200222875D1A068B0F5805F0CD199
:10406000206950B90025A66A20684068C0F308009E
:104070003080A06A801CA06215E0A56A0026A068B6
:10408000B0F5805F03D0A06828B9206918B920680E
:104090004068287004E02068406800F07F002870C5
:1040A000A06A401CA062E08D401E80B2E08500281E
:1040B00046D12068C06820F020002168C8602068D0
:1040C000C06820F480702168C8602068406920F0D2
:1040D000010021684861202084F8420000206063CC
:1040E000206B012826D10020206300BF00BF21687B
:1040F0000C3151E8001F21F0100021680C3141E81B
:104100000002002AF3D100BF2068006800F0100010
:1041100010280AD100BF002000902068006800909D
:1041200020684068009000BF00BFA18D2046FEF7C8
:104130005FFF02E02046FFF787FA0020F8BD01E0AC
:104140000020FBE70220F9E770B504462168096901
:1041500021F44051E2681143226811612269A1688B
:104160001143626941EA02052168C96841F20C62A3
:10417000914329432268D1602168496921F4407143
:10418000A2691143226851612D4A2168914202D1EE
:10419000FEF728F901E0FEF715F900EBC00101EB8D
:1041A000001162689200B1FBF2F100EBC00202EB79
:1041B000001263689B00B2FBF3F26423B2FBF3F2DC
:1041C00002EBC20303EB0212A1EB8201322202EBEB
:1041D00001116422B1FBF2F101F0F00100EBC00229
:1041E00002EB001263689B00B2FBF3F26423B2FBA4
:1041F000F3F201EB021200EBC00101EB0011636866
:104200009B00B1FBF3F100EBC00303EB0013666806
:10421000B600B3FBF6F36426B3FBF6F303EBC30679
:1042200006EB0313A1EB8301322303EB011164239B
:10423000B1FBF3F101F00F0111442268916070BDF0
:104240000038014077B581B0044615460298A06257
:10425000A58500206064222084F842002848E16B94
:1042600088622848E16BC8622748E16B0863002038
:10427000E16B486302AE32682368191D2B46E06B80
:10428000FDF716FC00BF0020009020680068009039
:1042900020684068009000BF00BF206970B100BF77
:1042A00000BF21680C3151E8001F41F48070216883
:1042B0000C3141E80002002AF3D100BF00BF00BF6B
:1042C0002168143151E8001F41F0010021681431C8
:1042D00041E80002002AF3D100BF00BF00BF2168FF
:1042E000143151E8001F41F040002168143141E8C9
:1042F0000002002AF3D100BF002004B070BD00000E
:10430000C33E0008773F0008733E0008014691F85D
:104310004100212828D18868B0F5805F0BD1086959
:1043200048B90A6A1088C0F308000B685860086A28
:10433000801C086205E00B6A581C086218780B683C
:104340005860C88C401E80B2C88458B90868C068DC
:1043500020F080000B68D8600868C06840F040001A
:104360000B68D860002070470220FCE72DE9F84375
:104370004648FEF733FF454800680068C0F3001068
:1043800000287CD000BF00200090404800680068F2
:1043900000903E4800684068009000BF00BF3B4866
:1043A000FEF7D6FE3A4800684068C0F180003949FF
:1043B0000870002700247F255EE0374908190C218A
:1043C00000F07EF935490860334908194FF6FF724D
:1043D0000A2100F0F9F8324908602F48005DA5284D
:1043E00048D12D490819052100F08AF9012841D149
:1043F0002949A01D0E5C601D085C40EA0626A01C31
:1044000011F80080601C085C40EA08283746A7F2D3
:10441000051018B1A0F2051058BB15E0281B0A289A
:1044200011D31D4908190C2100F04AF901280AD1BD
:104430001949E01D01441B480A880280897881706F
:1044400004F10A0084B200BF281B0D2811D31249C1
:1044500008190F2100F034F901280AD10E49E01D96
:104460000844114902680A608088888004F10D00C0
:1044700084B200BF601C84B2AC429EDB00BF8022CD
:1044800005490248FFF7CAF8BDE8F8835802002042
:10449000A002002004000020E40200200800002008
:1044A0000C000020250000202800002000BFFEE7AF
:1044B00010B50446054904F17400FFF7FFFA0449FA
:1044C00004F11C00FFF7FAFA10BD0000C457000801
:1044D000E05700082DE9F0478246DAF8CC0000F0FA
:1044E0005DFC0646094A0A4B00F060F90446094A99
:1044F000094B00F05BF9804600F0B0FABAF8021000
:104500000844CAF81800BDE8F087000006B65386D4
:104510005A85B13F012DA005B480A63F70B5044671
:104520002046FCF705F82046FFF7D4FFA06800F00E
:10453000ADFD0546A06900F0A9FD06462A463146B4
:1045400004F17400FFF728FAA021085900F082FD59
:1045500000B2E082B4F9100000F098FD0546B4F90D
:10456000160000F093FD06462A46314604F11C0071
:10457000FFF712FAA06C00F06DFD000A0349087005
:10458000A06C00F067FD0149487070BD4A00002032
:1045900002480068C0F30220704700000CED00E004
:1045A00010B5002804DB0A07130E054A135406E071
:1045B0000A07140E034A00F00F031B1FD45410BD4A
:1045C00000E400E018ED00E030B5034613B94FF603
:1045D000FF7030BD09E013F8014B82EA0400C0B25D
:1045E000054D35F8100080EA2222081EA1F10101D4
:1045F000F1D11046EDE700006A55000830B50346DA
:1046000005E013F8010B80EA02040448025D081E6D
:10461000A1F10101F5D1104630BD00006954000838
:1046200005480021018081700448016081800120DB
:104630000249087070470000250000202800002073
:10464000FDF726FCFFF720FBFFF7DAF8FFF7BEF8CF
:10465000FFF71EF8FFF714F9FFF774F8FFF794F867
:10466000FFF744F8FFF742F9FFF776F90F48FEF736
:10467000C7FA0F48FEF7C4FAFBF70CFFFFF7D0FFAD
:104680000C48FFF7DAFB00210420FEF7E3FF0A489D
:104690000068C06840F0100007490968C8608022BF
:1046A00006490548FEF7BAFF00BFFEE7C801002033
:1046B00010020020B803002058020020E40200206D
:1046C00070B505460C4600260DB1022C01D800201D
:1046D00070BDA11E094802882846FFF775FF0646EF
:1046E000F1B2A01E285C814206D1601E285CB0EBAE
:1046F000162F01D10120EBE70020E9E75A00002046
:1047000070B505460C4600260DB1022C01D80020DC
:1047100070BD611EFF222846FFF770FF0646601E2F
:10472000285CB04201D10120F2E70020F0E7000050
:1047300021F00042A2F16052B2F5801F01F0004367
:1047400028BFD2F17F6C0BD95FEA001C43EAC2029A
:1047500042EB507018BF704728BF20F0010070472F
:10476000B2F5801FBCBF184670474FEA410C1CF5DC
:10477000001F02D2084600F0B0BD70B500F084FA08
:1047800000000089FFF7F6BF4FF00040A0F5800061
:104790007047491058BFC1F140415B1058BFC3F189
:1047A00040438B42EFF30080704700002DE9C04189
:1047B00030B4DFF8A0C23CEA111418BF3CEA13146D
:1047C00000F0EC8081EA03051CEA111444EAD57478
:1047D00018BF1CEA131500F0C780A4EB05044FF0C6
:1047E000004545EAC12145EAC32341EA505143EA65
:1047F000525304F17F74994204F500344FEAC0200B
:104800004FEAC22208BF904200F09C804FEA136535
:104810000FF24016765D4FEA134506FB05F7C7F128
:10482000807706FB07F74FEAD737A7FB0368764286
:10483000C8F58038A7FB06CE38BFA8F1010807FBF2
:1048400008E64FF0000EA6FB028CE6FB03CEDCF17F
:10485000000CCEF1004E38BFAEF1010EA6FB0C5895
:104860004FF000074FF00005E6FB0E87A1FB08C6DE
:10487000A0FB07CE16EB0E0645F10005E1FB076530
:1048800015F1E04E7EBFA4F580345FEA46066D4127
:1048900016F1800745F100054FEA17274FEA066633
:1048A00047EA0567A6F1DE46B6F1805F4FEA1525B7
:1048B0001FD9384624F0010C05EBC471BCF1FE6F22
:1048C00001EB0C1102D8F0BCBDE8008124425CBFB2
:1048D00001F5801E9EEAC47F02D4F0BCBDE80081D1
:1048E000244238D4F0BCA1F1C041BDE8004100F041
:1048F00019BA4FEAD22242EA43524FEAD323A7FB26
:1049000002864FEAD02040EA415007FB03661EEAC8
:104910000E0F4FEAD12105FB026658BFA6EB0056E9
:10492000B6EB00564FEA520E4EEAC37E18EB0E0E5F
:1049300056EB530EBDD518EB02085E417F1C55F1B6
:104940000005B6E74FF480154FF000074FF0000662
:104950004FF00008ADE7F0BC4FF0000001F1C0419E
:1049600001F00041BDE8008111EA0C1F0CEA1315AB
:1049700000D00CE013EA0C1F00F025804FF000007F
:10498000F0BC81EA030101F00041BDE80081F0BC08
:10499000BDE8004181EA030100F0C4B9F0BCBDE804
:1049A000004170B500F070F9097EFC3E00F007B8D8
:1049B00081EA03014FF0000001F00041704781EAF5
:1049C000030100F0AFB9F0BCBDE800414FF00000BA
:1049D00021497047FFFDFBF9F7F5F4F2F0EEEDEB3E
:1049E000E9E8E6E4E3E1E0DEDDDBDAD8D7D5D4D3ED
:1049F000D1D0CFCDCCCBCAC8C7C6C5C4C2C1C0BF39
:104A0000BEBDBCBBBAB9B8B7B6B5B4B3B2B1B0AF3E
:104A1000AEADACABAAA9A8A8A7A6A5A4A3A3A2A122
:104A2000A09F9F9E9D9C9C9B9A99999897979695DD
:104A300095949393929191908F8F8E8E8D8C8C8B79
:104A40008B8A898988888787868585848483838201
:104A5000828181800000FF070000F87F4FEA410358
:104A60004FEA5353A3F58063D3F11E03C8BFD3F1BC
:104A7000210C0CDD4FF0004242EAC12242EA5052C2
:104A800032FA03FC8CEAE17CACEBE1707047102B4E
:104A9000C4BF0020704703F5787CBCF1FF3F04D011
:104AA0006FF0004282EA2100704770B500F0ECF828
:104AB0004992248000207047F2E7000051EA030C7D
:104AC00017D41CF5801F58BFBCF5801F00F106806D
:104AD000994218BF704708BF9042704707D711F539
:104AE000801F58BF13F5801F19D49942704789421F
:104AF00070471CF5801F08D5BCF5801FF7D58B4289
:104B000018BF704708BF824270474FF4001C1CEB6F
:104B1000410F38BF1CEB430F01D28B42704770B579
:104B200000F0B2F8922449004FF000514FF080534A
:104B3000FFF72FBEDFF848C170B51CEA111E1EBF7B
:104B40001CEA13159EEA0C0F95EA0C0F00F06F801B
:104B500081EA030423EA4C134EEAD47E21EA4C1185
:104B600041F4801143F48013AE44A1FB024CA0FB3E
:104B70000365AEF17F7E361955EB0C05A1FB034CA6
:104B80004CF10003A0FB021C16EB0C06654153F12F
:104B90000003094218BF46F0010613F4007F0BD151
:104BA0004FEA03314FEA0530340341EA155140EA38
:104BB00016506FF003020AE04FEAC3214FEAC52006
:104BC000F40241EA555140EA56506FF0020202EBFE
:104BD0002E4201EB025585EACE710AD05FEA440C01
:104BE00018BF24F0004450F1000041F1000120EA18
:104BF000D47040F2FE7C624500D270BDA84214BF62
:104C00004FF080444FF04044002E08BF0024BEF116
:104C1000806FA8BFA1F1C041BDE8704080F28280E2
:104C20004FF0000001F1C04101F0004170479EEAE1
:104C30000C0F0CEA131518BF95EA0C0F06D04FF0B5
:104C4000000081EA030E0EF0004170BD00F01CF878
:104C50008900013E00F007B800F009B84FEA430CA4
:104C60005FEA5C5C08D081EA030100F05BB84FEAC0
:104C7000410C5FEA5C5CF6D14FF0000001497047DF
:104C80000000FF070000F87F0EF1020E2EF0030E69
:104C90005EF8046B364205D4012A43EB030515F593
:104CA000001F12D8012841EB010C1CF5001F0CD885
:104CB0000ED14FEAD17C15F5001F0CEB4C0C0CF11A
:104CC000020C08BF4CEBD37C04E04FF0080C01E071
:104CD0004FEAD37C0CEB4C0526FA05F606F00706E6
:104CE000B6F1040C06D20EEB860CBDE870404CF019
:104CF000010C6047DFE80CF0090B02024FF00041A5
:104D00004FF00000A1F5002170BD194610460128A2
:104D100051EB010418BFD4F5001484BF002001F04A
:104D2000004170BD0808A0F500114FEA310170473D
:104D300053EA010C17D41CF5801F58BFBCF5801F27
:104D400000F106808B4218BF704708BF824270474F
:104D500007D713F5801F58BF11F5801F19D48B4258
:104D600070479B4270471CF5801F08D5BCF5801F1B
:104D7000F7D5994218BF704708BF904270474FF46B
:104D8000001C1CEB430F38BF1CEB410F01D29942B2
:104D900070470FB40CBC03BCFFF7C1BE43004FEA21
:104DA000D30C4FEA3C0C43401FBF40070CF160514D
:104DB00013F0FE4F70471CF0006F03D100200CF081
:104DC000004170470CF0004343EA507010B540EAD0
:104DD000CC0000F03CFA00BF000000924FEA000156
:104DE000FFF7A0BF4FF000414FF00000A1F50021F8
:104DF0007047000090EA010F48BF81F0004100F1C8
:104E0000AA82421A3CBF801A89184FEAD0524FF04A
:104E10007F4C1CEA410FA2EBD15318BF9CEA026FF2
:104E200000F03B804FF0004C4CEA00204CEA01219E
:104E300021FA03FC10EB0C0C1ED202F1FF325FEAE8
:104E40001C2040EBC25038BF70471CF07F0F4FEA68
:104E5000400C18BFBCF17F4F38BF7047C3F120032F
:104E6000994008BF20F00100BCF17F4F38BF704768
:104E7000A0F1C04000F031BA4FEA3C00000A40EB1C
:104E8000C25028BF1CF0FF0F4FEA400CE6D018BFFD
:104E9000BCF17F4F38BF7047EAE79CEA026F05D04C
:104EA00010EA5C0F08BF00F00040704710B500F03A
:104EB000CEF900BF64FBBE3E401058BFC0F1404079
:104EC000491058BFC1F140418142EFF30080704763
:104ED0004FF47F0C1CEAD0121EBF1CEAD11392EAD9
:104EE0000C0F93EA0C0F00F0858090EA010F48BF89
:104EF00042F4807240F4000C41F400002CF07F4139
:104F000020F07F4000B58142A2EB03020FF2081CA3
:104F1000ACEB504EC0F100009EF800E04FEA4E0EA0
:104F200000FB0EFC38BF49004FEA2C1C02F5FA02C8
:104F30000CFB0EF34FEACE1E4FEA112C4FEAC121B3
:104F40000EEB635E42EB22420EFB0CFC4FEA1C535D
:104F500000FB03114FEA112C4FEA01310EFB0CFC50
:104F60004FEADC4C00FB0C11C14228BF09184CEB86
:104F700003335DF804EB10EB410143EBC250B2F593
:104F80007C0F38BF704729D512F0F00F1CBF00F11D
:104F9000C04000F00040704700818283848586878E
:104FA00088898B8C8D8E8F919293959697999A9CE8
:104FB0009D9FA0A2A3A5A7A8AAACAEB0B2B3B5B757
:104FC000B9BCBEC0C2C5C7C9CCCED1D4D7D9DCDF2D
:104FD000E2E6E9ECF0F3F7FAFE0000004FEA400CDD
:104FE0000CF1807CBCF17E4F28BF7047B0F1C0400F
:104FF00000F073B990EA010F0CEAD11348BF42F4F4
:105000008072624538BF634507D213F47F0F16D014
:1050100080EA010000F00040704710B500F017F979
:10502000097EFC3E00F005B880EA010000F0004077
:10503000704780EA010000F0004000F04EB912F421
:105040007F0F04BF0248704780EA010000F045B9B5
:105050000000C07F41000B0ED3F19E0208D950F42E
:1050600000034FEA032323FA02F048BF404270478F
:1050700010B500F0ECF800BF499224800020704782
:105080006FF0004282EA20007047000010F00041FB
:1050900048BF4042B0FA80F310FA03F2C3F19D0317
:1050A0000BD051EAC35101EB1220530638BF7047B1
:1050B00000F1010008BF20F001007047B0FA80F352
:1050C00010FA03F2C3F19D030AD0D90501EB1220B7
:1050D000530638BF704700F1010008BF20F00100FF
:1050E0007047000050EA010C00F113801CF5000F1E
:1050F00058BFBCF5000F01D48842704707D710F5A0
:10510000000F58BF11F5000F15D48842704789422F
:1051100070471CF5000F04D5BCF5000FF7D5814290
:1051200070474FF0807C1CEB400F38BF1CEB410FE9
:1051300001D28142704710B500F089F892244900ED
:105140004FF000504FF08051FFF7B6BE4FF47F0C88
:105150001CEAD0121EBF1CEAD11392EA0C0F93EA8C
:105160000C0F00F0478090EA010F48BF42F48072B4
:105170004FF0004C4CEA00204CEA012102EB030204
:10518000A0FB0113A2F50002002918BF43F00103A0
:105190005B0028BF4FEA330342EB22425FEA132C45
:1051A0004CEBC2502EBFBCEB436FB2F57C0F704787
:1051B0004FEA036CBCF1004F08BF20F00100B2F5CC
:1051C0007C0F38BF70470BD582F0FF0212F5803F8D
:1051D000C8BF704700F1C040D8BF00F00040704722
:1051E00000F5000C5FEA4C0C48BF7047B0F1C040BE
:1051F00000F073B890EA010F0CEAD11348BF42F4F3
:105200008072624538BF634504D280EA010000F035
:105210000040704710B500F01AF800BF8900013E49
:1052200000F007B800F009B85FEA410C5FEA1C6CB7
:1052300008D080EA010000F050B85FEA400C5FEA55
:105240001C6CF6D14FF00040A0F5800070470EF1C5
:10525000020E2EF0030E5EF8044B244204D44FEAF3
:105260004102B2F17F4F11D84FEA4003B3F17F4FB3
:105270000CD80ED14FEAD07CB2F17F4F0CEB4C0C26
:105280000CF1020C08BF4CEBD17C04E04FF0080C91
:1052900001E04FEAD17C0CEB4C0324FA03F404F058
:1052A0000704B4F1040C06D20EEB840CBDE81040E8
:1052B0004CF0010C6047DFE80CF0070802024FF0E9
:1052C0000040A0F5800010BD0846420018BFD2F192
:1052D000807288BF00F0004010BDFF2141EAD0502D
:1052E000C005704751EA000C00F113801CF5000F57
:1052F00058BFBCF5000F01D48142704707D711F5A4
:10530000000F58BF10F5000F15D481427047894235
:1053100070471CF5000F04D5BCF5000FF7D5884287
:1053200070474FF0807C1CEB410F38BF1CEB400FE7
:1053300001D28842704780EA010081EA000180EAD8
:105340000100FFF7F8BE000090EA010F48BF81F0AE
:1053500000413FF556AD421A04D882F00042A0EB5E
:10536000020011444FEAD0524FF07F4C1CEA410F2B
:10537000A2EBD15318BF9CEA026F4AD04FF0004C09
:105380004CEA00204CEA012121FA03FCB0EB0C0CA2
:105390000FD412F0FE0F36D05FEA4C001DD500127C
:1053A00040EBC25038BF70471CF03F0F18BF70472A
:1053B0000BE0A2F101025FEA1C2040EBC25038BFB3
:1053C00070471CF07F0F18BF7047C3F1200399404E
:1053D00014BF401E20F00100704780084FEA1223DE
:1053E00008BF7047B0FA80FCA2EB0C02CCF1280C8D
:1053F00060FA0CF093EA122F04BF00EBC250704722
:105400004FEAC3707047130A5FEADC1008BF7047A9
:10541000F6E79CEA026F04D010EA5C0F08BF002098
:10542000704710B5FFF713FF40DFF63E81F00040F4
:105430007047000004050607080900000000000D81
:105440000102030405060708090A0B0C0D0E0F10D4
:105450000000000000000000010203040607080924
:105460000000000001020304FF005EBCE2613FDDBA
:1054700083C29C7E20A3FD1F419DC3217FFCA240CF
:105480001E5F01E3BD3E6082DC237D9FC1421CFEA6
:10549000A0E1BF5D0380DE3C62BEE0025CDF8163B1
:1054A0003D7C22C09E1D43A1FF4618FAA427799B8C
:1054B000C584DA3866E5BB5907DB856739BAE40687
:1054C000581947A5FB7826C49A653BD987045AB872
:1054D000E6A7F91B45C6987A24F8A6441A99C72569
:1054E0007B3A6486D85B05E7B98CD2306EEDB35158
:1054F0000F4E10F2AC2F7193CD114FADF3702ECC37
:1055000092D38D6F31B2EC0E50AFF1134DCE90723D
:105510002C6D33D18F0C52B0EE326C8ED0530DEF18
:10552000B1F0AE4C1291CF2D73CA947628ABF5171B
:10553000490856B4EA6937D58B5709EBB536688AFE
:10554000D495CB2977F4AA4816E9B7550B88D634F9
:105550006A2B7597C94A14F6A8742AC896154BA9E0
:10556000F7B6E80A54D7896B350000008911122379
:105570009B322446AD573665BF74488CC19D5AAFE7
:10558000D3BE6CCAE5DB7EE9F7F8811008019333DE
:105590001A22A5562C47B7753E64C99C408DDBBFC7
:1055A00052AEEDDA64CBFFF976E802218B301002BF
:1055B00099132667AF763444BD554AADC3BC588EA7
:1055C000D19F6EEBE7FA7CC8F5D983310A2091129E
:1055D0001803A7772E66B5543C45CBBD42ACD99E87
:1055E000508FEFFB66EAFDD874C904428D531661F3
:1055F0009F702004A9153227BB364CCEC5DF5EED67
:10560000D7FC6888E1997AABF3BA85520C4397715D
:105610001E60A1142805B3373A26CDDE44CFDFFD46
:1056200056ECE9986089FBBB72AA06638F7214403E
:105630009D512225AB343006B9174EEFC7FE5CCC26
:10564000D5DD6AA9E3B8788AF19B87730E6295501D
:105650001C41A3352A24B1163807CFFF46EEDDDC06
:1056600054CDEBB962A8F99A708B088481951AA77A
:1056700093B62CC2A5D33EE1B7F04008C919522B0E
:10568000DB3A644EED5F766DFF7C899400859BB7B5
:1056900012A6ADD224C3BFF136E0C1184809D33BEE
:1056A0005A2AE55E6C4FF77D7E6C0AA583B4188696
:1056B00091972EE3A7F23CC0B5D14229CB38500ACE
:1056C000D91B666FEF7E744CFD5D8BB502A4999675
:1056D0001087AFF326E2BDD034C1C3394A28D11AAE
:1056E000580BE77F6E6EF55C7C4D0CC685D71EE5CA
:1056F00097F42880A1913AA3B3B2444ACD5B56698E
:10570000DF78600CE91D722FFB3E8DD604C79FF534
:1057100016E4A9902081BBB332A2C55A4C4BD7796D
:105720005E68E11C680DF33F7A2E0EE787F61CC415
:1057300095D52AA1A3B03882B193466BCF7A54484D
:10574000DD59622DEB3C700EF91F8FF706E69DD4F4
:1057500014C5ABB122A0B9923083C77B4E6AD5582D
:105760005C49E33D6A2CF11E780F00000000000048
:1057700000008C43000000000000000000E02B4609
:105780000000FA440000000000000000000070412A
:105790006666663F0000000000E02B460000FA4409
:1057A0000000000000000000000070410AD7233C08
:1057B0000000A04100E02B460000FA440000000079
:1057C0000000000000000041000000000000000098
:1057D00000E880460000FA440000000000000000DD
:1057E0000000C841CDCC4C3D0000000000409C456D
:1057F0000000FA4400000000000000001C580008EF
:1058000000000020180100008C0100083459000835
:1058100018010020D00E0000A801000800000000C0
:105820000000000000000000000000000000000078
:1058300010000000010000000024F400000000003F
:105840000000000000000000000000000000000058
:105850000000000000000000000000000000000048
:105860000000000000000000000000000000000038
:10587000000000000000FFFF0100000000000041E8
:105880000AD7A33D9A99993E00E880460000FA4461
:105890000000000000000000000000410AD7A33D06
:1058A0009A99993E00E880460000FA440000000002
:1058B00000000000000000410AD7A33D9A99993EDC
:1058C00000E880460000FA440000000000000000EC
:1058D000000000410AD7A33D9A99993E00E880460E
:1058E0000000FA440000000000000000000000007A
:1058F0006666E6BF00E8FD450088F4450AD7233E0A
:105900003333B3BF00B8EC450058E3450AD7A33E94
:105910006666E6BF0010EF4500B0E5458FC2F53E74
:10592000C3F5E8BF0050EB4500F0E145E17A143FD4
:045930000100000072
:04000005080001519D
:00000001FF
