:020000040800F2
:10000000082200209D010008193C00084B38000818
:10001000153C0008650B0008954F00080000000023
:10002000000000000000000000000000C53F0008C4
:10003000C70D0008000000006D3C0008E73F000805
:10004000B7010008B7010008B7010008B7010008B0
:10005000B7010008B7010008B7010008B7010008A0
:10006000B7010008B7010008B7010008B701000890
:100070006D0C0008B7010008B7010008B7010008BF
:10008000B7010008B7010008B7010008B701000870
:10009000690B0008B7010008B7010008B7010008A4
:1000A000B7010008B7010008B7010008B701000850
:1000B000B7010008B9400008B7010008B7010008FF
:1000C000B7010008B7010008B7010008B701000830
:1000D000B70100082D4C0008B7010008354D000895
:1000E000B7010008B7010008B7010008B701000810
:1000F000B7010008B7010008B7010008B701000800
:10010000B7010008B7010008B7010008B7010008EF
:10011000B7010008B7010008B7010008B7010008DF
:10012000B70100087D0C0008B7010008B7010008FE
:10013000B7010008B7010008B7010008B7010008BF
:10014000790B0008B7010008B7010008B7010008E3
:100150008D0C00089D0C0008AD0C0008794E0008BD
:10016000B7010008B7010008B7010008B70100088F
:10017000B7010008B7010008B7010008000000003F
:10018000B7010008B7010008DFF80CD000F0B8FB99
:1001900000480047D16D000808220020064880472B
:1001A00006480047FEE7FEE7FEE7FEE7FEE7FEE75C
:1001B000FEE7FEE7FEE7FEE7A5400008890100082C
:1001C0009FED1A1AF5EE000A40EE010ABDEEE00AB4
:1001D000F5EEC00A10EE100AF1EE10FA38BF401E1C
:1001E00000EE100A1349F7EE001AB8EEC00A30EE1E
:1001F000C00ADFED0F0A20EE200AFCEEC00A10EE66
:10020000900AC0F3080000EE900A01EB8000F8EEBF
:10021000600A90ED011A70EE600A90ED000A71EE2E
:10022000E01A21EE800A00EE810A704783F9223E2F
:10023000000000441C920008B5EEC00AF1EE10FA6E
:1002400007D2DFED1E0AB4EEE00AF1EE10FAA8BF05
:100250007047DFED1B0AB5EEC00A60EE200ABDEE66
:10026000E01A11EE100AF1EE10FA38BF401E00EE4F
:10027000100A1549F7EE001AB8EEC00A30EEC00AAF
:10028000DFED100A60EE200ABCEEE00A10EE100A64
:10029000C0F3080000EE100A01EB8000B8EE400A3F
:1002A00090ED011A70EEC00A90ED000A71EEE01AAE
:1002B00021EE800A00EE810A70470000CD024CB4A6
:1002C00083F9223E000000441C9200082DE9F05FF3
:1002D0000546002092469B468846064681464024B5
:1002E0001BE0284641464746224600F053FA534653
:1002F0005A46C01A914110D311461846224600F0C2
:100300003AFA2D1A67EB01084F46224601200021D8
:1003100000F031FA17EB00094E41201EA4F1010450
:10032000DFDC484631462A464346BDE8F09F40EAB6
:1003300001039B0703D009E008C9121F08C0042A63
:10034000FAD203E011F8013B00F8013B521EF9D24A
:100350007047D2B201E000F8012B491EFBD2704772
:100360000022F6E710B513460A4604461946FFF781
:10037000F0FF204610BD2DE9FE4F804681EA0300C4
:10038000C00F0C46009021F0004123F00045B8EB6F
:100390000200A94105D24046214690461C460B4624
:1003A000024623F00040104347D0270DC7F30A0050
:1003B000C3F30A510290401A019040286BDAC3F34C
:1003C000130040F4801B0098924620B10023D2EB2A
:1003D000030A63EB0B0B01985946C0F140025046EB
:1003E00000F0C9F906460D4650465946019A00F0FC
:1003F000E1F910EB08006141002487EA115284EA18
:10040000E7731A4340D0009A62B3019A012A4FEA77
:10041000075215DC001B61EB02014FF0004202EABB
:100420000752CDE90042001C41F5801132462B46AF
:1004300000F018FA03B0BDE8F08F40462146F9E716
:10044000001B61EB0201001C41F5801300185B41A9
:100450002018A2F5001747EB030140EAD570B61942
:100460006D4111E06D084FEA360645EAC0754FEA66
:100470000752001B61EB0201001C41F58011490885
:100480004FEA30000019514132462B4603B0BDE817
:10049000F04F00F0D8B90098012240000023D0EBC3
:1004A000020263EBE073009821464FEAE074B8EB78
:1004B000000061EB0401E9E783F000435BE781F0B2
:1004C000004158E72DE9FE4F81EA030404F000449F
:1004D00021F0004100944FF0000B23F0004350EA5C
:1004E00001045ED052EA03045BD0C3F30A54C1F3A3
:1004F0000A552C44A4F2F3340194A0FB0254C1F336
:10050000130141F48011C3F3130343F4801301FB7F
:10051000024400FB034E840A970A44EA815447EAE6
:100520008357A4FB076802958D0A05FB07854FEAF0
:10053000932C04FB0C542705029D4FEA065847EA0A
:100540001637B5EB08056EEB070C870E920E47EADF
:10055000811742EA8312A7FB0201B6EB0B0164EBA1
:1005600000042B0D43EA0C335E1844EB1C50DA46B2
:100570005146E7FB0201C5F313044FEA0B3343EA8C
:1005800014534FEA0432019C43EA0603A4F10C041D
:100590000294009CCDE900B400F064F903B0BDE81A
:1005A000F08F00200146F9E72DE9F04D81EA0304C0
:1005B00004F0004B21F0004514464FF0000A23F0F0
:1005C000004150EA050220D054EA01021DD0C5F3D3
:1005D0000A570246C5F31303C1F31300C1F30A56C9
:1005E00040F4801543F48013A7EB0608101BD64691
:1005F00008F2FD3873EB050002D308F1010801E0B1
:1006000092185B41B8F1000F03DA00200146BDE803
:10061000F08D00204FF48011064684460EE0171B33
:1006200073EB050705D3121B63EB050306434CEA86
:10063000010C49084FEA300092185B4150EA01076B
:10064000EDD152EA030012D082EA040083EA0501E8
:10065000084305D0101BAB4106D20122002306E05F
:1006600000224FF0004302E06FF0010253101AEB3A
:1006700006004CEB085110EB0A0041EB0B01BDE802
:10068000F04D00F0E0B80EB5C10F80EAE07008440C
:10069000CA07002140F233438DE80E000A460B469C
:1006A00000F0E0F803B000BD70B5C1F30A5201F0EC
:1006B00000450024C1F3130140F2FF3341F48011DF
:1006C0009A4201DA002070BD40F233439A42A2F20E
:1006D000334203DC524200F05DF800E090402C43CE
:1006E000F1D0404270BDC1F30A5210B5C1F31301FD
:1006F00040F2FF3341F480119A4201DA002010BD2C
:1007000040F233439A42A2F2334203DC524200F0F9
:1007100041F810BD904010BD00F0004230F00040A4
:100720000AD0C10D01F56071C0F3160042EA015113
:10073000C20840071143704700200146704701F08E
:10074000004330B421F0004150EA010206D00A0D06
:10075000A2F56072C1F31301002A02DC30BC002054
:100760007047440F44EAC104C100E01830BC00EBFC
:10077000C25000F031B8202A04DB203A00FA02F11E
:10078000002070479140C2F1200320FA03F319437F
:1007900090407047202A04DB203A21FA02F0002121
:1007A000704721FA02F3D040C2F120029140084381
:1007B00019467047202A06DBCB17203A41FA02F08F
:1007C00043EAE07306E041FA02F3D040C2F12002AE
:1007D00091400843194670470029A8BF7047401C44
:1007E000490008BF20F00100704710B4B0FA80FC47
:1007F00000FA0CF050EA010404BF10BC704749B184
:10080000CCF1200421FA04F411FA0CF118BF0121F3
:1008100021430843A3EB0C01CB1D4FEA00614FEAD3
:10082000102042BF002010BC704700EBC3501044A2
:100830000029A4BF10BC7047401C490008BF20F02D
:10084000010010BC704710B5141E73F1000408DAE3
:10085000401C41F1000192185B411A4301D120F084
:10086000010010BD2DE9F04D92469B4611B1B1FA41
:1008700081F202E0B0FA80F220329046FFF77BFF6F
:1008800004460F4640EA0A0041EA0B0153465A4625
:10089000084313D0114653EA010019D0C8F14002B1
:1008A0005046FFF777FF05460E46504659464246EA
:1008B000FFF761FF084305D0012004E020463946D8
:1008C000BDE8F08D0020054346EAE0762C4337432F
:1008D0000A986305E40AA0EB08000022FD0A44EA36
:1008E00047540A3002D500200146E9E701051019F6
:1008F0006941DDE9084500196941BDE8F04DA2E70D
:10090000064C074D06E0E06840F0010394E807005C
:1009100098471034AC42F6D3FFF73AFC409B0008EE
:10092000609B00080EB540F2334102910021CDE9F1
:1009300000110A460B46FFF795FF03B000BD70B5E6
:100940008C1810F8015B15F0070301D110F8013B7A
:100950002A1106D110F8012B03E010F8016B01F801
:10096000016B5B1EF9D12B0705D40023521E0DD459
:1009700001F8013BFAE710F8013BCB1A921C03E0A7
:1009800013F8015B01F8015B521EF9D5A142D8D3DF
:10099000002070BD9FED120A80ED030A9FED100A42
:1009A00080ED040A9FED0E0A80ED000A9FED0C0A0F
:1009B00080ED010A9FED0A0A80ED020A9FED080A08
:1009C00080ED050A9FED060A80ED060A9FED040AF8
:1009D00080ED070A9FED020A80ED080A70470000CB
:1009E000000000009FED160A80ED050A9FED140A35
:1009F00080ED060A9FED120A80ED000AB2EE020AAF
:100A000080ED040A9FED0E0A80ED010A9FED0C0AAD
:100A100080ED020A9FED0B0A80ED030A9FED080AA4
:100A200080ED070A9FED060A80ED080A9FED040A93
:100A300080ED090A9FED020A80ED0A0A7047000066
:100A4000000000000000F042F1EE401A71EEA01A22
:100A50009FED3C2A41EE021A3B48C0ED001AF1EE30
:100A6000401A71EEE01A9FED372A41EE421AC0EDAE
:100A7000041AF1EE401A71EEE01A9FED322A41EEAF
:100A8000021AC0ED081AF1EE401A71EEA01A9FED9D
:100A90002D2A41EE421AC0ED0C1AD0ED001A9FED3E
:100AA0002B2A61EE821AC0ED011AD0ED041A9FEDD7
:100AB000272A61EE821AC0ED051AD0ED081A9FEDC3
:100AC000232A61EE821AC0ED091AD0ED0C1A9FEDAF
:100AD0001F2A61EE821AC0ED0D1AD0ED051A9FEDA6
:100AE0001C2A61EE821AFDEEE11A1A48C0ED0B1ABB
:100AF0001548D0ED011A9FED162A61EE821AFDEE1F
:100B0000E11A11EE900A40421349C8620E48D0ED36
:100B1000091A9FED0F2A61EE821AFDEEE11A11EE1D
:100B2000900A40420D49C8620748D0ED0D1A9FED6A
:100B3000082A61EE821AFDEEE11A0948C0ED0B1A8F
:100B40007047000000002042AC110020D3BD9E3F42
:100B50005EBA5B41E806002080080020180A0020E9
:100B6000B00B002000BFFEE710B5024800F029FCE2
:100B700010BD0000C002002010B5024800F021FCAA
:100B800010BD0000E8020020F0B587B006460C4614
:100B900017461D460194002002900390049005958D
:100BA0006B463A4601A9304600F009FA07B0F0BD9D
:100BB00010B50246FF2004E012F8013B4340034C0D
:100BC000E05C0B1EA1F10101F6D110BD1A8F0008E7
:100BD00010B502460B460B48018812B94FF6FF705C
:100BE00010BD08E012F8010B4840C0B2064C34F8C2
:100BF000100080EA2121181EA3F10103F2D108465A
:100C0000EEE70000B80200201A90000870B588B026
:100C100004460D46134884420CD14FF400700290F4
:100C200000200390082006900020049005908DF885
:100C30001C000DE00C4884420AD1062002900020DE
:100C40000390082006900020049005908DF81C0069
:100C500001AB2A4602A9204600F0B1F9064630460B
:100C600008B070BDC0020020E802002010B50248A4
:100C700001F014F810BD00003805002010B502483E
:100C800001F00CF810BD00009805002010B50248D6
:100C900001F004F810BD00007804002010B50248EF
:100CA00000F0FCFF10BD0000F805002010B5024860
:100CB00000F0F4FF10BD0000D804002001460878C1
:100CC00010381823B0FBF3F20848805CC865032A8B
:100CD00005D908686FF30900001D886503E00868FE
:100CE0006FF309008865886D70470000F88B000875
:100CF000014600208A6A8B69CBB932B1012A0DD036
:100D0000022A03D0032A10D10EE000BFCB6A03F001
:100D10008073B3F1807F00D1012007E0CB6AB3F18B
:100D2000C07F00D1012001E000E000BF34E08B690A
:100D3000B3F5005F1AD132B1012A07D0022A03D0DD
:100D4000032A11D10AE000BF01200EE0CB6A03F0B4
:100D50008073B3F1807F00D1012006E0CB6AB3F14C
:100D6000C07F00D1012000E000BF15E032B1012AB0
:100D700005D0022A04D0032A0CD103E000BF00BF33
:100D8000012008E0CB6A03F08073B3F1807F00D1CB
:100D9000012000E000BF00BF704730B50468246840
:100DA00024F4802405682C60046863608468402C07
:100DB00004D10468A2600468E16003E00468A160F3
:100DC0000468E26030BD704772B600BFFEE730B520
:100DD0000B4680F85030002180F8511000BF07E02A
:100DE000002400F8314000EBC1056C604C1CE1B2FE
:100DF0009942F5DB012100F8321030BD454890EDF5
:100E00000A0AB1EE400ADFED440A80EE201A434898
:100E100080ED031A424890ED0A0ADFED3F0A80EEAA
:100E2000201A3E4880ED071A3E4890ED0A0ADFED91
:100E30003A0A80EE201A394880ED0B1A3A4890EDB4
:100E40000A0AB1EE400ADFED340A80EE201A334878
:100E500080ED0F1A90ED030ADFED340A20EE200A30
:100E600080ED020A90ED070ADFED300A20EE200A3D
:100E700080ED060A90ED0B0ADFED2C0A20EE200A29
:100E800080ED0A0A90ED0F0ADFED280A20EE200A15
:100E900080ED0E0A90ED020AD0ED060A30EE600AEF
:100EA000D0ED0A0A30EE600AD0ED0E0A30EE200ACC
:100EB000DFED1F0A80EE201A80ED151A90ED020A70
:100EC000B1EE400AD0ED060A30EE200AD0ED0A0A53
:100ED00030EE600AD0ED0E0A30EE200AF1EE000A84
:100EE00080EE201A80ED131A90ED020AD0ED060A6A
:100EF00030EE200AD0ED0A0A30EE200AD0ED0E0ABC
:100F000030EE200AF1EE000A80EE201A80ED141A6D
:100F100070470000E80600205EBA5B41AC1100207B
:100F200080080020180A0020B00B00206E6C4E3F95
:100F300000002043014691F8510070471049D1ED5F
:100F4000051AB0EE611A012805D10E49D1ED001A3B
:100F500071EE610A06E0022804D10B49D1ED001AB6
:100F600071EE610A9FED092AC0EE821AB0EE002AE6
:100F700061EE821A9FED062A21EE820A7047000078
:100F8000480D0020740000206C0000200000B443D5
:100F9000DC0F494010B5024692F82030012B01D0F9
:100FA000022B06D110684069084314686061002074
:100FB00010BD506A40F4802050620120F8E7F0B57F
:100FC00004460D461E4694F8207020688368A86881
:100FD00000B900E000BF012F01D0022F7DD103F046
:100FE000806030B903F0006018B903F08050002829
:100FF0007ED0C3F30161012088403060A86860B9E9
:10100000B5F800C0E86840EA4C5C206800F5C070A4
:1010100000EB0110C0F800C00FE0D5E901C040EAC4
:10102000CC00D5F80CC040EA0C00D4F800C00CF598
:10103000C07C0CEB011CCCF80000D5F810C0206877
:1010400000F5C07000EB0110C0F804C0287D012835
:101050000ED1206800F5C07000EB0110406840F42C
:10106000807C206800F5C07000EB0110C0F804C05F
:10107000D079000692F806C040EA0C4092F805C00C
:1010800040EA0C2092F804C040EA0C00D4F800C0FA
:101090000CF5C07C0CEB011CCCF80C00D0780006E1
:1010A00092F802C040EA0C4092F801C040EA0C20DD
:1010B00092F800C040EA0C00D4F800C00CF5C07CE7
:1010C0000CEB011CCCF80800206800F5C07000EBA8
:1010D0000110006840F0010C01E00FE008E020681A
:1010E00000F5C07000EB0110C0F800C00020F0BD9A
:1010F000606A40F4001060620120F8E7606A40F422
:10110000802060620120F2E7F0B504460A462168BB
:1011100094F82050012D01D0022D7ED1424901F5D5
:101120000071086840F001000860086820F47C50F5
:1011300008600868566A40EA06200860107D00F0E2
:101140001F06012000FA06F3C8699843C861A1F59B
:101150000071D069C8B9D1F80C029843C1F80C02EB
:10116000908880B2968940EA064601F5107057696A
:1011700040F83760108880B2168940EA064601F5CB
:101180001070576900EBC7004660D069012819D17B
:10119000D1F80C021843C1F80C02908880B216886E
:1011A00040EA064601F51070576940F837609089AB
:1011B00080B2168940EA064601F51070576900EBC7
:1011C000C7004660906928B9D1F804029843C1F875
:1011D000040204E0D1F804021843C1F804021069C3
:1011E00028B9D1F814029843C1F8140204E0D1F8E8
:1011F00014021843C1F81402106A012804D1D1F86E
:101200001C021843C1F81C02D1F8000220F00100B2
:10121000C1F800020020F0BDFFE7606A40F48020C2
:1012200060620120F7E7000000640040704770B57D
:10123000044694F82050012D01D0022D7DD151B9E2
:101240002068C06800F0030080B9606A40F40010B4
:101250006062012070BD2068006900F0030028B9B9
:10126000606A40F4001060620120F3E7206800F536
:10127000D87000EB0110006800F0040090609068E6
:1012800040B9206800F5D87000EB01100068400DEF
:10129000106007E0206800F5D87000EB01100068CE
:1012A000C0085060206800F5D87000EB011000689D
:1012B00000F00200D060206800F5D87000EB01104B
:1012C000406800F00F00082802D30820106108E0F1
:1012D000206800F5D87000EB0110406800F00F00A6
:1012E0001061206800F5D87000EB0110406800F430
:1012F0007F40000A9061206800F5D87000EB011073
:101300004068000C5061206800F5D87000EB0110B7
:1013100080681870206800F5D87000EB01108068B4
:1013200000F47F40000A5870206800F5D87000EB88
:101330000110806800F47F0000E03CE0000C987031
:10134000206800F5D87000EB01108068000ED8709E
:10135000206800F5D87000EB0110C0681871206893
:1013600000F5D87000EB0110C06800F47F40000A5F
:101370005871206800F5D87000EB0110C06800F4C7
:101380007F00000C9871206800F5D87000EB011008
:10139000C068000ED87131B92068C06840F02000E4
:1013A0002668F06005E02068006940F020002668AB
:1013B000306100204EE7606A40F4802060620120C6
:1013C00048E72DE9F05F044600252068466920685B
:1013D000D0F80490206887682068D0F80CA02068B6
:1013E000D0F810B02068D0F8188006F0010000286E
:1013F00055D007F00100C0B101202168886007F0D6
:10140000020018B1204600F0ECFB0EE007F00400EB
:1014100010B145F4006508E007F0080010B145F48C
:10142000805502E0204600F0DBFB07F48070C8B175
:101430004FF480702168886007F4007018B120466E
:1014400000F0D1FB0EE007F4806010B145F40055C8
:1014500008E007F4006010B145F4804502E0204642
:1014600000F0C0FB07F48030C8B14FF48030216831
:10147000886007F4003018B1204600F0B6FB0EE09B
:1014800007F4802010B145F4004508E007F400207F
:1014900010B145F4803502E0204600F0A5FB06F0CF
:1014A000080038B10AF0100020B145F40075102092
:1014B0002168C86006F0040040B10AF0080028B1B5
:1014C00008202168C860204600F00CFA06F00200EF
:1014D00038B12068C06800F0030010B1204600F069
:1014E00003FA06F0400038B10BF0100020B145F4CB
:1014F000806510202168086106F0200040B10BF0E3
:10150000080028B1082021680861204600F036FB59
:1015100006F0100038B12068006900F0030010B137
:10152000204600F02CFB06F4003040B109F010001A
:1015300028B1102021684860204600F021FB06F405
:10154000803040B109F0080028B1082021684860C7
:10155000204600F04BFB06F4004088B309F004007D
:1015600078B306F4807020B108F0010008B145F0AE
:10157000010506F4007020B108F0020008B145F042
:10158000020506F4806020B108F0040008B145F0BF
:10159000040506F40060A0B108F0700088B108F0FE
:1015A0007000402817D006DC10280BD020280CD063
:1015B000302819D10CE0502810D0602814D110E048
:1015C0001DE019E045F008050FE045F010050CE0BE
:1015D00045F0200509E045F0400506E045F08005AE
:1015E00003E045F4807500E000BF00BF206880691B
:1015F00020F07000216888610420216848602DB1C6
:10160000606A284360622046FFF710FEBDE8F09F45
:1016100070B504460CB9012070BD94F8200010B9D3
:10162000204600F0AFF82068006840F00100216813
:10163000086000F027FE05460DE000F023FE401B89
:101640000A2808D9606A40F400306062052084F8F6
:1016500020000120E0E72068406800F00100002839
:10166000EBD02068006820F002002168086000F0DC
:1016700009FE05460DE000F005FE401B0A2808D9CA
:10168000606A40F400306062052084F82000012088
:10169000C2E72068406800F002000028EBD1207EFD
:1016A000012806D12068006840F0800021680860A9
:1016B00005E02068006820F0800021680860607EF6
:1016C000012806D12068006840F0400021680860C9
:1016D00005E02068006820F0400021680860A07ED6
:1016E000012806D12068006840F0200021680860C9
:1016F00005E02068006820F0200021680860E07E96
:10170000012806D12068006820F0100021680860D8
:1017100005E02068006840F0100021680860207F24
:10172000012806D12068006840F0080021680860A0
:1017300005E02068006820F0080021680860607FEC
:10174000012806D12068006840F004002168086084
:1017500005E02068006820F0040021680860D4E9F2
:101760000201084321690843616908436168491E11
:1017700008432168C86100206062012084F82000CD
:10178000002049E710B586B00446142101A8FEF7F1
:10179000E7FD4E492068884241D14D480068401C11
:1017A0004B4908600846006801280FD100BF00209F
:1017B00000904848006840F00070464908600846BC
:1017C000006800F00070009000BF00BF00BF002064
:1017D000009040481038006840F008003D4910393A
:1017E00008600846006800F00800009000BF00BFD5
:1017F0000320019002200290002003900320049017
:101800000920059001A9344800F03CFC0022052184
:10181000142000F0C5FD142000F0AEFD54E02F4967
:101820002068884250D100BF0020009029480068FD
:1018300040F08060274908600846006800F080603A
:10184000009000BF00BF22480068401C204908608B
:101850000846006801280FD100BF002000901D48F5
:10186000006840F000701B4908600846006800F0FE
:101870000070009000BF00BF00BF0020009015481E
:101880001038006840F0020012491039086008461C
:10189000006800F00200009000BF00BF60200190CF
:1018A000022002900020039003200490092005905C
:1018B00001A90B4800F0E6FB00220521402000F0C2
:1018C0006FFD402000F058FD06B010BD00640040E0
:1018D0002400002040380240000C02400068004014
:1018E0000004024070470000F0B52DED028B89B076
:1018F00005468C48854274D16B4602AA0021FFF749
:1019000096FC684605F0ACFB0446B4F9000000EE16
:10191000100AB8EEC08AB4F90260B4F9047040F25B
:1019200003220298811A904229D007DC032859D05B
:10193000A0F2012038B101285FD112E001292CD09A
:1019400002295AD137E0784805F0EAF9BCEEC80A16
:1019500010EE100A81B23B463246744805F046F953
:101960004CE0734805F0DCF9BCEEC80A10EE100A32
:1019700081B23B4632466F4805F038F93EE06E488A
:1019800005F0CEF9BCEEC80A10EE100A81B23B4653
:1019900032466A4805F02AF930E0694805F0C0F996
:1019A000BCEEC80A10EE100A81B23B4632466548CA
:1019B00005F01CF922E0644805F0B2F9BCEEC80A53
:1019C00010EE100A81B23A46604805F06BFB6048A1
:1019D0000680BDEEC80A10EE100A00B25D4908800C
:1019E0000CE00CE0BCEEC80A10EE100A81B23B46D7
:1019F00032464E4805F0FAF800BF00BF8DE0564869
:101A000085427DD15548C06A401C5449C8626B4626
:101A100002AA00215048FFF70AFC10B103204F49E9
:101A2000C860684605F01CFB04460298672808D188
:101A30004B4805F075F94A4834380099016101991D
:101A400041610298B0F58A7F08D19DF800004349B2
:101A500081F828009DF8010081F8290002980728E4
:101A600021D100BFB4F9020000EE100AB8EEC00A9E
:101A70003A4880ED000AB4F9000000EE100AB8EE12
:101A8000C00A364880ED010AB4F9040000EE100ADD
:101A9000B8EEC00A314880ED020AB4F906002B49BD
:101AA000886300BF00BF0298062836D19DF8000069
:101AB0002A49C8609DF801002A4908809DF8020063
:101AC0002949087026483438007E2549343981F880
:101AD00031009DF802000876084690F831009DF824
:101AE0000210884203D001201D49343948769DF800
:101AF00003001E4908709DF804001D49087000E0AD
:101B00000BE09DF805001B4908709DF806001A4976
:101B100008709DF807001149087609B0BDEC028BEA
:101B2000F0BD0000C00200201C080020E8060020D4
:101B3000B4090020800800204C0B0020180A002067
:101B4000E40C0020B00B00207C0E0020480D00208B
:101B50004402002046020020E8020020580600202F
:101B6000F01000204C020020490200204A02002010
:101B70005A0200204E0200204202002070477047A7
:101B8000704770B5044694F82000012822D1022045
:101B900084F820002068006820F0010021680860B7
:101BA00000F070FB05460DE000F06CFB401B0A28BE
:101BB00008D9606A40F400306062052084F8200093
:101BC000012070BD2068406800F001000028EBD1C2
:101BD0006062F6E7606A40F4002060620120F0E78E
:101BE000704770477047704770477047704770B5CF
:101BF0000446A56D00F046FB064694F83500022821
:101C000008D08020606500BF002084F8340000BF49
:101C1000012070BD2068006820F01600216808606F
:101C20002068406920F0800021684861206C08B974
:101C3000A06C28B12068006820F0080021680860C6
:101C40002068006820F001002168086010E000F0C2
:101C500019FB801B05280BD920206065032084F820
:101C6000350000BF002084F8340000BF0320D0E717
:101C70002068006800F001000028E8D194F85C10AA
:101C80003F208840A860012084F8350000BF002074
:101C900084F8340000BF00BFBBE70000F8B504467D
:101CA000002000908C4800684FF41651B0FBF1F70B
:101CB000A56D2E6894F85C1008208840304098B1DB
:101CC0002068006800F0040070B12068006820F00F
:101CD00004002168086094F85C1008208840A8601F
:101CE000606D40F00100606594F85C100120884050
:101CF000304068B12068406900F0800040B194F83D
:101D00005C1001208840A860606D40F002006065B2
:101D100094F85C1004208840304068B12068006866
:101D200000F0020040B194F85C1004208840A860E4
:101D3000606D40F00400606594F85C1010208840ED
:101D4000304078B32068006800F0080050B394F881
:101D50005C1010208840A8602068006800F4802093
:101D600080B12068006800F4002028B9206CC8B158
:101D70002046216C884715E0A06C98B12046A16CE4
:101D800088470FE02068006800F4807028B9206858
:101D9000006820F0080021680860206C10B120461F
:101DA000216C884794F85C1020208840304000283F
:101DB00065D02068006800F0100000285FD094F81B
:101DC0005C1020208840A86094F83500052828D1B0
:101DD0002068006820F016002168086020684069CB
:101DE00020F0800021684861206C08B9A06C28B1FF
:101DF0002068006820F008002168086094F85C10F2
:101E00003F208840A860012084F8350000BF0020F2
:101E100084F8340000BF206D10B12046216D884742
:101E2000F8BD2068006800F4802080B12068006858
:101E300000F4002028B9606C10B12046616C88471E
:101E40001DE0E06BD8B12046E16B884717E02068C1
:101E5000006800F4807068B92068006820F0100005
:101E600021680860012084F8350000BF002084F854
:101E7000340000BFE06B10B12046E16B8847606D15
:101E800038B3606D00F00100F0B1052084F8350032
:101E90002068006820F001002168086000BF0098F9
:101EA000401C0090B84200D905E02068006800F0AE
:101EB00001000028F3D100BF012084F8350000BFE5
:101EC000002084F8340000BFE06C10B12046E16CC3
:101ED000884700BFA4E70000B40200202DE9F041CC
:101EE0000446002500F0CEF9074614B90120BDE8EC
:101EF000F081606A00B100BF022084F8350000BFA5
:101F0000002084F8340000BF2068006820F0010041
:101F1000216808600AE000F0B5F9C01B052805D962
:101F200020206065032084F83500E0E72068006821
:101F300000F001000028EED1206805682148054026
:101F4000D4E901010843E168084321690843616954
:101F50000843A1690843E1690843216A084305432E
:101F6000606A042803D1D4E90B01084305432068C3
:101F700005602068456925F00705606A0543606AC9
:101F800004280DD1A06A0543E06A48B12046FEF757
:101F9000AFFE28B140206065012084F83500A6E737
:101FA000206845612046FEF789FE064694F85C10DD
:101FB0003F208840B06000206065012084F8350033
:101FC000002094E73F8010F02DE9F04704460D46CD
:101FD00016461F464FF00008D4F8589000BF94F8FA
:101FE0003400012802D10220BDE8F087012084F8E6
:101FF000340000BF94F83500012825D1022084F870
:102000003500002060653B46324629462046FEF7F3
:10201000C4FE94F85C103F208840C9F8080020688E
:10202000006840F0160021680860206C28B1206824
:10203000006840F00800216808602068006840F0EF
:1020400001002168086006E000BF002084F8340029
:1020500000BF4FF002084046C6E7000070B50446D6
:1020600000F010F906462546681C10B104480078B7
:10207000054400BF00F006F9801BA842FAD370BDEA
:10208000B0020020F8B502460B46002500240020CF
:102090000021D6E0012606FA01F51E6806EA0504CD
:1020A000AC4274D11E7906F00306012E04D01E79CD
:1020B00006F00306022E13D190684F000326BE409F
:1020C000B0434F00DE68BE40304390605068012648
:1020D0008E40B0431E79C6F300168E4030435060E8
:1020E0001E7906F00306032E09D0D0684F000326A0
:1020F000BE40B0434F009E68BE403043D0601E7962
:1021000006F00306022E13D1CF0802F1200656F87E
:1021100027004E07F70E0F26BE40B0434F07FF0EB5
:102120001E69BE403043CF0802F1200646F8270062
:1021300010684F000326BE40B0431E7906F0030628
:102140004F00BE40304310605E6806F44036002EFB
:1021500076D000BF002600963C4E366846F4804696
:102160003A4F3E603E46366806F48046009600BF11
:1021700000BF374E8F0856F827008E07370F0F26FF
:10218000BE40B043334EB24202D1002624E057E0B5
:10219000314EB24201D101261EE0304EB24201D191
:1021A000022619E02E4EB24201D1032614E02D4E34
:1021B000B24201D104260FE02B4EB24201D10526D6
:1021C0000AE02A4EB24201D1062605E0284EB2426C
:1021D00001D1072600E008268F073F0FBE4030439D
:1021E0001B4E8F0846F82700224E3068A0435E68D9
:1021F00006F4801606B120431E4E3060361D30684E
:10220000A0435E6806F4001606B12043194E361D41
:102210003060184E361F3068A0435E6806F4003602
:1022200006B12043134E361F3060361F3068A0437E
:102230005E6806F4803606B120430E4E083E3060DC
:10224000491C1029FFF426AFF8BD000044380240B5
:10225000083801400000024000040240000802402B
:10226000000C02400010024000140240001802401E
:10227000001C0240083C01400AB1816101E00B04EE
:10228000836170470148006870470000A802002081
:102290000348006803490978084401490860704709
:1022A000A8020020B002002010B50D48006840F4DC
:1022B00000700B4908600846006840F480600860C0
:1022C0000846006840F480700860032000F0A6F81B
:1022D0000F2000F007F800F02BF8002010BD0000E0
:1022E000003C024070B504460E4800784FF47A7105
:1022F000B1FBF0F00C490968B1FBF0F5284600F09D
:102300002FFC08B1012070BD102C07D200222146FD
:10231000501E00F045F80548046001E00120F2E796
:102320000020F0E7B0020020B4020020AC02002040
:1023300008B500BF002000900E48006840F48040BF
:102340000C4908600846006800F48040009000BF17
:1023500000BF00BF00200090081F006840F08050C0
:10236000091F08600846006800F08050009000BF18
:1023700000BF08BD443802400146084600280DDB76
:1023800000BF00BF00F01F0301229A4043099B00D9
:1023900003F1E023C3F8002100BF00BF00BF704776
:1023A0002DE9F05F80460D461646002702F022FE1A
:1023B000074639462A46334601F00700C0F1070AAE
:1023C000BAF1040F02D94FF0040A01E0C0F1070A84
:1023D000D14600F1040ABAF1070F02D24FF0000A09
:1023E00001E0A0F1030AD4464FF0010A0AFA09FA03
:1023F000AAF1010A0AEA020A0AFA0CFA4FF0010BE2
:102400000BFA0CFBABF1010B0BEA030B4AEA0B04D2
:102410002146404602F0F6FDBDE8F09F00BF00F007
:102420000702064B19684FF6FF031940044B0B4394
:1024300043EA0221014B196000BF70470CED00E038
:102440000000FA0570B504460D460CB9012070BDB8
:102450005848006800F00700A84209D255490D709D
:102460000846006800F00700A84201D00120EEE70E
:10247000207800F0020002281DD1207800F004002E
:10248000042805D14C48006840F4E0504A490860EF
:10249000207800F00800082805D14748006840F47B
:1024A0006040454908604448006820F0F000A16899
:1024B000084341490860207800F00100A8B3606833
:1024C000012807D13C4808380068C0F34040B8B93B
:1024D0000120BCE76068022802D06068032807D1A9
:1024E000354808380068C0F3406048B90120AEE7BD
:1024F000314808380068C0F3400008B90120A6E759
:102500002D48006820F00300616808432A490860EC
:10251000FFF7B8FE064609E0FFF7B4FE801B41F264
:102520008831884202D9032091E707E022480068F9
:1025300000F00C006168B0EB810FEDD11D48006820
:1025400000F00700A84209D91A490D700846006832
:1025500000F00700A84201D0012078E7207800F0C1
:102560000400042807D11448006820F4E050E16812
:10257000084311490860207800F00800082808D1B5
:102580000D48006820F46040216940EAC1000A4912
:10259000086000F03FF808490968C1F30311074AD1
:1025A000515CC8400649086006480068FFF79AFE7B
:1025B00000204CE7003C024008380240008C000834
:1025C000B4020020AC0200200148006870470000FF
:1025D000B402002000B5FFF7F7FF04490968C1F312
:1025E0008221034A515CC84000BD00000838024007
:1025F000108C000800B5FFF7E7FF04490968C1F334
:102600004231034A515CC84000BD00000838024016
:10261000108C00082DE9F047002400250026A14673
:102620002548006800F00C0020B1042805D00828D7
:102630003AD105E0DFF8849039E0DFF8849036E0A5
:102640001D48001F006800F03F041B48001F006881
:1026500000F4800078B11A481749091F0968C1F3CE
:102660008811A0FB01700146224600233846FDF781
:102670002DFE05460EE011480F49091F0968C1F3F8
:102680008811A0FB01700146224600233846FDF761
:102690001DFE05460848001F0068C0F30140401CAD
:1026A0004600B5FBF6F902E0DFF8109000BF00BF6E
:1026B0004846BDE8F0870000083802400024F400D6
:1026C000001BB700F8B504460CB90120F8BD20780E
:1026D00000F00100002874D0F948006800F00C00F8
:1026E00004280DD0F648006800F00C00082813D12B
:1026F000F348001F006800F48000B0F5800F0BD194
:10270000EF4808380068C0F34040002859D060689E
:10271000002856D10120D9E700BF6068B0F5803F9E
:1027200008D1E7480838006840F48030E4490839A7
:1027300008601EE06068B0F5A02F0DD1E0480838B1
:10274000006840F48020DE490839086008460068C7
:1027500040F4803008600CE0D9480838006820F464
:102760008030D749083908600846006820F4802086
:10277000086000BF606890B1FFF784FD054606E081
:10278000FFF780FD401B642801D903209EE7CC4859
:1027900008380068C0F340400028F1D011E0FFF78E
:1027A00071FD054606E0FFF76DFD401B642801D969
:1027B00003208BE7C24808380068C0F34040002877
:1027C000F1D1207800F0020002285FD1BC480068F7
:1027D00000F00C0058B1BA48006800F00C0008285E
:1027E0001CD1B748001F006800F48000B0B9B4489D
:1027F00008380068C0F3400020B1E068012801D02B
:10280000012063E7AE480838006820F0F80021692D
:1028100040EAC100AA490839086037E0E06800B31F
:102820000120A8490860FFF72DFD054606E0FFF7E7
:1028300029FD401B022801D9032047E7A04808389A
:102840000068C0F340000028F1D09D4808380068B7
:1028500020F0F800216940EAC10099490839086070
:1028600014E0002097490860FFF70CFD054606E0DC
:10287000FFF708FD401B022801D9032026E79048F6
:1028800008380068C0F340000028F1D1207800F03B
:10289000080008282CD16069A8B101208A49086085
:1028A000FFF7F0FC054606E0FFF7ECFC401B0228B2
:1028B00001D903200AE782486C300068C0F3400069
:1028C0000028F1D014E000207F490860FFF7DAFC0F
:1028D000054606E0FFF7D6FC401B022801D903207D
:1028E000F4E677486C300068C0F340000028F1D16E
:1028F000207800F00400042870D100277048383098
:10290000006800F0805090B900BF002000906C4833
:102910003830006840F08050694938310860084616
:10292000006800F08050009000BF00BF012767489A
:10293000006800F48070B0B96448006840F48070AA
:1029400062490860FFF79EFC054606E0FFF79AFC27
:10295000401B022801D90320B8E65C48006800F457
:1029600080700028F2D000BFA068012808D1544828
:102970006830006840F001005149683108601DE08E
:10298000A06805280DD14E486830006840F004006A
:102990004B49683108600846006840F00100086053
:1029A0000CE047486830006820F001004449683175
:1029B00008600846006820F00400086000BFA068B6
:1029C000A8B1FFF75FFC054609E0FFF75BFC401B81
:1029D00041F28831884202D9032077E626E0384860
:1029E00068300068C0F340000028EED013E0FFF725
:1029F00049FC054608E0FFF745FC401B41F28831E1
:102A0000884201D9032061E62D4868300068C0F390
:102A100040000028EFD1012F07D129483830006845
:102A200020F0805026493831086000BFA069002896
:102A300045D02348006800F00C0008285DD0A0694C
:102A4000022845D100201F490866FFF71BFC0546F8
:102A500006E0FFF717FC401B022801D9032035E6EA
:102A6000174808380068C0F340600028F1D1D4E965
:102A700007010843616A40EA81110122A06AC2EBA2
:102A8000500041EA00412C20005D41EA00600C4901
:102A9000091F086001200B490866FFF7F3FB054694
:102AA00006E0FFF7EFFB401B022801D903200DE6EB
:102AB000034808380068C0F340600028F1D049E0BE
:102AC0000838024000004742800E47420070004034
:102AD000002021490866FFF7D5FB054606E0FFF711
:102AE000D1FB401B022801D90320EFE51B480068F9
:102AF000C0F340600028F2D12CE0A069012800D189
:102B0000E4E51648001D0668A069012820D006F4F7
:102B10008001E06981421BD106F03F01206A8142B9
:102B200016D147F6C0703040616AB0EB811F0FD1FB
:102B300006F440310122A06AC2EB5000B1EB004F15
:102B400006D106F070612C20005DB1EB006F01D062
:102B50000120BBE50020B9E50000474200380240F3
:102B600070B504462546681EB0F1807F01D3012070
:102B70000FE0681E4FF0E02148610F214FF0FF3059
:102B800002F040FA00204FF0E02188610720086140
:102B9000002070BD7047704730B502460B4600BF3D
:102BA00092F83C00012801D1022030BD012082F8BA
:102BB0003C0000BF022082F83D00106844681068A5
:102BC000816824F070041868044310684460184D4C
:102BD0001068A8421BD01068B0F1804F17D0154D77
:102BE0001068A84213D0144D1068A8420FD0134D9E
:102BF0001068A8420BD0124D1068A84207D0114DA2
:102C00001068A84203D0104D1068A84205D121F0E9
:102C100080015868014310688160012082F83D00FE
:102C200000BF002082F83C0000BF00BFBDE70000ED
:102C3000000001400004004000080040000C00407B
:102C400000040140004001400018004010B5044657
:102C50000CB9012010BD94F83D0028B9002084F87B
:102C60003C00204600F026F8022084F83D00211D9B
:102C7000206801F029FA012084F8460000BF84F89A
:102C80003E0001213F2001554020015541200155C2
:102C900000BF00BF012084F84200432001554420BA
:102CA00001554520015500BF012084F83D0000205A
:102CB000D0E7000038B5044619492068884218D189
:102CC00000BF002000901748006840F0020015493E
:102CD00008600846006800F00200009000BF00BFD6
:102CE000002205211D20FFF75BFB1D20FFF744FBA1
:102CF00015E00D492068884211D100BF00200090E6
:102D00000848001D006840F400300649091D0860AD
:102D10000846006800F40030009000BF00BF38BDD6
:102D2000000400404038024000440140014691F850
:102D30003D00012801D001207047022081F83D00AC
:102D40001A4B086898421BD00868B0F1804F17D022
:102D5000174B0868984213D0164B086898420FD05A
:102D6000154B086898420BD0144B0868984207D05E
:102D7000134B0868984203D0124B086898420CD154
:102D80000868806800F00702062A0CD0086800680E
:102D900040F001000B68186005E00868006840F02A
:102DA00001000B6818600020C6E700000000014029
:102DB0000004004000080040000C004000040140F6
:102DC0000040014000180040014691F83D000128F4
:102DD00001D001207047022081F83D000868C068DA
:102DE00040F001000B68D8601A4B086898421BD06D
:102DF0000868B0F1804F17D0174B0868984213D07D
:102E0000164B086898420FD0154B086898420BD0B3
:102E1000144B0868984207D0134B0868984203D0B7
:102E2000124B086898420CD10868806800F00702CD
:102E3000062A0CD00868006840F001000B68186092
:102E400005E00868006840F001000B681860002089
:102E5000C0E70000000001400004004000080040FE
:102E6000000C0040000401400040014000180040F8
:102E70002DE9F04104460D46002700BF94F83C00C0
:102E8000012802D10220BDE8F081012084F83C0035
:102E900000BF022084F83D002068866826F077068F
:102EA00026F47F46206886602868502833D00CDCE2
:102EB000202850D004DC00284BD0102851D149E004
:102EC000302849D040284CD139E060282DD07028D6
:102ED00007D0B0F5805F03D0B0F5005F41D10DE0C1
:102EE00041E0D5E902136A68206801F072F92068B0
:102EF000866846F077062068866034E0D5E90213DC
:102F00006A68206801F065F92068806840F48040B4
:102F10002168886027E0EA686968206801F06DF937
:102F20005021206801F060F91DE0EA6869682068B6
:102F300001F076F96021206801F056F913E0EA68A3
:102F40006968206801F059F94021206801F04CF9C6
:102F500009E000BF00BF00BF2968206801F044F904
:102F600001E0012700BF00BF012084F83D0000BF41
:102F7000002084F83C0000BF384684E7704770B5F5
:102F800004462068C5682068066906F00200022829
:102F900019D105F00200022815D1401F21680861EF
:102FA000012020772068806900F0030018B12046D6
:102FB000FFF7E4FF05E0204600F097F8204600F018
:102FC00095F80020207706F00400042819D105F0B8
:102FD0000400042815D1C04321680861022020772D
:102FE0002068806900F4407018B12046FFF7C6FFE2
:102FF00005E0204600F079F8204600F077F8002040
:10300000207706F00800082819D105F008000828E4
:1030100015D1C04321680861042020772068C06969
:1030200000F0030018B12046FFF7A8FF05E0204696
:1030300000F05BF8204600F059F80020207706F0F9
:103040001000102819D105F01000102815D1C04328
:1030500021680861082020772068C06900F440706A
:1030600018B12046FFF78AFF05E0204600F03DF842
:10307000204600F03BF80020207706F0010048B120
:1030800005F0010030B16FF00100216808612046B1
:1030900000F0B4F806F08000802809D105F0800027
:1030A000802805D1C043216808612046FFF772FDE2
:1030B00006F04000402809D105F04000402805D125
:1030C000C04321680861204600F01EF906F0200088
:1030D000202809D105F02000202805D1C04321680F
:1030E00008612046FFF757FD70BD7047704700002C
:1030F00070B504460D4615B994F83E000BE0042D5A
:1031000002D13F20005D06E0082D02D14020005D85
:1031100001E04120005D012801D0012070BD1DB9F2
:10312000022084F83E000EE0042D03D102213F204E
:10313000015508E0082D03D102214020015502E08D
:1031400002214120015501222946206801F030F872
:1031500023492068884203D022492068884201D14F
:10316000012000E0002028B12068406C40F40040BD
:10317000216848641A49206888421BD02068B0F151
:10318000804F17D018492068884213D0174920680B
:1031900088420FD01649206888420BD01149206818
:1031A000884207D013492068884203D0124920681A
:1031B00088420CD12068806800F00706062E0CD0EB
:1031C0002068006840F001002168086005E0206880
:1031D000006840F001002168086000209EE70000C0
:1031E00000000140000401400004004000080040CD
:1031F000000C0040004001400018004010B504469B
:103200003C4800680A2802DD01203B4908603B4831
:103210000068401C39490860394901F1980005F0FF
:103220007FFB03F053FE01F00FF8344800684FF4C1
:10323000FA7190FBF1F201FB120008B905F088F871
:103240002E480068052190FBF1F201FB120008B93D
:1032500005F006FB29480068072190FBF1F201FB0D
:10326000120030B902F088FF2649098F08B202F037
:10327000BDFE224800680A2190FBF1F201FB12001A
:1032800048B9FDF7BBFD05F0ABF802F0E1FD03F036
:10329000F7FF05F073F819480068642190FBF1F21C
:1032A00001FB1200A8B91648407E012802D1002077
:1032B0001349C861124890F8EC0018B11048407EDC
:1032C000012806D100200E4948760846017E05F007
:1032D000BFF80A480068B0F57A7F0ADB0120074989
:1032E00008600548006820B902480068401C014990
:1032F000086010BD9401002098010020A801002062
:10330000BC100020480D00207047704770B504467F
:10331000002520684069C0F3C01594F841002128B9
:1033200017D1B5B100BF00BF2168143151E8001FAB
:1033300021F080002168143141E80002002AF3D115
:1033400000BFA06B10B1A06BFEF751FC204601F04E
:103350005BF820684069C0F3801594F84200222889
:1033600017D1B5B100BF00BF2168143151E8001F6B
:1033700021F040002168143141E80002002AF3D115
:1033800000BFE06B10B1E06BFEF731FC204601F0AE
:1033900005F8002070BD704710B504460CB9012037
:1033A00010BDA06900B100E000BF94F8410028B949
:1033B000002084F84000204600F02AF8242084F8F9
:1033C00041002068C06820F400502168C860204691
:1033D00001F02EF82068006920F49040216808610F
:1033E0002068406920F02A00216848612068C06890
:1033F00040F400502168C86000206064202084F8F8
:10340000410084F842000020606300BFC8E700006C
:1034100010B586B00446142101A8FCF7A1FFC049ED
:10342000206888427ED100BF00200090BD4800681F
:1034300040F01000BB4908600846006800F010002A
:10344000009000BF00BF00BF00200090B5481438B6
:10345000006840F00200B34914390860084600686B
:1034600000F00200009000BF00BF00BF00200090ED
:103470000846006840F0010008600846006800F057
:103480000100009000BF00BF802001900220029048
:1034900000200390032004900720059001A9A24872
:1034A000FEF7F0FD4FF40070019002200290002022
:1034B0000390032004900720059001A99B48FEF784
:1034C000E1FD9B489B4908604FF000604860002187
:1034D00098488160C1604FF48061016100214161C1
:1034E0008161C1614FF48031016200214162FEF7C8
:1034F000F5FC08B1FDF768FC00BF8E48E06384630B
:1035000000BF8B4830308C4908604FF00060486045
:103510004021894881600021C1604FF480610161D0
:10352000002100E01AE041618161C1614FF4803106
:10353000016200214162FEF7D1FC08B1FDF744FCB5
:1035400000BF7D48A063846300BF002205212520C1
:10355000FEF726FF2520FEF70FFFDEE07749206803
:1035600088425BD100BF002000906E48001F0068B9
:1035700040F480206B49091F08600846006800F489
:103580008020009000BF00BF00BF00200090654871
:103590001438006840F00400624914390860084695
:1035A000006800F00400009000BF00BF4FF44060CE
:1035B0000190022002900020039003200490072035
:1035C000059001A95E48FEF75DFD5E485E49086012
:1035D0004FF00060486000215B488160C1604FF49B
:1035E00080610161002141618161C1614FF48031DD
:1035F000016200214162FEF771FC08B1FDF7E4FBB6
:1036000000BF5148E063846300BF002204212720EB
:10361000FEF7C6FE2720FEF7AFFE7EE04B4920688E
:1036200088427AD100BF002000903E48006840F0F8
:1036300020003C4908600846006800F02000009027
:1036400000BF00BF00BF002000903648143800685B
:1036500040F040003349143908600846006800F023
:103660004000009000BF00BF4FF484400190022052
:10367000029000200390032004900820059001A9E7
:103680003348FEF7FFFC2A4860383249086080055D
:10369000486000212F488160C1604FF48061016162
:1036A000002141618161C1614FF40031016200215B
:1036B0004162FEF713FC08B1FDF786FB00BF254809
:1036C000E063846300BF1A481830234908604FF054
:1036D000206048604021204881600021C1604FF493
:1036E00080610161002141618161C1614FF48031DC
:1036F000016200214162FEF7F1FB08B1FDF764FBB6
:1037000000BF1548A063846300BF00220521472045
:10371000FEF746FE4720FEF72FFE06B010BD000064
:103720000010014044380240000402400000024002
:103730008864024078040020D8040020004800403B
:1037400000080240286002403805002000140140B3
:103750000018024098050020F805002070B50446C6
:103760000D46164694F8420020280BD105B10EB93B
:10377000012070BD0020206332462946204600F01B
:103780006DFFF6E70220F4E7704770472DE9F84F28
:1037900004460E46174699464FF0000A94F8410039
:1037A000202850D106B117B90120BDE8F88F0020BC
:1037B0006064212084F84100FEF764FD8246A784FE
:1037C000E784A068B0F5805F04D1206910B90025B6
:1037D000B04602E035464FF000081EE05346002296
:1037E00080212046CDF8009000F09CFF20B12020E1
:1037F00084F841000320D8E745B9B8F80000C0F3C9
:1038000008002168486008F1020803E02878216870
:1038100048606D1CE08C401EE084E08C0028DDD107
:103820005346002240212046CDF8009000F07AFF58
:1038300020B1202084F841000320B6E7202084F83E
:1038400041000020B1E70220AFE700BFFEE7000023
:1038500010B50F480F4908600320486000210D484B
:103860008160C1604FF4802101614FF4E00141614A
:10387000002101760121417681760021C176017710
:103880004177FDF7C5FE08B1FDF79EFA10BD0000B7
:1038900000640040C002002010B50F480F490860C6
:1038A0000320486000210D488160C1604FF48021F1
:1038B00001614FF4E001416100210176012141766F
:1038C00081760021C17601774177FDF7A1FE08B12D
:1038D000FDF77AFA10BD000000680040E802002001
:1038E00008B500BF002000902248006840F4001096
:1038F000204908600846006800F40010009000BFEE
:1039000000BF00BF002000900846006840F480001F
:1039100008600846006800F48000009000BF00BF07
:10392000002211460C20FEF73BFD0C20FEF724FD83
:10393000002205213920FEF733FD3920FEF71CFD5A
:10394000002211464420FEF72BFD4420FEF714FD13
:10395000002205214520FEF723FD4520FEF70CFD42
:10396000002205214620FEF71BFD4620FEF704FD40
:1039700008BD00003038024000B587B0142102A80D
:10398000FCF7EEFC00BF002001904D48006840F0BD
:1039900002004B4908600846006800F002000190F0
:1039A00000BF00BF00BF002001900846006840F043
:1039B000400008600846006800F04000019000BF29
:1039C00000BF00BF002001900846006840F00100E1
:1039D00008600846006800F00100019000BF00BFC9
:1039E00000BF002001900846006840F00800086011
:1039F0000846006800F00800019000BF00BF00BF4B
:103A0000002001900846006840F004000860084665
:103A1000006800F00400019000BF00BF00BF00205C
:103A200001900846006840F0800008600846006881
:103A300000F08000019000BF00BF00BF0020019097
:103A40000846006840F0100008600846006800F072
:103A50001000019000BF00BF012240211948FEF76D
:103A60000BFC012251021848FEF706FC00224FF41D
:103A700000611548FEF700FC4020029001200390F1
:103A800004900220059002A90E48FEF7FBFA0820D8
:103A900002904FF4881003900120049002A9094875
:103AA000FEF7F0FA4FF4206002900120039000200E
:103AB0000490059002A90448FEF7E4FA07B000BD9F
:103AC00030380240001802400010024010B50A4889
:103AD0000A4908600020486000210848816041F2DE
:103AE0008731C160002101618161FFF7AFF808B142
:103AF000FDF76AF910BD00000044014058030020A2
:103B000000B587B0002003900490059006900190C6
:103B1000029014481449086053204860002112485C
:103B2000816040F2E731C160002101618161FFF7EE
:103B30008DF808B1FDF748F94FF48050039003A9C0
:103B40000948FFF795F908B1FDF73EF9002001900B
:103B5000029001A90448FFF71FF808B1FDF734F9F6
:103B600007B000BD000400401003002010B50B4852
:103B70000B4908604FF4E13048600021084881603B
:103B8000C16001610C21416100218161C161FFF7C8
:103B900003FC08B1FDF718F910BD0000001001404A
:103BA000A003002010B50A480A4908600A48486086
:103BB000002108488160C160016104214161002148
:103BC0008161C161FFF7E8FB08B1FDF7FDF810BDA9
:103BD00000480040E8030020A086010010B50B4813
:103BE0000B4908604FF4E1304860002108488160CB
:103BF000C16001610C21416100218161C161FFF758
:103C0000CBFB08B1FDF7E0F810BD00000014014047
:103C10003004002000BFFEE700BFFEE79FED120A60
:103C200080ED030A9FED100A80ED040A9FED0E0A55
:103C300080ED000A9FED0C0A80ED010A9FED0A0A53
:103C400080ED020A9FED080A80ED050A9FED060A45
:103C500080ED060A9FED040A80ED070A9FED020A37
:103C600080ED080A70470000000000007047014620
:103C7000002901DD08467047484200B2FBE700001A
:103C800010B52649B1F90000FFF7F1FF40F2946149
:103C9000884200DD27E02149B1F90200FFF7E7FF84
:103CA00040F29461884200DD1DE01C49B1F9040036
:103CB000FFF7DDFF40F29461884200DD13E0174911
:103CC000B1F90600FFF7D3FF40F29461884200DDAE
:103CD00009E01248807A00B905E01048C07A00B9BE
:103CE00001E0002010BD00200C4908804880888039
:103CF000C88008810220887202210848C172002011
:103D00000649888100210548C18101828174C174FE
:103D10000020024988820120E4E70000AC01002075
:103D200010B5234B1B685B6943F04003204C2468AB
:103D300063611F4B1B68DB6843F010031C4C246855
:103D4000E3601C4B1B681B6823F00103194C2468BB
:103D5000236007E0174B1B681B6823F00103154C19
:103D600024682360134B1B681B6803F00103002BBE
:103D7000F0D1114B0F4C2468A3600E4B1B68D86028
:103D80000C4B1B6819610B4B1B685A60094B1B6875
:103D90001B6843F48023074C24682360054B1B6891
:103DA0001B6843F00103034C2468236010BD00002E
:103DB000E8030020380500200448004008B52C49DD
:103DC0000968C96821F40051294A1268D16029495B
:103DD0000968096821F00101264A1268116024214E
:103DE000244A1268516000BF0021009120490968EF
:103DF000096800911E4909684968009100BF00BF29
:103E00001C4909681C4A914205D94FF400111A4A0D
:103E10004C3A11601BE017490968184A914205D9CC
:103E20004FF40011144A503A116010E0114909682A
:103E3000124A603A914205D94FF400110F4AB83A3C
:103E4000D16004E04FF400110C4AB83A916008497F
:103E50000968C96841F40051054A1268D1600549F2
:103E60000968096841F00101024A1268116008BD41
:103E7000E80300203805002058640240B860024082
:103E800010B5494B1B685B6943F04003464C2468FE
:103E90006361454B1B685B6943F08003424C2468B7
:103EA0006361414B1B68DB6843F010033E4C2468A0
:103EB000E3603E4B1B681B6823F001033B4C246806
:103EC000236007E0394B1B681B6823F00103374C64
:103ED00024682360354B1B681B6803F00103002B2B
:103EE000F0D1324B1B68324CA34205D94FF400137A
:103EF0002F4C4C3C23601BE02C4B1B682D4CA342E9
:103F000005D94FF400132A4C503C236010E0274B96
:103F10001B68284C603CA34205D94FF40013254C84
:103F2000B83CE36004E04FF40013224CB83CA360BB
:103F3000214B1E4C2468A360204B1C4C2468E3607A
:103F40001A4C24682361194B1B685A60174B1B6875
:103F50001B6843F48023154C24682360134B1B68B3
:103F60001B6843F00103114C24682360144B1B6849
:103F70001B6823F00103124C2468236007E0104BF8
:103F80001B681B6823F001030D4C246823600C4B55
:103F90001B681B6803F00103002BF0D1064B084C93
:103FA0002468A36010BD00003004002098050020A4
:103FB00058640240B8600240041401406C150020AF
:103FC000F80500207047002290F8513000F83320A7
:103FD00090F8513000EBC3035A60012200F8312001
:103FE00080F85110704710B5FEF752F910BD00006F
:103FF00000B593B0302107A8FCF7B2F9142102A84C
:10400000FCF7AEF900BF002001902448006840F0A2
:104010008050224908600846006800F080500190F6
:1040200000BF00BF00BF002001901D48006840F4A1
:1040300080401B4908600846006800F480400190F9
:1040400000BF00BF012007900004089002200D90DF
:1040500041050E9106210F91A82110910221119185
:104060000421129107A8FEF72DFB08B1FCF7ACFE66
:104070000F20029002200390002004904FF4A050E3
:1040800005904FF480500690052102A8FEF7DAF95A
:1040900008B1FCF799FE13B000BD000040380240A3
:1040A000007000400348006840F470000149086057
:1040B0007047000088ED00E010B50248FEF75FFF92
:1040C00010BD00001003002010B502682D4B98426F
:1040D0000ED0B0F1804F0BD02B4B984208D02B4B19
:1040E000984205D02A4B984202D02A4B984203D1DD
:1040F00022F070024B681A43224B984220D0B0F154
:10410000804F1DD0204B98421AD0204B984217D098
:104110001F4B984214D01F4B984211D01E4B98420F
:104120000ED01E4B98420BD01D4B984208D01D4B11
:10413000984205D01C4B984202D01C4B984203D1A8
:1041400022F44072CB681A4322F080034C6943EAA0
:10415000040202608B68C3620B688362094B984259
:1041600002D00C4B984201D10B69036301234361D8
:10417000036903F001031BB1036923F00103036129
:1041800010BD000000000140000400400008004095
:10419000000C004000040140004001400044014088
:1041A0000048014000180040001C00400020004072
:1041B00030B501F01F05012404FA05F3046A9C439D
:1041C0000462046A01F01F0502FA05F52C4304623B
:1041D00030BD30B50C46816821F47F4142EA0325A9
:1041E00025432943816030BD0A46816821F0700172
:1041F00042F0070319438160704730B50B461446FF
:10420000026A056A25F001050562816921F0F00165
:1042100041EA041122F00A021A438161026230BDB0
:1042200030B50B461446026A056A25F01005056292
:10423000816921F4704141EA043122F0A00242EA8E
:1042400003128161026230BD08480068401C0749C2
:10425000086008460068B0F57A7F06DB0020086039
:1042600003480068401C024908607047A001002014
:10427000A401002070B506460025B46B2068406993
:10428000C0F3C01594F84100212805D125B10020C4
:10429000E084204600F0B8F820684069C0F380153B
:1042A00094F84200222805D125B10020E08520465F
:1042B00000F074F8606C40F0100060642046FFF776
:1042C0006AF870BD70B50546AC6B2868006800F4EC
:1042D0008070002842D1E08500BF00BF21680C310A
:1042E00051E8001F21F4807021680C3141E8000280
:1042F000002AF3D100BF00BF00BF2168143151E88C
:10430000001F21F001002168143141E80002002A59
:10431000F3D100BF00BF00BF2168143151E8001F76
:1043200021F040002168143141E80002002AF3D155
:1043300000BF202084F84200206B01280ED100BF6E
:1043400000BF21680C3151E8001F21F010002168E6
:104350000C3141E80002002AF3D100BF0020606365
:10436000206B012804D1A18D2046FEF7CEFF02E08C
:104370002046FFF709FA70BD70B50546AC6B012009
:104380006063206B012805D1A08D41082046FEF70F
:10439000BCFF02E02046FFF7F8F970BD00BF00BF88
:1043A00002680C3252E8002F22F4907102680C323D
:1043B00042E80013002BF3D100BF00BF00BF02682A
:1043C000143252E8002F22F001010268143242E850
:1043D0000013002BF3D100BF016B01290ED100BFE8
:1043E00000BF02680C3252E8002F22F01001026870
:1043F0000C3242E80013002BF3D100BF202180F8DB
:10440000421000210163704700BF00BF02680C32F8
:1044100052E8002F22F0C00102680C3242E800137B
:10442000002BF3D100BF202180F84110704700001D
:104430002DE9F84F04462068006920F44050E168F7
:104440000843216808612169A0680843616908433D
:10445000E169084300902068C06849F20C61884314
:10446000009908432168C8602068406920F44070C2
:10447000A16908432168486176492068884203D0D1
:1044800075492068884203D1FEF7B4F8814602E0FE
:10449000FEF7A0F88146E069B0F5004F6CD102202C
:1044A0006168A0FB015003461920A9FB007001467A
:1044B0002A463846FBF70AFF6421B0FBF1F04FEAC9
:1044C000001A02206168A0FB01510B461920A9FBCC
:1044D00000712A463846FBF7F9FE834602206168E0
:1044E000A0FB015003461920A9FB00712A4638465B
:1044F000FBF7ECFE6421B0FBF1F000EBC00101EB37
:104500000010ABEB8000322101EBC0006421B0FB56
:10451000F1F000F0F8000AEB400A02206168A0FB0D
:10452000015003461920A9FB007001462A4638466F
:10453000FBF7CCFE834602206168A0FB01500346D6
:104540001920A9FB00712A463846FBF7BFFE6421FB
:10455000B0FBF1F000EBC00101EB0010ABEB800011
:10456000322101EBC0006421B0FBF1F000F0070044
:104570005044216888606AE004206168A0FB015013
:1045800003461920A9FB007001462A463846FBF76E
:104590009DFE824604206168A0FB0150034619205D
:1045A000A9FB007001462A463846FBF78FFE6421BE
:1045B000B0FBF1F000EBC00101EB0010AAEB8000B2
:1045C000322101EB00106421B0FBF1F000F0F00AA1
:1045D00004206168A0FB017003461920A9FB00516B
:1045E0003A462846FBF772FE6421B0FBF1F00AEB75
:1045F000001A04206168A0FB01510B461920A9FB99
:1046000000712A463846FBF761FE83460420616844
:10461000A0FB015003461920A9FB007001462A4661
:104620003846FBF753FE6421B0FBF1F000EBC0010C
:1046300001EB0010ABEB8000322101EB0010642194
:10464000B0FBF1F000F00F00504421688860BDE835
:10465000F88F0000001001400014014077B581B0D0
:10466000044615460298A062A585002060642220B9
:1046700084F842002848E16BC8632848E16B08646D
:104680002748E16BC8640020E16B086502AE326820
:104690002368191D2B46E06BFDF796FC00BF002038
:1046A000009020680068009020684068009000BF7B
:1046B00000BF206970B100BF00BF21680C3151E814
:1046C000001F41F4807021680C3141E80002002A8B
:1046D000F3D100BF00BF00BF2168143151E8001FB3
:1046E00041F001002168143141E80002002AF3D1B1
:1046F00000BF00BF00BF2168143151E8001F41F026
:1047000040002168143141E80002002AF3D100BFC3
:10471000002004B070BD0000C542000879430008C5
:10472000754200082DE9F84304460D4617469846A1
:10473000089E31E0701C70B3FDF7A4FDA0EB0800EB
:10474000B04200D816B90320BDE8F8832068C068DD
:1047500000F00400F8B1802D1ED0402D1CD0206840
:104760000068C0F3C000B0B100BF00200090206816
:104770000068009020684068009000BF00BF20469D
:10478000FFF70CFE0820606400BF002084F84000A2
:1047900000BF0120D8E7FFE7206800682840A84252
:1047A00001D1012000E00020B842C3D00020CBE7B7
:1047B0002DE9F04F09AC94E8F010DDE90F9ADDF82F
:1047C000388091F800B080F800B091F801B080F81E
:1047D00001B091F802B080F802B090F803B062F333
:1047E000020B80F803B090F803B02BF0380B0BF1FC
:1047F000200B80F803B0B0F803B063F3891BA0F876
:1048000003B090F804B064F3850B80F804B0B0F8FE
:1048100004B065F38E1BA0F804B0B0F805B066F3E1
:10482000CF1BA0F805B0B0F807B067F3090BA0F8EC
:1048300007B0B0F808B06CF38C0BA0F808B0B0F873
:1048400009B068F34F1BA0F809B0B0F80CB069F3D9
:104850008C0BA0F80CB0B0F80DB06AF34F1BA0F8A9
:104860000DB0BDE8F08F00002DE9F04F144609AD02
:1048700095E8E010DDE90D8991F800A080F800A02E
:1048800091F801A080F801A091F802A080F802A0A0
:1048900090F803A064F3020A80F803A090F803A044
:1048A0002AF0380A0AF1280A80F803A0B0F803A019
:1048B00063F3891AA0F803A090F804A065F3850AB1
:1048C00080F804A0B0F804A066F38E1AA0F804A043
:1048D000B0F805A067F3CF1AA0F805A0B0F807A0BC
:1048E0006CF3090AA0F807A0B0F808A068F38C0AD6
:1048F000A0F808A0B0F809A069F34F1AA0F809A021
:10490000DFED0F0A60EE200AFDEEE00A10EE902ABD
:10491000B0F80BA062F3090AA0F80BA04FEA922BA3
:10492000B0F80CA06BF38C0AA0F80CA04FEA525B15
:10493000B0F80DA06BF34F1AA0F80DA0BDE8F08FF2
:1049400000007A442DE9F04307AC94E8F010DDF85C
:10495000308091F8009080F8009091F8019080F8F4
:10496000019091F8029080F8029090F8039062F321
:10497000020980F8039090F8039029F0380980F834
:104980000390B0F8039063F38919A0F8039090F8AE
:10499000049064F3850980F80490B0F8079065F3FB
:1049A0000909A0F80790B0F8089066F38C09A0F800
:1049B0000890B0F8099067F34F19A0F80990B0F883
:1049C0000C906CF38C09A0F80C90B0F80D9068F383
:1049D0004F19A0F80D90BDE8F0832DE9F04FDDE907
:1049E0000CC8DDE90E95DDE909670B9C91F800A084
:1049F00080F800A091F801A080F801A091F802A031
:104A000080F802A090F803A062F3020A80F803A0E5
:104A100090F803A02AF0380A0AF1380A80F803A0B7
:104A2000B0F803A063F3891AA0F803A090F804A0DB
:104A300066F3850A80F804A0B0F804A067F38E1A24
:104A4000A0F804A0B0F805A064F3CF1AA0F805A060
:104A5000B0F807A06CF3090AA0F807A0B0F808A006
:104A600068F38C0AA0F808A0B0F809A069F34F1AFF
:104A7000A0F809A04FF0000A07E015F801BB00F10B
:104A80000F0E0EF80AB00AF1010AA245F5DBBDE8E7
:104A9000F08F00002DE9F04104460E4617463546DA
:104AA000A5202870012C03D11520A5F8010010E0E5
:104AB000022C03D12420A5F801000AE0052C03D123
:104AC0005120A5F8010004E0072C02D16F20A5F8C1
:104AD0000100E878401CE87004212846FCF768F8DB
:104AE000287140F20130A5F80500012C04D140F2F4
:104AF0000110A5F8070013E0022C04D14FF48170D7
:104B0000A5F807000CE0052C04D140F20310A5F82D
:104B1000070005E0072C03D14FF48270A5F80700C9
:104B2000E81DA5F8097007F58070E91DA5F80B00D0
:104B3000012C07D1B0461C214046FCF749F8A8F8E3
:104B40001C001DE0022C07D1B0462B214046FCF78B
:104B50003FF8A8F82B0013E0052C07D1B0465821E8
:104B60004046FCF735F8A8F8580009E0072C07D1B3
:104B7000B04676214046FCF72BF8A8F8760000BF37
:104B8000012C06D1FF231E2229461048FEF7FEFD08
:104B900019E0022C06D1FF232D2229460B48FEF7EF
:104BA000F5FD10E0052C06D1FF235A2229460748BF
:104BB000FEF7ECFD07E0072C05D1FF2378222946FC
:104BC0000248FEF7E3FDBDE8F0810000300400205C
:104BD00070B504460D46A52020703320A4F80100CE
:104BE000E078401CE07004212046FBF7E1FF2071D3
:104BF00040F20130A4F805004FF48870A4F80700D3
:104C0000E01DA4F8095005F58070E11DA4F80B0023
:104C10003A212046FBF7DCFF6087FF233C22214638
:104C20000148FEF7B3FD70BD3004002038B53748A9
:104C300000680068C0F30010002866D000BF0020A4
:104C40000090324800680068009030480068406872
:104C5000009000BF00BF2D48FEF758FB2C480068AD
:104C600040682C4908602A4800684068C0F1640028
:104C70002949087000243BE02848005D3B2836D1D4
:104C8000264840780C2802D00F282FD119E023485D
:104C90008078234908602148C07800EE100AB8EEF9
:104CA000400A204880ED000A1C4800790A2190FB48
:104CB000F1F000EE100AB8EEC00A1B4880ED000AC1
:104CC00014E0164880781949087070B11348C0780C
:104CD000487050B111480079887030B10F48407960
:104CE000C87010B100201249086000BF00BF641CEA
:104CF000094800788442BFDB14210848FBF730FBE9
:104D0000642206490148FEF729FD38BDA0030020B2
:104D100078040020A40200209C020020E81D00204E
:104D2000000200201002002004020020780200206F
:104D30001802002008B549480068006800F020000B
:104D400060B100BF002000904448006800680090F7
:104D5000424800684068009000BF7DE0404800681D
:104D600000F01000002877D000BF002000903B48E2
:104D7000006800680090394800684068009000BFF3
:104D800000BF38480068006800F4002090BB354838
:104D90000068006820F00100324909680860314865
:104DA00000684068C0F124002F49088024202D4964
:104DB000096848602B480068006840F400202949D1
:104DC0000968086027480068006840F0010025492C
:104DD000096808602448008812283DD123492448E6
:104DE00003F062FAFEF74CFF012835D12420FEF7CC
:104DF000E5FF31E0FFE71B480068006820F0010094
:104E0000184909680860174800684068C0F1240024
:104E10001549088024201349096848601548806AAC
:104E200020F40020134988620E480068006840F0B2
:104E300001000C49096808600B48008812280BD152
:104E40000A490B48243003F02FFAFEF719FF012816
:104E500002D12420FEF7B2FF08BD0000E8030020C5
:104E60000048004038050020C2010020AC010020AD
:104E7000700F00200060024008B54048006800F054
:104E80001000002879D000BF002000903C48006846
:104E9000006800903A4800684068009000BF00BF7A
:104EA0003748C06B0068006800F4002090BB3448AD
:104EB000C06B0068006820F001003149C96B0968C7
:104EC00008602F48C06B00684068C0F500702D492D
:104ED00008804FF400702A49C96B09684860284867
:104EE000C06B0068006840F400202549C96B096860
:104EF00008602348C06B0068006840F0010020494A
:104F0000C96B096808601F4802881F491F4801F0E3
:104F10009FFD32E0FFE71A48C06B0068006820F090
:104F200001001749C96B096808601548C06B006823
:104F30004068C0F50070134908804FF400701049B4
:104F4000C96B096848600E48C06B0068006820F4AF
:104F500000200B49C96B096808600948C06B0068EC
:104F6000006840F001000649C96B096808600548FF
:104F700002880749054801F06BFD08BD0014014097
:104F8000300400206C0200206C1500206C190020F9
:104F90006C17002000BFFEE70021C16001610160C5
:104FA0004160816041618161C161016241629FED47
:104FB000040A80ED0A0A9FED020A80ED0B0A704791
:104FC0000000000003B401984100009850EAC1209D
:104FD00018BF04204A0D18BF40F0010040F2FF72D4
:104FE000B2EB515F08BF40F00200012808BF052066
:104FF00002B0704702480068C0F30220704700000A
:105000000CED00E010B5002804DB0A07130E054A7A
:10501000135406E00A07140E034A00F00F031B1F87
:10502000D45410BD00E400E018ED00E0EFF3108070
:10503000704700000000000010B52F499FED2C1BA9
:105040002DED020B84B0059820F000408842D8BFB7
:105050009DED040B2DDD2949884209D1049840B902
:105060004FF0010000F072FC00F03EFC06B010BDF5
:1050700005DB9DED040B00F02BFC06B010BD68466F
:105080009DED040B00F03CF810F0030004BF9DED13
:10509000021B9DED000B0CD001280ED09DED021BD4
:1050A0009DED000B022817D0012000F079FB06B01F
:1050B00010BD00F041FA06B010BD9DED021B9DED44
:1050C000000B012000F06CFB51EC100B81F0004153
:1050D00006B041EC100B10BD00F02EFA51EC100B95
:1050E00081F0004106B041EC100B10BD0000000043
:1050F0000000000000000000FB21E93F0000F07FFD
:105100002DE9F14F04462DED020B2DED088B8AB0F1
:105110009FEDE70B80ED020B139EE74826F000455C
:1051200085420ADC9DED120B002084ED000B0AB0D5
:10513000BDEC088B03B0BDE8F08FE0489FEDE0AB1D
:105140009FEDE1BBA84247DDE14F9FEDE39B9FED63
:10515000E48B9DED120B53EC1A2B51EC100B002E2F
:105160001CDDFBF7A9F941EC100BBD4208D053EC54
:105170001B2B51EC100BFBF79FF9C4E900010BE06E
:1051800053EC192B51EC100BFBF796F953EC182B41
:10519000FBF792F9C4E900010120C8E7FBF7EBF83F
:1051A00041EC100BBD4208D053EC1B2B51EC100B03
:1051B000FBF7E1F8C4E900010BE053EC192B51ECCB
:1051C000100BFBF7D8F853EC182BFBF7D4F8C4E915
:1051D00000014FF0FF30AAE7C348A84279DB9DEDFC
:1051E000120B51EC100B01F0FFFB41EC180B9FED83
:1051F000C00B53EC102BFBF765F99FEDBF1B53EC75
:10520000112BFBF7B8F8FBF74FFA0746FBF73BFA11
:1052100041EC190B53EC1A2BFBF754F953EC182BF8
:10522000FBF74DF941EC180B53EC1B2B51EC190B10
:10523000FBF748F9DFF8C8A241EC100B4FEA15580C
:105240000125FA4453EC102B51EC180BFBF734F901
:10525000032DC4E900013DD0C1F30A5005EB45110F
:10526000A8EB00001139814234DA0AEB051BB0EEDD
:1052700048AA9BED000BF0EE68AA53EC102B51EC02
:10528000190BFBF71FF941EC1B0B51EC1A0B53ECFC
:105290001B2BFBF711F941EC180B51EC1A0B53ECDB
:1052A000182BFBF709F953EC1B2BFBF705F99BEDCA
:1052B000020B41EC1A0B53EC102B51EC190BFBF7C2
:1052C00001F953EC1A2BFBF7F7F841EC100B6D1CAE
:1052D000B8E70EE0002EA8BF3846BFF628AF94ED21
:1052E000000B51EC100B81F00041C4E90001784241
:1052F0001DE7C6F3130040F4801EC6F30A50A0F267
:10530000F530471100F01F05C5F12000DDF848B069
:1053100008900020069007900520EC467949002D62
:1053200007EB0002794408BF51F8221009D051F868
:10533000223001EB8201AB404A68089922FA01F160
:105340001943A1FB0E26A1FB0B131A449A4234BF4A
:105350000123002303EB06080CEB8003D3E901A62D
:105360000E448E4234BF0121002192448A4411B17F
:10537000924502D903E0924501D2012100E00021CB
:10538000C3E901A641444CF82010011EA0F1010020
:10539000C4DC029800F10050850F0298DDE9036734
:1053A0008000DDF81480FBF76EF941EC1A0B3046F3
:1053B000FBF7B8FA9FED541B53EC112BFBF782F867
:1053C00041EC1B0B3846FBF7ADFA9FED511B53EC3C
:1053D000112BFBF777F841EC180B4046FBF7A2FACC
:1053E0009FED4D1B53EC112BFBF76CF841EC190BA7
:1053F00051EC180B53EC192BFAF7BDFF53EC1B2B98
:10540000FAF7B9FF53EC1A2BFAF7B5FFCDE908010B
:10541000002008909DED080B53EC1A2B51EC100B5B
:10542000FBF74AF853EC1B2BFBF746F853EC182B11
:10543000FBF742F853EC192BFBF741F89FED381BB3
:1054400053EC112BFBF73EF89FED370B41EC180B9B
:1054500053EC102B9DED080B51EC100BFBF732F8C1
:1054600053EC182BFAF787FF9FED310B41EC180B2B
:1054700053EC102B9DED080B51EC100BFBF722F8B1
:1054800053EC182BFAF777FF41EC100B139810F040
:10549000004F06D06D4251EC100B81F0004141EC01
:1054A000100B284684ED000B41E6000000000000D0
:1054B0000000000000000000FB21E93F7CD9024011
:1054C00000004054FB21F93F3163621A61B4D03DC2
:1054D000FB21F93F000000000000601A61B4D03DDC
:1054E0007370032E8A19A33BFB2139410000000091
:1054F00083C8C96D305FE43F000000000000E03F5A
:105500000A48000058470000000000000000103E5C
:10551000000000000000103C000000000000103AF5
:10552000182D4454FB21F93D3326A611460B113C9E
:1055300000000054FB21F93D10B52DED040B2DEDBD
:10554000088B82B0B0EE419AF0EE619A0B9820F091
:1055500000449FED4BABB4F1795F11DA9DED0A0B7E
:1055600051EC100BFBF7A0F8002801BFB0EE4A0A7F
:10557000F0EE6A0A02B0BDEC088B04BF04B010BDA7
:105580009DED0A0B53EC102B51EC100BFAF79AFF20
:1055900041EC180B3C480621B0EE480AF0EE680AD0
:1055A000784400F081F853EC182B51EC100BFAF70B
:1055B00089FF9DED0A0B41EC1B0B53EC192B51ECB1
:1055C000100BFAF77FFF41EC190B53EC1B2B51EC3E
:1055D000180BFAF777FF53EC192BFAF76DFF9FEDD5
:1055E0002C0B41EC190B53EC102B51EC180BFAF768
:1055F00069FF41EC100B2848844210DA53EC192B58
:1056000051EC100BFAF758FF53EC1A2BFAF757FF2F
:1056100041EC100B02B0BDEC088B04B010BD1F486C
:10562000A042BCBF9FED1E1B8DED001B06DBA4F549
:1056300000100190002000909DED001B51EC100B1C
:1056400053EC112BFAF738FF9DED000B41EC180BD2
:1056500053EC102B51EC1A0BFAF72EFF41EC1A0BFE
:1056600053EC192B51EC180BFAF726FF53EC1A2BBD
:10567000FAF725FF41EC100BCCE70000000000001A
:10568000000000000000F03F7C440000000000002B
:10569000000000000000E03F3333D33F0000E93F4B
:1056A000000000000000D23F70B504462DED028BD3
:1056B0004D1E00EBC500B0EE408AF0EE608A90ED22
:1056C000000B35F0060017D053EC182B51EC100BE3
:1056D000FAF7F8FE41EC100B6D1E04EBC50090EDDF
:1056E000001B51EC100B53EC112BFAF744FE41EC6C
:1056F000100B35F00600E7D1022D36D0042D1CD05A
:10570000062D1CBFBDEC028B70BD53EC182B51EC69
:10571000100BFAF7D7FE94ED0A1B53EC112BFAF796
:105720002AFE53EC182BFAF7CDFE94ED081B53EC30
:10573000112BFAF720FE41EC100B53EC182B51EC17
:10574000100BFAF7BFFE94ED061B53EC112BFAF782
:1057500012FE53EC182BFAF7B5FE94ED040B53EC44
:10576000102BFAF708FE41EC100B53EC182B51EC00
:10577000100BFAF7A7FE94ED021B53EC112BFAF76E
:10578000FAFD53EC182BFAF79DFE94ED001B53EC39
:10579000112BFAF7F0FDBDEC028B41EC100B70BD44
:1057A00031B504462DED040B2DED0A8BB0EE41BA58
:1057B000F0EE61BA0B989DED0A0B20F00040B0F1BD
:1057C000795F0DDA51EC100BFFF7FCFB042808BFE2
:1057D00000F09AF89DED0A0BBDEC0A8B05B030BDC8
:1057E00053EC102B51EC100BFAF76CFE41EC180B3C
:1057F0009DED0A0B53EC182B51EC100BFAF762FEDF
:1058000041EC190B2C48B0EE480AF0EE680A05216D
:105810007844FFF749FF9FED2ACBB0EE40AAF0EEA7
:1058200060AA9CB353EC1C2B51EC190BFAF74AFEFF
:1058300041EC1C0B53EC1A2B51EC190BFAF742FEFE
:105840009FED210B41EC190B53EC102B51EC1B0B72
:10585000FAF738FE53EC192BFAF72EFE53EC182BFF
:10586000FAF730FE53EC1B2BFAF726FE53EC1C2BF9
:10587000FAF722FE9DED0A1B53EC112BFAF71FFEDF
:10588000BDEC0A8B05B041EC100B30BDFFE753ECCB
:105890001A2B51EC180BFAF715FE53EC1C2BFAF7E8
:1058A0006AFD53EC192BFAF70DFE9DED0A1B53EC24
:1058B000112BFAF760FDE3E704430000000000004D
:1058C000495555555555C5BF000000000000E03F43
:1058D00010B553EC102B51EC100BFAF74CFD41ECCA
:1058E000100B10BD000000009FED050B10B553EC30
:1058F000102B51EC100BFAF757FE41EC100B10BDBA
:1059000000000000000000009FED050B10B553ECF7
:10591000102B51EC100BFAF7D5FD41EC100B10BD1C
:10592000000000000000001002E008C8121F08C1BB
:10593000002AFAD170477047002001E001C1121F10
:10594000002AFBD1704780F3108870470149086036
:1059500070470000BC02002010B50021634802F02F
:1059600077FD0022032161489830FBF730FA604848
:1059700001F09AFA5F4801F097FA5F4801F094FA53
:105980005E4801F091FA5E4801F08EFA01F02AFDBE
:1059900002F080FC00BF9FED5B0A55484C3880ED5B
:1059A0002A0A9FED590A80ED2B0A9FED570A80EDD8
:1059B0002C0A9FED550A80ED2D0A9FED530A80EDCC
:1059C0002E0A9FED510A80ED2F0A9FED500A80EDBF
:1059D000490A9FED4D0A80ED4A0A9FED4D0A80ED80
:1059E0004B0AB2EE080A43484C3880ED490AB2EE41
:1059F000080A41484C3880ED490AB2EE080A3F488F
:105A00004C3880ED490AB2EE080A3D484C3880ED2A
:105A1000490A9FED400A37484C3880ED4A0A9FED0D
:105A20003D0A35484C3880ED4A0A9FED3A0A334822
:105A30004C3880ED4A0A9FED370A31484C3880EDEA
:105A40004A0A9FED310A2B484C3880ED4B0A9FEDF6
:105A50002E0A29484C3880ED4B0A9FED2B0A274827
:105A60004C3880ED4B0A9FED280A25484C3880EDD4
:105A70004B0A9FED290A294880ED0A0A9FED280A62
:105A800080ED0B0A9FED200A80ED0C0A9FED250AA0
:105A9000254880ED0C0A9FED250A80ED0D0A9FED4B
:105AA0001A0A80ED0E0A00BF1C48FEF7B7F81E4820
:105AB000FAF798FF00F098F91D48FDF737F9002133
:105AC0001B48FDF715FB01F02FF900F075FF02F000
:105AD000E1FF4FF47A70FCF7C1FA1648FDF774F94C
