:020000040800F2
:10000000601A0020690200083B2A0008AB2700089C
:10001000392A0008F1060008A53A0008000000008F
:10002000000000000000000000000000F93300089C
:10003000B109000800000000092C0008E53500089F
:10004000830200088302000883020008830200087C
:10005000830200088302000883020008830200086C
:10006000830200088302000883020008830200085C
:10007000F9080008830200088302000883020008D0
:10008000830200088302000883020008830200083C
:10009000F5060008830200088302000883020008B6
:1000A000830200088302000883020008830200081C
:1000B000830200088D3600088302000883020008CE
:1000C00083020008830200088302000883020008FC
:1000D00083020008830200088302000851390008E7
:1000E00083020008830200088302000883020008DC
:1000F00083020008830200088302000883020008CC
:1001000083020008830200088302000883020008BB
:1001100083020008830200088302000883020008AB
:10012000830200080509000811090008830200087D
:10013000830200088302000883020008830200088B
:1001400001070008830200088302000883020008F8
:10015000830200081D09000829090008153A000853
:10016000830200088302000883020008830200085B
:1001700083020008830200088302000800000000D8
:10018000830200088302000800F002F800F05CF827
:100190000AA090E8000C82448344AAF10107DA45E2
:1001A00001D100F051F8AFF2090EBAE80F0013F0D8
:1001B000010F18BFFB1A43F001031847DC61000070
:1001C000FC6100000A444FF0000C10F8013B13F0F2
:1001D000070408BF10F8014B1D1108BF10F8015BA0
:1001E000641E05D010F8016B641E01F8016BF9D193
:1001F00013F0080F1EBF10F8014BAD1C0C1B09D1EA
:100200006D1E58BF01F801CBFAD505E014F8016B5B
:1002100001F8016B6D1EF9D59142D6D370470000ED
:100220000023002400250026103A28BF78C1FBD8FF
:10023000520728BF30C148BF0B6070471FB505F09B
:100240007EFE1FBD10B510BD00F07DF91146FFF711
:10025000F5FF04F0BFFD00F09BF903B4FFF7F2FFD8
:1002600003BC00F09FF90000094880470948004797
:10027000FEE7FEE7FEE7FEE7FEE7FEE7FEE7FEE756
:10028000FEE7FEE704480549054A064B70470000B3
:100290007D3600088901000860140020601A0020E3
:1002A000601600206016002053EA020C00F06980FE
:1002B0002DE9F04B4FF00006002B1FBFB3FA83F57A
:1002C00003FA05F424FA05F65E4012BF1643B2FAAB
:1002D00082F502FA05F4C5F120051EBF22FA05FCDD
:1002E00044EA0C04203556EA044C4FEA144418BF83
:1002F000641C4FF000084FF00009904271EB030CB2
:1003000039D3002919BFB1FA81F701FA07F6B0FA1B
:1003100080F700FA07F6C7F120071EBF20FA07FC96
:1003200046EA0C062037B6FBF4FCA7EB0507103FA6
:1003300007F01F0BCBF120060CFA0BFB2CFA06F68C
:1003400044BFB3460026202FA4BF5E464FF0000BEB
:100350005BEA060C08BF4FF0010B19EB0B09ABFB76
:10036000027C48EB0608C01B06FB02CC0BFB03CC4F
:1003700071EB0C01C1E70B46024641464846BDE819
:10038000F08B13B54FF000004FF00001AFF3008089
:10039000BDE81C407047032A40F2308010F0030C87
:1003A00000F0158011F8013BBCF1020F624498BFC8
:1003B00011F801CB00F8013B38BF11F8013BA2F165
:1003C000040298BF00F801CB38BF00F8013B11F0E0
:1003D000030300F07C80083AC0F0088051F8043B29
:1003E000083A51F804CBA0E80810F5E7121D5CBFED
:1003F00051F8043B40F8043BAFF30080D20724BF20
:1004000011F8013B11F801CB48BF11F8012B24BFB3
:1004100000F8013B00F801CB48BF00F8012B704702
:100420004FF000020429C0F0128010F0030C00F01D
:100430001B80CCF1040CBCF1020F18BF00F8012B9B
:10044000A8BF20F8022BA1EB0C0100F00DB85FEA69
:10045000C17C24BF00F8012B00F8012B48BF00F835
:10046000012B70474FF0000200B5134694469646A4
:10047000203922BFA0E80C50A0E80C50B1F12001B7
:10048000BFF4F7AF090728BFA0E80C5048BF0CC065
:100490005DF804EB890028BF40F8042B08BF7047C3
:1004A00048BF20F8022B11F0804F18BF00F8012B35
:1004B000704770477047704710B500F03FF800680C
:1004C00010BD10B5044600F039F8046010BD10B539
:1004D000203AC0F00B80B1E81850203AA0E818503C
:1004E000B1E81850A0E81850BFF4F5AF5FEA027CFD
:1004F00024BFB1E81850A0E8185044BF18C918C06C
:10050000BDE810405FEA827C24BF51F8043B40F80C
:10051000043B08BF7047D20728BF31F8023B48BFF1
:1005200011F8012B28BF20F8023B48BF00F8012B2F
:1005300070470000004870470014002000487047D2
:100540000014002070477546FFF7F4FFAE46050023
:100550006946534620F00700854618B020B5FFF7DE
:1005600091FEBDE820404FF000064FF000074FF02D
:1005700000084FF0000B21F00701AC46ACE8C009C1
:10058000ACE8C009ACE8C009ACE8C0098D467047CA
:1005900010B50446AFF300802046BDE81040FFF7D9
:1005A0005CBE000001491820ABBEFEE72600020039
:1005B0002DE9F041434D444E444F454C28462DED26
:1005C000048BB0EE409AF0EE608A85ED079AB0EEAB
:1005D000418AC6ED078A87ED078A94ED130A85EDF7
:1005E000080A94ED140A86ED080A94ED150A87EDC1
:1005F000080A02F023FA304602F020FA384602F0E8
:100600001DFA95ED0A0A364930EE091A96ED0A0AE6
:1006100030EE280AF1EE410A30EEC02AD7ED0A0A80
:1006200071EE402A31EE003A78EE201ADFED290A09
:1006300030EE411A9FED280A01EEA02A41EEE02A91
:1006400001EEA03A01EEE01A84ED002AC4ED042A7E
:1006500084ED083A84ED0C1A62EE000A62EE801A0C
:1006600023EE002A21EE001A9FED1C0AC4ED010AB8
:10067000C4ED051A60EE800A84ED092A84ED0D1A96
:10068000FDEEE00A10EE900A61EE800A4042086337
:10069000FDEEE00A13481449C0ED0C0A62EE000AB0
:1006A00021EE000AFDEEE00ABDEEC00A10EE900A4F
:1006B000404208630D4880ED0C0ABDEC048BBDE898
:1006C000F0810000CC0A0020200B0020740B0020D9
:1006D000C80B00200000FC41BABD1E402CA099416F
:1006E000300600201C07002008080020F408002025
:1006F000FEE70000014800F09EBB0000440200201D
:10070000014800F098BB00006C020020244930B47E
:1007100091F83A00072802D06B2802D002E00023AB
:1007200000E001231F480022C26002614261826131
:100730001C4A08780C3200091070B1F80100A2F8C8
:100740000100888FA2F8030091F86B40D07964F320
:100750000300240964F30710D0711148002B058DA4
:10076000048B02F1080002D0A2F8055001E0A2F8C3
:100770000540B1F873208280C27963F341024FF0E3
:10078000000363F30002C27102D04480498D01E08E
:100790004580498B20F8061B30BC00F00BB90000E7
:1007A000800C00201002002010B50D4C0023082200
:1007B00088B0A04201D1940103E00A4CA04207D1C5
:1007C0000624CDE900430293CDE903328DF81430BD
:1007D0000A4606AB694600F0CFF908B010BD00002C
:1007E000440200206C02002010B51C491C4802F095
:1007F000D1F91A491A481C31543002F0CBF9174983
:100800001848383102F0C6F914491748543102F03B
:10081000C1F912491548703102F0BCF90F4914486A
:100820008C3102F0B7F90D491248A83102F0B2F943
:100830000A491148C43102F0ADF908490F48E031C6
:1008400002F0A8F905490E48FC3102F0A3F9BDE811
:1008500010400C490C4802F09DB90000A000002097
:10086000200A0020C4060020B00700209C080020B9
:100870008809002088050020DC050020CC0A002023
:10088000200B0020B8010020740B002010B5164882
:1008900002F0D4F8154802F0D1F8154802F0CEF86D
:1008A000144802F0CBF81048943890ED2F0ABDEEB2
:1008B000C00A80ED0F0A0D48943890ED2F0ABDEE66
:1008C000C00A80ED0F0A0A48943890ED2F0ABDEE59
:1008D000C00A80ED0F0A0748943890ED2F0ABDEE4C
:1008E000C00A80ED0F0A10BDC4060020B00700202A
:1008F0009C08002088090020014800F0ABBD0000E2
:1009000068040020014800F0A5BD0000C8040020D4
:10091000014800F09FBD0000A8030020014800F03E
:1009200099BD000028050020014800F093BD00009B
:100930000804002001681823CAB2103AB2FBF3F28F
:10094000054B6FF30901032A9B5CC36500D9091DA0
:100950008165084670470000525F000810B50146E7
:1009600000208B698A6A4FF0C07453B1B3F5005F01
:1009700015D072B1012A0CD0022A0AD0032A09D15B
:1009800004E01AB1012A06D0022A03D1C96AC901BA
:1009900000D5012010BDC96AA142FAD010BD002ABD
:1009A000F7D0012AF2D0022AF3D0032AF3D010BDE7
:1009B000704700002DE9F041304D0746E88F0028D0
:1009C00057D095F83A102E48072902D06B290ED03F
:1009D0001CE0A98B0180E98BA0F80910298C4182C9
:1009E000698CA0F81B10A98C8184E98C0CE0A98982
:1009F0000180E989A0F80910298A4182698AA0F852
:100A00001B10A98A8184E98AA0F82D10002680464F
:100A100006EBC60101EB0804207A012808D100F09A
:100A20004BFF6168401AB0F57A6F01D30020207245
:100A3000608830B9208820B10120207200F03CFF8E
:100A4000606020886080217A3878B1400843761C45
:100A5000F6B23870062EDBD395F83A0007280AD094
:100A60006B2806D1288B002803D0387840F020006E
:100A70003870BDE8F081288DF5E70000800C00207B
:100A8000B20E002072B6FEE729489FED2A2A2B49B4
:100A900090ED0B0A2848DFED2A0A80EE021A80ED5D
:100AA000031A91ED0B0A2749C0EE201AC0ED071A70
:100AB000D1ED0B2A244982EE820A80ED0B0AD1ED9A
:100AC0000B2A82EEA02ADFED210A21EE201A61EE28
:100AD000A01A20EE200A80ED0F2A62EE200A31EEE5
:100AE000612A80ED021A31EE211AC0ED061A32EEAB
:100AF000402A80ED0A0A71EE401A31EE000AC0ED7C
:100B00000E0A72EE202A71EEE01A30EE200ADFEDB6
:100B1000100AB5EE002A80EE201A62EE822A61EEFB
:100B2000821AC0ED132AC0ED141A80ED151A704711
:100B3000300600202CA09941C80B00201C07002083
:100B40002CA099C108080020F40800206E6CCE3E4D
:100B5000713DB24290F82020012A07D0022A05D028
:100B6000416A41F480214162012070470068426976
:100B70000A43426100207047F0B590F820500468A5
:100B8000A468012D05D0022D03D0416A41F48021D3
:100B900053E014F0406F01D1E5004BD5C4F301647C
:100BA000022C03D9416A41F4000146E00125A54029
:100BB0001D608D684FF4C0739DB1CE6835434E689B
:100BC00045EAC605066803EB0417F5514FF4C275F4
:100BD000076805EB04150E697E51097D012905D0D2
:100BE00009E00E88CD6845EA4655EBE701684E59A5
:100BF00046F480764E511179D2F805504FF4C676FE
:100C000041EA0525016806EB04168D511178D2F8EA
:100C100001204FF4C47541EA0221026805EB041576
:100C20005151006803EB0411425842F00102425056
:100C30000020F0BD416A41F4001141620120F0BD85
:100C400010B590F82020012A07D0022A05D0416A69
:100C500041F480214162012010BD3B48D0F80022C0
:100C600042F00102C0F80022D0F8002222F47C52A7
:100C7000C0F80022D0F800224B6A42EA0322C0F8F2
:100C800000220A7D02F01F0301229A40D0F81C3294
:100C90009343C0F81C32CB69B3B9D0F80C329343FC
:100CA000C0F80C328C894B6864F31F434C6900EB2D
:100CB000C404C4F840320C890B6864F31F434C69C8
:100CC00000EBC404C4F84432CB69012B16D1D0F830
:100CD0000C321343C0F80C320C884B6864F31F438A
:100CE0004C6900EBC404C4F840320C89CB6864F34F
:100CF0001F434C6900EBC404C4F844328B69002BD9
:100D0000D0F804320ED01343C0F804320B69002B24
:100D1000D0F8143208D01343C0F81432096A0129FC
:100D200004D008E09343EFE79343F5E7D0F81C12B3
:100D30001143C0F81C12D0F8001221F00101C0F8D4
:100D40000012002010BD000000640040704730B564
:100D500090F82040012C05D0022C03D0416A41F4C8
:100D600080215DE00468002955D02469A40754D08F
:100D70004FF4D874056804EB01142D5915F00405DF
:100D8000956005682D594ED0ED08556005682C59C1
:100D900004F00204D4604FF4DA74056804EB011423
:100DA0002D5905F00F05156105682D59C5F3072567
:100DB000956105682C59240C54614FF4DC72046869
:100DC00002EB0112A4581C700468A458240A5C7039
:100DD0000468A458240C9C700468A258120EDA709F
:100DE0004FF4DE72046802EB0112A4581C7104680F
:100DF000A458240A5C710468A458240C9C710468EB
:100E0000A258120EDA71006881B1016941F0200127
:100E10000161002030BDE468A8E7416A41F4001197
:100E20004162012030BD6D0D1560AFE7C16841F032
:100E30002001C160EDE72DE9F05F05460068002460
:100E40004669D0F804908768D0F80CB0D0F810A0AC
:100E5000D0F81880F10748D0F90714D0012181603B
:100E6000B80703D5284600F0EEFA0CE0780702D563
:100E70004FF4006407E0380702D54FF4805402E0D5
:100E8000284600F0DFFAF80516D529684FF480707F
:100E90008860B80503D5284600F0D7FA0CE078053D
:100EA00002D544F4005407E0380502D544F48044E8
:100EB00002E0284600F0C8FAF80316D529684FF476
:100EC00080308860B80303D5284600F0C0FA0CE0F3
:100ED000780302D544F4004407E0380302D544F413
:100EE000803402E0284600F0B1FA300707D55FEA07
:100EF000CB6004D52968102044F40074C8607007E2
:100F00004FF0080707D55FEA0B7004D52868C76063
:100F1000284600F099F9B00706D52868C068800710
:100F200002D0284600F092F9700607D55FEACA6041
:100F300004D52968102044F480640861B00607D500
:100F40005FEA0A7004D528680761284600F04AFA6B
:100F5000F00606D528680069800702D0284600F010
:100F600042FAB00308D55FEAC96005D529681020A8
:100F70004860284600F038FAF00307D55FEA0970A8
:100F800004D528684760284600F062FA300446D548
:100F90005FEA497040D5F00504D55FEAC87001D01A
:100FA00044F00104B00504D55FEA887001D544F02F
:100FB0000204700504D55FEA487001D544F00404CA
:100FC000300529D518F0700F26D008F070004028A1
:100FD00015D006DC102809D020280AD0302816D1D8
:100FE0000AE050280ED0602811D10EE044F0080429
:100FF0000DE044F010040AE044F0200407E044F05F
:10100000400404E044F0800401E044F48074286863
:10101000816921F070018161296804204860002CF9
:1010200005D0686A204368622846FFF78FFEBDE856
:10103000F09F70B5040003D094F8200010B104E0D4
:10104000012070BD204600F081F82068016841F061
:101050000101016000F030FC0546052604E000F0C7
:101060002BFC401B0A2811D820684068C007F6D026
:101070002068016821F00201016000F01DFC0546B6
:101080000BE000F019FC401B0A2806D9606A40F406
:101090000030606284F82060D2E7206840688007F2
:1010A000EFD4207E0128206801683DD021F0800126
:1010B0000160607E01282068016838D021F040017D
:1010C0000160A07E01282068016833D021F0200152
:1010D0000160E07E0128206801682ED041F01001F7
:1010E0000160207F01282068016829D021F00801D3
:1010F0000160607F01282068016824D021F004018C
:101100000160D4E902010843D4E904121143084301
:101110006168491E08432168C8610020606201209F
:1011200084F82000002070BD41F08001C0E741F04C
:101130004001C5E741F02001CAE721F01001CFE7E7
:1011400041F00801D4E741F00401D9E7F0B587B0D8
:10115000044614216846FFF785F9364B3648DFF818
:10116000D0E01968D4F800C0334A032502260927C5
:1011700010300024491CF44522D11960012907D1FF
:10118000016841F000710160006800F00070059096
:10119000106840F0080010601068CDE9005600F0BB
:1011A0000800CDE9047069462448CDE9024500F005
:1011B0008BFA00220521142000F0ECFB142032E011
:1011C000DFF87CE0F44530D1D0F800C04CF0806C02
:1011D000C0F800C0D0F800C001290CF0806CCDF838
:1011E00014C0196007D1016841F000710160006806
:1011F00000F000700590106840F002001060106868
:1012000002AB00F0020005906020CDE9000683E803
:10121000B00069460B4800F057FA00220521402033
:1012200000F0B8FB402000F0A7FB07B0F0BD0000C5
:10123000006400400000002030380240000C0240F2
:1012400000680040000402407047000070B55A4931
:101250005A4C8AB0884272D107AB6A460021564880
:10126000FFF775FD07A803F0E7FDB0F90010B0F92E
:10127000022000EE101A0099B0F90430B8EEC00A4E
:1012800040F20326A1F20325B1422ED00EDC032941
:101290004BD0A1F50071013947D0012943D1BCEEF3
:1012A000C00A10EE100A81B2454844E0012D23D057
:1012B000052D38D1BCEEC00A10EE101A94ED060AC6
:1012C00089B284ED070A00EE101AF8EE400A9FED8D
:1012D0003D0A80EE801ADFED3C0A21EE201A84EDF3
:1012E000061AA363E26872B119E0BCEEC00A10EE00
:1012F000100A81B235481EE0BCEEC00A10EE100A9A
:1013000081B2334817E001EE101A0121B8EE411AFC
:10131000C1EE001A21EEA00A84ED000AE1602D4919
:10132000B0F9020008600AB070BDBCEEC00A10EE51
:10133000100A81B2284803F0F9FCF4E7FFE72749D7
:101340008842F0D107AB6A4600212448FFF7FFFC32
:10135000234D08B10420E86007A803F06DFD009953
:10136000B1F5A87F07D0B1F5A97FDCD19DF81C00AD
:10137000E8602861D7E7B0F90210494200EE101A80
:10138000B8EEC00A85ED000AB0F90010494200EE3F
:10139000101A6422B8EEC00A85ED010AB0F90410F3
:1013A00091FBF2F100EE101AB8EEC00A85ED020AC8
:1013B000B0F90600E063B6E744020020E00900202F
:1013C0001C07002000F8FF450000B4430808002077
:1013D000F408002010020020300600206C020020DB
:1013E000200C0020704770477047000070B504461D
:1013F00090F82000012804D0606A40F40020606268
:1014000018E0022084F820002068016821F0010122
:10141000016000F051FA05460EE000BF00F04CFA02
:10142000401B0A2808D9606A40F400306062052039
:1014300084F82000012070BD20684068C007EDD10D
:10144000606270BD70477047704770477047704763
:10145000704700002DE9F84304464FF00009CDF82D
:10146000009063484FF41651A56D0068B0FBF1F78A
:101470002E6894F85C10082000FA01F131420FD078
:1014800021680A6852070BD50A6822F004020A6034
:1014900094F85C108840A860606D40F001006065C1
:1014A00094F85C104FF0010808FA01F0304208D0BF
:1014B00021684969090604D5A860606D40F0020002
:1014C000606594F85C1004208840304208D02168A0
:1014D0000968890704D5A860606D40F00400606564
:1014E00094F85C1010208840304218D021680968B8
:1014F000090714D5A86020680168490304D500686D
:10150000000308D5A16C07E00168C90503D4016890
:1015100021F008010160216C09B12046884794F848
:101520005C1020208840304231D021680968C9060B
:101530002DD5A86094F8350005282068016806D0EC
:10154000490347D5006800031DD4616C1CE021F0FD
:10155000160101602068416921F080014161206C21
:1015600008B9A06C20B12068016821F00801016071
:1015700094F85C103F208840A86084F8358084F897
:101580003490216D1FE0E16B09B120468847606D02
:1015900000282BD0606DC00714D0052084F83500DA
:1015A0002068016821F0010101600098401C009052
:1015B000B84203D820680068C007F6D184F83580A7
:1015C00084F83490E16C002910D001B02046BDE8C9
:1015D000F04308470168C905D5D4016821F010011E
:1015E000016084F8358084F83490CCE7BDE8F88356
:1015F0003C0200202DE9F041044600F05DF906466A
:101600005CB1022084F83500002584F8345020684D
:10161000016821F0010101600DE00120BDE8F081C9
:1016200000F04AF9801B052805D9202060650320B9
:1016300084F83500F2E720680068C007F0D122681E
:10164000116820480140D4E901031843D4E9033666
:101650003343184363691843A3691843E369184384
:10166000236A18430843616A042903D1D4E90B13A0
:1016700019430843106020684069666A20F007013A
:1016800030460E43012704280CD1A06A0643E06AC5
:1016900040B12046FFF762F920B14020606584F830
:1016A0003570BAE7206846612046FFF743F994F8A1
:1016B0005C203F2191408160656584F83570002091
:1016C000ACE700003F8010F02DE9F84FDFF8BCA137
:1016D000002201250AF1040B03264FF00F090BF13C
:1016E000040E00BF0B6805FA02F42340A34270D138
:1016F0000F7907F00307012F01D0022F16D1876859
:101700004FEA420806FA08FC27EA0C07D1F80CC099
:101710000CFA08FC4CEA070CC0F808C04768A7435D
:101720000C79C4F3001494403C4344600C79E443C6
:10173000A4070AD0C4684FEA420C06FA0CF7BC436F
:101740008F6807FA0CF72743C7600C7904F003048D
:10175000022C12D1D40800EB840CDCF8204057078F
:10176000FF0E09FA07F824EA0804D1F8108008FAF5
:1017700007F848EA0408CCF8208004684FEA420CD5
:1017800006FA0CF7BC430F7907F0030707FA0CF7CA
:10179000274307604C6814F4403F70D03C4C2768E6
:1017A00047F480472760246822F0030704F480444C
:1017B0000094384C07EB040CDCF8084897074FEA14
:1017C000177809FA08F7BC43334FB84202D1002713
:1017D00024E054E0314FB84201D101271EE0304FE0
:1017E000B84201D1022719E02E4FB84201D1032798
:1017F00014E02D4FB84201D104270FE02B4FB8421F
:1018000001D105270AE02A4FB84201D1062705E099
:10181000284FB84201D1072700E0082707FA08F748
:101820002743CCF80878DAF800405746D1F804C0CE
:101830009C435FEACC3C00D51C433C60DBF8004095
:101840005F46D1F804C09C435FEA8C3C00D51C4342
:101850003C60DEF800407746D1F804C09C435FEA64
:10186000CC2C00D51C433C60084F0C373C68D1F8A9
:1018700004C09C435FEA8C2C00D51C433C60521C86
:10188000102AFFF42FAFBDE8F88F0000003C0140A4
:101890004438024000300140000002400004024091
:1018A00000080240000C02400010024000140240F8
:1018B00000180240001C0240014880687047000088
:1018C000300200200248816802781144816070472C
:1018D000300200200B4810B5016841F4007101602E
:1018E000016841F480610160016841F48071016028
:1018F000032000F06FF80F2000F006F800F024F845
:10190000002010BD003C024070B50D4D04464FF460
:101910007A712878B1FBF0F00A490968B1FBF0F060
:1019200000F00CFB48B9102C07D200222146501EB3
:1019300000F030F800206C6070BD012070BD000028
:10194000300200203C0200200A4808B5016841F43A
:1019500080410160006800F4804000900548001F4D
:10196000016841F080510160006800F080500090F3
:1019700008BD000044380240002809DB00F01F02C7
:10198000012191404009800000F1E020C0F80011E1
:1019900070470000F0B40E4B1B680C46C3F30223E3
:1019A000C3F10705042D00D90425191D072901D20B
:1019B000002300E0DB1E012606FA05F1491E214046
:1019C00099409E40761E16403143F0BC02F083B829
:1019D0000CED00E0064900F0070208684FF6FF032F
:1019E000184040EA0220034A104308607047000094
:1019F0000CED00E00000FA052DE9F0470E46050069
:101A000065D0DFF81481D8F80000F7B200F00700C5
:101A1000B04207D288F80070D8F8000000F0070044
:101A2000B04254D128683D4C810712D5400703D5F8
:101A3000206840F4E05020602878000703D5206833
:101A400040F4604020602068A96820F0F00008435E
:101A500020602878C0072DD03049686808390128EF
:101A600012D0022813D0032811D009688907002951
:101A70002DDA216821F0030101432160FFF71CFFEB
:101A8000814641F2883A0EE009688903EFE7096868
:101A90008901ECE7FFF710FFA0EB0901514502D9DE
:101AA0000320BDE8F0872068696800F00C00B0EB07
:101AB000810FEFD1D8F80010404601F00701B14284
:101AC00007D90770006800F00700B04201D001207C
:101AD000E7E72878400705D52068E96820F4E0505A
:101AE000084320602878000706D52068296920F47B
:101AF000604040EAC100206000F038F82168084AE0
:101B0000C1F30311515CC8400649086006480068EB
:101B1000FFF7FAFE0020C4E7003C0240083802400C
:101B20005A5F00083C0200203402002004480549A6
:101B300000680968044AC1F38221515CC8407047BB
:101B40003C020020083802406A5F0008044805494A
:101B500000680968044AC1F34231515CC8407047CB
:101B60003C020020083802406A5F0008154810B5A2
:101B7000006810F00C02144813D01449042A0FD046
:101B8000082A0ED10F4C241F2268236802F03F025E
:101B90005B0207D52068C0F38810A0FB010106E0B6
:101BA000084610BD2168C1F38811A1FB0001002384
:101BB000FEF77AFB2168C1F30141491C4900B0FBE3
:101BC000F1F010BD083802400024F400001BB700FB
:101BD0002DE9F84F04006ED02078DFF84C93C00751
:101BE000A9F104054AD009F104000168C1F381019B
:101BF000012908D00068C0F3810002280AD1D9F871
:101C00000000400206D52868800337D560680028A8
:101C1000E1D033E06068B0F5803F10D0B0F5A02F80
:101C2000286810D020F480302860286820F48020B4
:101C300028606068A8B1FFF73FFE06460DE02868FF
:101C400040F48030F4E740F480202860F7E700BFDC
:101C5000FFF732FE801B642873D828688003F7D50D
:101C60000CE0FFF729FE064605E000BFFFF724FE63
:101C7000801B6428F0D828688003F7D42078DFF828
:101C8000AC8280074FF0000A3ED5A748001D0168CE
:101C900011F00C0F08D00068C0F3810002280BD1AE
:101CA000D9F80000400207D42868800716D5E068FC
:101CB000012800D112E033E1E068B8B10120C8F892
:101CC0000000FFF7F9FD064605E000BFFFF7F4FD51
:101CD000801B0228C0D828688007F7D528682169AA
:101CE00020F0F80040EAC10028600DE0C8F800A02C
:101CF000FFF7E2FD064604E0FFF7DEFD801B022849
:101D00001FD828688007F7D42078000722D5864F8F
:101D100087486169703771B101210160FFF7CCFD1F
:101D2000064604E0FFF7C8FD801B022809D8386882
:101D30008007F7D50EE0C0F800A0FFF7BDFD06460E
:101D400005E082E0FFF7B8FD801B02287DD83868E7
:101D50008007F7D42078400768D5DFF8CCB100279A
:101D60000BF13C0BDBF80000C0000BD4DBF80010DB
:101D700041F08051CBF80010DBF80000012700F0A3
:101D8000805000906B4E3068C00510D4306840F42D
:101D900080703060FFF790FD009005E0FFF78CFD4C
:101DA0000099401A022850D83068C005F6D55E4E1A
:101DB000A0686C3601280FD00528306810D020F0BC
:101DC00001003060306820F004003060A068B8B1D5
:101DD000FFF772FD00900FE0306840F00100F4E77B
:101DE00040F004003060F7E7FFF766FD0099411A04
:101DF00041F28830814266D830688007F4D50EE021
:101E0000FFF75AFD009007E0FFF756FD0099411AD1
:101E100041F28830814256D830688007F4D42FB11F
:101E2000DBF8001021F08051CBF80010A069C8B396
:101E30003D49091D0968C1F3810102294AD00228E0
:101E4000504607D0C8F8600000E03CE0FFF734FDE2
:101E500004463BE04746C8F86000FFF72DFD064604
:101E600005E000BFFFF728FD801B02282BD828685B
:101E70008001F7D4D4E907010843A16A2E4A490832
:101E800002EB0141626A41EA8211084394F82C1086
:101E900040EA0161C9F8001001203866FFF70CFD27
:101EA000044606E03EE000BFFFF706FD001B0228E7
:101EB00009D828688001F7D534E000BFFFF7FCFCA3
:101EC000001B022802D90320BDE8F88F2868800192
:101ED000F4D427E00128F7D0D9F80000E26900F433
:101EE000800191421CD1226A00F03F01914217D13A
:101EF00047F6C071626A0140B1EB821F10D1A26A3D
:101F00004FF0FF3300F4403103EB5202B1EB024FCC
:101F100006D194F82C1000F07060B0EB016F01D086
:101F20000120D1E70020CFE70438024000004742FB
:101F3000800E4742007000400000FFFF10B5401EB9
:101F4000B0F1807F01D3012010BD4FF0E02460612B
:101F50000F21601701F0BFFD0020A0610720206164
:101F6000002010BD7047704770B590F83C20012AE2
:101F700032D0012480F83C40022280F83D200368E2
:101F80005A689D6822F070060A6832435A60134B03
:101F900002689A4214D0B2F1804F11D0104B9A428D
:101FA0000ED0104B9A420BD00F4B9A4208D00F4BD9
:101FB0009A4205D00E4B9A4202D00E4B9A4204D15F
:101FC000496825F080031943916080F83D40002165
:101FD00080F83C10084670BD022070BD0000014032
:101FE0000004004000080040000C004000040140D4
:101FF000004001400018004010B5040003D094F8E0
:102000003D0010B107E0012010BD002084F83C0025
:10201000204600F01FF8022084F83D00211D2068B2
:1020200001F03AFB012084F8460084F83E0084F871
:102030003F0084F8400084F8410084F8420084F8AE
:10204000430084F8440084F8450084F83D000020F3
:1020500010BD000008B500680B49884212D10B483A
:10206000016841F0020101600068002200F00200F6
:10207000009005211D20FFF78DFCBDE808401D20C4
:10208000FFF77ABC08BD0000000400404038024061
:1020900090F83D10012901D001207047022180F8FD
:1020A0003D100168CA6842F00102CA600068114927
:1020B000884214D0B0F1804F11D00F4988420ED021
:1020C0000E4988420BD00E49884208D00D498842FB
:1020D00005D00D49884202D00C49884204D181685C
:1020E00001F00701062903D0016841F001010160F8
:1020F000002070470000014000040040000800403C
:10210000000C004000040140004001400018004065
:1021100070B5044690F83C000025012817D0012630
:1021200084F83C60022084F83D002068826822F038
:10213000770222F47F4282600868502838D00DDC94
:1021400020284FD005DC90B3102811D14AE002209E
:1021500070BD302846D040280AD13BE060282FD0FF
:1021600070280DD0B0F5805F03D0B0F5005F12D0BD
:10217000012584F83D60002084F83C00284670BDAD
:10218000CB68D1E90121206801F0EAFA2068816872
:1021900041F0770109E0CB68D1E90121206801F025
:1021A000DFFA2068816841F480418160E1E719E04D
:1021B000CA684968206801F0E5FA5021206806E005
:1021C000CA684968206801F0EEFA6021206801F0D1
:1021D000D1FACEE7CA684968206801F0D3FA4021F5
:1021E0002068F4E7226801461046F0E7704770B5B2
:1021F0000446006801694FF00005C943890715D4FA
:10220000C168C943890711D4E91E01610120207703
:10221000206880698007204602D0FFF7E7FF04E0CE
:1022200000F098F8204600F096F8257720680169BC
:10223000C943490717D4C168C943490713D46FF08C
:1022400004010161022020772068806910F4407F3A
:10225000204602D0FFF7CAFF04E000F07BF82046DA
:1022600000F079F8257720680169C943090716D479
:10227000C168C943090712D46FF008010161042045
:1022800020772068C0698007204602D0FFF7AEFFA4
:1022900004E000F05FF8204600F05DF82577206844
:1022A0000169C943C90617D4C168C943C90613D413
:1022B0006FF010010161082020772068C06910F4D8
:1022C000407F204602D0FFF791FF04E000F042F883
:1022D000204600F040F8257720680169C943C90706
:1022E00008D1C168C943C90704D1891E01612046CC
:1022F00000F032F820680169C943090609D4C168B1
:10230000C943090605D46FF0800101612046FFF73B
:1023100029FE20680169C943490609D4C168C94337
:10232000490605D46FF040010161204600F068F8CD
:1023300020680169C94389060BD4C168C94389066D
:1023400007D46FF0200101612046BDE87040FFF71F
:102350000ABE70BD7047704710B5254C2068401C00
:102360000A2190FBF1F2206001FB120028B9FEF770
:102370008BFB02F0FDFE02F047F92068062190FB7E
:10238000F1F201FB120008B902F05CF921680720A4
:1023900091FBF0F200FB121060B902F059FA1548F7
:1023A000C1681548042901D10021C163808F00B2A2
:1023B00002F0BEF92078400701D102F063F90F491D
:1023C00020680840072801D102F090F920682821F0
:1023D00090FBF1F201FB1200012801D100F0DCFFBB
:1023E0002068B0F57A7F01DB0120206010BD00007D
:1023F000D4010020200C0020E0090020070000800C
:10240000704770B5040004D094F83D00002510B169
:1024100006E0012070BD84F83C50204600F022F810
:10242000242084F83D002068C16821F40051C16077
:10243000204601F0CBF92068016921F49041016147
:102440002068416921F02A0141612068C16841F496
:102450000051C1602564202084F83D0084F83E00CE
:10246000002070BD2DE9F04F87B005461421684665
:10247000FDF7F8FF9548DFF8508214380221D5F8AF
:1024800000C0924B0322CF03002406154FF007092A
:102490004FF0006BC4456CD1D3F800C04CF0100C69
:1024A000C3F800C01B6803F010030593036843F0F2
:1024B00002030360036803F002030593036843F01B
:1024C0000103036000688A4600F001000590802047
:1024D000CDE9000A0DF1080C90468CE8100369461E
:1024E0007B48FFF7F1F87010CDE9000A0DF1080AFA
:1024F00069468AE810037748FFF7E6F8DFF8DC81E1
:1025000075494046C8F80010C0E901B4C0E9034667
:10251000C8F81440C8F81840C8E90747D946BA4671
:10252000C8F82440FFF766F808B1FEF7ABFA6B4F26
:102530006948C5F8388060377830C8F83850E7E81F
:102540000209402051C7654847F814496030BC6112
:10255000C7E9074A7C62FFF74DF808B1FEF792FA27
:102560006F63002205212520BD63FFF713FA2520A4
:1025700044E0DFF86C81C44545D1544B1B1FD3F8B0
:1025800000C04CF4802CC3F800C01B6803F4802307
:102590000593036843F004030360006800F004003F
:1025A00005904FF440608DE81300CDE9032969469A
:1025B0004C48FFF789F8DFF824814B4908F1C0083F
:1025C0004046C8F80010C0E901B4C0E90346C8F8A5
:1025D0001440C8F81840C8E90747C8F82440FFF776
:1025E00009F808B1FEF74EFAC5F838800022042138
:1025F0002720C8F83850FFF7CDF92720FFF7BCF99E
:1026000007B0BDE8F08FDFF8E480C445F8D1D3F817
:1026100000C0A1464CF0200CC3F800C01B6803F0BA
:1026200020030593036843F040030360006800F053
:10263000400005904FF484408DE813000820CDE958
:10264000032069462A48FFF73FF82349DFF8A480B2
:1026500018394046C8F800104FF0206AC0E901A4BC
:10266000C0E903468915C8F81440C0E9064149028B
:10267000C8E90814FEF7BEFF08B1FEF703FA1D4CC7
:102680001548C5F8388060346030C8F83850C4E95F
:10269000000A4020A060C4E90396C4F81490C4F86E
:1026A0001890C4E907972046C4F82490FEF7A2FFCB
:1026B00008B1FEF7E7F96C63002211464720A563D5
:1026C000FFF768F9472099E70010014044380240BD
:1026D000000402400000024040640240A8030020C1
:1026E00000480040000802402860024000140140F9
:1026F00000180240C80400202DE9F843044690F871
:102700003D001F4616460D4620284CD1C5B1BEB12E
:1027100094F83C00012846D0012084F83C004FF09A
:102720000008C4F84080212084F83D00FFF7C4F879
:10273000A6848146E684A068B0F5805F03D004E0FB
:102740000120BDE8F883206928B12E465FF000051E
:1027500084F83C800EE00026FAE78021204601F054
:10276000BBF8A0B9AEB116F8010B21684860E08C47
:10277000401EE084E08C4B464FF00002009700289A
:10278000EBD14FF04001204601F0A6F830B1032014
:10279000D7E735F8020BC0F30800E6E7202084F8FD
:1027A0003D000020CDE70220CBE7FEE7104810B542
:1027B0000E4901600321416000214FF480228160B5
:1027C000C0E903124FF4E002426101760122427631
:1027D0008276C17601774177FEF72BFC002803D083
:1027E000BDE81040FEF74EB910BD00000064004087
:1027F00044020020104810B50E49016003214160D9
:1028000000214FF480228160C0E903124FF4E002FE
:1028100042610176012242768276C1760177417764
:10282000FEF707FC002803D0BDE81040FEF72AB9E8
:1028300010BD0000006800406C0200201D4808B573
:10284000016841F400110160016801F40011009178
:10285000016841F4800101600068002200F48000FA
:10286000009011460C20FFF795F80C20FFF784F834
:10287000002211463920FFF78DF83920FFF77CF848
:10288000002205213A20FFF785F83A20FFF774F877
:10289000002205214520FFF77DF84520FFF76CF861
:1028A000002205214620FFF775F8BDE808404620C4
:1028B000FFF762B830380240194808B5016841F0A6
:1028C00002010160016801F002010091016841F01C
:1028D00040010160016801F040010091016841F090
:1028E00001010160016801F001010091016841F0FE
:1028F00008010160016801F008010091016841F0E0
:1029000004010160016801F004010091016841F0D7
:1029100080010160006800F08000009008BD0000A8
:102920003038024010B586B0002417480094019456
:102930000294039404941349059401605321C0E95F
:10294000011440F2E731C0E903148461FFF754FB3E
:1029500008B1FEF797F84FF48050009069460A4896
:10296000FFF7D6FB08B1FEF78DF8049404A90648DA
:102970000594FFF7F9FA002801D0FEF783F806B0B6
:1029800010BD000000040040940200200C4810B567
:102990000A4901604FF4E1314160002181600C225D
:1029A000C160C0E904128161C161FFF72AFD0028FE
:1029B00003D0BDE81040FEF765B810BD001001401F
:1029C000DC0200200C4810B50A4901600B49416047
:1029D000002181600422C160C0E904128161C161EB
:1029E000FFF70FFD002803D0BDE81040FEF74AB8FE
:1029F00010BD00000048004020030020A086010018
:102A00000C4810B50A4901604FF4E13141600021E2
:102A100081600C22C160C0E904128161C161FFF7CD
:102A2000F0FC002803D0BDE81040FEF72BB810BD25
:102A30000014014064030020FEE7FEE79FED540A06
:102A400000287DD0D0ED130AC0ED140AD0ED123A63
:102A5000C0ED133AD0ED070A90ED082A70EEC20AD5
:102A6000C0ED120A90ED051AF1EE411AF4EEE10AFA
:102A7000F1EE10FA06DDF4EEC10AF1EE10FA01D221
:102A800080ED120AD0ED000AD0ED122A20EEA21A33
:102A900080ED0B1A90ED0C3A80ED0D3AD0ED030A63
:102AA000B4EEE01AF1EE10FA01DBC0ED0B0AD0ED46
:102AB0000B1AB1EE601AF4EEC11AF1EE10FA01D859
:102AC00080ED0B1AD0ED011A01EEA23A80ED0C3A1E
:102AD000D0ED041AF5EEC01AF1EE10FA0DD0B4EEF6
:102AE000E13AF1EE10FA06DCF1EE611AB4EEE13AE9
:102AF000F1EE10FA01D2C0ED0C1AD0ED101AC0EDB3
:102B0000111AD0ED0F1AC0ED101A72EEE31AC0EDD3
:102B10000F1AD0ED022A62EEA11AC0ED0E1AD0ED06
:102B20000B2A90ED0C3A32EE833A33EE213A80EDE7
:102B30000A3A90ED063AB4EEC32AF1EE10FA00E03C
:102B400025E00CD2B1EE433AB4EEC32AF1EE10FA0E
:102B500005DD72EEA11AC0ED0A1A80ED0C0AF5EE41
:102B6000C00AF1EE10FA10D090ED0A0AB4EEE00AB5
:102B7000F1EE10FA02DDC0ED0A0A06E0B4EEC10A79
:102B8000F1EE10FA01D280ED0A1A90ED0A0A7047B0
:102B900000000000002833D0002931D091ED000A58
:102BA00080ED000A91ED010A80ED010A91ED020A23
:102BB00080ED020A91ED030A80ED030A91ED040A0B
:102BC00080ED040A91ED050A80ED050A91ED060AF3
:102BD00080ED060A9FED0B0A80ED110A80ED100AC8
:102BE00080ED0F0A80ED140A80ED130A80ED120AC1
:102BF00080ED0A0A80ED0E0A80ED0C0A80ED0B0ACA
:102C00007047000000000000704700002DE9F04709
:102C1000FF482DED0A8B50F84B1F00EE101ABCEE4A
:102C2000C00A10EE101AFB4CA1808188218130F877
:102C3000070CE08008B97820E080DFF8DC8394EDB1
:102C4000131AF0EE00AAD8ED0B0A80EE810A20EEEE
:102C50002A0ADFEDF20A20EE200ADFEDF19AC0EE3B
:102C6000290A98ED0F0AB8EEC00ADFEDEE8AB3EE3E
:102C7000048A20EE280A20EE080A9FEDEB9A20EE47
:102C8000090A20EE800A01F053FCE84D84ED030AA6
:102C900094ED131A95ED0B0AC0EE010AB0EE000A8E
:102CA00020EE800ADFEDDD0A20EE200AC0EE290AC0
:102CB00095ED0F0AB8EEC00A20EE280A20EE080AA9
:102CC00020EE090A20EE800A01F032FCDFF8609362
:102CD00084ED040A94ED131AD9ED0B0A4F4680EEE9
:102CE000810AF0EE000A20EE200ADFEDCC0A20EE89
:102CF000200AC0EE290A99ED0F0AB8EEC00A20EEAC
:102D0000280A20EE080A20EE090A20EE800A01F0C7
:102D10000FFCC84E84ED050A94ED131A96ED0B0ACC
:102D2000C0EE010AB0EE000A20EE800ADFEDBB0A19
:102D300020EE200AC0EE290A96ED0F0AB8EEC00A6E
:102D400020EE280A20EE080A20EE090A20EE800A6A
:102D500001F0EEFB84ED060AD4ED033A94ED043A5B
:102D6000D4ED052A73EE830A70EEA20A70EE805A43
:102D7000C4ED075AD8ED0B0AD4ED131A80EEA11A50
:102D8000F0EE000A61EE200A9FEDA41A98ED0F4ABA
:102D900094ED102A60EE810AB8EEC41AF8EEC44A27
:102DA00094ED11AA80EEA95A21EE281A64EEA84AE1
:102DB00021EE081A64EE884A21EE091A64EE894A67
:102DC00021EE021A41EE243A65EE0A0A40EE853AF7
:102DD000C4ED083A95ED0B1AC1EE210AB0EE001AC7
:102DE00060EE810A9FED8D1A60EE810AC0EEA94A5D
:102DF000D5ED0F0AB8EEE06AF8EEE06A26EE286A32
:102E000066EEA86A26EE086A66EE886A26EE096A09
:102E100066EE896A24EE8A1A26EE026A06EE263AE1
:102E200001EE243A84ED093A97ED0B6A86EE211AF9
:102E3000B0EE006A21EE061A9FED786A21EE061ABE
:102E400081EE296A97ED0F1AB8EEC17AF8EEC17AD1
:102E500027EE287A67EEA87A27EE087A67EE887A56
:102E600027EE097A67EE897A66EE0A6A27EE027A19
:102E700047EE272A46EE862AC4ED0A2AD6ED0B6ACB
:102E8000B8EEC44A86EEA17AF0EE001ADFED636A6E
:102E900024EE284A24EE084A24EE094A24EE044A85
:102EA00067EE211A61EEA61AC1EEA96AD6ED0F1AD5
:102EB000F8EEE17AF8EEE19A67EEA87A69EEA89A60
:102EC00067EE887A69EE889A67EE897A69EE899A60
:102ED00026EE8A7A67EE827A07EEA90A07EE260ABC
:102EE000B8EEE07AF8EEE00A27EE287A60EEA80A5B
:102EF00084ED0B0A27EE087A60EE880A27EE097A3D
:102F000060EE890A07EE204AF8EEC10AB8EEC11A4F
:102F100060EEA80A21EE281A60EE880A21EE081A4F
:102F200060EE890A21EE091A00EE814AF8EEE10A04
:102F3000B8EEE11A60EEA80A21EE281A65EE058ABD
:102F400060EE880A21EE081A44EEA48A60EE890A2F
:102F500021EE091A46EE068A00EE814A73EE830AD4
:102F600070EEA20A46EEA68A84ED0D4A70EE800A43
:102F7000B2EE040AC4ED0E8AC4ED0C0AE788322FC3
:102F800015D3A7F132000A2811D30A380A280ED324
:102F90000A380A280BD30A38142802D2B2EE0A0AD9
:102FA00005E0A7F16400142804D2B2EE0E0A84ED05
:102FB000120A03E0782F01D384ED128A00EE107A12
:102FC000B7EE00CAB8EE400AF4EEC00AF1EE10FA0D
:102FD0006BDD194800880F2867D8B1EE000A94ED20
:102FE000129A22EE000A25EEA58A60EE049A00EEFF
:102FF000107AB8EE400A1AEE280A70EE090AB0EE0E
:10300000480A09EEE00AB5EEC00AF1EE10FA15E042
:10301000800C00200400002030060020DB0F494017
:10302000000070429A99993E000080381C070020E9
:1030300008080020F40800200202002038DB22EEFD
:103040002A0A20EE040A10EE100A02F007FF00EE32
:10305000107A41EC1B0BB8EE400A1AEE280A30EE4B
:10306000090A09EEC08A18EE100A02F0F7FE41ECD8
:10307000100B00F009FEB0EE408A94ED070AF0EE66
:10308000608AB1EE400A10EE100A02F0E7FE53EC3F
:10309000182B02F0C9F953EC1B2B02F06DFA02F069
:1030A00091F9E063B0F17E5F06DD84ED0FCA03E0C5
:1030B0009FED190A84ED0F0A184890ED0F0AF8EEFB
:1030C000C00A94ED0F0A60EE800AFDEEE00AC0ED42
:1030D0000F0AD5ED0F0AF8EEE00A60EE800AFDEE69
:1030E000E00AC5ED0F0AD9ED0F0AF8EEE00A60EE2E
:1030F000800AFDEEE00AC9ED0F0AD6ED0F0AF8EEE0
:10310000E00A20EE800ABDEEC00A86ED0F0ABDEC93
:103110000A8BBDE8F08700000000000030060020A8
:10312000002801DC404200B27047000070B5194C25
:10313000B4F90000FFF7F4FF40F29465A84217DCF1
:10314000B4F90200FFF7ECFFA84211DCB4F9040067
:10315000FFF7E6FFA8420BDCB4F90600FFF7E0FF3B
:10316000A84205DCA07A18B1E07A08B1002070BD51
:10317000002020806080A080E08020810221A17258
:10318000E172A081E0812082A074E074A08201201D
:1031900070BD0000DA01002030B5144B1C68656971
:1031A00045F0400565611B68DC6844F01004DC6094
:1031B0000F4B1C68256825F0010525601C682568F3
:1031C000ED07F7D11D680B4CAC601C68E060186817
:1031D0000161186842601868016841F4802101604B
:1031E0001868016841F00101016030BD2003002032
:1031F000680400200448004038B51B480168CA68CC
:1032000022F40052CA60194A11680B6823F00103C6
:103210000B601368242159600068016841680091BF
:10322000134C13684FF40011A34202D9104B4C3BCE
:1032300004E0104CA34203D90D4B503B196008E049
:103240000C4D0C4C603DB83CAB4201D9E16000E054
:10325000A160C16841F40051C1601068016841F08B
:103260000101016038BD0000200300206804002037
:1032700058640240B860024030B5284801684B6984
:1032800043F040034B6101684B6943F080034B619D
:103290000068C16841F01001C160214801680B68F5
:1032A00023F001030B6001680B68DB07F7D11D4DAC
:1032B0004FF40013A94202D91A4C4C3C04E01A4CBA
:1032C000A14203D9174C503C236008E0164D164C20
:1032D000603DB83CA94201D9E36000E0A360134B14
:1032E0008B6004681249E1600468216101684A60EA
:1032F00001680A6842F480220A600068016841F0AF
:10330000010101600B4801680A6822F001020A60AD
:1033100001680A68D207F7D18B6030BD64030020D2
:10332000C804002058640240B86002400414014000
:10333000E80E002028050020124A10B51168124B33
:1033400000EE101A5168114C0B440021A34217D80B
:10335000B5EEC00AF1EE10FA04DB10EE103A0C4C98
:10336000A34206DD10EE103A0A4C2344B3F5E01FE9
:1033700006D801230370116051601181917210BD54
:10338000017010BD5F0D0020666646BF9999590017
:103390000000604000003CBE10B5154C00204FF40A
:1033A0000071C4F80200E0802072A01C0180114965
:1033B00091F83A10072902D06B2904D007E00721C1
:1033C0004180092102E06B2141806D218180084804
:1033D000401CFFF7B1FF60782072054A0723921C5A
:1033E000BDE8104040F20131A52001F05DBD0000B4
:1033F00004020020800C00207047000070B52249B4
:1034000004462DED028B888F00EE100AC88F00EE67
:10341000900AB8EE400AF8EE600AF5EEC00AF1EE46
:1034200010FA11D0B5EEC00AF1EE10FA0CD0B6EEDB
:10343000001AB8EE008A60EE810AF4EEC00AF1EEDE
:1034400010FA04DB84ED008ABDEC028B70BD91F8AC
:103450006B000E4D02070ED0020903D00522B2EB1D
:10346000101F08D1002081F86B0084ED008AFEF760
:1034700023FA2866E8E7FEF71FFA296E401A42F29F
:1034800010718842DED3DFE7800C002004000020AA
:103490004E4A10B5D2ED1B1A92ED1C1AB5EEC00AB9
:1034A000F1EE10FA04D1F5EEC00AF1EE10FA39D0BF
:1034B00030EE612A464BB0EEC22A12EE104A9FED62
:1034C000452ADFED452A9C420BDDB4EEE10AF1EE20
:1034D00010FA02DDB0EE420A01E0B0EE620A30EE10
:1034E000210A80ED000A30EEC10AB0EEC00A10EEEB
:1034F000104A9C420BDDF4EEC10AF1EE10FA01DC39
:10350000B0EE622A32EE010A81ED000A01E0C1ED5F
:10351000000A90ED000A82ED1B0A91ED000A82ED8F
:103520001C0A10BD9FED2D0A9FED2D2AF5EEC01A45
:10353000F1EE10FA0BDD71EEC00AC2ED1B0AF5EEDA
:10354000C00AF1EE10FA10D2F0EE420A0DE0F5EEEC
:10355000C01AF1EE10FA0AD271EE800AC2ED1B0A0F
:10356000F5EEC00AF1EE10FAEEDCC2ED1B0AB5EE84
:10357000C01AF1EE10FA0DDD71EE400AC2ED1C0A20
:10358000F5EEC00AF1EE10FA01D2F0EE420AC2EDF9
:103590001C0A11E0B5EEC01AF1EE10FA0CD231EEB1
:1035A000000A82ED1C0AB5EEC00AF1EE10FA01DD48
:1035B000B0EE420A82ED1C0A92ED1B0A80ED000A71
:1035C00092ED1C0A81ED000A10BD000004000020ED
:1035D0000000204200002042000020C20000704293
:1035E00000000000FEF76EB930B593B03021684698
:1035F000FCF738FF14210CA8FCF734FF1D48002508
:10360000016841F080510160006800F08050119025
:103610001948016841F4804101600068022400F407
:103620008040119001200090000401908001CDE9BC
:10363000064006200890A820CDE9090404200B903C
:103640006846FEF7C5FA08B172B6FEE70CA90F206E
:1036500081E831004FF4A0500F904FF4805010904B
:1036600005210CA8FEF7C8F9002801D072B6FEE7C4
:1036700013B030BD4038024000700040024801687D
:1036800041F470010160704788ED00E00148FEF7E9
:10369000AEBD000094020020F0B50268254C264D16
:1036A000264E274F274B4FF0804CA04209D0604553
:1036B00007D0A84205D0B04203D0B84201D098420A
:1036C00004D122F0700E4A6842EA0E02A0421BD0DA
:1036D000604519D0A84217D0B04215D0B84213D0D7
:1036E000984211D0184DA8420ED0184DA8420BD0C8
:1036F000174DA84208D0174DA84205D0164DA84234
:1037000002D0164DA84203D122F44075CA682A435C
:103710004D6922F080022A4302608A68C2620A6808
:103720008262A04201D0984201D10969016301215E
:103730004161F0BD0000014000040040000800406D
:10374000000C0040000401400040014000440140E2
:103750000048014000180040001C004000200040CC
:1037600010B5846842EA032224F47F440A432243CA
:10377000826010BD826822F070020A4342F00701A5
:103780008160704710B5036A046A24F00104046282
:10379000846924F0F00444EA021423F00A020A4384
:1037A0008461026210BD10B5036A23F01003036246
:1037B0008369046A23F4704343EA023224F0A003CD
:1037C00043EA01118261016210BD000070B5044638
:1037D00000680169E26821F44051114301612169E7
:1037E000A068E26908436169114308432168CA6817
:1037F00049F20C639A430243CA6020684169A26996
:1038000021F440711143416131492068884202D05E
:103810003049884202D1FEF799F901E0FEF786F9B6
:10382000E2690023192164253226B2F5004F62684F
:1038300028D0A0FB0101930F9200FCF735FD014653
:10384000B0FBF5F06FF01802504301EB800006EB7F
:103850000010B0FBF5F000F0F002B1FBF5F002EB68
:103860000012B1FBF5F06FF01803584301EB800034
:1038700006EB0010B0FBF5F000F00F0021681044DB
:10388000886070BDA0FB010192185B41FCF70CFD44
:103890000146B0FBF5F00201B1FBF5F06FF0180343
:1038A000584301EB800006EBC000B0FBF5F000F0E0
:1038B000F80002EB4002B1FBF5F0584301EB800049
:1038C00006EBC000B0FBF5F000F00700D6E7000003
:1038D00000100140001401402DE9F04198461746C0
:1038E0000E460446069D27E0681C25D02DB1FDF745
:1038F000E3FFA0EB0800A8421ED920680C3050E876
:10390000001F21F4D07140E80012002AF5D1206890
:10391000143050E8001F21F0010140E80012002A95
:10392000F5D1202084F83D0084F83E00002084F882
:103930003C000320BDE8F0812068006836EA000002
:1039400004D00020B842CFD00020F3E70120F9E7EF
:1039500038B52A4800680168890603D501684068BF
:10396000009038BD26490968C906FAD50168406843
:10397000244A0090106801684FF024030C03224988
:10398000046824F00104046016D414686068C0F16F
:10399000240080B20880636011680B6843F4002340
:1039A0000B6011680A6842F001020A601228D8D13F
:1039B00015491648891C16E010684468C4F12404AF
:1039C000A4B20C8043601248816A21F40021816214
:1039D0001068016841F001010160122CC1D10A494F
:1039E0000A48891C243001F063FCFFF79FFB012883
:1039F000B7D1BDE838402420FFF7FEBB20030020EC
:103A00000048004068040020D8010020380C002045
:103A1000006002401F4818B40068C00638D51E4830
:103A200001680A6849680091816B09680A681B4B44
:103A300012030A684FF0800422F001020A60816BD1
:103A400009684A68C2F1800292B21A804C60816BA8
:103A500009680B680CD443F400230B60806B00688A
:103A6000016841F0010101600D4901F580700CE031
:103A700023F400230B60806B0068016841F00101B2
:103A800001600749803101F1800018BC01F0B3B832
:103A900018BC704700140140640300202C02002071
:103AA000E80E0020FEE703B401984100009850EAB8
:103AB000C12018BF04204A0D18BF40F0010040F299
:103AC000FF72B2EB515F08BF40F00200012808BF4F
:103AD000052002B070470907090E002804DB00F139
:103AE000E02080F80014704700F00F0000F1E020A3
:103AF00080F8141D7047000010B52F499FED2C1B56
:103B00002DED020B84B0059820F000408842D8BF0C
:103B10009DED040B2DDD2949884209D1049840B957
:103B20004FF00100FCF7CDFC00F0E2FC06B010BD48
:103B300005DB9DED040B00F0CFFC06B010BD684620
:103B40009DED040B00F0E0F810F0030004BF9DEDC4
:103B5000021B9DED000B0CD001280ED09DED021B29
:103B60009DED000B022817D0012000F01DFC06B0CF
:103B700010BD00F0E5FA06B010BD9DED021B9DEDF5
:103B8000000B012000F010FC51EC100B01F00DFCBB
:103B900006B041EC100B10BD00F0D2FA51EC100B46
:103BA00001F003FC06B041EC100B10BD000000005A
:103BB0000000000000000000FB21E93F0000F07F52
:103BC00010B52F499FED2C1B2DED020B84B00598ED
:103BD00020F000408842DCBF00209DED040B32DD68
:103BE0002849884209D1049840B94FF00100FCF7F8
:103BF00068FC00F07DFC06B010BD05DB9DED040BFC
:103C000000F06AFC06B010BD68469DED040B00F0A4
:103C10007BF810F0030011D0012818D09DED021B95
:103C20009DED000B02281AD000F08AFA51EC100B1F
:103C300001F0BBFB06B041EC100B10BD9DED021B6B
:103C40009DED000B012000F0AFFB06B010BD9DED17
:103C5000021B9DED000B00F073FA06B010BD0120B1
:103C600000F0A2FB51EC100B01F09FFB06B041EC01
:103C7000100B10BD0000000000000000000000005C
:103C8000FB21E93F0000F07F00B52DED048BB0EE85
:103C9000409AF0EE609A83B051EC190B01F028FFC6
:103CA00041EC180B18EE100A18EE901A8DED008BEF
:103CB000002818BF0120084320F00040C0F17F60B9
:103CC00000F1E040C00F14D019EE101A19EE900A5E
:103CD0008DED009B002918BF0121084320F0004012
:103CE000C0F17F6000F1E040C00F04BF0120FCF78D
:103CF000E8FBB0EE480A03B0F0EE680ABDEC048BB6
:103D000000BD0000000000002DE9F14F04462DED3C
:103D1000020B2DED088B8AB09FEDE70B80ED020BB7
:103D2000139EE74826F0004585420ADC9DED120B04
:103D3000002084ED000B0AB0BDEC088B03B0BDE899
:103D4000F08FE0489FEDE0AB9FEDE1BBA84247DD7F
:103D5000E14F9FEDE39B9FEDE48B9DED120B53EC48
:103D60001A2B51EC100B002E1CDD01F08DFF41ECE5
:103D7000100BBD4208D053EC1B2B51EC100B01F083
:103D800083FFC4E900010BE053EC192B51EC100B3D
:103D900001F07AFF53EC182B01F076FFC4E9000123
:103DA0000120C8E701F040FB41EC100BBD4208D0F8
:103DB00053EC1B2B51EC100B01F036FBC4E9000156
:103DC0000BE053EC192B51EC100B01F02DFB53ECD5
:103DD000182B01F029FBC4E900014FF0FF30AAE7DE
:103DE000C348A84279DB9DED120B51EC100B00F09B
:103DF000D5FE41EC180B9FEDC00B53EC102B01F0DE
:103E00006DFD9FEDBF1B53EC112B01F00DFB01F07D
:103E10000BFD074601F037FD41EC190B53EC1A2B53
:103E200001F05CFD53EC182B01F056FE41EC180B31
:103E300053EC1B2B51EC190B01F050FDDFF8C8A21D
:103E400041EC100B4FEA15580125FA4453EC102BA6
:103E500051EC180B01F018FF032DC4E900013DD00F
:103E6000C1F30A5005EB4511A8EB0000113981425E
:103E700034DA0AEB051BB0EE48AA9BED000BF0EE1E
:103E800068AA53EC102B51EC190B01F027FD41EC03
:103E90001B0B51EC1A0B53EC1B2B01F0F5FE41EC04
:103EA000180B51EC1A0B53EC182B01F0EDFE53ECF0
:103EB0001B2B01F0E9FE9BED020B41EC1A0B53ECBE
:103EC000102B51EC190B01F009FD53EC1A2B01F0EA
:103ED000DBFE41EC100B6D1CB8E70EE0002EA8BF16
:103EE0003846BFF628AF94ED000B51EC100B01F0F3
:103EF0005CFAC4E9000178421DE7C6F3130040F400
:103F0000801EC6F30A50A0F2F530471100F01F05DD
:103F1000C5F12000DDF848B0089000200690079019
:103F20000520EC467949002D07EB0002794408BFD3
:103F300051F8221009D051F8223001EB8201AB4038
:103F40004A68089922FA01F11943A1FB0E26A1FB48
:103F50000B131A449A4234BF0123002303EB0608D3
:103F60000CEB8003D3E901A60E448E4234BF01213D
:103F7000002192448A4411B1924502D903E092454E
:103F800001D2012100E00021C3E901A641444CF81F
:103F90002010011EA0F10100C4DC029800F10050C5
:103FA000850F0298DDE903678000DDF8148001F0D9
:103FB0006AFC41EC1A0B304601F07CFC9FED541B6F
:103FC00053EC112B01F08AFC41EC1B0B384601F03D
:103FD00071FC9FED511B53EC112B01F07FFC41EC68
:103FE000180B404601F066FC9FED4D1B53EC112B66
:103FF00001F074FC41EC190B51EC180B53EC192B2C
:1040000001F012FA53EC1B2B01F00EFA53EC1A2BB1
:1040100001F00AFACDE90801002008909DED080B97
:1040200053EC1A2B51EC100B01F02EFE53EC1B2B12
:1040300001F02AFE53EC182B01F026FE53EC192B4D
:1040400001F04AFD9FED381B53EC112B01F046FCAB
:104050009FED370B41EC180B53EC102B9DED080B2B
:1040600051EC100B01F03AFC53EC182B01F0DCF989
:104070009FED310B41EC180B53EC102B9DED080B11
:1040800051EC100B01F02AFC53EC182B01F0CCF989
:1040900041EC100B139810F0004F06D06D4251EC1C
:1040A000100B01F082F941EC100B284684ED000B57
:1040B00041E60000000000000000000000000000D9
:1040C000FB21E93F7CD9024000004054FB21F93F2D
:1040D0003163621A61B4D03DFB21F93F000000005A
:1040E0000000601A61B4D03D7370032E8A19A33B9F
:1040F000FB2139410000000083C8C96D305FE43FF7
:10410000000000000000E03F5A240000A823000047
:10411000000000000000103E000000000000103C05
:10412000000000000000103A182D4454FB21F93D16
:104130003326A611460B113C00000054FB21F93D2B
:1041400010B52DED040B2DED088B82B0B0EE419A29
:10415000F0EE619A0B9820F000449FED4BABB4F168
:10416000795F11DA9DED0A0B51EC100B01F05CFB4D
:10417000002801BFB0EE4A0AF0EE6A0A02B0BDECB8
:10418000088B04BF04B010BD9DED0A0B53EC102B3F
:1041900051EC100B01F0A2FB41EC180B3C4806213E
:1041A000B0EE480AF0EE680A784400F081F853EC6B
:1041B000182B51EC100B01F091FB9DED0A0B41EC1B
:1041C0001B0B53EC192B51EC100B01F087FB41EC4E
:1041D000190B53EC1B2B51EC180B01F07FFB53EC2C
:1041E000192B01F051FD9FED2C0B41EC190B53ECF9
:1041F000102B51EC180B01F071FB41EC100B28480F
:10420000844210DA53EC192B51EC100B01F03CFDF9
:1042100053EC1A2B01F060FC41EC100B02B0BDEC2A
:10422000088B04B010BD1F48A042BCBF9FED1E1BF1
:104230008DED001B06DBA4F500100190002000901E
:104240009DED001B51EC100B53EC112B01F01CFDEC
:104250009DED000B41EC180B53EC102B51EC1A0B9D
:1042600001F012FD41EC1A0B53EC192B51EC180B19
:1042700001F00AFD53EC1A2B01F02EFC41EC100B5F
:10428000CCE7000000000000000000000000F03F4C
:10429000CC20000000000000000000000000E03F13
:1042A0003333D33F0000E93F000000000000D23F5D
:1042B00070B504462DED028B4D1E00EBC500B0EE2F
:1042C000408AF0EE608A90ED000B35F0060017D0C2
:1042D00053EC182B51EC100B01F000FB41EC100BD0
:1042E0006D1E04EBC50090ED001B51EC100B53EC60
:1042F000112B01F099F841EC100B35F00600E7D1D5
:10430000022D36D0042D1CD0062D1CBFBDEC028B17
:1043100070BD53EC182B51EC100B01F0DFFA94ED4B
:104320000A1B53EC112B01F07FF853EC182B01F012
:10433000D5FA94ED081B53EC112B01F075F841EC04
:10434000100B53EC182B51EC100B01F0C7FA94ED45
:10435000061B53EC112B01F067F853EC182B01F0FE
:10436000BDFA94ED040B53EC102B01F05DF841EC19
:10437000100B53EC182B51EC100B01F0AFFA94ED2D
:10438000021B53EC112B01F04FF853EC182B01F0EA
:10439000A5FA94ED001B53EC112B01F045F8BDEC90
:1043A000028B41EC100B70BD31B504462DED040BB2
:1043B0002DED0A8BB0EE41BAF0EE61BA0B989DED8F
:1043C0000A0B20F00040B0F1795F0DDA51EC100BD0
:1043D000FFF769FB042808BF00F09AF89DED0A0B6F
:1043E000BDEC0A8B05B030BD53EC102B51EC100B1B
:1043F00001F074FA41EC180B9DED0A0B53EC182BED
:1044000051EC100B01F06AFA41EC190B2C48B0EE9C
:10441000480AF0EE680A05217844FFF749FF9FED4E
:104420002ACBB0EE40AAF0EE60AA9CB353EC1C2B52
:1044300051EC190B01F052FA41EC1C0B53EC1A2B06
:1044400051EC190B01F04AFA9FED210B41EC190BCD
:1044500053EC102B51EC1B0B01F040FA53EC192BD1
:1044600001F012FC53EC182B01F038FA53EC1B2B23
:1044700001F00AFC53EC1C2B01F006FC9DED0A1B1D
:1044800053EC112B01F028FBBDEC0A8B05B041EC7D
:10449000100B30BDFFE753EC1A2B51EC180B01F059
:1044A0001DFA53EC1C2B00F0BFFF53EC192B01F04D
:1044B00015FA9DED0A1B53EC112B00F0B5FFE3E755
:1044C000541F000000000000495555555555C5BF03
:1044D000000000000000E03F10B553EC102B51EC41
:1044E000100B00F0A1FF41EC100B10BD000000000C
:1044F0009FED050B10B553EC102B51EC100B01F098
:104500003BF841EC100B10BD000000000000000063
:104510009FED050B10B553EC102B51EC100B01F077
:10452000DDF941EC100B10BD000000000000001090
:10453000B5EEC00AF1EE10FA01D2B1EE400A7047B2
:1045400010B5FCF751F900F097FE00F0A9FE00F05D
:104550002BF80348FDF79CFDBDE8104000F07EBC41
:104560009402002030B50C4605000CD0022C0AD96C
:104570000548A11E0288284600F0B4FB291901F85D
:10458000020D000A487030BD4002002030B50C46D4
:10459000050008D0022C06D9FF22611E00F0B8FBEE
:1045A000291901F8010C30BD10B58AB00020012195
:1045B0000090019002900390CDE9051004900E2028
:1045C00008910791099069460D48FCF739FB0F20C7
:1045D000059069460B48FCF733FB04460848FCF796
:1045E00005FF0848FCF702FF02210548FCF7B2FA74
:1045F00002210448FCF7AEFA0AB0204610BD0000C4
:10460000440200206C02002000B589B0002008217F
:10461000CDE900100290CDE903018DF81400FCF7FC
:1046200075F8064908AB06AAD1E90301CDE90601F0
:1046300069460348FCF7A0FA09B000BD100200204B
:104640006C02002000B589B01020009000200821E5
:1046500001900290CDE903018DF81400FCF756F8A3
:10466000064808AB06AAD0E90510CDE90610694650
:104670000348FCF781FA09B000BD000010020020D9
:104680006C02002000B589B01220029000200821A1
:1046900003900490CDE905018DF81C00114808AB8A
:1046A00030F8401F0A0A8DF800208DF8011041886B
:1046B0000A0A8DF802208DF80310B0F811100A0ACA
:1046C0008DF804208DF80510B0F813006A46010A31
:1046D0008DF806108DF8070002A90348FCF74CFA84
:1046E00009B000BD800C00206C02002000B589B02C
:1046F000132000900020082101900290CDE90301D1
:104700008DF81400084808AB06AA50F86C1F0691F3
:104710008188ADF81C1080798DF81E006946034829
:10472000FCF72AFA09B000BD800C00206C020020C2
:1047300000B589B0002140F2FF12019200910822D9
:10474000CDE9041208910391020A8DF822208DF818
:1047500023008DF820108DF8181007918DF8211086
:104760006B4607AA01A90348FCF706FA009809B0AE
:10477000C0B200BD44020020114830B4C068114CE2
:104780001149124A124B042804D10020E063C86387
:10479000D063D863A48F0F48250A05704470898FB1
:1047A0000C0A8470C170918F0A0A02714171998F4D
:1047B0000A0A8271C171014630BC0748FBF7F4BF99
:1047C000200C0020300600201C07002008080020D4
:1047D000F4080020980000204402002070B5184C16
:1047E0009FED160A9FED171A84ED170AD4ED060AFD
:1047F0001549C4ED180A30EE600A01E030EE410AB6
:1048000010EE100A8842F9DC104900BF10EE100AC1
:10481000884202D930EE010AF8E730EE800A0848F3
:10482000403084ED170A0546FEF708F984ED2C0A9E
:104830002846BDE87040FEF701B900000000B8420C
:10484000E00900200000B44300003443000034C3FA
:1048500010B50849084691EC020A091DFEF718FE3A
:1048600000F00AF8FCF712F8FEF7D0F9BDE81040A6
:10487000FFF782BF200C002070B5364E364C96ED07
:10488000000AA4F1800584ED020AD6ED010AC4ED08
:10489000030A96ED021A84ED041A85ED190AC5ED96
:1048A0001A0AF068082845D2DFE800F0440D172105
:1048B00004293B2F9FED290A84ED040A84ED030AA5
:1048C00084ED020A36E024490C31081F00F0BEF8DE
:1048D000FFF784FFB1EE400A06E01F490C31081FC4
:1048E00000F0B4F8B8EE000A84ED040A22E01A4998
:1048F0000C31081F00F0AAF8B0EE000AF4E71649E0
:104900000C31081F00F0A2F814E013490C31081F05
:1049100000F09CF8FFF762FFB1EE400A84ED040A54
:1049200004E00D490C31081F00F090F80A481030DF
:10493000FEF764FD96ED000A083485ED1B0A96ED3E
:10494000010A85ED1C0A94EC030ABDE8704000F0F2
:1049500007B80000200C00208400002000000000A8
:104960002DE9F0472DED028BFBF722FE00F084F9D4
:10497000324D334E334FDFF8D080B0F5605F41DD0C
:1049800000F081FF8946044649EC180B286BC0EB08
:10499000C000C00200F077FF53EC182B00F0ECFDD4
:1049A00000F042FF2863306B49EC184BC0EBC000AD
:1049B000C00200F068FF53EC182B00F0DDFD00F0A2
:1049C00033FF3063386B49EC184BC0EBC000C002BA
:1049D00000F059FF53EC182B00F0CEFD00F024FF3F
:1049E0003863D8F8300049EC184BC0EBC00044469F
:1049F000C00200F048FF53EC182B00F0BDFD00F0A2
:104A000013FF206395ED0C0AB8EEC00A85ED2C0A61
:104A100096ED0C0AB8EEC00A86ED2C0A97ED0C0A4A
:104A2000B8EEC00A87ED2C0A98ED0C0AB8EEC00A61
:104A300088ED2C0ABDEC028BBDE8F0873006002023
:104A40001C07002008080020F408002070B5064666
:104A50004A480D462DED048B90ED060A484910EEAC
:104A6000100ADFED480A884201DA30EE200A9FED95
:104A7000461A474C474830EE410A80EE201AB0EE05
:104A8000000ADFED420A21EE000A20EE200A84ED42
:104A90001D0AC168022913D1D0ED000AFDEEE00A1B
:104AA00010EE901A31B9D0ED010AFDEEE00A10EED9
:104AB000900A28B1DFED380A30EE200A84ED1D0A95
:104AC00010EE100A01F0CAF941EC100BFFF714F8D0
:104AD000B0EE408AF0EE608A606E01F0BFF953ECF0
:104AE000182B00F0FBFE41EC180B606F01F0B6F9DB
:104AF00041EC100BFFF764F8B0EE409AF0EE609ACC
:104B0000A06E01F0ABF953EC192B00F0E7FE53EC6B
:104B1000182B00F089FC00F055FC3060606F01F04C
:104B20009DF941EC100BFFF74BF8B0EE408AF0EE28
:104B3000608A606E01F092F953EC182B00F0CEFE03
:104B400041EC180B606F01F089F941EC100BFEF796
:104B5000D3FFB0EE409AF0EE609AA06E01F07EF9BD
:104B600053EC192B00F0BAFE53EC182B01F08CF823
:104B700000F028FC2860BDEC048B70BDE00900202B
:104B80000000B8420000B4430000B842DC0F4940C6
:104B900004000020200C0020CDCC4C3E82B0CDE99A
:104BA000000121F0004001909DED000B02B051EC9E
:104BB000100B7047EFF3108172B6436802699A4296
:104BC00001D90268026112F8013B02618268521C3D
:104BD0008260C268521E81F31088C2601846704716
:104BE0008B185B1E0160C0E901320022C0E903217D
:104BF0004161104670472DE9F0475FEA010805461C
:104C0000EFF3108672B62FD0AC686CB36968686930
:104C1000884201D928686861944200DD14460F1A61
:104C20007F1CA74206DB22464146FBF7B4FB6869BE
:104C300020440DE0A4EB07093A464146FBF7ABFBE5
:104C400008EB07014A462868FBF7A5FB286848449B
:104C50006861A868001BA860E8682044E8602046F6
:104C600086F31088BDE8F08786F310884FF0FF3098
:104C7000F8E7C068704700001648006B002800DAAB
:104C8000404215490A6B5142002A01DB134600E0FD
:104C90000B46834202DD100000D508460F490A6B1F
:104CA0005142002A01DB134600E00B46834202DD3D
:104CB000100000D508460A490A6B5142002A01DB60
:104CC000134600E00B46834202DD100000D5084683
:104CD00070470000300600201C0700200808002054
:104CE000F408002010B558B1084C491E0BD310F839
:104CF000013B5340DBB234F8133083EA1222F4E76D
:104D00004FF6FF7010BD104610BD00007260000825
:104D100010B5054C04E000BF10F8013B5340E25CC5
:104D2000491EF9D2104610BD725F00082DE9F0410E
:104D30000D4600EE105A2DED028B0446D0ED068A8A
:104D4000B8EE408AC0ED078A164680ED068A80EDEF
:104D5000188A406B1F46304400F095FD9FED1B1BE9
:104D600053EC112B00F0BAFD00F02CFBE062C4F80C
:104D7000B400C4E90D67E06838B900EE105A0120AC
:104D8000B8EE400A84ED000AE06038EE680A606A16
:104D900010EE101AB1F18B4F01DD401E05E010EE50
:104DA000101A11F16A5F01D9401C6062400300EEE5
:104DB000100AB8EEC00A30EE080ABDEEC00A84ED53
:104DC0000A0ABDEC028BBDE8F08100000000000083
:104DD0000000E03FFCF77EFDFEF706FCFDF76CFDF2
:104DE000FDF7E4FCFDF706FDFDF79CFDFDF7CEFDAC
:104DF000FDF724FDFDF7E6FDFDF702FEFFF7A0FB42
:104E000008489FED070A084980ED080A00208862DB
:104E1000064988620649886206498862FEE7000002
:104E200000000000E0090020300600201C070020E0
:104E300008080020F408002001884ABA06490A80C0
:104E4000428852BA4A80828852BA8A80C08840BA60
:104E5000C8800846704700001402002070B5DF21AA
:104E60000E48FBF7DDFA0D48A021DF30FBF7D8FA3A
:104E70000B4D00242A21C5F80A40C5F80E40094808
:104E8000FBF7CEFA074889212A30FBF7C9FA2C60D4
:104E90002C71C5F805406C7270BD0000800C0020BC
:104EA000F0010020FF0D0020FFB5A1B00446BDF8C1
:104EB0009060174606F1090085B229466846FBF75F
:104EC000D1FA8DF80040194CBDF89000ADF8010002
:104ED00020788DF8030005216846FFF757FBBDF8E1
:104EE0008800ADF80500324639460DF10700FBF7A2
:104EF00052FA29466846FFF735FB2078FF2813D081
:104F0000401C20700A4C6FF0400021680860642348
:104F10002A4669462046FDF7EFFB20680168C94331
:104F20004906FBD425B0F0BD0020EAE704020020CA
:104F30006403002078B400218A4CADF800100168A9
:104F4000216001792171B0F80510ADF800108BB225
:104F50008549B3F5027F6ED02FDC40F20124A3F225
:104F60000122A3427BD01FDC40F20114A3F2011204
:104F7000A34265D00ADC012B53D0022B5DD0032B5A
:104F800010D1C11D784820220C30E8E0012A5BD006
:104F9000032A5DD0042A05D1B0F8072021F8372F65
:104FA000407A887078BC7047072AFBD2DFE802F0AD
:104FB000045C61666B707400F4E76B4A40F2023681
:104FC0008032A3F20235B3426FD021DCB3F5037F08
:104FD0006CD00CDCA3F50073093B6FD0012B72D0B1
:104FE000022BDFD1C11D604828228330B7E0A3F532
:104FF00000730D3B77D0012B7AD0F42BD2D150F82F
:10500000071F42F8581F8188918080799071C9E705
:10501000072DC7D2DFE805F004747F8A939A9F00BA
:10502000C0E750F8072F0A6042684A6002890A8187
:10503000807A8872B6E73CE011E0C079C872B1E7C7
:10504000D0F80700C862ADE7D0F807000863A9E709
:10505000B0F807208A86407A81F83600A2E7C11DA1
:1050600041480D223A307AE0C11D3F4810224730B6
:1050700075E050F8072F41F8572F52E050F8072FEE
:1050800041F8632F23E0B0F80700A1F8690089E731
:10509000C07981F86B0085E750F8072F41F86C2F35
:1050A00082888A80807988717CE725E012E005E0BB
:1050B00009E050F8072F41F8732F08E0D0F80700F7
:1050C000C1F879006EE750F8072F41F87D2F8088EE
:1050D000888067E750F8071F42F82B1F8088908070
:1050E00060E700E004E0D0F80700C2F8310059E7BB
:1050F000C07982F8350055E7C11D1E221B482EE0FD
:1051000050F8071F42F85F1F416851600189118103
:10511000807A907246E7154950F8072F491C41F8EC
:105120001D2F42684A60806888603BE750F8071F7F
:1051300042F86A1F416851600089108132E750F8D7
:10514000071F44F80A1F406860602BE7C11D07482D
:1051500069228B3803E0C11D04482222223878BC22
:10516000FBF719B9F0010020800C0020FF0D002092
:1051700070B5A5263E4C3F48FFF77BFD002571E04A
:105180003C48FFF717FD94F8861006294BD2DFE85C
:1051900001F003131D2D384DB0420AD1012184F8CE
:1051A0008610B4F88710A31D4A1CA4F88720C854A1
:1051B00058E0A4F8875055E0A080B4F88710A31DEC
:1051C0004A1CA4F88720C854022017E0A188A31D18
:1051D00041EA0021A180B4F887104A1CA4F8872076
:1051E000C854A08877281ED2032007E0B4F887109F
:1051F000A31D4A1CA4F88720C854042084F8860004
:1052000030E0B4F88710A31D4A1CA4F88720C854C6
:10521000B4F88700052825D10521A01D00F0B2F8BB
:1052200008B10520EAE784F88650C2E7A288B4F8FE
:1052300087100932914204D2A31D4A1CA4F887208A
:10524000C854A188B4F88700093188420AD384F889
:105250008650A4F88750A01D00F076F810B1A01D6C
:10526000FFF768FE0348FFF704FD002888D170BDF2
:10527000290E0020E80F0020084910B58022A1F176
:105280008000FDF7F9FF0549BDE8104098314FF463
:105290008062A1F11800FFF7A3BC0000680F002096
:1052A00002492422A1F12400FDF776BF5C0C002006
:1052B000002847D0002945D00278437842EA0322EB
:1052C000C2F30A020A8042788378D20842EA431283
:1052D000C2F30A024A808278C378920942EA8302C2
:1052E000037942EA8322C2F30A028A80027943796F
:1052F000520842EAC312C2F30A02CA804279C2F3D8
:1053000001128A7242799209CA728279C37942EA99
:1053100003228A81027A437A42EA0322CA81827A8C
:10532000C37A42EA03220A82027B8A74427BCA74ED
:10533000827BC37B42EA03228A82027C407C42EA6F
:10534000002008817047000030B50C46050014D0DD
:10535000022C12D90A48A11E02882846FFF7C2FC77
:105360002919C2B211F8023C9A4206D111F8011C67
:10537000B1EB102F01D1012030BD002030BD000065
:105380004002002030B50C4605000CD0022C0AD992
:10539000FF22611EFFF7BCFC291911F8011C814294
:1053A00001D1012030BD002030BD81F000417047A7
:1053B00080F00040704721F00041704720F000402D
:1053C0007047000021F00042A2F16052B2F5801F48
:1053D00001F0004328BFD2F17F6C0BD95FEA001CBB
:1053E00043EAC20242EB507018BF704728BF20F05A
:1053F00001007047B2F5801FBCBF184670474FEAE6
:10540000410C1CF5001F02D2084600F09DBD70B58E
:1054100000F00EFB00000089FFF7F6BF4FF00040E0
:10542000A0F580007047000010B591EA030F48BF57
:1054300083F0004300F13084841A71EB030C05D231
:10544000121943EB0C03001B61EB0C01DFF824E1A4
:105450004FEA1154A4EB135C1EEA430F18BF9EEAF7
:10546000445F73D023EA0E03DCF1200E21EA0451DD
:1054700043F4801332D322FA0CFE10EB0E0023FA11
:105480000CFE41EB0E01CCF1200E03FA0EFE10EBE8
:105490000E0051F10001B1F5801FCCF1200E32D287
:1054A00001EB045112FA0EF2BDE8104058BF7047EC
:1054B000401C38BF5FEA420218BF7047002814BF83
:1054C00020F0010041F100014FEA410313F5001FF4
:1054D00038BF7047A1F1C04100F0F8BA012A43EB90
:1054E0000302ACF1200CDCF11F0E32BF4FF0000EB6
:1054F00023FA0CF310EB030041EB0451B4EB115F02
:10550000D0D0A1EB045101F5801149085FEA3000C9
:1055100001EB04510ED350F1000038BF12FA0EFE19
:1055200008D1BDE81040C9E7401C38BF5FEA42021D
:10553000CAD1C3E7BDE810404FEA410313F5001F8D
:1055400038BF7047A1F1C04100F0C0BA9EEA445F85
:1055500008D011EA5E0FBDE8104004BF01F0004121
:1055600000207047BDE8104070B500F061FA00BF40
:1055700064FBBE3E0000E0FF2DE9C04130B4DFF81F
:10558000A0C23CEA111418BF3CEA131400F0EC80EE
:1055900081EA03051CEA111444EAD57418BF1CEA19
:1055A000131500F0C780A4EB05044FF0004545EA51
:1055B000C12145EAC32341EA505143EA525304F161
:1055C0007F74994204F500344FEAC0204FEAC222AA
:1055D00008BF904200F09C804FEA13650FF240161E
:1055E000765D4FEA134506FB05F7C7F1807706FBAA
:1055F00007F74FEAD737A7FB03687642C8F580382C
:10560000A7FB06CE38BFA8F1010807FB08E64FF05C
:10561000000EA6FB028CE6FB03CEDCF1000CCEF103
:10562000004E38BFAEF1010EA6FB0C584FF000073C
:105630004FF00005E6FB0E87A1FB08C6A0FB07CED6
:1056400016EB0E0645F10005E1FB076515F1E04E8E
:105650007EBFA4F580345FEA46066D4116F18007EF
:1056600045F100054FEA17274FEA066647EA056746
:10567000A6F1DE46B6F1805F4FEA15251FD9384600
:1056800024F0010C05EBC471BCF1FE6F01EB0C11B1
:1056900002D8F0BCBDE8008124425CBF01F5801E49
:1056A0009EEAC47F02D4F0BCBDE80081244238D415
:1056B000F0BCA1F1C041BDE8004100F007BA4FEADB
:1056C000D22242EA43524FEAD323A7FB02864FEA93
:1056D000D02040EA415007FB03661EEA0E0F4FEA56
:1056E000D12105FB026658BFA6EB0056B6EB00566B
:1056F0004FEA520E4EEAC37E18EB0E0E56EB530ED7
:10570000BDD518EB02085E417F1C55F10005B6E7D8
:105710004FF480154FF000074FF000064FF00008DF
:10572000ADE7F0BC4FF0000001F1C04101F00041D5
:10573000BDE8008111EA0C1F0CEA131500D00CE043
:1057400013EA0C1F00F025804FF00000F0BC81EA46
:10575000030101F00041BDE80081F0BCBDE800415B
:1057600081EA030100F0B2B9F0BCBDE8004170B5B8
:1057700000F05EF9097EFC3E00F007B881EA030103
:105780004FF0000001F00041704781EA030100F092
:105790009DB9F0BCBDE800414FF0000021497047C1
:1057A000FFFDFBF9F7F5F4F2F0EEEDEBE9E8E6E4E6
:1057B000E3E1E0DEDDDBDAD8D7D5D4D3D1D0CFCD6D
:1057C000CCCBCAC8C7C6C5C4C2C1C0BFBEBDBCBBA6
:1057D000BAB9B8B7B6B5B4B3B2B1B0AFAEADACABA1
:1057E000AAA9A8A8A7A6A5A4A3A3A2A1A09F9F9E7B
:1057F0009D9C9C9B9A99999897979695959493932D
:10580000929191908F8F8E8E8D8C8C8B8B8A8989C3
:105810008888878786858584848383828281818046
:105820000000FF070000F87F4FEA41034FEA53539F
:10583000A3F58063D3F11E03C8BFD3F1210C0CDDA7
:105840004FF0004242EAC12242EA505232FA03FCCF
:105850008CEAE17CACEBE1707047102BC4BF0020F8
:10586000704703F5787CBCF1FF3F04D06FF0004235
:1058700082EA2100704770B500F0DAF8499224807E
:1058800000207047F2E710F0004248BF4042B0FAF3
:1058900080F310FA03F10AD0C3F11D0303F580630E
:1058A0004FEA415002EB035202EBD12170474FF017
:1058B00000007047B0FA80F310FA03F10AD0C3F188
:1058C0001D0303F580634FEA41504FEA035202EB98
:1058D000D12170474FF0000070470000DFF848C149
:1058E00070B51CEA111E1EBF1CEA13159EEA0C0FB0
:1058F00095EA0C0F00F06F8081EA030423EA4C1351
:105900004EEAD47E21EA4C1141F4801143F4801315
:10591000AE44A1FB024CA0FB0365AEF17F7E3619BD
:1059200055EB0C05A1FB034C4CF10003A0FB021C42
:1059300016EB0C06654153F10003094218BF46F00F
:10594000010613F4007F0BD14FEA03314FEA053013
:10595000340341EA155140EA16506FF003020AE0A1
:105960004FEAC3214FEAC520F40241EA555140EA0B
:1059700056506FF0020202EB2E4201EB025585EA0F
:10598000CE710AD05FEA440C18BF24F0004450F1F5
:10599000000041F1000120EAD47040F2FE7C624533
:1059A00000D270BDA84214BF4FF080444FF0404475
:1059B000002E08BF0024BEF1806FA8BFA1F1C04136
:1059C000BDE8704080F282804FF0000001F1C041DC
:1059D00001F0004170479EEA0C0F0CEA131518BF46
:1059E00095EA0C0F06D04FF0000081EA030E0EF08E
:1059F000004170BD00F01CF88900013E00F007B8BE
:105A000000F009B84FEA430C5FEA5C5C08D081EA19
:105A1000030100F05BB84FEA410C5FEA5C5CF6D131
:105A20004FF00000014970470000FF070000F87FB9
:105A30000EF1020E2EF0030E5EF8046B364205D412
:105A4000012A43EB030515F5001F12D8012841EB8D
:105A5000010C1CF5001F0CD80ED14FEAD17C15F5B6
:105A6000001F0CEB4C0C0CF1020C08BF4CEBD37C70
:105A700004E04FF0080C01E04FEAD37C0CEB4C053E
:105A800026FA05F606F00706B6F1040C06D20EEB70
:105A9000860CBDE870404CF0010C6047DFE80CF06C
:105AA000090B02024FF000414FF00000A1F5002168
:105AB00070BD19461046012851EB010418BFD4F5FA
:105AC000001484BF002001F0004170BD0808A0F55B
:105AD00000114FEA3101704791EA030F10B581F0D0
