:020000040800F2
:10000000D07E00209D010008859200087D670008D1
:1000100081920008B119000875CC000800000000AA
:1000200000000000000000000000000095A1000892
:100030001523000800000000EB9C0008B7A1000891
:10004000B7010008B7010008B7010008B7010008B0
:10005000B7010008B701000817230008B70100081E
:10006000B7010008212300082B230008B70100086E
:10007000DD1F0008B7010008B7010008B70100083C
:10008000B7010008B7010008B7010008C51900084A
:10009000B5190008B7010008B701000835230008AA
:1000A000B7010008B7010008B7010008B701000850
:1000B000B7010008CDA20008DDA20008B7010008C2
:1000C000B7010008B7010008B7010008B701000830
:1000D000B7010008B7010008D5A90008E5A9000884
:1000E000B7010008B7010008B7010008B701000810
:1000F000B7010008B7010008B7010008B701000800
:10010000B7010008B7010008EDA20008B701000818
:10011000B7010008B7010008B7010008B7010008DF
:10012000B7010008ED1F0008B7010008FD1F000817
:10013000B7010008B7010008B7010008B7010008BF
:10014000D5190008B7010008B70100084995000853
:10015000B70100080D200008B701000829AB00080E
:10016000B7010008B7010008B7010008B70100088F
:10017000B7010008B7010008B7010008000000003F
:10018000B7010008B7010008DFF80CD001F0BEF895
:1001900000480047D50F0108D07E00200648804760
:1001A00006480047FEE7FEE7FEE7FEE7FEE7FEE75C
:1001B000FEE7FEE7FEE7FEE775A2000889010008FA
:1001C00093081BD090ED000AD0ED011AD0ED020A81
:1001D00090ED031AB0EEC00A81ED000AF0EEE11ACC
:1001E000B0EEE00AC1ED011AF0EEC10A81ED020A9B
:1001F000C1ED030A103010315B1EE3D112F003028F
:1002000008BF7047B2F1004F23D2002AD8BF704711
:10021000001F091F12F0010F07D090ED010A001D09
:10022000B0EEC00A81ED010A091D520808BF7047EF
:1002300090ED010AB0EEC00A81ED010A90ED020ACC
:100240000830B0EEC00A81ED020A0831521EEFD12B
:100250007047B0EC010A521EB0EEC00AA1EC010AD0
:10026000F7D1704770B405880E884468D1F804C08F
:100270005368B54208D140884988884201BF118837
:100280008D425188884203D070BC6FF002007047E5
:1002900005FB00F1880827D094ED001ADCED000A78
:1002A00094ED010ADCED011A31EE201AD4ED020AB8
:1002B00070EE211A9CED020A83ED001AC3ED011ABB
:1002C00094ED031ADCED031A30EE800A401E71EE45
:1002D000210A83ED020A04F11004C3ED030A03F1BD
:1002E00010030CF1100CD7D111F0030030D0B0F195
:1002F000004F30D200282BDD211F1B1FACF1040260
:1003000010F0010F0AD091ED010AD2ED010A091D8A
:10031000121D30EE200A83ED010A1B1D400817D084
:1003200091ED010AD2ED010A401E30EE200A83ED64
:10033000010A91ED020AD2ED020A01F1080102F16F
:10034000080230EE200A83ED020A03F10803E7D128
:1003500070BC00207047B4EC010A401EFCEC010A9E
:1003600030EE200AA3EC010AF5D1F1E701804280CA
:10037000436070472DE9F34F84B0049840680090C3
:10038000486801900498B0F800E04588DFEDFE0A67
:1003900000200290B0EE600AAE4506D10888498878
:1003A000884204BF7146864504D06FF0020006B053
:1003B000BDE8F08F01985FEA010C18BFB7EE001A94
:1003C0003DD000BFBEEB0C0117D0B1F1004F80F063
:1003D0001F82002911DD021F11F0010F1CBFC2EDA9
:1003E000010A121D4B1006D0C2ED010AC2ED020A2D
:1003F00008325B1EF8D100EB8100BCF10102A0ECD9
:10040000011A19D0B2F1004F80F00882002A13DDE2
:10041000031F12F0010F1CBFC3ED010A1B1D511079
:1004200008D000BFC3ED010AC3ED020A491E03F163
:100430000803F7D100EB8200BCF1010CC2D14FF0F0
:1004400000080395002D14BFB0EE602A002000F0D4
:10045000BF8100BF009908FB05F001EB800B0199FB
:10046000DBED002A01EB80000346F0EE421AC645A0
:1004700052D9AEEB0802ABEB850112F0010F17D099
:1004800001EB850191ED000AB5EEC00AF1EE10FA1C
:1004900007DDB4EEE10AF1EE10FA09DDF0EE401AE4
:1004A00006E0B1EE400AF4EEC01AF1EE10FAF5D310
:1004B000521031D001EB850C9CED000AB5EEC00A5C
:1004C000F1EE10FA05DDB4EEE10AF1EE10FA09DD05
:1004D00006E0B1EE400AF4EEC01AF1EE10FA01D2D5
:1004E000F0EE401A01EBC50191ED000AB5EEC00A2D
:1004F000F1EE10FA05DDB4EEE10AF1EE10FA09DDD5
:1005000006E0B1EE400AF4EEC01AF1EE10FA01D2A4
:10051000F0EE401A521ECDD1F5EEC01AF1EE10FAEF
:1005200000F07381F5EEC02A0126F1EE10FA009971
:10053000D4BFB1EE620AB0EE620AB4EE610AF1EE27
:1005400010FA1CBFAEEB0802B2F1010C47D005FB5C
:1005500008F201EB820292ED001A00BFB0EE410AF0
:1005600005FB06F4B5EEC00A00EB8404F1EE10FAC8
:10057000CCBFF0EE400AF1EE400AF4EE610AF1EE73
:1005800010FA28D1B5EB080C11D0BCF1004F7DD288
:10059000BCF1000F0BDD00BF92ED000AD1ED000AA7
:1005A000BCF1010CE2EC010AA1EC010AF4D1290032
:1005B0000ED0B1F1004F6AD2002909DD94ED000A96
:1005C000D0ED000A491EE4EC010AA0EC010AF5D1C5
:1005D000012002900BE0761CBCF1010CBED1029808
:1005E000012804D0F5EEC02AF1EE10FA7ED09BED82
:1005F000000AB5EB08009A465946064622D0B0F1EB
:10060000004F74D200281DDD091F10F0010F06D025
:10061000F0EE400A80EEA01A81ED011A091D40108B
:1006200010D000BFD1ED010A401E80EE801A81ED8E
:10063000011A91ED021AC1EE000AC1ED020A01F1A0
:100640000801EFD1280026D0B0F1004F7ED200285B
:1006500021DDAAF1040110F0010F06D0D1ED010A4D
:1006600080EE801A81ED011A091D401013D000BFE1
:10067000D1ED010A401E80EE801A81ED011AD1ED04
:10068000020A80EE801A81ED021A01E0CBE0D6E08A
:1006900001F10801ECD1DDE900124FF000095FEA39
:1006A0000E0773D0C14504BF01EB860102EB850242
:1006B00074D091ED000ADC465046331E35D01C46FE
:1006C000B6F1004F7ED2002C2FDD0B1FABF1040CD6
:1006D00016F0010F0FD0F0EE400ADCED011AB0EE7B
:1006E000601A00EEE11A83ED011A01E08DE0B1E03D
:1006F0001B1D0CF1040C741015D000BFD3ED010AC2
:100700009CED011A40EE410AC3ED010AD3ED020A45
:100710009CED021A0CF1080C40EE410AC3ED020AEE
:100720000833641EEAD101EB86012B0036D0B3F109
:10073000004F72D2002B31DDA2F1040CAAF10400AB
:1007400013F0010F0CD0DCED010A00E08BE090ED1E
:10075000011A001D40EE410ACCED010A0CF1040C17
:100760005C1019D0DCED010A90ED011A40EE410A4F
:10077000CCED010ADCED020A90ED021A083040EEE1
:10078000410ACCED020A03E0000000000DE005E0A4
:10079000641E0CF1080CE5D102EB830201EB880129
:1007A0007F1E09F101097FF47DAF009808F101086F
:1007B000001D00900398401E03907FF44BAE0299F9
:1007C000012900E058E004BF06B0BDE8F08F00BF8B
:1007D000B5EEC00AF1EE10FA7FF4E9AD04990EFB14
:1007E00005F3002B4A684FF000010BD902EB810C96
:1007F0009CED000AB5EEC00AF1EE10FA02D1491CD8
:100800008B42F3D88B427FF4D2AD6FF00400CEE57B
:10081000E0EC010A491EFBD1EFE538E0E0EC010A0B
:10082000521EFBD108E692ED000AD1ED000ABCF1A0
:10083000010CE2EC010AA1EC010AF4D1B7E694ED57
:10084000000AD0ED000A491EE4EC010AA0EC010AFE
:10085000F5D1BDE6D1ED000A401E80EE801AA1EC74
:10086000011AF7D1EEE6D3ED000A401E80EE801AA1
:10087000A3EC011AF7D10EE7BCEC011AD1ED000A86
:100880005B1E40EE410AE1EC010AF5D14DE7B0EC08
:10089000011AD2ED000A5B1E40EE410AE2EC010AA9
:1008A000F5D17BE72DE9F04F82B04668536801939C
:1008B000058847884B88002000900888874201BF40
:1008C000B2F800C06545528893421EBF6FF0020027
:1008D00002B0BDE8F08F9FED412A4FEA970EC7F3B3
:1008E000400B00BFDDE9000202EB800A4A6898462F
:1008F0004FF00009B0EE420AB4465FEA0E0025D080
:1009000092ED001ADCED001A02EB8302DCED010A25
:1009100001EE810A92ED001A02EB8302401ED2ED35
:10092000001A02EB830200EE810A9CED021ADCED54
:10093000030A00040CF1100C000C01EE210A92EDE8
:10094000001A02EB830200EE810AD9D117F00300EE
:1009500026D0ACF10404A2EB830210F0010F08D002
:1009600002EB8302D4ED010A92ED001A241D00EE81
:10097000810A5FEA0B0013D002EB830CD4ED010A6D
:100980009CED001A02EBC302401E00EE810AD4ED7A
:10099000020A92ED001A04F1080400EE810AEBD17C
:1009A00009F10100AAEC010A1FFA80F9486800EB7E
:1009B0008902A8F101001FFA80F8B8F1000F99D15F
:1009C000009806EB8706184480B20090681E050464
:1009D0002D0C87D102B00020BDE8F08F0000000090
:1009E00070B405880E884468D1F804C05368B542D5
:1009F00008D140884988884201BF11888D425188BA
:100A0000884203D070BC6FF00200704705FB00F114
:100A1000880827D094ED001ADCED000A94ED010A55
:100A2000DCED011A31EE601AD4ED020A70EE611AA3
:100A30009CED020A83ED001AC3ED011A94ED031A2E
:100A4000DCED031A30EEC00A401E71EE610A83ED40
:100A5000020A04F11004C3ED030A03F110030CF1C0
:100A6000100CD7D111F0030030D0B0F1004F30D2CC
:100A700000282BDD211F1B1FACF1040210F0010F19
:100A80000AD091ED010AD2ED010A091D121D30EEC6
:100A9000600A83ED010A1B1D400817D091ED010A81
:100AA000D2ED010A401E30EE600A83ED010A91ED9D
:100AB000020AD2ED020A01F1080102F1080230EE49
:100AC000600A83ED020A03F10803E7D170BC00203D
:100AD0007047B4EC010A401EFCEC010A30EE600ADB
:100AE000A3EC010AF5D1F1E72DE9F04F0288476840
:100AF000B0F802804888D1F8049082B04FF0000A24
:100B00001646824207BF098888456FF0020002B08E
:100B100018BFBDE8F08F4FEA980B02EB420001903E
:100B2000C8F34000CDF8000009EB8A01BBF1000FCB
:100B300033D0019801EB820C01EB80043B46E64682
:100B400001EBC2054FEA0B0093ED000A401E81ED58
:100B5000000A93ED010A01EB02118CED000A93EDFE
:100B6000020A0CEB021C85ED000A93ED030A05EB6B
:100B7000021584ED000A04EB021403F11003E3D123
:100B80000EEB820000EB820000EB8201ABF1010072
:100B9000504307EB0B1701EB001118F0030C21D0A9
:100BA0003B1FA1EB82011CF0010F06D093ED010A5F
:100BB00001EB82011B1D81ED000A009880B100BF8E
:100BC00093ED010A01EB820401EBC20184ED000AFE
:100BD00093ED020A401E81ED000A03F10803EFD1F4
:100BE00007EB8C070AF101001FFA80FA701E060459
:100BF000360C99D102B00020BDE8F08F2DE9F05FEE
:100C00000546002092469B4688460646814640247B
:100C10001BE0284641464746224600F058FA534614
:100C20005A46C01A914110D311461846224600F088
:100C30003FFA2D1A67EB01084F462246012000219A
:100C400000F036FA17EB00094E41201EA4F1010412
:100C5000DFDC484631462A464346BDE8F09F40EA7D
:100C600001039B0703D009E008C9121F08C0042A2A
:100C7000FAD203E011F8013B00F8013B521EF9D211
:100C80007047D2B201E000F8012B491EFBD2704739
:100C90000022F6E710B513460A4604461946FFF748
:100CA000F0FF204610BD2DE9FE4F804681EA03008B
:100CB000C00F0C46009021F0004123F00045B8EB36
:100CC0000200A94105D24046214690461C460B46EB
:100CD000024623F00040104347D0270DC7F30A0017
:100CE000C3F30A510290401A019040286BDAC3F313
:100CF000130040F4801B0098924620B10023D2EBF1
:100D0000030A63EB0B0B01985946C0F140025046B1
:100D100000F0CEF906460D4650465946019A00F0BD
:100D2000E6F910EB08006141002487EA115284EAD9
:100D3000E7731A4340D0009A62B3019A012A4FEA3E
:100D4000075215DC001B61EB02014FF0004202EA82
:100D50000752CDE90042001C41F5801132462B4676
:100D600000F01DFA03B0BDE8F08F40462146F9E7D8
:100D7000001B61EB0201001C41F5801300185B4170
:100D80002018A2F5001747EB030140EAD570B61909
:100D90006D4111E06D084FEA360645EAC0754FEA2D
:100DA0000752001B61EB0201001C41F5801149084C
:100DB0004FEA30000019514132462B4603B0BDE8DE
:100DC000F04F00F0DDB90098012240000023D0EB85
:100DD000020263EBE073009821464FEAE074B8EB3F
:100DE000000061EB0401E9E783F000435BE781F079
:100DF000004158E72DE9FE4F81EA030404F0004466
:100E000021F0004100944FF0000B23F0004350EA22
:100E100001045ED052EA03045BD0C3F30A54C1F369
:100E20000A552C44A4F2F3340194A0FB0254C1F3FC
:100E3000130141F48011C3F3130343F4801301FB46
:100E4000024400FB034E840A970A44EA815447EAAD
:100E50008357A4FB076802958D0A05FB07854FEAB7
:100E6000932C04FB0C542705029D4FEA065847EAD1
:100E70001637B5EB08056EEB070C870E920E47EAA6
:100E8000811742EA8312A7FB0201B6EB0B0164EB68
:100E900000042B0D43EA0C335E1844EB1C50DA4679
:100EA0005146E7FB0201C5F313044FEA0B3343EA53
:100EB00014534FEA0432019C43EA0603A4F10C04E4
:100EC0000294009CCDE900B400F069F903B0BDE8DC
:100ED000F08F00200146F9E72DE9F04D81EA030487
:100EE00004F0004B21F0004514464FF0000A23F0B7
:100EF000004150EA050220D054EA01021DD0C5F39A
:100F00000A570246C5F31303C1F31300C1F30A568F
:100F100040F4801543F48013A7EB0608101BD64657
:100F200008F2FD3873EB050002D308F1010801E077
:100F300092185B41B8F1000F03DA00200146BDE8CA
:100F4000F08D00204FF48011064684460EE0171BFA
:100F500073EB050705D3121B63EB050306434CEA4D
:100F6000010C49084FEA300092185B4150EA010732
:100F7000EDD152EA030012D082EA040083EA0501AF
:100F8000084305D0101BAB4106D20122002306E026
:100F900000224FF0004302E06FF0010253101AEB01
:100FA00006004CEB085110EB0A0041EB0B01BDE8C9
:100FB000F04D00F0E5B80EB5C10F80EAE0700844CE
:100FC000CA07002140F233438DE80E000A460B4663
:100FD00000F0E5F803B000BD0EB540F233410291D8
:100FE0000021CDE900110A460B4600F0D8F803B005
:100FF00000BD00F0004230F000400AD0C10D01F504
:101000006071C0F3160042EA0151C2084007114363
:10101000704700200146704730B5041E71F100048E
:1010200004DB4FF00044404264EB0101141E73F1F5
:10103000000405DB1C464FF00043524263EB0403FF
:101040008B4208BF824230BD30B5041E71F10004EE
:1010500004DB4FF00044404264EB0101141E73F1C5
:10106000000405DB1C464FF00043524263EB0403CF
:10107000994208BF904230BD01F0004330B421F0E6
:10108000004150EA010206D00A0DA2F56072C1F3D8
:101090001301002A02DC30BC00207047440F44EAF0
:1010A000C104C100E01830BC00EBC25000F031B800
:1010B000202A04DB203A00FA02F100207047914018
:1010C000C2F1200320FA03F3194390407047202A0D
:1010D00004DB203A21FA02F00021704721FA02F3E2
:1010E000D040C2F120029140084319467047202A9F
:1010F00006DBCB17203A41FA02F043EAE07306E040
:1011000041FA02F3D040C2F120029140084319464F
:1011100070470029A8BF7047401C490008BF20F055
:101120000100704710B4B0FA80FC00FA0CF050EAED
:10113000010404BF10BC704749B1CCF1200421FA6E
:1011400004F411FA0CF118BF012121430843A3EB69
:101150000C01CB1D4FEA00614FEA102042BF002076
:1011600010BC704700EBC35010440029A4BF10BC52
:101170007047401C490008BF20F0010010BC7047B8
:1011800010B5141E73F1000408DA401C41F100018F
:1011900092185B411A4301D120F0010010BD2DE9E6
:1011A000F04D92469B4611B1B1FA81F202E0B0FADD
:1011B00080F220329046FFF77BFF04460F4640EA5C
:1011C0000A0041EA0B0153465A46084313D0114620
:1011D00053EA010019D0C8F140025046FFF777FFEB
:1011E00005460E46504659464246FFF761FF084302
:1011F00005D0012004E020463946BDE8F08D0020EE
:10120000054346EAE0762C4337430A986305E40A2F
:10121000A0EB08000022FD0A44EA47540A3002D538
:1012200000200146E9E7010510196941DDE908459B
:1012300000196941BDE8F04DA2E770B521F0004307
:1012400003430CD0C1F30A550024D5EB040564EB2D
:101250000403D617AD1AB34102DB0020014670BD6E
:10126000201841EB025170BD2DE9F04D00231A46C4
:101270001B1A8A4103DB00200146BDE8F08DC1F353
:101280000A52C1F3130141F480154FF0000BD1074E
:1012900002D100186D41521E0027044640F2FF1192
:1012A000384601EB620A3E468046024600204FF473
:1012B0008011FFF70CFFC2197141BB1846EB01000A
:1012C000B4EB030C75EB000C04D3E41A65EB0005DA
:1012D00017460E46241908F101006D418046342856
:1012E000E3DDF91946EB0600091BA84103D24FF0D4
:1012F000FF32134601E0002213461BEB070046EBCA
:101300000A51BDE8F04DFFF73BBF0000064C074D0A
:1013100006E0E06840F0010394E8070098471034C5
:10132000AC42F6D3FEF734FF90320108B032010828
:1013300070B58C1810F8015B15F0070301D110F897
:10134000013B2A1106D110F8012B03E010F8016BC4
:1013500001F8016B5B1EF9D12B0705D40023521E47
:101360000DD401F8013BFAE710F8013BCB1A921CAF
:1013700003E013F8015B01F8015B521EF9D5A142AD
:10138000D8D3002070BD70B505460C4600260DB1BF
:10139000022C00D870BDA11E4FF6FF72284601F046
:1013A00063FA0646A01E2E54310A601E295400BF5F
:1013B000F0E770B52DED048BB0EE408AF0EE608A58
:1013C000B0EE419A04460D461646B0EE491AF0EECC
:1013D000680AB0EE480A0DF0DDFD86ED000AB0EEB9
:1013E000491AF0EE680AB0EE480A0DF0CBFEB1EEF5
:1013F000400A84ED000AB0EE491AF0EE680AB0EE39
:10140000480A0DF0EBFD85ED000ABDEC048B70BDC4
:1014100010B501221021024802F0EEFB10BD0000C1
:101420000000024010B500221021024802F0E4FB47
:1014300010BD00000000024010B501221146024814
:1014400002F0DAFB10BD00000004024010B50022DB
:101450000121024802F0D0FB10BD00000004024050
:1014600010B50446FFF7DEFF922000F0A3F9062234
:101470009549122000F07EF9FFF7CAFF92484078A4
:10148000000200B290490978084390490880084654
:10149000B0F9000000EE100AB8EEC00A8C48D0ED9A
:1014A000000A20EE200AD4ED080A20EE200A84ED7E
:1014B000000A8548C078000200B283498978084351
:1014C000824908800846B0F9000000EE100AB8EE24
:1014D000C00A7F48D0ED000A20EE200AD4ED080AA9
:1014E00020EE200A84ED010A77484079000200B21C
:1014F000754909790843754908800846B0F9000024
:1015000000EE100AB8EEC00A7148D0ED000A20EED5
:10151000200AD4ED080A20EE200A84ED020AFFF723
:1015200095FF08226849002000F024F9FFF784FFA6
:10153000654800780F284FD166480078F0B36248BC
:10154000C078000200B26049897808435F4908808A
:1015500094ED090A0846B0F9000000EE900AF8EE92
:10156000E00A5D4890ED001A10EE810A84ED030A4E
:1015700055484079000200B253490979084353495C
:10158000088094ED0A0A0846B0F9000000EE900ABF
:10159000F8EEE00A504890ED001A10EE810A84ED52
:1015A000040A4948C079000200B2474989790843D2
:1015B0004649088094ED0B0A084600E00DE0B0F9BA
:1015C000000000EE900AF8EEE00A434890ED001AA1
:1015D00010EE810A84ED050A44E03B48C078000221
:1015E00000B2394989780843384908800846B0F97B
:1015F000000000EE100AB8EEC00A3748D0ED000A2D
:1016000020EE200A84ED030A2F484079000200B240
:101610002D49097908432D4908800846B0F9000092
:1016200000EE100AB8EEC00A2B48D0ED000A20EEFA
:10163000200A84ED040A2448C079000200B222493D
:1016400089790843214908800846B0F9000000EE76
:10165000100AB8EEC00A2048D0ED000A20EE200A99
:1016600084ED050AFFF7DEFEA22000F0A3F80222B7
:101670001549222000F07EF8FFF7CAFE12480078D4
:10168000C0001149497840EA6110104908800846B5
:10169000B0F90000B0F5806F05DB08460088A0F5C2
:1016A000006000B208800948B0F9000000EE100A9E
:1016B000F8EEC00AB4EE001AB3EE070A00EE810A93
:1016C00084ED070A10BD0000260700202E07002029
:1016D000E8060020F8060020EC06002070B504465D
:1016E0000D461C48046000201B4908700DF0C2F82C
:1016F000194909780843184908700DF071F916491D
:1017000009780843144908701DB1144800F0C6F95F
:101710001CE09FED130A114880ED090A9FED110AA4
:1017200080ED0A0A9FED0F0A80ED0B0A9FED0E0A6D
:1017300080ED0C0A90ED0C0ADFED0C0A80EE801AA9
:1017400080ED081A9FED0A0A80ED060A024800782B
:1017500070BD000030070020F2060020BC220020EF
:10176000AC38223BB016CE393F161B41C3F51C41A5
:101770000000204270B506460C46154646F0800033
:1017800000F018F806E0552000F014F82070641CF2
:10179000681EC5B2002DF6D170BD70B504460D4669
:1017A00044F0800000F006F8552000F003F828709F
:1017B00070BD000001B582B04FF47A70012301AA18
:1017C00002A900900348006803F0B8FD9DF80400EA
:1017D0000EBD00003007002070B505460C462846B7
:1017E000FFF7E8FF2046FFF7E5FF70BDD2ED020AE4
:1017F00092ED021AB6EE000A00EEC10AD2ED030A1B
:1018000092ED031A00EEC10AD0ED000A20EE200A84
:10181000D2ED010A92ED021A60EE810A92ED001AF1
:10182000D2ED031A41EE610A90ED011A00EE810A31
:10183000D2ED010A92ED031A60EE810A92ED001AD0
:10184000D2ED021A41EE210A90ED021A00EE810A51
:10185000F0EE000A20EE200A81ED000A92ED010A66
:10186000D2ED020A20EE200AD2ED000A92ED031A10
:1018700000EE810AD0ED000A60EE200A92ED011A16
:10188000D2ED011AB6EE000A01EE610AD2ED031A9A
:1018900092ED032AB0EE401A01EEC21AD0ED011A01
:1018A000B0EE600A01EE210AD2ED020A92ED031AAF
:1018B00060EE810A92ED001AD2ED011A41EE610A42
:1018C00090ED021A00EE810AF0EE000A20EE200AE6
:1018D00081ED010A92ED010AD2ED030A20EE200A01
:1018E000D2ED000A92ED021A00EEC10AD0ED000A14
:1018F00020EE200AD2ED020A92ED031A60EE810A70
:1019000092ED001AD2ED011A41EE210A90ED011A72
:1019100000EE810A92ED011AD2ED011AF6EE000AEC
:1019200041EE610A92ED021AD2ED021A41EE610A0D
:1019300090ED021A00EE810AF0EE000A20EE200A75
:1019400081ED020A7047000010B58AB00024012022
:1019500005900020009001900290039006900120D5
:1019600008900790002004900E20099069460E48C8
:1019700001F0E2F804460F20059069460B4801F09B
:10198000DBF80446084801F004FE084801F001FEB7
:101990000221054801F046F80221044801F042F80E
:1019A00020460AB010BD0000440800206C0800204A
:1019B00000BFFEE710B5024801F00DFA10BD0000AF
:1019C0004408002010B5024801F005FA10BD0000DF
:1019D0004408002010B5024801F0FDF910BD0000D8
:1019E0006C080020F0B587B006460C4617461D4629
:1019F0000194002002900390049005956B463A46AE
:101A000001A9304601F020F807B0F0BD04284FF0DE
:101A1000000070470020704710B5002204490548B7
:101A200009F03AFB0449034809F028FB002010BDE7
:101A3000CC2F0020F0220020CC27002070B50546D6
:101A40000C46284621680BF017F918B12846216882
:101A50000DF0B8FC2946044809F010FB024809F0D3
:101A6000DDFA002070BD0000F02200200020704749
:101A700010B50A460849D1F8BC12D1F81412002951
:101A800001D0012010BD0146034809F005FBBDE867
:101A90001040014809F098BBF022002070B52DEDF0
:101AA000048B88B0044600200690079000F06CFB81
:101AB000FE4880ED000A00BF00F066FBFB48D0ED59
:101AC000000A30EE600AF2EE040AB4EEE00AF1EE2B
:101AD00010FA14DD9FEDF60A84ED090A9FEDF50A70
:101AE00084ED0A0A9FEDF30A84ED0B0A9FEDF20ADA
:101AF00084ED0C0A9FEDF10A84ED060A55E29FED94
:101B0000F00A00F0FDFA9FEDEF0A84ED0C0A9FED5C
:101B1000ED0A84ED090A9FEDEB0A84ED0A0A9FEDB8
:101B2000E90A84ED0B0A002673E1FFF77BFC9220A3
:101B3000FFF740FE062206A91220FFF71BFEFFF763
:101B400067FC9DF81900000200B29DF8181040EAE9
:101B5000010500EE105AB8EEC00ADB48D0ED000ACD
:101B600020EE200A84ED000A9DF81B00000200B25E
:101B70009DF81A1040EA010500EE105AB8EEC00AAE
:101B8000D148D0ED000A20EE200A84ED010A9DF82C
:101B90001D00000200B29DF81C1040EA010500EE95
:101BA000105AB8EEC00AC848D0ED000A20EE200A4C
:101BB00084ED020AD4ED000A60EEA00A94ED011A49
:101BC000D4ED011A41EE210A94ED021AD4ED021A65
:101BD00041EE210AB0EE600A0CF0EEF9B0EE408A58
:101BE00094ED0C0A30EE080A84ED0C0AFFF72EFC87
:101BF000082206A90020FFF7BDFDFFF71DFC9DF898
:101C000018000F2850D19DF81B00000200B29DF86B
:101C10001A1040EA010500EE105AB8EEC00AAB48AF
:101C2000D0ED000A20EE200A84ED030A94ED090AA3
:101C3000D4ED030A30EE200A84ED090A9DF81D0058
:101C4000000200B29DF81C1040EA010500EE105A97
:101C5000B8EEC00A9D48D0ED000A20EE200A84EDBF
:101C6000040A94ED0A0AD4ED040A30EE200A84ED49
:101C70000A0A9DF81F00000200B29DF81E1040EAFB
:101C8000010500EE105AB8EEC00A9048D0ED000AE7
:101C900020EE200A84ED050A94ED0B0AD4ED050A26
:101CA00030EE200A84ED0B0A06BBF0EE488AB0EE57
:101CB000489A002017E004F10C0101EB800191ED3E
:101CC000000A03A901EB800181ED000A04F10C0177
:101CD00001EB800191ED000A694601EB800181ED85
:101CE000000A411CC8B20328E5DB49E0B4EEE88AEB
:101CF000F1EE10FA01DDF0EE488AB4EEC98AF1EE99
:101D000010FA01D2B0EE489A002037E004F10C013D
:101D100001EB800191ED000A03A901EB8001D1EDF7
:101D2000000AB4EEE00AF1EE10FA0ADD04F10C014B
:101D300001EB800191ED000A03A901EB800181ED27
:101D4000000A04F10C0101EB800191ED000A6946E3
:101D500001EB8001D1ED000AB4EEE00AF1EE10FAD9
:101D60000AD204F10C0101EB800191ED000A6946F1
:101D700001EB800181ED000A411CC8B20328C5DBDC
:101D800038EEC90A524880ED000A002012E003A98B
:101D900001EB800191ED000A694601EB8001D1ED74
:101DA000000A30EE600A4B4901EB800181ED000A28
:101DB000411CC8B20328EADB454890ED000AF6EE64
:101DC000000AB4EEE00AF1EE10FA1BDC414890ED97
:101DD000000ADFED410AB4EEE00AF1EE10FA11DC80
:101DE00090ED010ADFED3C0AB4EEE00AF1EE10FAE4
:101DF00008DC90ED020ADFED380AB4EEE00AF1EEFD
:101E000010FA00DD0AE09FED350A00F079F9701C48
:101E100086B2334800888642FFF687AE00BFD4ED15
:101E20000C0A2F48008800EE100AB8EE400A80EE37
:101E3000801A84ED0C1A002015E004F1240101EB56
:101E40008001D1ED000A2649098800EE101AB8EE8B
:101E5000400A80EE801A04F1240101EB800181ED3B
:101E6000001A411CC8B20328E7DBFFF7DBFAA22007
:101E7000FFF7A0FC022206A92220FFF77BFCFFF758
:101E8000C7FA9DF81800C0009DF8191040EA6115C6
:101E9000B5F5806F02DBA5F5006005B200EE105AC3
:101EA000F8EEC00AB4EE001A1CE000002007002083
:101EB000AC38223BB016CE393F161B410000204201
:101EC0000AD7A33B00000000E8060020EC06002033
:101ED000F4060020B02200209A99193E6F12033AAE
:101EE00024070020B3EE070A00EE810A84ED060AFB
:101EF00034480088401C00B232490880324890EDD6
:101F0000000AF6EE000AB4EEE00AF1EE10FA3FF72E
:101F1000D3AD94ED0C0ADFED2D0A30EE600AB0EE81
:101F2000C00AF6EE000AB4EEE00AF1EE10FAEEDCBA
:101F3000274890ED000A5FED180AB4EEE00AF1EED2
:101F400010FAE4DC90ED010A5FED1D0AB4EEE00A40
:101F5000F1EE10FADBDC90ED020A5FED210AB4EE3F
:101F6000E00AF1EE10FAD2DC94ED090AB0EEC00AF4
:101F7000DFED180AB4EEE00AF1EE10FAC7DC94EDDA
:101F80000A0AB0EEC00ADFED130AB4EEE00AF1EE81
:101F900010FABCDC94ED0B0AB0EEC00ADFED0D0ABE
:101FA000B4EEE00AF1EE10FAB1DC00BF94ED0C0AD9
:101FB000DFED090A80EE801A84ED081A08B0BDEC46
:101FC000048B70BDFA060020F4060020CDCC1C4125
:101FD000B02200200AD7233CC3F51C4110B50248AB
:101FE00001F074FB10BD0000D00C002010B50248B9
:101FF00001F06CFB10BD0000300D002010B5024850
:1020000001F064FB10BD0000A009002010B50248DB
:1020100001F05CFB10BD0000900D002001680A4B30
:10202000CAB2103AA3FB02321209084B9B5CC3658B
:10203000032A04D96FF30901091D816502E06FF3DA
:1020400009018165806D7047ABAAAAAADC29010845
:10205000014600208A6A8B69002B0FD0B3F5005F20
:102060001DD08AB3012A30D0022A2ED0032A04D1EF
:10207000C96A11F0807F00D0012070471AB1012A8F
:1020800007D0022AF9D1C96A11F0807FF5D001206A
:102090007047C96AB1F1C07FFAD1012070475AB1C7
:1020A000012A0BD0022A07D0032AF7D1C96AB1F15D
:1020B000C07FF3D10120704701207047C96A11F039
:1020C000807FFAD001207047FFE7012070470000B1
:1020D00008B5084840680090074900980968884298
:1020E00004D206480068401C044908600249009870
:1020F000086008BD001000E0A8000020A400002037
:102100000C494868F0EE400A00BF0A494968091ABC
:1021100001EE101AF8EE411A074991ED001AB8EED7
:10212000411A20EE811AF4EEC11AF1EE10FAECD346
:1021300070470000001000E09800002010B52DED61
:10214000028B82B004460E484068019020680199D5
:10215000081A00EE100AF8EE400A0A4890ED000A4C
:10216000B8EE400A80EE801AB0EE418A01982060F5
:10217000FFF7AEFFB0EE480A02B0BDEC028B10BD17
:10218000001000E09800002010B52DED028B00F04B
:1021900059F80F4890ED000AB8EE400A808800EE2A
:1021A000900AF8EE600A9FED0B1A00EE810A0848CB
:1021B000C08800EE900AF8EE600A9FED071A00EE64
:1021C000810AB0EE408AB0EE480ABDEC028B10BD29
:1021D000900000206F12833ABD3786351249096896
:1021E00041F08071104A11600021104A516011467F
:1021F000096841F0010111600D4941430D4A116028
:10220000114609684FF47A72B1FBF2F10A4A116083
:1022100008490968064AB1FBF2F1084A1160002139
:10222000074A116070470000FCED00E0001000E07C
:1022300040420F00980000209C000020A0000020D9
:10224000A400002038B5294840680090FFF740FFFF
:10225000274800684FF0FF31A0FB013100981818A3
:1022600041F10001234A03C22348002321490268A7
:1022700003C9FEF7C3FC214A03C220480CC81E480C
:1022800000680024A2FB001503FB005002FB0402BF
:102290001848D0E90030591A60EB0200184AC2E928
:1022A00000101648006817490860174800231449B1
:1022B000026803C9FEF7A2FC12498880084680889C
:1022C0001149096841430E48D0E90030591A60F1BC
:1022D00000000E4AC2E900100D4800230B490268B5
:1022E00003C9FEF78BFC0749C88038BD001000E029
:1022F000A4000020B000002098000020B8000020BA
:10230000C0000020900000209C000020C800002099
:10231000A0000020704710B5012001F059FB10BD4E
:1023200010B5082001F054FB10BD10B5102001F0CD
:102330004FFB10BD10B5202001F04AFB10BDD2EDBF
:10234000020A92ED021AB6EE000A00EEC10AD2EDC0
:10235000030A92ED031A00EEC10AD0ED000A20EE46
:10236000200AD2ED010A92ED021A60EE810A92ED86
:10237000001AD2ED031A41EE210A90ED011A00EE87
:10238000810AD2ED010A92ED031A60EE810A92ED04
:10239000001AD2ED021A41EE610A90ED021A00EE27
:1023A000810AF0EE000A20EE200A81ED000A92ED8B
:1023B000010AD2ED020A20EE200AD2ED000A92EDC7
:1023C000031A00EEC10AD0ED000A60EE200A92ED79
:1023D000011AD2ED011AB6EE000A01EE610AD2ED41
:1023E000031A92ED032AB0EE401A01EEC21AD0EDA4
:1023F000011AB0EE600A01EE210AD2ED020A92ED56
:10240000031A60EE810A92ED001AD2ED011A41EE34
:10241000210A90ED021A00EE810AF0EE000A20EE89
:10242000200A81ED010A92ED010AD2ED030A20EEA5
:10243000200AD2ED000A92ED021A00EE810AD0EDD8
:10244000000A20EE200AD2ED020A92ED031A60EE95
:10245000810A92ED001AD2ED011A41EE610A90ED67
:10246000011A00EE810A92ED011AD2ED011AF6EE80
:10247000000A41EE610A92ED021AD2ED021A41EE13
:10248000610A90ED021A00EE810AF0EE000A20EED9
:10249000200A81ED020A7047704730B50B4680F87C
:1024A0005030002180F8511000BF07E0002400F8F0
:1024B000314000EBC1056C604C1CE1B29942F5DB88
:1024C000012100F8321030BD3B4890ED010A3B4835
:1024D00080ED550A90ED550A3748D0ED030AF8EE25
:1024E000E00A9FED371A00EE810A344880ED560A63
:1024F0003148B0F9080000EE100AB8EEC00A2F48C3
:1025000080ED540A2F4890ED1E0A2C4880ED510AA8
:102510002C4890ED060A294880ED530A2A4890ED90
:10252000010A9FED2A1AC0EE010A9FED250A20EE4E
:10253000800A274880ED550A2348B0F9080000EECC
:10254000100AB8EEC00A224880ED540A1D4890EDEA
:102550001D0AB1EE400A1E4880ED510A194890ED5F
:10256000050AB1EE400A1A4880ED530A154890ED6D
:102570001C0A184880ED510A124890ED040A1548CB
:1025800080ED530A1448007888B90C4890ED550A3C
:10259000DFED0B0A60EE200A9FED101A80EE810A33
:1025A000D0ED510A30EEC00A0D4880ED000A01203E
:1025B0000949087070470000F00D00202018002025
:1025C0000000B443F41E0020000E002000F8FF4578
:1025D00088190020F01A0020B801002000000046F1
:1025E000BC01002010B52DED028B634890F8660108
:1025F00010B961480DF002FF5F4890F866010128AC
:1026000047D15D4890ED500AD0ED510A30EE600A96
:10261000DFED5A0AB4EEE00AF1EE10FA07DD90EDB4
:10262000500ADFED570A30EE600A80ED500A52483A
:1026300090ED500AD0ED510A30EE600ADFED510AFC
:10264000B4EEE00AF1EE10FA07D290ED500ADFED99
:102650004C0A30EE200A80ED500A47480DF0A7FEE4
:10266000454890ED530ADFED480AB4EEE00AF1EE7A
:1026700010FA0EDD90ED530AB5EEC00AF1EE10FA35
:1026800007D290ED0B0A80ED0A0A9FED400A80ED1B
:102690000C0A394890F8660102282ED1364890ED90
:1026A000500AD0ED550A30EE600ADFED390AB4EE7B
:1026B000E00AF1EE10FA07DD90ED500ADFED350A81
:1026C00030EE600A80ED500A2B4890ED500AD0EDB4
:1026D000550A30EE600ADFED300AB4EEE00AF1EEA2
:1026E00010FA07D290ED500ADFED2A0A30EE200AE8
:1026F00080ED500A20480DF032FE284890F866011F
:1027000010B926480DF07AFE244890F86601012899
:1027100027D19FED230AB0EE408A9FED220AF0EE0A
:10272000408A1E4890ED500ADFED1D0AB4EEE00A23
:10273000F1EE10FA03D29FED1A0A80ED500A174805
:1027400090ED500ADFED170AB4EEE00AF1EE10FA50
:1027500003DD9FED140A80ED500A10480DF027FEAE
:1027600000BF0E4890F86601022802D10B480DF018
:10277000CFFDBDEC028B10BD2018002000003443BB
:102780000000B443000034C30000008000000000DB
:102790000000804500000046000080C58819002028
:1027A0000000A4C13333194210B50AF083FA0DF0CA
:1027B00043FC10BD10B52948007800B910BD0DF0DC
:1027C00035FE2648007838B90120254981F8660190
:1027D000244981F866013BE020480078052807D1AC
:1027E00000201F4981F866011E4981F866012FE02B
:1027F0001A480078022807D10120194981F866019A
:10280000184981F8660123E014480078032807D1AD
:102810000120134981F86601124981F8660117E029
:102820000E480078042808D102200D4981F866017D
:1028300001200C4981F866010AE008480078012867
:1028400006D10020064981F86601064981F8660133
:102850000120034981F8660100BFAFE7E0000020D6
:10286000201800208819002030B5034613B94FF610
:10287000FF7030BD09E013F8014B82EA0400C0B2DA
:10288000054D35F8100080EA2222081EA1F1010151
:10289000F1D11046EDE70000EA200108014691F869
:1028A0005100704770B50B480168001D0568001D98
:1028B0000068084400280CD0074C0822A11C05F031
:1028C000EFFA04F112012846BDE87040042205F039
:1028D000E7BA70BD107AFF1F7807002010B50AF024
:1028E00085FA0220374908709FED370A374880ED96
:1028F000510A9FED350A80ED530A9FED330A80EDB2
:10290000550A9FED310A80ED540A9FED2F0A80EDA4
:10291000500A9FED2D0A80ED520A9FED2B0A80EDA3
:10292000580A00202949A1F86401012081F86601B4
:102930009FED250A264880ED510A9FED230A80ED80
:10294000530A9FED210A80ED550A9FED1F0A80ED85
:10295000540A9FED1D0A80ED500A9FED1B0A80ED81
:10296000520A9FED190A80ED580A00201849A1F873
:102970006401012081F866019FED130A154880ED7E
:10298000510A9FED110A80ED530A9FED0F0A80ED69
:10299000550A9FED0D0A80ED540A9FED0B0A80ED5C
:1029A000500A9FED090A80ED520A9FED070A80ED5B
:1029B000580A00200749A1F86401012081F8660146
:1029C00010BD0000E00000200000000020180020E2
:1029D00088190020F01A002010B50E4800880E4912
:1029E00009684863FFF770FDFFF7E4FEFFF7DCFEC0
:1029F000FFF7F8FD09480078052809D0084991ED4E
:102A00000A0ABDEEC00A10EE101A08B20CF0B2FCB1
:102A100010BD0000AC010020000A0020E0000020F2
:102A20008819002090F82020012A07D0022A05D01A
:102A3000416A41F480214162012070470068426987
:102A4000114341610020704770B490F82040D0F8E5
:102A500000C0DCF808C0012C08D0022C06D0416A66
:102A600041F48021416270BC012070470CF0806409
:102A70000CF000652C430CF080552C4355D0CCF362
:102A8000016C012404FA0CF41C608B684FF4C074D0
:102A90009BB1CD6804EB0C162B434D6843EAC5038C
:102AA0000568AB514FF4C273066803EB0C130D6954
:102AB000F550097D012909D00DE00D88CB6804EBA4
:102AC0000C1643EA45530568AB51EBE70168CD5856
:102AD00045F48075CD501179D379557941EA036178
:102AE00093791B0443EA052319434FF4C675036821
:102AF00005EB0C1559511178D37841EA03619378AD
:102B000052781B0443EA022211434FF4C473026853
:102B100003EB0C13D150006804EB0C11425842F047
:102B20000102425070BC00207047416A41F400111C
:102B3000416270BC0120704790F82020012A07D024
:102B4000022A05D0416A41F4802141620120704788
:102B50004248D0F8002242F00102C0F80022D0F82A
:102B6000002222F47C52C0F80022D0F800224B6AE6
:102B700042EA0322C0F800220A7D012302F01F026C
:102B800003FA02F2D0F81C329343C0F81C32CB692E
:102B9000D3B9D0F80C329343C0F80C32B1F80CC062
:102BA0004B686CF31F43D1F814C000EBCC0CCCF88D
:102BB0004032B1F808C00B686CF31F43D1F814C061
:102BC00000EBCC0CCCF84432CB69012B1AD1D0F8F5
:102BD0000C321343C0F80C32B1F800C04B686CF3F0
:102BE0001F43D1F814C000EBCC0CCCF84032B1F844
:102BF00008C0CB686CF31F43D1F814C000EBCC0CB9
:102C0000CCF844328B697BB1D0F804321343C0F85E
:102C100004320B6973B1D0F814321343C0F8143284
:102C2000096A01290CD010E0D0F804329343C0F8AF
:102C30000432EEE7D0F814329343C0F81432EFE7D1
:102C4000D0F81C121143C0F81C12D0F8001221F069
:102C50000101C0F80012002070470000006400402D
:102C6000704730B490F820C0BCF1010F09D0BCF11E
:102C7000020F06D0416A41F48021416230BC01203C
:102C8000704739B1D0F800C0DCF810C01CF0030F59
:102C900033D006E0D0F800C0DCF80CC01CF0030F05
:102CA00024D04FF4D87C04680CEB011C54F80C4081
:102CB00004F0040494603CB3046854F80C40E40845
:102CC0005460046854F80CC00CF0020CC2F80CC03C
:102CD0004FF4DA7C04680CEB011C54F80C5005F03E
:102CE0000F05082D16D30824146118E0416A41F439
:102CF0000011416230BC01207047416A41F400116B
:102D0000416230BC01207047046854F80C40640DE7
:102D10001460D6E754F80C4004F00F041461046802
:102D200054F80C40C4F307249461046854F80CC0B0
:102D30004FEA1C4CC2F814C04FF4DC72D0F800C04B
:102D400002EB01125CF802C083F800C0D0F800C0AA
:102D50005CF802C04FEA1C2C83F801C0D0F800C018
:102D60005CF802C04FEA1C4C83F802C0D0F800C0E7
:102D70005CF80220120EDA704FF4DE72D0F800C058
:102D800002EB01125CF802C083F804C0D0F800C066
:102D90005CF802C04FEA1C2C83F805C0D0F800C0D4
:102DA0005CF802C04FEA1C4C83F806C0D0F800C0A3
:102DB0005CF80220120EDA7139B10068016941F045
:102DC0002001016130BC002070470068C16841F0FB
:102DD0002001C160F6E72DE9F05F05460024286870
:102DE0004669D0F804908768D0F80CA0D0F810B0ED
:102DF000D0F8188016F0010F54D017F0010F17D03B
:102E00000121816017F0020F03D0284600F0F4FB87
:102E10000EE017F0040F02D04FF4006408E017F042
:102E2000080F02D04FF4805402E0284600F0E3FB84
:102E300017F4807F19D029684FF48070886017F4E8
:102E4000007F03D0284600F0D9FB0EE017F4806F16
:102E500002D044F4005408E017F4006F02D044F4A8
:102E6000804402E0284600F0C8FB17F4803F19D0E8
:102E700029684FF48030886017F4003F03D028465B
:102E800000F0BEFB0EE017F4802F02D044F40044A3
:102E900008E017F4002F02D044F4803402E0284602
:102EA00000F0ADFB16F0080F07D01AF0100F04D099
:102EB00044F4007429681020C86016F0040F4FF025
:102EC000080707D01AF0080F04D02868C760284602
:102ED00000F008FA16F0020F07D02868C06810F05A
:102EE000030F02D0284600F0FFF916F0400F07D07C
:102EF0001BF0100F04D044F480642968102008618E
:102F000016F0200F07D01BF0080F04D028680761C7
:102F1000284600F03BFB16F0100F07D02868006928
:102F200010F0030F02D0284600F031FB16F4003FEA
:102F300008D019F0100F05D02968102048602846E5
:102F400000F026FB16F4803F07D019F0080F04D0DC
:102F500028684760284600F054FB16F4004F4AD01A
:102F600019F0040F44D016F4807F04D018F0010F3C
:102F700001D044F0010416F4007F04D018F0020FD1
:102F800001D044F0020416F4806F04D018F0040F4E
:102F900001D044F0040416F4006F29D018F0700F2B
:102FA00026D008F07000402815D006DC102809D083
:102FB00020280AD0302816D10AE050280ED06028E8
:102FC00011D10EE044F008040DE044F010040AE0D2
:102FD00044F0200407E044F0400404E044F080049E
:102FE00001E044F480742868816921F070018161F6
:102FF000296804204860002C05D0686A2043686274
:103000002846FFF72DFEBDE8F09F70B50446002C62
:1030100003D094F8200010B104E0012070BD2046D8
:1030200000F0A8F82068016841F00101016000F09B
:10303000EBFD0546206840684FF0050610F0010FD3
:1030400011D100F0E1FD401B0A2807D9606A40F465
:103050000030606284F82060012070BD2068406804
:1030600010F0010FEDD02068016821F0020101602D
:1030700000F0CAFD05462068406810F0020F11D02C
:1030800000F0C2FD401B0A2807D9606A40F40030F6
:10309000606284F82060012070BD2068406810F0F4
:1030A000020FEDD1207E01283FD02068016821F079
:1030B00080010160607E01283DD02068016821F018
:1030C00040010160A07E01283BD02068016821F00A
:1030D00020010160E07E012839D02068016841F0BC
:1030E00010010160207F012837D02068016821F09D
:1030F00008010160607F012835D02068016821F057
:1031000004010160E168A068626908432169114314
:1031100008436168491E08432168C8610020606255
:10312000012084F82000002070BD2068016841F073
:1031300080010160BEE72068016841F04001016044
:10314000C0E72068016841F020010160C2E7206803
:10315000016821F010010160C4E72068016841F0B6
:1031600008010160C6E72068016841F004010160C0
:10317000C8E7000010B586B00446142101A8FDF789
:1031800087FD52492068884249D151480068401C57
:103190004F4908600846006801280FD100BF002091
:1031A00000904C48006840F000704A4908600846AA
:1031B000006800F00070009000BF00BF00BF00205A
:1031C000009044481038006840F008004149103928
:1031D00008600846006800F00800009000BF00BFCB
:1031E000032001900220029000200390032004900D
:1031F0000920059001A9384800F0F6FB00220121C2
:10320000132000F0BFFE132000F0AEFE00220121CB
:10321000142000F0B7FE142000F0A6FE54E02F4961
:103220002068884250D100BF0020009029480068E3
:1032300040F08060274908600846006800F0806020
:10324000009000BF00BF22480068401C2049086071
:103250000846006801280FD100BF002000901D48DB
:10326000006840F000701B4908600846006800F0E4
:103270000070009000BF00BF00BF00200090154804
:103280001038006840F00200124910390860084602
:10329000006800F00200009000BF00BF60200190B5
:1032A0000220029000200390032004900920059042
:1032B00001A90B4800F098FB00220121402000F0FA
:1032C00061FE402000F050FE06B010BD00640040DA
:1032D0000400002040380240000C0240006800401A
:1032E000000402407047000010B58AB00446002078
:1032F0000190029094480DF041FE944884427CD1A4
:1033000001AB03AA0021FFF7ACFC0398A0F2411027
:1033100008B3C02852D0C1282ED0C22871D19DF840
:1033200007009DF8063040EA032002B29DF8050030
:103330009DF8043040EA0321854807F087F99DF89D
:1033400009009DF8081040EA012001B28048B83811
:10335000A0F8D41000BF9DF80400A8280BD19DF858
:1033600008009DF8091040EA012000B2794908815F
:103370009DF80500887244E09DF805009DF8041052
:1033800040EA012000EE100AB8EEC00A724880ED53
:10339000010A9DF807009DF8061040EA012000B2DE
:1033A0006D4908810846B0F9080000EE100AB8EE31
:1033B000C00A6748B83880ED010A22E09DF8050090
:1033C0009DF8041040EA012000EE100AB8EEC00A91
:1033D000614880ED050A9DF807009DF8061040EA57
:1033E000012001B25C480183B0F9180000EE100A18
:1033F000B8EEC00A5648B83800E003E080ED180A7D
:1034000000BF9EE0554884427ED101AB03AA002153
:10341000FFF727FC039810287DD004DC06283AD05B
:10342000092817D106E012287FD0A0F20520002835
:1034300010D110E09DF805009DF8041040EA01202D
:10344000474908709DF807009DF8061040EA0120E2
:103450004449087074E0444890ED010ABCEEC00A8B
:1034600010EE100A404908809DF805009DF80410F0
:1034700040EA012000B23C4908819DF807009DF810
:10348000061040EA012000EE100AB8EEC00A3648E5
:1034900080ED010A54E09DF80400344908709DF85D
:1034A00006009DF8051040EA012000B2304908806E
:1034B0009DF808009DF8071040EA012000B22D4950
:1034C00008809DF80A009DF8091040EA012000EEEE
:1034D000100AB8EEC00AF2EE040A80EE201A26485E
:1034E00080ED001A254890ED000A2348D0ED000A2F
:1034F000B4EE600AF1EE10FA0CD0012020490870F9
:103500001D4890ED000A02E01BE004E00DE01B48BE
:1035100080ED000A14E09DF805009DF8041040EAD3
:1035200001201849A1F8780000BF002005E001A99A
:10353000095C49B2144A1154401C0828F7DB00BF4B
:1035400000BF0AB010BD0000480E00204408002053
:10355000C41D0020000E0020100E00206C0800206A
:10356000D0000020D1000020F00D0020120000202B
:10357000080000200A000020140000201C00002089
:1035800020000020901C0020E401002070477047BC
:10359000704770B5044694F82000012805D0606A91
:1035A00040F400206062012070BD022084F82000F9
:1035B0002068016821F00101016000F025FB05464B
:1035C0002068406810F0010F12D000F01DFB401B76
:1035D0000A2808D9606A40F400306062052084F847
:1035E0002000012070BD2068406810F0010FECD170
:1035F0000020606270BD7047704770477047704729
:10360000704770472DE9F0410446A66D00F0FCFAC2
:10361000054694F835000027022806D08020606512
:1036200084F834700120BDE8F0812068016821F041
:10363000160101602068416921F080014161206C20
:1036400008B9A06C20B12068016821F00801016070
:103650002068016821F0010101602068006810F015
:10366000010F12D000F0D0FA401B052808D9202005
:103670006065032084F8350084F83470BDE8F0817B
:103680002068006810F0010FECD194F85C003F2135
:1036900001FA00F0B060012084F8350084F834703D
:1036A0000020BDE8F08190F83510022903D0802178
:1036B000416501207047052180F8351000680168D8
:1036C00021F0010101600020704700002DE9F8435E
:1036D00004464FF00008CDF8008076484FF41651AC
:1036E0000068B0FBF1F7A56D2E6894F85C00082126
:1036F00001FA00F0304211D02068026812F0040F85
:103700000CD0026822F00402026094F85C0001FA16
:1037100000F0A860606D40F00100606594F85C0006
:103720004FF0010909FA00F0304209D021684969D7
:1037300011F0800F04D0A860606D40F00200606559
:1037400094F85C1004208840304209D02168096850
:1037500011F0020F04D0A860606D40F004006065B5
:1037600094F85C1010208840304224D02168096809
:1037700011F0080F1FD0A8602068016811F4802F95
:103780000DD0006810F4002F04D0A16C99B1204630
:10379000884710E0216C71B1204688470BE0016832
:1037A00011F4807F03D1016821F008010160216CD0
:1037B00009B12046884794F85C10202088403042A8
:1037C00051D02168096811F0100F4CD0A86094F80E
:1037D000350005280DD02068016811F4802F32D003
:1037E000006810F4002F29D0E16B59B320468847B8
:1037F00039E02068016821F0160101602068416904
:1038000021F080014161206C08B9A06C20B12068D2
:10381000016821F00801016094F85C003F2101FA81
:1038200000F0A86084F8359084F83480216D002978
:103830003ED001B02046BDE8F0430847616C09B1B5
:10384000204688470FE0016811F4807F07D10168A6
:1038500021F01001016084F8359084F83480E16B28
:1038600009B120468847606D002821D0606D10F0B6
:10387000010F15D0052084F835002068016821F07B
:10388000010101600098401C0090B84204D82068F3
:10389000006810F0010FF5D184F8359084F8348079
:1038A000E16C002904D001B02046BDE8F043084790
:1038B000BDE8F883400700202DE9F041044600F000
:1038C000A3F90546DCB1022084F83500002684F80F
:1038D00034602068016821F00101016020680068FF
:1038E00010F0010F13D000F08FF9401B052809D903
:1038F00020206065032084F83500BDE8F0810120B8
:10390000BDE8F0812068006810F0010FEBD121685C
:103910000868234A1040A3686268D4F810C01A43AC
:10392000E36843EA0C031A4363691A43A3691A4321
:10393000E3691A43236A1A431043626A042A03D1D3
:10394000236BE26A1A43104308602068406920F044
:103950000701606A40EA0105012704280ED1A06A28
:103960000543E06A50B12046FEF772FB30B14020BB
:10397000606584F835700120BDE8F08120684561FC
:103980002046FEF74BFB94F85C103F2202FA01F14F
:103990008160666584F835700020BDE8F081000024
:1039A0003F8010F070B5044600F02EF90546B4F1E2
:1039B000FF3F02D004480078044400F025F9401B82
:1039C000A042FAD370BD0000340700207047000009
:1039D00010B504490A68024202D00860FFF7F6FFFA
:1039E00010BD0000143C01402DE9F84F0022DFF823
:1039F000FCA1DFF8F4914FF0010E03274FF00F0800
:103A0000AAF1040B0EFA02FC0B6803EA0C036345EF
:103A10007ED10C7904F00304012C01D0022C14D1C6
:103A20008568540007FA04F6B543CE6806FA04F434
:103A30002C438460446824EA0C0C0C79C4F3001411
:103A4000944044EA0C0CC0F804C0D1F804C037EA32
:103A50000C0C0CD0C4684FEA420C07FA0CF5AC43CE
:103A60008D6805FA0CFC4CEA040CC0F80CC091F807
:103A700004C00CF0030CBCF1020F12D14FEAD20CBF
:103A800000EB8C04256A4FEA427C4FEADC6C08FAB2
:103A90000CF6B5430E6906FA0CFC4CEA050CC4F8AA
:103AA00020C004684FEA420C07FA0CF5AC430D79CC
:103AB00005F0030505FA0CFC4CEA040CC0F800C044
:103AC000D1F804C01CF4403F6FD0D9F800C04CF4CA
:103AD000804CC9F800C0D9F800C00CF4804CCDF877
:103AE00000C022F0030C0CF1804505F59835D5F89F
:103AF00008C89407240F08FA04F62CEA0606A0F179
:103B0000804CBCF5003C56D0BCF5806C56D000E033
:103B10004BE0BCF5806C54D0BCF5806C54D0BCF547
:103B2000806C54D0BCF5806C54D0BCF5806C54D003
:103B3000BCF5806C54D04FF0080C0CFA04FC4CEA35
:103B4000060CC5F808C8DAF800C02CEA030C4C686B
:103B500014F4801F01D04CEA030CCAF800C0244CB6
:103B6000D4F800C02CEA030C4D6815F4001F01D0F6
:103B70004CEA030CC4F800C0DBF800C02CEA030CCC
:103B80004C6814F4003F01D04CEA030CCBF800C0A1
:103B9000184CD4F800C02CEA030C4D6815F4803F93
:103BA00001D04CEA030CC4F800C0521C102AFFF4E8
:103BB00029AFBDE8F88F4FF0000CBEE74FF0010CC5
:103BC000BBE74FF0020CB8E74FF0030CB5E74FF03E
:103BD000040CB2E74FF0050CAFE74FF0060CACE772
:103BE0004FF0070CA9E7000044380240083C0140B0
:103BF0000C3C0140003C0140002A01D0816170472B
:103C00000904816170470000014880687047000026
:103C10003407002070B50446002C04D094F83D0011
:103C2000002510B106E0012070BD84F83C5020460C
:103C300000F0C6F8242084F83D002068016821F0D7
:103C4000010101602068016841F4004101602068C1
:103C5000016821F40041016000F0CCFF544B616821
:103C6000994203D85349884203D304E05249884219
:103C700001D2012070BD5149B0FBF1F12268D2F8A8
:103C800004C02CF03F0C4CEA010CC2F804C062687E
:103C90009A4201D84A1C07E04FF4967251434FF400
:103CA0007A72B1FBF2F14A1C2168D1F820C02CF0E5
:103CB0003F0C42EA0C020A626168994210D849003E
:103CC000401EB0FBF1F2521CC2F30B02042A01D2D7
:103CD000042026E0B0FBF1F0401CC0F30B0020E014
:103CE000A268002A50D001EBC10303EB0113A0F13D
:103CF000010CBCFBF3F35B1C43F480431B051B0D61
:103D00004AD0002A4AD001EBC10202EB0111401E49
:103D1000B0FBF1F0401CC0F30B0040F4804040F4D5
:103D200000402168CA6922F0FF0222F44F4210438A
:103D3000C861216AE06901432068026822F0C0027C
:103D400011430160E168206901432068826822F024
:103D5000FF0222F4034211438160A16960690143BB
:103D60002068C26822F0FF021143C1602068016828
:103D700041F0010101602564202084F83D002563A5
:103D800084F83E50002070BD01EB4103A0F1010C0E
:103D9000BCFBF3F35B1CB1E70120C2E701EB41017F
:103DA000401EB0FBF1F0401CC0F30B00B7E7000071
:103DB000A086010080841E0000093D0040420F00E3
:103DC00010B586B00446142101A8FCF761FF2A490A
:103DD000206888424DD100BF00200090274800682D
:103DE00040F00400254908600846006800F004001F
:103DF000009000BF00BF00BF002000900846006890
:103E000040F0010008600846006800F001000090E2
:103E100000BF00BF481501901220029000200390BF
:103E2000032004900420059001A91548FFF7DCFD4C
:103E30004FF4807001901220029000200390032024
:103E400004900420059001A90E48FFF7CDFD00BFA6
:103E50000020009009481030006840F40000074935
:103E6000103108600846006800F40000009000BFB0
:103E700000BF06B010BD0000005C004030380240BA
:103E800000080240000002400248816802781144A4
:103E9000816070473407002010B50B48016841F479
:103EA00000710160016841F480610160016841F4C2
:103EB00080710160032000F099F8032000F006F8FB
:103EC00000F026F8002010BD003C024070B504460A
:103ED0000D4D4FF47A712878B1FBF0F00B49096869
:103EE000B1FBF0F001F032FB08B1012070BD102CE5
:103EF00007D200222146501E00F044F86C600020DA
:103F000070BD012070BD0000340700204007002074
:103F100008B500BF002000901248006840F48040BF
:103F2000104908600846006800F48040009000BF17
:103F300000BF00BF00200090081F006840F08050C4
:103F4000091F08600846006800F08050009000BF1C
:103F500000BF052000F04AF800220321481F00F0AE
:103F600011F808BD4438024000280ADB00F01F01A8
:103F7000012202FA01F14009800000F1E020C0F8BE
:103F80000011704710B4184B1B68C3F30223C3F130
:103F9000070CBCF1040F01D94FF0040C1C1D072CB9
:103FA00001D2002300E0DB1E012404FA0CFCACF17A
:103FB000010C0CEA0101994004FA03F35B1E1A405C
:103FC0001143002806DB00F1E020090180F800140D
:103FD00010BC704700F00F0000F1E020090180F8EC
:103FE000141D10BC704700000CED00E000F007004D
:103FF000064A11684FF6FF03194041EA002040F0DD
:10400000FD7040F080601060704700000CED00E033
:104010007047006841620020704730B40368586AF6
:1040200000291BD0D3F828C000EB1C4C002001292C
:10403000A1F101014FF4827408D004EB80055D59B1
:104040000CEB154C401CC0B28842F6D304EB810146
:104050004CEA0240585030BC0020704740EA024011
:104060009862F8E7D0F8E00407F032BC01EBC10237
:1040700000EB8202D0F8E004126A07F053BB01EBB8
:10408000C10200EB8202D0F8E004D2F8602207F00F
:10409000B7BBD0F8E00407F01DBC11F0800F01F0B1
:1040A0000F0101EBC10100EB810101D0143101E0EE
:1040B00001F51571006808F0BABB70B5044611F03F
:1040C000800F01F00F0000EBC00104EB81014FF005
:1040D00001024FF0000502D014314A7002E001F5F0
:1040E00015714D70087094F89404012808D084F874
:1040F0009424206808F080F884F89454002070BD5F
:10410000022070BD70B5044601F00F022079824292
:1041100001D9012070BD01F00F0000EBC00011F0CB
:10412000800F04EB80004FF001034FF0000503D037
:1041300000F114014B7002E000F515714D708D70A7
:104140000A7094F89404012808D084F89434206804
:1041500008F0CEF984F89454002070BD022070BDA0
:1041600001F00F0101EBC10100EB8100D0F8680202
:10417000704770B5044611F0800F01F00F0000EB9E
:10418000C00104EB81014FF0010C4FF0000503D09A
:10419000143181F801C002E001F515714D7008700D
:1041A0008A600B714A7802B14883022B00D14D71AD
:1041B00094F89404012808D084F894C4206807F087
:1041C00055FF284684F8945470BD022070BD10B588
:1041D00001F00F0C0CEBCC0100EB810101F5157126
:1041E000CA600B6100234B614B7081F800C083797A
:1041F000012B00D1CA618279006808F0D4F900204F
:1042000010BD70B504460D46217905F00F008842B7
:1042100001D9012070BD15F0800F4FF000064FF05E
:10422000010206D000EBC00104EB810114314A7099
:1042300006E005EBC50104EB810101F515714E7037
:104240008A70087094F89404012808D084F89424A3
:10425000206808F079F915F00F0F02D007E002206E
:1042600070BDA17904F29C42206808F011F984F82D
:104270009464002070BD10B501F00F0C0CEBCC0164
:1042800000EB81010A624B6200238B6201234B75B4
:1042900001F814CF8379012B00D1CA6182790068BB
:1042A00008F081F9002010BD2DE9F05F0446256873
:1042B000284608F078FB00287ED1206808F09FFB94
:1042C000002879D0D5F80808C0F30D20C4F8D4042C
:1042D000206808F094FB10F0020F04D020684169B8
:1042E00001F002014161206808F089FB10F0100F15
:1042F00036D02068816921F0100181612F6A07F0B2
:104300000F0000EBC00004EB800000F51576C7F34A
:104310004340022802D0062812D01CE047F6F07075
:10432000074218D0C7F30A1217462846F16808F06A
:104330006AFBF0683844F0607069384470610AE0E4
:10434000082204F29C41284608F05DFB7069C7F31F
:104350000A11084470612068816941F0100181618F
:10436000206808F04CFB10F4002F4FF0100B4FF0BA
:10437000000A4FF0010967D00026206808F01EFBF4
:1043800080465FEA08005FD018F0010F56D0F1B206
:10439000206808F02CFB074617F0010F07D005EB4B
:1043A0004610C0F8089B3146204605F0F9F817F092
:1043B000080F0AD0082000E01EE205EB4611C1F804
:1043C000080B3146204605F0C7F817F0100F03D050
:1043D00005EB4610C0F808BB17F0020F1DD0686946
:1043E00010F0800F05D0D5F8040840F48061C5F8BE
:1043F000041806EBC60004EB800000F51570C178C8
:10440000012905D180F803A0F1B2204600F001FA9D
:1044100005EB46110220C1F8080B17F0200F04D05D
:1044200005EB46112020C1F8080B17F4005F05D0FA
:1044300005EB46104FF40051C0F8081B761C4FEAFC
:104440005808B8F1000F9FD1206808F0D8FA10F48E
:10445000802F74D0206808F0AAFA07460026002FA3
:104460006DD04FF0020B17F0010F64D0F1B220684D
:1044700008F0ABFA804618F0010F24D006F00F00C8
:1044800009FA00F0D5F834188143C5F8341805EB63
:104490004610C0F80899A079012810D106EBC60093
:1044A00004EB8000C269016A114401623EB9606A8E
:1044B00028B904F29C420121206807F0E9FFF1B21B
:1044C0002046FFF7D3FD18F0080F04D005EB461186
:1044D0000820C1F8080918F0100F04D005EB4611A8
:1044E0001020C1F8080918F0400F04D005EB461160
:1044F0004020C1F8080918F0020F15D031462846AF
:1045000008F01AFA06EBC60004EB80001430C178FC
:10451000012905D180F803A0F1B2204600F075F919
:1045200005EB4610C0F808B918F0800F03D03146EB
:10453000204605F0A9F8761C7F08002F93D120684B
:1045400008F05DFA10F0004F11D0D5F8040820F003
:104550000101C5F8041894F8CC04012861D0204664
:1045600000F027FA2068416901F0004141612068AC
:1045700008F045FA10F4006F0CD0D5F8080810F0D8
:10458000010F02D0204600F059FA2068416901F479
:1045900000614161206808F032FA10F4805F65D054
:1045A000D5F8040820F00101C5F80418102120688E
:1045B00008F0C2F90021207900281DD94FF67F327A
:1045C00005EB4110C0F80829D0F8003923F4001396
:1045D000C0F80039C0F8082BD0F8003B23F40013D2
:1045E000C0F8003BD0F8003B43F00063C0F8003B4C
:1045F000491C20798842E3D8D5F81C0840F0011105
:10460000C5F81C18E07B98B1D5F8840840F00B0180
:10461000C5F88418D5F8440840F00B01C5F84418D3
:1046200013E084F8CCA400212046FFF7F1FC99E7C1
:10463000D5F8140842F22B010143C5F81418D5F837
:10464000100840F00B01C5F81018D5F8000820F448
:10465000FE61C5F80018A17904F29C42206807F0B9
:1046600017FF2068416901F480514161206808F01A
:10467000C6F910F4005F16D0206807F045FD2068E9
:1046800008F081F9E07100F0AFFA23680146E279A1
:10469000184608F025FA204600F074F920684169B0
:1046A00001F400514161206808F0A9F910F0080FE9
:1046B00007D0204600F081F92068416901F0080127
:1046C0004161206808F09BF910F0800F17D0A869AD
:1046D00020F08001A9610126207901280FD906EB7D
:1046E000C60004EB800090F85702012803D1F1B214
:1046F0002046FFF7D2FC761C2079B042EFD8206824
:1047000008F07DF910F4801F22D0012620790128BD
:1047100019D905EB4610D0F8001906EBC60004EBDA
:104720008000027E012A0AD111F0004F07D080F8E4
:104730001790F0B240F080012046FFF7AEFC761CE7
:104740002079B042E5D82068416901F480114161C7
:10475000206808F054F910F4001F2DD001202179B1
:10476000012924D905EB4011D1F8001B00EBC00250
:1047700004EB820292F85832012B14D111F0004F51
:1047800011D094F8D43401F4803103F0010399423C
:1047900009D182F85792A96941F08002AA6169693A
:1047A00011F0800F2AD0401C21798142DAD820688C
:1047B000416901F400114161206808F020F910F00E
:1047C000804F07D02046FFF74DFC2068416901F07B
:1047D00080414161206808F012F910F0040F0BD0FD
:1047E0002068456815F0040F02D02046FFF751FC01
:1047F0002068416829434160BDE8F09FD5F804086E
:1048000040F40070C5F80408D1E7D0F8E00407F0E0
:10481000B5B8D0F8E00407F0C6B8F8B50446002CE7
:1048200005D0266894F89504002510B106E0012013
:10483000F8BD84F89454204600F062F8032084F810
:104840009504B6F1A04F00D1A571206807F01AFEBB
:10485000207C8DF8000094E80F0007F063FC02262E
:1048600018B184F895640120F8BD0021206808F093
:10487000EEF818B184F895640120F8BD0021207984
:10488000012700280FD901EBC10004EB8000477518
:104890000175C1850576C56105624562481CC1B2D6
:1048A00020798842EFD800212079002814D901EB23
:1048B000C10004EB800080F8555280F8541280F853
:1048C0005852C0F85C52C0F86052C0F86452481C9C
:1048D000C1B220798842EAD8207C8DF8000094E8A3
:1048E0000F0007F013FD18B184F895640120F8BD9E
:1048F000657484F89574206807F0FAFC0020F8BD10
:1049000000B587B0002102910391049105910691B1
:104910000068B0F1A04F2BD11648016841F00101A9
:104920000160006800F0010001904FF4C050029057
:1049300002200390032005900A20069002A90E4849
:10494000FFF752F80D48016841F0800101600C4802
:10495000016841F480410160006800F480400190EA
:10496000002201214320FFF70DFB4320FFF7FCFA53
:1049700007B000BD30380240000002403438024029
:104980004438024070B504460125E07900280ED075
:10499000022801D0FDF780FD2946D4F8E00407F095
:1049A00073F8D4F8E004BDE8704007F026B800259D
:1049B000F2E7D0F8E00407F050B8D0F8E00407F0D0
:1049C00056B810B5044694F8940401280AD0012082
:1049D00084F894046174206808F069F8002084F871
:1049E000940410BD022010BDD0F8E02400F29C41D8
:1049F000104607F055B810B50446206894F8941492
:104A000001290AD0012184F89414C16811F0400FE3
:104A100009D0617B012902D005E0022010BD816B25
:104A200041F480318163206807F05BFF206807F064
:104A300051FC002084F8940410BD000010B5044619
:104A4000D4F8E00407F070F82068D0F8001E41F0B8
:104A50000101C0F8001EE07A002804D00248016875
:104A600041F00601016010BD10ED00E02DE9F047B6
:104A700004460D46002C13D0DFF85491D9F80000FD
:104A8000EFB200F00700A8420DD289F80070D9F803
:104A9000000000F00700A84205D00120BDE8F08723
:104AA0000120BDE8F08720684A4E10F0020F14D0B4
:104AB00010F0040F03D0306840F4E05030602078EC
:104AC00010F0080F03D0306840F460403060306868
:104AD000A16820F0F00008433060207810F0010F4A
:104AE0003ED060683C49012808D002280DD0032838
:104AF0000BD0096811F0020F28D00AE0096811F400
:104B0000003F06D10120BDE8F087096811F0007F61
:104B100019D0316821F0030108433060FFF774F8C1
:104B200080463068616800F00C00B0EB810F17D050
:104B300041F2883AFFF768F8A0EB0800504508D921
:104B40000320BDE8F0870120BDE8F0870120BDE823
:104B5000F0873068616800F00C00B0EB810FE9D19C
:104B6000D9F8000000F00700A8420AD989F80070BF
:104B7000D9F8000000F00700A84202D00120BDE8EB
:104B8000F087207810F0040F05D03068E16820F439
:104B9000E05008433060207810F0080F06D03068ED
:104BA000216920F4604040EAC100306000F042F822
:104BB00031680A4AC1F30311515CC84008490860D2
:104BC00008480068FFF782F90020BDE8F087000080
:104BD000003C02400838024000380240E429010845
:104BE0004007002038070020014800687047000097
:104BF0004007002000B5FFF7F7FF04490968044AA1
:104C0000C1F38221515CC84000BD00000838024059
:104C1000F429010800B5FFF7E7FF04490968044AD1
:104C2000C1F34231515CC84000BD00000838024069
:104C3000F429010810B51748006810F00C01164857
:104C400016D0164B042912D0082911D1144C216812
:104C500001F03F02216811F4800F0AD02068C0F3F0
:104C60008810A0FB03010023FBF7C8FF09E01846EA
:104C700010BD21680023C1F38811A1FB0001FBF7DF
:104C8000BDFF2168C1F30141491C4900B0FBF1F0AF
:104C900010BD0000083802400024F400001BB700DB
:104CA000043802402DE9F84F0446002C12D0207839
:104CB000FB4E10F0010FA6F1040563D0301D016812
:104CC00001F00C0104290CD0006800F00C00082849
:104CD00003D010E00120BDE8F88F306810F4800F99
:104CE00009D0286810F4003F4CD06068002849D1F2
:104CF0000120BDE8F88F6068B0F5803F14D0B0F5B2
:104D0000A02F16D0286820F480302860286820F46E
:104D100080202860606810B3FEF776FF0746286899
:104D200010F4003F0ED02DE0286840F48030286059
:104D3000F0E7286840F480202860286840F480303C
:104D40002860E7E7FEF760FFC01B642802D9032054
:104D5000BDE8F88F286810F4003FF3D012E0FEF7AA
:104D600053FF0746286810F4003F0BD0FEF74CFFB6
:104D7000C01B642802D90320BDE8F88F286810F40E
:104D8000003FF3D12078C74F10F0020F4FF0000919
:104D900057D0C548016811F00C0F14D0006800F01E
:104DA0000C00082803D1306810F4800F0BD0E068A5
:104DB00080B301203860FEF727FF8046286810F096
:104DC000020F12D01EE0286810F0020F05D0E06834
:104DD000012802D00120BDE8F88F2868216920F061
:104DE000F80040EAC10028602BE0FEF70DFFA0EBC1
:104DF0000800022802D90320BDE8F88F286810F0C7
:104E0000020FF2D02868216920F0F80040EAC100C2
:104E1000286016E0FFE7C7F80090FEF7F5FE804631
:104E2000286810F0020F0CD0FEF7EEFEA0EB080091
:104E3000022802D90320BDE8F88F286810F0020F7D
:104E4000F2D1207810F0080F35D09848DFF860A232
:104E50006169C1B101210160FEF7D6FE8046DAF832
:104E6000000010F0020F26D1FEF7CEFEA0EB0800E6
:104E7000022802D90320BDE8F88FDAF8000010F00C
:104E8000020FF1D017E0C0F80090FEF7BDFE80469B
:104E9000DAF8000010F0020F0DD0FEF7B5FEA0EB1F
:104EA0000800022802D90320BDE8F88FDAF80000D4
:104EB00010F0020FF1D1207810F0040F71D04FF0F4
:104EC00000087C48006810F0805F0AD179480168CA
:104ED00041F080510160006800F0805000904FF078
:104EE0000108DFF8D4B1DBF8000010F4807F1BD19B
:104EF000DBF8000040F48070CBF80000FEF784FE81
:104F00008246DBF8000010F4807F0DD1FEF77CFEB6
:104F1000A0EB0A00022802D90320BDE8F88FDBF8D5
:104F2000000010F4807FF1D0A068DFF890B1012874
:104F300018D005281DD0DBF8000020F00100CBF8C8
:104F40000000DBF8000020F00400CBF80000A068AF
:104F500040B3FEF759FE8246DBF8000010F0020F66
:104F600014D03EE0DBF8000040F00100CBF8000078
:104F7000EDE7DBF8000040F00400CBF80000DBF8C0
:104F8000000040F00100CBF80000E0E7FEF73CFE37
:104F9000A0EB0A0141F28830814204D90320BDE828
:104FA000F88F26E005E0DBF8000010F0020FEDD0EE
:104FB00017E0FEF729FE8246DBF8000010F0020F32
:104FC0000FD0FEF721FEA0EB0A0141F288308142AA
:104FD00002D90320BDE8F88FDBF8000010F0020FC3
:104FE000EFD1B8F1010F04D13248016821F08051AE
:104FF0000160A069F0B32C4909684FF0FF3801F057
:105000000C01082966D0022810D0C7F86090FEF77E
:10501000FBFD0446286810F0007F2BD0FEF7F4FD5E
:10502000001B022851D90320BDE8F88FC7F8609013
:10503000FEF7EAFD8146286810F0007F0CD0FEF7ED
:10504000E3FDA0EB0900022802D90320BDE8F88F98
:10505000286810F0007FF2D1216AE069A26A084353
:10506000616A08EB5202890141EA0241084394F85F
:105070002C1000E055E040EA016030600120386605
:10508000FEF7C2FD0446286810F0007F49D1FEF704
:10509000BBFD001B022813D90320BDE8F88F0000D8
:1050A000043802400000474208380240800E474260
:1050B00074380240403802400070004070380240AE
:1050C000286810F0007FE2D02BE0286810F0007F05
:1050D000A4D126E0012822D03068E26900F48001E2
:1050E00091421AD1226A00F03F01914215D147F650
:1050F000C071626A0140B1EB821F0ED1A26A00F456
:10510000403108EB5202B1EB024F06D194F82C105B
:1051100000F07060B0EB016F03D00120BDE701200B
:10512000BBE70020B9E770B50446002C09D0606ADF
:10513000002540B125616561A56294F8510040B138
:105140000CE0012070BD6068B0F5827FF4D0E561AD
:10515000F2E784F85050204600F044F8022084F82A
:1051600051002068016821F040010160A088218978
:1051700000F4827001F404410843A18901F4006144
:105180000843217C01F002010843217D01F0010167
:105190000843218B01F400710843217F01F038019D
:1051A000084394F8201001F080010843218D01F498
:1051B0000051084321680860A169042000EA1140F9
:1051C00094F8241001F01001014320684160206828
:1051D000C16921F40061C1616565012084F8510055
:1051E000002070BD10B586B00446142101A8FBF75D
:1051F0004FFD4B49206888427ED100BF00200090BF
:105200004848006840F480504649086008460068F5
:1052100000F48050009000BF00BF00BF002000904D
:1052200040481438006840F002003E4914390860D4
:105230000846006800F00200009000BF00BF00BFF9
:10524000002000900846006840F001000860084611
:10525000006800F00100009000BF00BF182001901E
:105260000220029001200390032004900520059065
:1052700001A92D48FEF7B8FB802001900220029082
:1052800001200390032004900520059001A92748E0
:10529000FEF7AAFB2648274908604FF0C060486027
:1052A000002124488160C1604FF4806101610021C8
:1052B00041618161C1614FF440310162002141626D
:1052C000FEF7FAFA08B1FDF7E7F800BF1948E06405
:1052D000846300BF16481830174908604FF0C0605B
:1052E00048604021144881600021C1604FF4806112
:1052F00001610021416100E010E08161C1614FF472
:105300000031016200214162FEF7D6FA08B1FDF7D3
:10531000C3F800BF0848A064846300BF06B010BD96
:1053200000300140443802400004024000000240C6
:105330004064024040090020A00900202DE9F84FF8
:1053400004460A9E8A46934698460125002794F80B
:10535000500001280ED0012084F85000FEF754FCC4
:10536000814694F85100616801280DD0B1F5827F23
:1053700007D102E00220BDE8F88FA16809B904282E
:1053800002D0022700F0DBB8BAF1000F22D0BBF147
:10539000000F1FD05FEA08001CD094F851000428C9
:1053A00002D0052084F8510000206065C4F838B0B0
:1053B000A4F83E80A4F83C80C4F830A0A4F836805D
:1053C000A4F83480206460642068016811F0400F04
:1053D00002D005E00127B2E0016841F04001016020
:1053E000E068B0F5006F06D0606800284CD0B8F1D6
:1053F000010F49D081E0606810B1B8F1010F3CD1D4
:10540000206B21680088C860206B801C2063E08EC0
:10541000401EE08631E02068816811F0020F0DD057
:10542000E18E59B1012D09D1216B0988C160206B32
:10543000801C2063E08E401EE08600252068816885
:1054400011F0010F0BD0E18F49B1C068A16B08804A
:10545000A06B801CA063E08F401EE0870125FEF753
:10546000D3FBA0EB0900B04207D3B6F1FF3F04D055
:105470000327012084F8510061E0E08E0028CAD1A2
:10548000E08F0028C7D13EE0206B216800780873C8
:10549000206B401C2063E08E401EE0862DE02068DB
:1054A000816811F0020F0DD0E18E59B1012D09D1A3
:1054B000216B09780173206B401C2063E08E401E35
:1054C000E08600252068816811F0010F0BD0E18F84
:1054D00049B1C068A16B0870A06B401CA063E08F4D
:1054E000401EE0870125FEF78FFBA0EB0900B042CC
:1054F00002D3B6F1FF3F10D17EB1E08E0028CED1AD
:10550000E08F0028CBD14A463146204604F094FD76
:1055100040B101272020606511E00327012084F8B5
:1055200051000CE0A06818B92068C168806800903C
:10553000606D08B1012702E0012084F851000020CD
:1055400084F850003846BDE8F88F0000401EB0F1E6
:10555000807F01D3012070474FF0E0214861044A69
:10556000F02010700020886107200861002070473B
:1055700023ED00E07047704790F83C20012A2CD0C2
:10558000012280F83C20CA680023D1F808C022F428
:10559000407242EA0C02D1F804C022F4806242EA6E
:1055A0000C02D1F800C022F4006242EA0C02D1F8E9
:1055B00010C022F4805242EA0C02D1F814C022F446
:1055C000005242EA0C02C96922F480421143026887
:1055D000516480F83C30002070470220704730B49E
:1055E00090F83C20012A38D0012480F83C40022267
:1055F00080F83D200268D2F804C093682CF0700C4B
:105600000D6845EA0C0CC2F804C00268A2F1804C97
:10561000BCF5803C14D0B2F1804F11D01CF57C4C0D
:105620000ED0BCF5806C0BD0BCF5806C08D0BCF5FE
:10563000784C05D0BCF5705C02D01CF5943C04D1CC
:1056400023F0800349681943916080F83D400021B0
:1056500080F83C1030BC0020704730BC02207047FE
:1056600010B50446002C03D094F83D0010B107E0BB
:10567000012010BD002084F83C00204600F01EF8F8
:10568000022084F83D00211D206804F037FE01202F
:1056900084F8460084F83E0084F83F0084F8400017
:1056A00084F8410084F8420084F8430084F8440000
:1056B00084F8450084F83D00002010BD38B504464C
:1056C0005749206888420FD100BF002000905548FC
:1056D000006840F00100534908600846006800F087
:1056E0000100009000BF9AE04F49206888421AD11B
:1056F00000BF002000904B48001F006840F00200EF
:105700004849091F08600846006800F00200009040
:1057100000BF00BF002201211D20FEF733FC1D2029
:10572000FEF722FC7BE04149206888421AD100BF85
:10573000002000903B48001F006840F004003949F9
:10574000091F08600846006800F00400009000BFD0
:1057500000BF002203211E20FEF714FC1E20FEF7CE
:1057600003FC5CE03249206888421AD100BF002067
:1057700000902C48001F006840F008002949091FCC
:1057800008600846006800F00800009000BF00BFF5
:10579000002211463220FEF7F5FB3220FEF7E4FB33
:1057A0003DE024492068884211D100BF00200090CC
:1057B0001C48001F006840F010001A49091F0860CB
:1057C0000846006800F01000009000BF27E01A496A
:1057D000206888420FD100BF002000901148006867
:1057E00040F002000F4908600846006800F002001F
:1057F000009000BF13E01149206888420FD100BF1C
:10580000002000900748006840F400300549086017
:105810000846006800F40030009000BF00BF38BDAB
:1058200000000140443802400004004000080040ED
:10583000000C004000100040000401400044014002
:1058400090F83D10012901D001207047022180F815
:105850003D100068A0F18041B1F580311AD0B0F15F
:10586000804F17D011F57C4114D0B1F5806111D073
:10587000B1F580610ED0B1F578410BD0B1F5705122
:1058800008D011F5943105D0016841F001010160A3
:1058900000207047816801F007010629F8D00168EF
:1058A00041F001010160F3E790F83D10012901D0BA
:1058B00001207047022180F83D100168CA6842F05B
:1058C0000102CA600068A0F18041B1F580311AD0B0
:1058D000B0F1804F17D011F57C4114D0B1F5806143
:1058E00011D0B1F580610ED0B1F578410BD0B1F592
:1058F000705108D011F5943105D0016841F00101D3
:10590000016000207047816801F007010629F8D086
:10591000016841F001010160F3E770B5044600251C
:1059200094F83C00012818D0012684F83C6002203D
:1059300084F83D002068826822F0770222F47F42DA
:1059400082600868502839D00EDC202854D006DC4C
:10595000002851D0102811D14EE0022070BD30280F
:105960004AD040280AD13DE0602831D070280DD0BF
:10597000B0F5805F03D0B0F5005F13D0012584F847
:105980003D60002084F83C00284670BDCB684A6822
:105990008968206804F029FD2068816841F077015A
:1059A0008160ECE7CB684A688968206804F01DFDD7
:1059B0002068816841F480418160E0E7CA684968F5
:1059C000206804F01CFE5021206804F019FDD6E781
:1059D000CA684968206804F025FE6021206804F048
:1059E0000FFDCCE7CA684968206804F008FE402132
:1059F000206804F005FDC2E722680146104604F065
:105A0000FFFCBCE770472DE9F04104462068C568FB
:105A100006694FF0000716F0020F16D015F0020FBE
:105A200013D0F91E0161012020772068806910F0F1
:105A3000030F03D02046FFF7E5FF05E0204600F006
:105A400037F9204600F0D0F9277716F0040F18D068
:105A500015F0040F15D021686FF0040008610220D2
:105A600020772068806910F4407F03D02046FFF73C
:105A7000C9FF05E0204600F01BF9204600F0B4F90C
:105A8000277716F0080F18D015F0080F15D02168E9
:105A90006FF008000861042020772068C06910F0CA
:105AA000030F03D02046FFF7ADFF05E0204600F0CE
:105AB000FFF8204600F098F9277716F0100F18D05D
:105AC00015F0100F15D021686FF010000861082044
:105AD00020772068C06910F4407F03D02046FFF78C
